{
  "address": "0x85FbaEDDC84a4AfC299418780a8A31C7647e42a3",
  "abi": [
    {
      "inputs": [
        {
          "internalType": "address[]",
          "name": "inputTokens",
          "type": "address[]"
        },
        {
          "internalType": "uint256[]",
          "name": "inputTokenAmounts",
          "type": "uint256[]"
        },
        {
          "components": [
            {
              "internalType": "address",
              "name": "pool",
              "type": "address"
            },
            {
              "internalType": "address",
              "name": "manager",
              "type": "address"
            },
            {
              "internalType": "uint256",
              "name": "tokenId",
              "type": "uint256"
            },
            {
              "internalType": "uint256",
              "name": "liquidity",
              "type": "uint256"
            },
            {
              "internalType": "bytes",
              "name": "data",
              "type": "bytes"
            }
          ],
          "internalType": "struct Asset[]",
          "name": "inputNFTs",
          "type": "tuple[]"
        }
      ],
      "name": "breakAssets",
      "outputs": [
        {
          "internalType": "address[]",
          "name": "",
          "type": "address[]"
        },
        {
          "internalType": "uint256[]",
          "name": "",
          "type": "uint256[]"
        }
      ],
      "stateMutability": "payable",
      "type": "function"
    },
    {
      "inputs": [
        {
          "internalType": "address[]",
          "name": "inputTokens",
          "type": "address[]"
        },
        {
          "internalType": "uint256[]",
          "name": "inputTokenAmounts",
          "type": "uint256[]"
        },
        {
          "components": [
            {
              "internalType": "address",
              "name": "pool",
              "type": "address"
            },
            {
              "internalType": "address",
              "name": "manager",
              "type": "address"
            },
            {
              "internalType": "uint256",
              "name": "tokenId",
              "type": "uint256"
            },
            {
              "internalType": "uint256",
              "name": "liquidity",
              "type": "uint256"
            },
            {
              "internalType": "bytes",
              "name": "data",
              "type": "bytes"
            }
          ],
          "internalType": "struct Asset[]",
          "name": "inputNFTs",
          "type": "tuple[]"
        }
      ],
      "name": "collectAndBreak",
      "outputs": [
        {
          "internalType": "address[]",
          "name": "",
          "type": "address[]"
        },
        {
          "internalType": "uint256[]",
          "name": "",
          "type": "uint256[]"
        }
      ],
      "stateMutability": "payable",
      "type": "function"
    },
    {
      "inputs": [
        {
          "components": [
            {
              "internalType": "address[]",
              "name": "tokens",
              "type": "address[]"
            },
            {
              "internalType": "uint256[]",
              "name": "amounts",
              "type": "uint256[]"
            },
            {
              "components": [
                {
                  "internalType": "address",
                  "name": "pool",
                  "type": "address"
                },
                {
                  "internalType": "address",
                  "name": "manager",
                  "type": "address"
                },
                {
                  "internalType": "uint256",
                  "name": "tokenId",
                  "type": "uint256"
                },
                {
                  "internalType": "uint256",
                  "name": "liquidity",
                  "type": "uint256"
                },
                {
                  "internalType": "bytes",
                  "name": "data",
                  "type": "bytes"
                }
              ],
              "internalType": "struct Asset[]",
              "name": "nfts",
              "type": "tuple[]"
            }
          ],
          "internalType": "struct Provided",
          "name": "provided",
          "type": "tuple"
        },
        {
          "components": [
            {
              "internalType": "uint256",
              "name": "amountIn",
              "type": "uint256"
            },
            {
              "internalType": "uint256",
              "name": "valueIn",
              "type": "uint256"
            },
            {
              "internalType": "uint256",
              "name": "amountOut",
              "type": "uint256"
            },
            {
              "internalType": "uint256",
              "name": "valueOut",
              "type": "uint256"
            },
            {
              "internalType": "int256",
              "name": "slippage",
              "type": "int256"
            },
            {
              "internalType": "address",
              "name": "tokenIn",
              "type": "address"
            },
            {
              "internalType": "address[]",
              "name": "swappers",
              "type": "address[]"
            },
            {
              "internalType": "address",
              "name": "tokenOut",
              "type": "address"
            },
            {
              "internalType": "address[][]",
              "name": "paths",
              "type": "address[][]"
            }
          ],
          "internalType": "struct SwapPoint[]",
          "name": "swaps",
          "type": "tuple[]"
        },
        {
          "components": [
            {
              "components": [
                {
                  "internalType": "address",
                  "name": "pool",
                  "type": "address"
                },
                {
                  "internalType": "address",
                  "name": "manager",
                  "type": "address"
                },
                {
                  "internalType": "uint256",
                  "name": "tokenId",
                  "type": "uint256"
                },
                {
                  "internalType": "uint256",
                  "name": "liquidity",
                  "type": "uint256"
                },
                {
                  "internalType": "bytes",
                  "name": "data",
                  "type": "bytes"
                }
              ],
              "internalType": "struct Asset",
              "name": "desiredERC721",
              "type": "tuple"
            },
            {
              "internalType": "address",
              "name": "desiredERC20",
              "type": "address"
            },
            {
              "internalType": "uint256",
              "name": "value",
              "type": "uint256"
            },
            {
              "internalType": "address[]",
              "name": "underlying",
              "type": "address[]"
            },
            {
              "internalType": "uint256[]",
              "name": "underlyingValues",
              "type": "uint256[]"
            }
          ],
          "internalType": "struct Conversion[]",
          "name": "conversions",
          "type": "tuple[]"
        },
        {
          "components": [
            {
              "internalType": "address[]",
              "name": "outputERC20s",
              "type": "address[]"
            },
            {
              "components": [
                {
                  "internalType": "address",
                  "name": "pool",
                  "type": "address"
                },
                {
                  "internalType": "address",
                  "name": "manager",
                  "type": "address"
                },
                {
                  "internalType": "uint256",
                  "name": "tokenId",
                  "type": "uint256"
                },
                {
                  "internalType": "uint256",
                  "name": "liquidity",
                  "type": "uint256"
                },
                {
                  "internalType": "bytes",
                  "name": "data",
                  "type": "bytes"
                }
              ],
              "internalType": "struct Asset[]",
              "name": "outputERC721s",
              "type": "tuple[]"
            },
            {
              "internalType": "uint256[]",
              "name": "ratios",
              "type": "uint256[]"
            },
            {
              "internalType": "uint256[]",
              "name": "minAmountsOut",
              "type": "uint256[]"
            }
          ],
          "internalType": "struct Desired",
          "name": "desired",
          "type": "tuple"
        },
        {
          "internalType": "address",
          "name": "receiver",
          "type": "address"
        }
      ],
      "name": "swap",
      "outputs": [
        {
          "internalType": "uint256[]",
          "name": "",
          "type": "uint256[]"
        }
      ],
      "stateMutability": "payable",
      "type": "function"
    }
  ],
  "transactionHash": "0x35d0ee6fd2f89fb34fff62fe0dc32491514386cfc1deb094b5acf914ac05b31d",
  "args": [],
  "numDeployments": 2,
  "solcInputHash": "e9756fa81af51ce0c644a745fd0b9cad",
  "bytecode": "0x6080806040523461001657612f40908161001c8239f35b600080fdfe60a0604052600436101561001257600080fd5b60003560e01c8063a93148f31461101e578063bcf3700114610ffc5763cc62c8521461003d57600080fd5b60a036600319011261046d576004356001600160401b03811161046d576060600319823603011261046d5760405190606082018281106001600160401b03821117610db25760405280600401356001600160401b03811161046d576100a89060043691840101611206565b825260248101356001600160401b03811161046d576100cd906004369184010161126c565b60208301526044810135906001600160401b03821161046d5760046100f59236920101611397565b60408201526001600160401b036024351161046d5736602360243501121561046d576024356004013590610128826111db565b9161013660405193846111ba565b80835260208301903660248260051b813501011161046d576024803501915b60248260051b813501018310610e97575050506001600160401b036044351161046d5736602360443501121561046d57610194604435600401356111db565b6101a160405191826111ba565b604435600401358152602081013660246044356004013560051b60443501011161046d57602460443501905b60246044356004013560051b60443501018210610dc85750506001600160401b036064351161046d5760806064353603600319011261046d576040518060808101106001600160401b03608083011117610db25760808101604052606435600401356001600160401b03811161046d5761024f90600436916064350101611206565b8152602460643501356001600160401b03811161046d5761027890600436916064350101611397565b6020820152604460643501356001600160401b03811161046d576102a49060043691606435010161126c565b60408201526064803501356001600160401b03811161046d576102cf9060043691606435010161126c565b60608201526084356001600160a01b038116900361046d57839180945115908115610da8575b506108a0575b82515115610877579160208151910151926103168351612289565b936103218451612289565b916000935b85518510156104bc57670de0b6b3a7640000610378610345878961153d565b515161037161036b6001600160a01b0360a06103618c8e61153d565b5101511686612bb7565b8761153d565b51906125ee565b04926000935b60c061038a888a61153d565b510151518510156104725761044c908890889061043e906103d08960c06103c0866001600160a01b036103c8858585858e61153d565b51015161153d565b51169861153d565b508b6103fc8a60c06103c06103ec836101006103c08b8961153d565b51976001600160a01b039561153d565b511661042a60405194859363290040f560e21b60208601526024850152606060448501526084840190611475565b90606483015203601f1981018352826111ba565b6104466120f5565b9161217e565b60208180518101031261046d5760206104679101519461150b565b9361037e565b600080fd5b9498929591949093506104b391906001600160a01b0360e0610494848b61153d565b510151166104a2838b61153d565b526104ad828b61153d565b5261150b565b93909692610326565b87826104c8868a612c43565b82519160608401516104da8651612289565b6000906000905b8851821015610814576001600160a01b0360206104fe848c61153d565b51510151161561074c57610512828a61153d565b519687519460018060a01b03602087015116996040519a6321027dc560e01b8c5260048c015260208b602481305afa9a8b156107405760009b610704575b506001600160a01b038b16156106d65761056e60608b015151612289565b9b60005b60608c015180518210156105fb57908c8f826104ad918f8f670de0b6b3a76400006105d46105ba6105f0936105f69b6105b28960018060a01b039261153d565b511690612bb7565b976103718760806105cb8c8961153d565b5193015161153d565b04956105ea876105e4838661153d565b51612249565b9261153d565b5261153d565b610572565b50509661043e906106626106849598969e6060610640959f96999e015190610653604051968795630778989760e21b60208801526080602488015260a48701906115ba565b6023199384878303016044880152611475565b918483030160648501526114b2565b608480356001600160a01b031690830152601f199190039081018352826111ba565b60208180518101031261046d576020015161069f828b61153d565b52600181018091116106c0576106b5909661150b565b9092979591956104e1565b634e487b7160e01b600052601160045260246000fd5b60405162461bcd60e51b8152602060048201526002602482015261155560f21b6044820152606490fd5b0390fd5b909a506020813d602011610738575b81610720602093836111ba565b8101031261046d576107319061155e565b998c610550565b3d9150610713565b6040513d6000823e3d90fd5b97929061076a8686608499959935610764858961153d565b51612656565b61078b6001600160a01b036020610781858961153d565b5101511685612bfb565b806107fc575b6107a0575b506106b59061150b565b806107ae898c9a949a61153d565b526107b9828461153d565b51116107d357600181018091116106c057956106b5610796565b60405162461bcd60e51b81526020600482015260016024820152603360f81b6044820152606490fd5b506060610809838761153d565b510151511515610791565b8790610824602083015151612289565b60005b815181101561085d576108589060018060a01b03602061084a838289015161153d565b510151166104ad828561153d565b610827565b60405160208082528190610873908201866114b2565b0390f35b60405162461bcd60e51b81526020600482015260016024820152600d60fa1b6044820152606490fd5b92505060405191634f92a1a560e01b835260406004840152600083806109666109096108d887516060604486015260a4850190611475565b6108f460208901519160431992838783030160648801526114b2565b90604089015190858303016084860152612601565b60031983820301602484015261095261094061092e8851608085526080850190611475565b60208901518482036020860152612601565b604088015183820360408501526114b2565b9060608701519060608184039101526114b2565b0381305afa801561074057600093600091610984575b5092906102fb565b9350503d806080526000843e61099c608051846111ba565b608051830160408482031261046d578351906001600160401b03821161046d57601f82860101121561046d57808401516109d5816111db565b916109e360405193846111ba565b8183526020830190608051870160208460051b838a0101011161046d57602081880101915b60208460051b838a0101018310610c2c575050505060208401516001600160401b03811161046d576080518501601f82870101121561046d5780850151610a4e816111db565b95610a5c60405197886111ba565b8187526020870192608051820160208460051b83850101011161046d57602081830101935b60208460051b83850101018510610a9e575050505050923861097c565b84516001600160401b03811161046d578284010190601f199160a08382608051880103011261046d5760405192610ad48461118c565b60208201516001600160401b03811161046d5760a09083019182608051890103011261046d5760405190610b078261118c565b610b136020820161155e565b8252610b216040820161155e565b6020830152606081015160408301526080810151606083015260a0810151906001600160401b03821161046d57016080518701603f8201121561046d57602081015190610b6d826112ca565b91610b7b60405193846111ba565b80835260805189016040828401011161046d57610b9f916040602085019101611572565b60808201528352610bb26040820161155e565b60208401526060810151604084015260808101516001600160401b03811161046d57610be89060206080518801918401016115fe565b606084015260a0810151916001600160401b03831161046d57602093610c1a8594938580956080518b01920101611664565b60808201528152019501949050610a81565b82516001600160401b03811161046d57828901016101209081601f19826080518d0103011261046d5760405191610c6283611170565b6020820151835260408201516020840152606082015160408401526080820151606084015260a0820151608084015260c0610c9e81840161155e565b60a085015260e08301516001600160401b03811161046d57610cca9060208e60805101918601016115fe565b90840152610cdb610100830161155e565b60e0840152810151906001600160401b03821161046d576080518b01603f83830101121561046d576020828201015190610d14826111db565b92610d2260405194856111ba565b82845260208401908d6080510160408560051b83860101011161046d57604081840101915b60408560051b83860101018310610d71575050505050610100820152815260209283019201610a08565b82516001600160401b03811161046d578f91610d9d60209392604085946080510191878a0101016115fe565b815201920191610d47565b90505115386102f5565b634e487b7160e01b600052604160045260246000fd5b81356001600160401b03811161046d576044350160a0602319823603011261046d5760405191610df78361118c565b60248201356001600160401b03811161046d57610e1a90602436918501016112e5565b8352610e28604483016111f2565b60208401526064820135604084015260848201356001600160401b03811161046d57610e5a9060243691850101611206565b606084015260a4820135926001600160401b03841161046d57610e8760209493602486953692010161126c565b60808201528152019101906101cd565b82356001600160401b03811161046d5760243501610120602319823603011261046d5760405190610ec782611170565b6024810135825260448101356020830152606481013560408301526084810135606083015260a48101356080830152610f0260c482016111f2565b60a083015260e48101356001600160401b03811161046d57610f2a9060243691840101611206565b60c0830152610f3c61010482016111f2565b60e0830152610124810135906001600160401b03821161046d5736604383830101121561046d5760248282010135610f73816111db565b92610f8160405194856111ba565b818452602084013660448460051b84870101011161046d57604482850101905b60448460051b84870101018210610fcb575050505050610100820152815260209283019201610155565b81356001600160401b03811161046d57602091610ff1839260443691888b010101611206565b815201910190610fa1565b61100e61100836611417565b91611705565b90610873604051928392836114e6565b61102736611417565b919060005b81518110156110c5576110ba906001600160a01b038061104c838761153d565b5116156110bf576110a26110b591611064848861153d565b51166110b0611073858861153d565b516040516323b872dd60e01b602082015233602482015230604482015260648101919091529283906084820190565b03601f1981018452836111ba565b612dd4565b61150b565b61102c565b5061150b565b5060005b8351811015611165576001600160a01b0360206110e6838761153d565b510151169060406110f7828761153d565b51015191803b1561046d576040516323b872dd60e01b815233600482015230602482015260448101939093526000908390606490829084905af180156107405761114b575b611146915061150b565b6110c9565b6001600160401b038211610db2576111469160405261113c565b5061100e9291611705565b61012081019081106001600160401b03821117610db257604052565b60a081019081106001600160401b03821117610db257604052565b6001600160401b038111610db257604052565b90601f801991011681019081106001600160401b03821117610db257604052565b6001600160401b038111610db25760051b60200190565b35906001600160a01b038216820361046d57565b81601f8201121561046d5780359161121d836111db565b9261122b60405194856111ba565b808452602092838086019260051b82010192831161046d578301905b828210611255575050505090565b838091611261846111f2565b815201910190611247565b81601f8201121561046d57803591611283836111db565b9261129160405194856111ba565b808452602092838086019260051b82010192831161046d578301905b8282106112bb575050505090565b813581529083019083016112ad565b6001600160401b038111610db257601f01601f191660200190565b919060a08382031261046d576040516001600160401b03939060a0810185811182821017610db257604052809461131b836111f2565b825260209261132b8482016111f2565b848401526040810135604084015260608101356060840152608081013591821161046d570183601f8201121561046d57803592611367846112ca565b9461137560405196876111ba565b84865281858401011161046d5783608094826000940183880137850101520152565b9080601f8301121561046d578135906113af826111db565b926113bd60405194856111ba565b828452602092838086019160051b8301019280841161046d57848301915b8483106113eb5750505050505090565b82356001600160401b03811161046d57869161140c848480948901016112e5565b8152019201916113db565b606060031982011261046d576001600160401b039160043583811161046d578261144391600401611206565b9260243581811161046d578361145b9160040161126c565b9260443591821161046d5761147291600401611397565b90565b90815180825260208080930193019160005b828110611495575050505090565b83516001600160a01b031685529381019392810192600101611487565b90815180825260208080930193019160005b8281106114d2575050505090565b8351855293810193928101926001016114c4565b90916114fd61147293604084526040840190611475565b9160208184039101526114b2565b60001981146106c05760010190565b8051156115275760200190565b634e487b7160e01b600052603260045260246000fd5b80518210156115275760209160051b010190565b506040513d6000823e3d90fd5b51906001600160a01b038216820361046d57565b60005b8381106115855750506000910152565b8181015183820152602001611575565b906020916115ae81518092818552858086019101611572565b601f01601f1916010190565b9060a0608061147293600180841b03808251168552602082015116602085015260408101516040850152606081015160608501520151918160808201520190611595565b81601f8201121561046d57805191611615836111db565b9261162360405194856111ba565b808452602092838086019260051b82010192831161046d578301905b82821061164d575050505090565b8380916116598461155e565b81520191019061163f565b81601f8201121561046d5780519161167b836111db565b9261168960405194856111ba565b808452602092838086019260051b82010192831161046d578301905b8282106116b3575050505090565b815181529083019083016116a5565b91909160408184031261046d578051926001600160401b039384811161046d57816116ee9184016115fe565b93602083015190811161046d576114729201611664565b92909160009081905b805182101561194f57611721828261153d565b51602080820151604080516321027dc560e01b81526001600160a01b0392831660048083019190915292979490926024929085858581305afa94851561194557879561190a575b50898516156118da57509361043e6117af936117a18396946117bc985194859363a274ab5b60e01b8286015284015260448301906115ba565b03601f1981018352826111ba565b80518101820191016116c2565b9190926117d46117cf8a5186519061227c565b612289565b96825b8a518110156118005780886117ef6117fb938e61153d565b51166104ad828c61153d565b6117d7565b5090989698979192939497835b865181101561184157808861182561183c938a61153d565b51166104ad8d6118368d518561227c565b9061153d565b61180d565b50989297955092935094509561185d6117cf865185519061227c565b96865b86518110156118875780611877611882928961153d565b516104ad828c61153d565b611860565b50919590929395815b85518110156118c157806118a76118bc928861153d565b516104ad6118b68a518461227c565b8c61153d565b611890565b5093509350946118d1909461150b565b9092919261170e565b610700915191829162461bcd60e51b83528201606090602081526002602082015261155560f21b60408201520190565b9094508581813d831161193e575b61192281836111ba565b8101031261193a576119339061155e565b9338611768565b8680fd5b503d611918565b82513d89823e3d90fd5b5050929161195d91926122bb565b818190604091825194633654ad2760e11b9485875260209560049487898781305afa988915611c10578b996120be575b5086516370a0823160e01b815230878201526001600160a01b03998990829060249082908e165afa908115611b91578c91612091575b5034611ff5575b47611f43575b875183815289818981305afa908d8215611f38578c93928c9290611efd575b508a516370a0823160e01b8152308b8201529384916024918391165afa8015611ef3578d90611ec4575b611a239250612249565b9081611d64575b50505050611a3781612b7a565b815190818103611c26575b505090611a4e91612c43565b9490875b8151811015611c1a5782611a66828461153d565b51169085516361d027b360e01b815287818781305afa908115611c10578b91611bd7575b508a611a96838b61153d565b5191885194631a09f9d960e21b958681528b818b81305afa938415611bcc57908c9194611b9b575b506110b0906110a2611b0d9596611ada620186a09889926125ee565b8e5163a9059cbb60e01b948101949094526001600160a01b03909616602484015290940460448201529283906064820190565b611b17828a61153d565b51875193845288848881305afa938415611b91578c94611b5e575b5090611b44611b5994611b4f936125ee565b046105e4838b61153d565b6104ad828a61153d565b611a52565b9350908884813d8311611b8a575b611b7681836111ba565b8101031261046d5792519290611b44611b32565b503d611b6c565b88513d8e823e3d90fd5b809450813d8311611bc5575b611bb181836111ba565b8101031261046d579151918a6110b0611abe565b503d611ba7565b8b51903d90823e3d90fd5b90508781813d8311611c09575b611bee81836111ba565b81010312611c0557611bff9061155e565b38611a8a565b8a80fd5b503d611be4565b87513d8d823e3d90fd5b50949650505050509190565b91929490979693989560001998898101908111611d5157611c4690612289565b958798885b8651811015611ca757858103611c6a575b611c659061150b565b611c4b565b9987611c768c8961153d565b5116611c82828b61153d565b5260018101809111611c945799611c5c565b634e487b7160e01b8a5260118d5260248afd5b50939499919650949197508451908101908111611d3e57611cc790612289565b948697875b8651811015611d2657858103611ceb575b611ce69061150b565b611ccc565b98611cf68a8861153d565b51611d01828a61153d565b5260018101809111611d135798611cdd565b634e487b7160e01b895260118c52602489fd5b5095509598939197909650611a4e9250909138611a42565b634e487b7160e01b875260118a52602487fd5b634e487b7160e01b885260118b52602488fd5b919350919350855192835286838681305afa928315611eba578a93611e7f575b50805192600193848101809111611e6c578b928580611da38d94612289565b95905b611e33575b5050611db890518461153d565b91169052928051838101809111611e2057611dd290612289565b928a815b611df3575b5050611de890518361153d565b529038808080611a2a565b8251811015611e1b5780611e0a611e15928561153d565b516104ad828861153d565b81611dd6565b611ddb565b634e487b7160e01b8b526011865260248bfd5b9091928351821015611e645790611e5a91611e4e828661153d565b51166104ad828861153d565b908b929181611da6565b929190611dab565b634e487b7160e01b8c526011875260248cfd5b9092508681813d8311611eb3575b611e9781836111ba565b81010312611eaf57611ea89061155e565b9138611d84565b8980fd5b503d611e8d565b86513d8c823e3d90fd5b508982813d8311611eec575b611eda81836111ba565b8101031261046d57611a239151611a19565b503d611ed0565b89513d8f823e3d90fd5b93505082813d8311611f31575b611f1481836111ba565b81010312611f2d5789611f278c9361155e565b386119ef565b8c80fd5b503d611f0a565b8a51903d90823e3d90fd5b8b88518481528a818a81305afa908115611fab57908c918391611fb9575b50164790803b15611fb55782908a8c5180948193630d0e30db60e41b83525af18015611fab57611f93575b50506119d0565b611f9c906111a7565b611fa7578b38611f8c565b8b80fd5b8a513d84823e3d90fd5b8280fd5b8092508c8092503d8311611fee575b611fd281836111ba565b81010312611fea57611fe48c9161155e565b38611f61565b5080fd5b503d611fc8565b875183815289818981305afa908d8215611f3857908c92612059575b50168c813b15612056578951630d0e30db60e41b81529182908a90829034905af18015611ef357612043575b506119ca565b61204f909c919c6111a7565b9a3861203d565b80fd5b8092508b8092503d831161208a575b61207281836111ba565b81010312611f2d576120848b9161155e565b38612011565b503d612068565b90508881813d83116120b7575b6120a881836111ba565b81010312611fa75751386119c3565b503d61209e565b9098508781813d83116120ee575b6120d681836111ba565b81010312611c05576120e79061155e565b973861198d565b503d6120cc565b60405190606082018281106001600160401b03821117610db25760405260278252660819985a5b195960ca1b6040837f416464726573733a206c6f772d6c6576656c2064656c65676174652063616c6c60208201520152565b3d15612179573d9061215f826112ca565b9161216d60405193846111ba565b82523d6000602084013e565b606090565b9190823b156121a6576000816114729460208394519201905af46121a061214e565b906121fa565b60405162461bcd60e51b815260206004820152602660248201527f416464726573733a2064656c65676174652063616c6c20746f206e6f6e2d636f6044820152651b9d1c9858dd60d21b6064820152608490fd5b90919015612206575090565b8151156122165750805190602001fd5b60405162461bcd60e51b815260206004820152908190610700906024830190611595565b6000198101919082116106c057565b919082039182116106c057565b9081602091031261046d5751801515810361046d5790565b90600182018092116106c057565b919082018092116106c057565b90612293826111db565b6122a060405191826111ba565b82815280926122b1601f19916111db565b0190602036910137565b90919082816001806000815b6122eb575b5050156122d95750509190565b9091506122e79293506122bb565b9091565b855181101561252d5761233e612311612304838961153d565b516001600160a01b031690565b60405163e7c87f1960e01b81526001600160a01b0390911660048201526020918290829081906024820190565b0381305afa918215612520575b6000926124f3575b50501561236b575b612365829161150b565b906122c7565b9391508060009281612394612383612304898b61153d565b61238d898d61153d565b5190612532565b906123bd6123a46123048361151a565b6123ae8b8b61153d565b6001600160a01b039091169052565b6123c68261151a565b516123d18a8661153d565b526123ea6117cf6123e58a5184519061227c565b61223a565b936123fe6117cf6123e5835186519061227c565b9888945b612498575b50508487905b612424575b5050505061236590949591505061235b565b6124338293949596925161223a565b81101561248f578061246361245061230461036b6124839561226e565b6123ae61245d848a61227c565b8a61153d565b61247561246f8261226e565b8661153d565b516104ad6118b6838961227c565b9094939291908561240d565b81959450612412565b9091929381969596518110156124e857806124c66124bc6123046124db948661153d565b6123ae838b61153d565b6124d0818561153d565b516104ad828d61153d565b9495949392919086612402565b939291959495612407565b6125129250803d10612519575b61250a81836111ba565b810190612256565b3880612353565b503d612500565b612528611551565b61234b565b6122cc565b6040516321027dc560e01b81526001600160a01b0391821660048201819052602093919290918484602481305afa938415610740576000946125a9575b50916122e79493916117af936040519263b8ce670d60e01b8785015260248401526044830152821660648201526064815261043e8161118c565b90938582813d83116125e7575b6125c081836111ba565b810103126120565750916122e79493916125dc6117af9461155e565b94955091909261256f565b503d6125b6565b818102929181159184041417156106c057565b90815180825260208092019182818360051b85019501936000915b84831061262c5750505050505090565b909192939495848061264683856001950387528a516115ba565b980193019301919493929061261c565b60608101805190936001600160a01b03929183906126739061151a565b511660208301908482511614806127b7575b15612726575093612722936110b084670de0b6b3a76400006126d06127149661037160806126c76126c06126da9f9e8f9d6105b28d5161151a565b809c61153d565b5192015161151a565b049889945161151a565b5160405163a9059cbb60e01b60208201526001600160a01b03909416602485015260448401949094529192919091169082606481016110a2565b6105ea846105e4838661153d565b5290565b909291949596612737875151612289565b9460005b885180518210156127a15790612760866127588361279c9561153d565b511688612bb7565b8b612791670de0b6b3a76400006127818d6103718760806105cb898961153d565b04926105ea846105e4838661153d565b526104ad828a61153d565b61273b565b50509550965061147295925051169051906127c3565b50600186515114612685565b9192600092906001600160a01b0380806127dc8661151a565b51169316928314612b6c5782156128f2576040516321027dc560e01b815260048101849052602096908781602481305afa9687156128e6578097612898575b505091816128879695949261286b61043e956128596040519889978d636b2deb0b60e11b908a0152602489015260a0604489015260c4880190611475565b868103602319016064880152906114b2565b92166084840152851660a483015203601f1981018352826111ba565b818180518101031261046d57015190565b909196508782813d83116128df575b6128b181836111ba565b81010312612056575091816128879695949261286b6128d261043e9661155e565b985050929495919361281b565b503d6128a7565b604051903d90823e3d90fd5b60408051633654ad2760e11b81526020969195509093508581600481305afa908115612ab3579082918591612b30575b5016845163d4fd0a6960e01b81528681600481305afa908115612b26579083918691612ae8575b5016612988876129588a61151a565b51885163a9059cbb60e01b81526001600160a01b0385166004820152602481019190915291829081906044820190565b038189875af18015612ade57612ac1575b506129a38861151a565b5191813b15612abd57865163f3fef3a360e01b81526001600160a01b03919091166004820152602481019290925284908290604490829084905af18015612ab357612aa0575b50813b63ffffffff1615612a5c578280928192612a058961151a565b5191165af1612a1261214e565b5015612a27575050612a239061151a565b5190565b60649250519062461bcd60e51b82526004820152600f60248201526e151c985b9cd9995c8811985a5b1959608a1b6044820152fd5b828095508092918192612a6e8961151a565b519183918315612a96575b1690f115612a8c575050612a239061151a565b51903d90823e3d90fd5b6108fc9250612a79565b612aac909391936111a7565b91386129e9565b85513d86823e3d90fd5b8580fd5b612ad790883d8a116125195761250a81836111ba565b5038612999565b87513d88823e3d90fd5b809250888092503d8311612b1f575b612b0181836111ba565b81010312612b1b57518281168103612b1b57829038612949565b8480fd5b503d612af7565b86513d87823e3d90fd5b809250878092503d8311612b65575b612b4981836111ba565b81010312612b6157612b5b829161155e565b38612922565b8380fd5b503d612b3f565b5050505050612a239061151a565b60005b8151811015612bb2576001600160a01b03612b98828461153d565b511615612bad57612ba89061150b565b612b7d565b905090565b505190565b9060005b8251811015612bf5576001600160a01b0380612bd7838661153d565b511690831614612bef57612bea9061150b565b612bbb565b91505090565b50505190565b9060005b8251811015612c3b576001600160a01b0380612c1b838661153d565b511690831614612c3357612c2e9061150b565b612bff565b505050600190565b505050600090565b9091612c4f8251612289565b926000915b8351831015612d0057825b8451811015612cef578084612c7e921180612cc6575b612c835761150b565b612c5f565b612ca2612c90868661153d565b51612c9b838761153d565b519061227c565b612cac868661153d565b526000612cb9828661153d565b5260016104ad828961153d565b506001600160a01b0380612cda878961153d565b511690612ce7838961153d565b511614612c75565b5091612cfa9061150b565b91612c54565b9293509050600092835b8151811015612d4357612d1d818461153d565b51612d31575b612d2c9061150b565b612d0a565b93600181018091116106c05793612d23565b509290612d58612d5283612289565b92612289565b91600094855b8151811015612dcc57612d71818561153d565b51612d85575b612d809061150b565b612d5e565b956001600160a01b03612d98888461153d565b5116612da4828561153d565b52612daf878561153d565b51612dba828761153d565b52600181018091116106c05795612d77565b505093505090565b604080516001600160a01b0392909216929082016001600160401b03811183821017610db2576040526020928383527f5361666545524332303a206c6f772d6c6576656c2063616c6c206661696c656484840152803b15612ec55760008281928287612e499796519301915af16121a061214e565b80519081612e5657505050565b8280612e66938301019101612256565b15612e6e5750565b6084906040519062461bcd60e51b82526004820152602a60248201527f5361666545524332303a204552433230206f7065726174696f6e20646964206e6044820152691bdd081cdd58d8d9595960b21b6064820152fd5b60405162461bcd60e51b815260048101859052601d60248201527f416464726573733a2063616c6c20746f206e6f6e2d636f6e74726163740000006044820152606490fdfea26469706673582212200a79639439c110b8586359a82018f90483bfe5aa4ae8266f37f882632633da4564736f6c63430008110033",
  "devdoc": {
    "kind": "dev",
    "methods": {},
    "version": 1
  },
  "userdoc": {
    "kind": "user",
    "methods": {},
    "version": 1
  },
  "storageLayout": {
    "storage": [],
    "types": null
  }
}