{
  "address": "0x6C06A4Ea7a77b469AEc275C4A64eA4779d923E66",
  "abi": [
    {
      "inputs": [
        {
          "internalType": "address",
          "name": "_positionsManager",
          "type": "address"
        }
      ],
      "stateMutability": "nonpayable",
      "type": "constructor"
    },
    {
      "anonymous": false,
      "inputs": [
        {
          "indexed": true,
          "internalType": "address",
          "name": "account",
          "type": "address"
        },
        {
          "indexed": true,
          "internalType": "address",
          "name": "operator",
          "type": "address"
        },
        {
          "indexed": false,
          "internalType": "bool",
          "name": "approved",
          "type": "bool"
        }
      ],
      "name": "ApprovalForAll",
      "type": "event"
    },
    {
      "anonymous": false,
      "inputs": [
        {
          "indexed": false,
          "internalType": "uint256",
          "name": "tokenId",
          "type": "uint256"
        },
        {
          "indexed": false,
          "internalType": "address",
          "name": "userAddress",
          "type": "address"
        },
        {
          "indexed": false,
          "internalType": "uint256",
          "name": "amount",
          "type": "uint256"
        },
        {
          "indexed": false,
          "internalType": "address",
          "name": "receiver",
          "type": "address"
        }
      ],
      "name": "Burn",
      "type": "event"
    },
    {
      "anonymous": false,
      "inputs": [
        {
          "indexed": false,
          "internalType": "uint256",
          "name": "tokenId",
          "type": "uint256"
        },
        {
          "indexed": false,
          "internalType": "address",
          "name": "userAddress",
          "type": "address"
        },
        {
          "indexed": false,
          "internalType": "address",
          "name": "receiver",
          "type": "address"
        }
      ],
      "name": "Harvest",
      "type": "event"
    },
    {
      "anonymous": false,
      "inputs": [
        {
          "indexed": false,
          "internalType": "uint256",
          "name": "tokenId",
          "type": "uint256"
        },
        {
          "indexed": false,
          "internalType": "address",
          "name": "userAddress",
          "type": "address"
        },
        {
          "indexed": false,
          "internalType": "uint256",
          "name": "amount",
          "type": "uint256"
        }
      ],
      "name": "Mint",
      "type": "event"
    },
    {
      "anonymous": false,
      "inputs": [
        {
          "indexed": true,
          "internalType": "address",
          "name": "previousOwner",
          "type": "address"
        },
        {
          "indexed": true,
          "internalType": "address",
          "name": "newOwner",
          "type": "address"
        }
      ],
      "name": "OwnershipTransferred",
      "type": "event"
    },
    {
      "anonymous": false,
      "inputs": [
        {
          "indexed": true,
          "internalType": "address",
          "name": "operator",
          "type": "address"
        },
        {
          "indexed": true,
          "internalType": "address",
          "name": "from",
          "type": "address"
        },
        {
          "indexed": true,
          "internalType": "address",
          "name": "to",
          "type": "address"
        },
        {
          "indexed": false,
          "internalType": "uint256[]",
          "name": "ids",
          "type": "uint256[]"
        },
        {
          "indexed": false,
          "internalType": "uint256[]",
          "name": "values",
          "type": "uint256[]"
        }
      ],
      "name": "TransferBatch",
      "type": "event"
    },
    {
      "anonymous": false,
      "inputs": [
        {
          "indexed": true,
          "internalType": "address",
          "name": "operator",
          "type": "address"
        },
        {
          "indexed": true,
          "internalType": "address",
          "name": "from",
          "type": "address"
        },
        {
          "indexed": true,
          "internalType": "address",
          "name": "to",
          "type": "address"
        },
        {
          "indexed": false,
          "internalType": "uint256",
          "name": "id",
          "type": "uint256"
        },
        {
          "indexed": false,
          "internalType": "uint256",
          "name": "value",
          "type": "uint256"
        }
      ],
      "name": "TransferSingle",
      "type": "event"
    },
    {
      "anonymous": false,
      "inputs": [
        {
          "indexed": false,
          "internalType": "string",
          "name": "value",
          "type": "string"
        },
        {
          "indexed": true,
          "internalType": "uint256",
          "name": "id",
          "type": "uint256"
        }
      ],
      "name": "URI",
      "type": "event"
    },
    {
      "inputs": [
        {
          "internalType": "address",
          "name": "account",
          "type": "address"
        },
        {
          "internalType": "uint256",
          "name": "id",
          "type": "uint256"
        }
      ],
      "name": "balanceOf",
      "outputs": [
        {
          "internalType": "uint256",
          "name": "",
          "type": "uint256"
        }
      ],
      "stateMutability": "view",
      "type": "function"
    },
    {
      "inputs": [
        {
          "internalType": "address[]",
          "name": "accounts",
          "type": "address[]"
        },
        {
          "internalType": "uint256[]",
          "name": "ids",
          "type": "uint256[]"
        }
      ],
      "name": "balanceOfBatch",
      "outputs": [
        {
          "internalType": "uint256[]",
          "name": "",
          "type": "uint256[]"
        }
      ],
      "stateMutability": "view",
      "type": "function"
    },
    {
      "inputs": [
        {
          "internalType": "uint256",
          "name": "tokenId",
          "type": "uint256"
        },
        {
          "internalType": "address",
          "name": "userAddress",
          "type": "address"
        },
        {
          "internalType": "uint256",
          "name": "amount",
          "type": "uint256"
        },
        {
          "internalType": "address",
          "name": "receiver",
          "type": "address"
        }
      ],
      "name": "burn",
      "outputs": [
        {
          "internalType": "address[]",
          "name": "outTokens",
          "type": "address[]"
        },
        {
          "internalType": "uint256[]",
          "name": "tokenAmounts",
          "type": "uint256[]"
        }
      ],
      "stateMutability": "nonpayable",
      "type": "function"
    },
    {
      "inputs": [
        {
          "internalType": "uint256",
          "name": "id",
          "type": "uint256"
        }
      ],
      "name": "decodeId",
      "outputs": [
        {
          "internalType": "address",
          "name": "",
          "type": "address"
        },
        {
          "internalType": "address",
          "name": "",
          "type": "address"
        },
        {
          "internalType": "uint256",
          "name": "",
          "type": "uint256"
        }
      ],
      "stateMutability": "pure",
      "type": "function"
    },
    {
      "inputs": [
        {
          "internalType": "address",
          "name": "tokenAddress",
          "type": "address"
        }
      ],
      "name": "encodeId",
      "outputs": [
        {
          "internalType": "uint256",
          "name": "",
          "type": "uint256"
        }
      ],
      "stateMutability": "pure",
      "type": "function"
    },
    {
      "inputs": [
        {
          "internalType": "address",
          "name": "lpToken",
          "type": "address"
        }
      ],
      "name": "getIdFromLpToken",
      "outputs": [
        {
          "internalType": "bool",
          "name": "",
          "type": "bool"
        },
        {
          "internalType": "uint256",
          "name": "",
          "type": "uint256"
        }
      ],
      "stateMutability": "view",
      "type": "function"
    },
    {
      "inputs": [
        {
          "internalType": "uint256",
          "name": "id",
          "type": "uint256"
        }
      ],
      "name": "getLPToken",
      "outputs": [
        {
          "internalType": "address",
          "name": "tokenAddress",
          "type": "address"
        }
      ],
      "stateMutability": "pure",
      "type": "function"
    },
    {
      "inputs": [
        {
          "internalType": "uint256",
          "name": "tokenId",
          "type": "uint256"
        },
        {
          "internalType": "address",
          "name": "user",
          "type": "address"
        }
      ],
      "name": "getPendingRewardsForUser",
      "outputs": [
        {
          "internalType": "address[]",
          "name": "rewards",
          "type": "address[]"
        },
        {
          "internalType": "uint256[]",
          "name": "amounts",
          "type": "uint256[]"
        }
      ],
      "stateMutability": "view",
      "type": "function"
    },
    {
      "inputs": [
        {
          "internalType": "uint256",
          "name": "tokenId",
          "type": "uint256"
        },
        {
          "internalType": "address",
          "name": "userAddress",
          "type": "address"
        }
      ],
      "name": "getPositionTokens",
      "outputs": [
        {
          "internalType": "address[]",
          "name": "outTokens",
          "type": "address[]"
        },
        {
          "internalType": "uint256[]",
          "name": "tokenAmounts",
          "type": "uint256[]"
        }
      ],
      "stateMutability": "view",
      "type": "function"
    },
    {
      "inputs": [
        {
          "internalType": "uint256",
          "name": "tokenId",
          "type": "uint256"
        }
      ],
      "name": "getRewards",
      "outputs": [
        {
          "internalType": "address[]",
          "name": "rewardsArray",
          "type": "address[]"
        }
      ],
      "stateMutability": "view",
      "type": "function"
    },
    {
      "inputs": [
        {
          "internalType": "uint256",
          "name": "tokenId",
          "type": "uint256"
        }
      ],
      "name": "getUnderlyingForFirstDeposit",
      "outputs": [
        {
          "internalType": "address[]",
          "name": "underlying",
          "type": "address[]"
        },
        {
          "internalType": "uint256[]",
          "name": "ratios",
          "type": "uint256[]"
        }
      ],
      "stateMutability": "view",
      "type": "function"
    },
    {
      "inputs": [
        {
          "internalType": "uint256",
          "name": "tokenId",
          "type": "uint256"
        }
      ],
      "name": "getUnderlyingForRecurringDeposit",
      "outputs": [
        {
          "internalType": "address[]",
          "name": "",
          "type": "address[]"
        },
        {
          "internalType": "uint256[]",
          "name": "ratios",
          "type": "uint256[]"
        }
      ],
      "stateMutability": "view",
      "type": "function"
    },
    {
      "inputs": [
        {
          "internalType": "uint256",
          "name": "tokenId",
          "type": "uint256"
        },
        {
          "internalType": "address",
          "name": "userAddress",
          "type": "address"
        },
        {
          "internalType": "address",
          "name": "receiver",
          "type": "address"
        }
      ],
      "name": "harvest",
      "outputs": [
        {
          "internalType": "address[]",
          "name": "rewardAddresses",
          "type": "address[]"
        },
        {
          "internalType": "uint256[]",
          "name": "rewardAmounts",
          "type": "uint256[]"
        }
      ],
      "stateMutability": "nonpayable",
      "type": "function"
    },
    {
      "inputs": [
        {
          "internalType": "address",
          "name": "account",
          "type": "address"
        },
        {
          "internalType": "address",
          "name": "operator",
          "type": "address"
        }
      ],
      "name": "isApprovedForAll",
      "outputs": [
        {
          "internalType": "bool",
          "name": "",
          "type": "bool"
        }
      ],
      "stateMutability": "view",
      "type": "function"
    },
    {
      "inputs": [],
      "name": "isUnderlyingERC721",
      "outputs": [
        {
          "internalType": "bool",
          "name": "",
          "type": "bool"
        }
      ],
      "stateMutability": "pure",
      "type": "function"
    },
    {
      "inputs": [
        {
          "internalType": "uint256",
          "name": "tokenId",
          "type": "uint256"
        },
        {
          "internalType": "address",
          "name": "userAddress",
          "type": "address"
        },
        {
          "internalType": "address[]",
          "name": "suppliedTokens",
          "type": "address[]"
        },
        {
          "internalType": "uint256[]",
          "name": "suppliedAmounts",
          "type": "uint256[]"
        }
      ],
      "name": "mint",
      "outputs": [
        {
          "internalType": "uint256",
          "name": "",
          "type": "uint256"
        }
      ],
      "stateMutability": "nonpayable",
      "type": "function"
    },
    {
      "inputs": [
        {
          "internalType": "uint256",
          "name": "tokenId",
          "type": "uint256"
        },
        {
          "internalType": "address",
          "name": "userAddress",
          "type": "address"
        },
        {
          "internalType": "address[]",
          "name": "suppliedTokens",
          "type": "address[]"
        },
        {
          "internalType": "uint256[]",
          "name": "suppliedAmounts",
          "type": "uint256[]"
        }
      ],
      "name": "mintRecurring",
      "outputs": [
        {
          "internalType": "uint256",
          "name": "",
          "type": "uint256"
        }
      ],
      "stateMutability": "nonpayable",
      "type": "function"
    },
    {
      "inputs": [],
      "name": "name",
      "outputs": [
        {
          "internalType": "string",
          "name": "",
          "type": "string"
        }
      ],
      "stateMutability": "pure",
      "type": "function"
    },
    {
      "inputs": [],
      "name": "owner",
      "outputs": [
        {
          "internalType": "address",
          "name": "",
          "type": "address"
        }
      ],
      "stateMutability": "view",
      "type": "function"
    },
    {
      "inputs": [],
      "name": "renounceOwnership",
      "outputs": [],
      "stateMutability": "nonpayable",
      "type": "function"
    },
    {
      "inputs": [
        {
          "internalType": "address",
          "name": "from",
          "type": "address"
        },
        {
          "internalType": "address",
          "name": "to",
          "type": "address"
        },
        {
          "internalType": "uint256[]",
          "name": "ids",
          "type": "uint256[]"
        },
        {
          "internalType": "uint256[]",
          "name": "amounts",
          "type": "uint256[]"
        },
        {
          "internalType": "bytes",
          "name": "data",
          "type": "bytes"
        }
      ],
      "name": "safeBatchTransferFrom",
      "outputs": [],
      "stateMutability": "nonpayable",
      "type": "function"
    },
    {
      "inputs": [
        {
          "internalType": "address",
          "name": "from",
          "type": "address"
        },
        {
          "internalType": "address",
          "name": "to",
          "type": "address"
        },
        {
          "internalType": "uint256",
          "name": "id",
          "type": "uint256"
        },
        {
          "internalType": "uint256",
          "name": "amount",
          "type": "uint256"
        },
        {
          "internalType": "bytes",
          "name": "data",
          "type": "bytes"
        }
      ],
      "name": "safeTransferFrom",
      "outputs": [],
      "stateMutability": "nonpayable",
      "type": "function"
    },
    {
      "inputs": [
        {
          "internalType": "address",
          "name": "operator",
          "type": "address"
        },
        {
          "internalType": "bool",
          "name": "approved",
          "type": "bool"
        }
      ],
      "name": "setApprovalForAll",
      "outputs": [],
      "stateMutability": "nonpayable",
      "type": "function"
    },
    {
      "inputs": [
        {
          "internalType": "bytes4",
          "name": "interfaceId",
          "type": "bytes4"
        }
      ],
      "name": "supportsInterface",
      "outputs": [
        {
          "internalType": "bool",
          "name": "",
          "type": "bool"
        }
      ],
      "stateMutability": "view",
      "type": "function"
    },
    {
      "inputs": [
        {
          "internalType": "address",
          "name": "newOwner",
          "type": "address"
        }
      ],
      "name": "transferOwnership",
      "outputs": [],
      "stateMutability": "nonpayable",
      "type": "function"
    },
    {
      "inputs": [
        {
          "internalType": "uint256",
          "name": "",
          "type": "uint256"
        }
      ],
      "name": "uri",
      "outputs": [
        {
          "internalType": "string",
          "name": "",
          "type": "string"
        }
      ],
      "stateMutability": "view",
      "type": "function"
    },
    {
      "stateMutability": "payable",
      "type": "receive"
    }
  ],
  "transactionHash": "0xa4eafb0ab5222796c19a4593c3776b090e6920f3b9e61567c774971562503164",
  "args": [
    "0x833528b775077A1659b7C879C483DF12d86ec769"
  ],
  "numDeployments": 1,
  "solcInputHash": "0e32d49de90c1ca08094a3215c0047c7",
  "bytecode": "0x60806040523480156200001157600080fd5b5060405162002df138038062002df18339810160408190526200003491620000f8565b604080518082019091526009815268455243323042616e6b60b81b60208201528190620000618162000094565b506200006d33620000a6565b600480546001600160a01b0319166001600160a01b0392909216919091179055506200029b565b6002620000a28282620001cf565b5050565b600380546001600160a01b038381166001600160a01b0319831681179093556040519116919082907f8be0079c531659141344cd1fd0a4f28419497f9722a3daafe3b4186f6b6457e090600090a35050565b6000602082840312156200010b57600080fd5b81516001600160a01b03811681146200012357600080fd5b9392505050565b634e487b7160e01b600052604160045260246000fd5b600181811c908216806200015557607f821691505b6020821081036200017657634e487b7160e01b600052602260045260246000fd5b50919050565b601f821115620001ca57600081815260208120601f850160051c81016020861015620001a55750805b601f850160051c820191505b81811015620001c657828155600101620001b1565b5050505b505050565b81516001600160401b03811115620001eb57620001eb6200012a565b6200020381620001fc845462000140565b846200017c565b602080601f8311600181146200023b5760008415620002225750858301515b600019600386901b1c1916600185901b178555620001c6565b600085815260208120601f198616915b828110156200026c578886015182559484019460019091019084016200024b565b50858210156200028b5787850151600019600388901b60f8161c191681555b5050505050600190811b01905550565b612b4680620002ab6000396000f3fe6080604052600436106101645760003560e01c80638084c91d116100c1578063bfb28ea31161007a578063bfb28ea314610433578063c0d8012c14610457578063dc20c6fa14610485578063e634e1d7146104ce578063e985e9c5146104ee578063f242432a14610537578063f2fde38b1461055757600080fd5b80638084c91d1461037357806387a4459b146103aa5780638da5cb5b146103ca5780639c73e483146103df578063a22cb465146103f3578063bf7be2101461041357600080fd5b80632eae26a31161011e5780632eae26a3146102765780632eb2c2d6146102a157806331feab29146102c3578063374598ad146102e35780633aad1984146103115780634e1273f414610331578063715018a61461035e57600080fd5b8062fdd58e1461017057806301c777ea146101a357806301ffc9a7146101c357806306fdde03146101f35780630e89341c1461022f57806313e370e81461024f57600080fd5b3661016b57005b600080fd5b34801561017c57600080fd5b5061019061018b366004611fc0565b610577565b6040519081526020015b60405180910390f35b3480156101af57600080fd5b506101906101be366004612131565b610610565b3480156101cf57600080fd5b506101e36101de3660046121c6565b610627565b604051901515815260200161019a565b3480156101ff57600080fd5b5060408051808201909152600a81526945524332302042616e6b60b01b60208201525b60405161019a9190612233565b34801561023b57600080fd5b5061022261024a366004612246565b610677565b34801561025b57600080fd5b5061019061026a36600461225f565b6001600160a01b031690565b34801561028257600080fd5b50610294610291366004612246565b90565b60405161019a919061227c565b3480156102ad57600080fd5b506102c16102bc366004612313565b61070b565b005b3480156102cf57600080fd5b506101906102de366004612131565b610757565b3480156102ef57600080fd5b506103036102fe3660046123c0565b610a9e565b60405161019a929190612464565b34801561031d57600080fd5b5061030361032c366004612246565b610b4d565b34801561033d57600080fd5b5061035161034c366004612489565b610b62565b60405161019a91906124ec565b34801561036a57600080fd5b506102c1610c8b565b34801561037f57600080fd5b5061039361038e36600461225f565b610c9f565b60408051921515835260208301919091520161019a565b3480156103b657600080fd5b506103036103c53660046124ff565b610f13565b3480156103d657600080fd5b50610294610f6d565b3480156103eb57600080fd5b5060006101e3565b3480156103ff57600080fd5b506102c161040e36600461254f565b610f7c565b34801561041f57600080fd5b5061030361042e36600461257d565b610f8b565b34801561043f57600080fd5b5061030361044e3660046123c0565b50606091829150565b34801561046357600080fd5b50610478610472366004612246565b50606090565b60405161019a91906125c7565b34801561049157600080fd5b506104a86104a0366004612246565b906000908190565b604080516001600160a01b0394851681529390921660208401529082015260600161019a565b3480156104da57600080fd5b506103036104e9366004612246565b611256565b3480156104fa57600080fd5b506101e36105093660046125da565b6001600160a01b03918216600090815260016020908152604080832093909416825291909152205460ff1690565b34801561054357600080fd5b506102c1610552366004612608565b6112f1565b34801561056357600080fd5b506102c161057236600461225f565b611336565b60006001600160a01b0383166105e75760405162461bcd60e51b815260206004820152602a60248201527f455243313135353a2061646472657373207a65726f206973206e6f742061207660448201526930b634b21037bbb732b960b11b60648201526084015b60405180910390fd5b506000818152602081815260408083206001600160a01b03861684529091529020545b92915050565b600061061e85858585610757565b95945050505050565b60006001600160e01b03198216636cdb3d1360e11b148061065857506001600160e01b031982166303a24d0760e21b145b8061060a57506301ffc9a760e01b6001600160e01b031983161461060a565b60606002805461068690612670565b80601f01602080910402602001604051908101604052809291908181526020018280546106b290612670565b80156106ff5780601f106106d4576101008083540402835291602001916106ff565b820191906000526020600020905b8154815290600101906020018083116106e257829003601f168201915b50505050509050919050565b6001600160a01b03851633148061072757506107278533610509565b6107435760405162461bcd60e51b81526004016105de906126aa565b61075085858585856113af565b5050505050565b6004546000906001600160a01b031633148061078b5750610776610f6d565b6001600160a01b0316336001600160a01b0316145b6107a75760405162461bcd60e51b81526004016105de906126f9565b60008581526005602052604081208351909184916107c7576107c7612714565b6020026020010151816000016000876001600160a01b03166001600160a01b0316815260200190815260200160002060008282546108059190612740565b9250508190555061084185878560008151811061082457610824612714565b60200260200101516040518060200160405280600081525061158c565b60006001600160a01b03168460008151811061085f5761085f612714565b60200260200101516001600160a01b031614610984578360008151811061088857610888612714565b60200260200101516001600160a01b03166370a08231306040518263ffffffff1660e01b81526004016108bb919061227c565b602060405180830381865afa1580156108d8573d6000803e3d6000fd5b505050506040513d601f19601f820116820180604052508101906108fc9190612753565b8360008151811061090f5761090f612714565b6020026020010151600660008760008151811061092e5761092e612714565b60200260200101516001600160a01b03166001600160a01b03168152602001908152602001600020546109619190612740565b111561097f5760405162461bcd60e51b81526004016105de9061276c565b610a08565b478360008151811061099857610998612714565b602002602001015160066000876000815181106109b7576109b7612714565b60200260200101516001600160a01b03166001600160a01b03168152602001908152602001600020546109ea9190612740565b1115610a085760405162461bcd60e51b81526004016105de9061276c565b82600081518110610a1b57610a1b612714565b60200260200101516006600086600081518110610a3a57610a3a612714565b60200260200101516001600160a01b03166001600160a01b031681526020019081526020016000206000828254610a719190612740565b9250508190555082600081518110610a8b57610a8b612714565b6020026020010151915050949350505050565b606080836000610aae8583610577565b6040805160018082528183019092529192506020808301908036833750506040805160018082528183019092529296509050602080830190803683370190505092508184600081518110610b0457610b04612714565b60200260200101906001600160a01b031690816001600160a01b0316815250508083600081518110610b3857610b38612714565b60200260200101818152505050509250929050565b606080610b5983611256565b91509150915091565b60608151835114610bc75760405162461bcd60e51b815260206004820152602960248201527f455243313135353a206163636f756e747320616e6420696473206c656e677468604482015268040dad2e6dac2e8c6d60bb1b60648201526084016105de565b600083516001600160401b03811115610be257610be2611fec565b604051908082528060200260200182016040528015610c0b578160200160208202803683370190505b50905060005b8451811015610c8357610c56858281518110610c2f57610c2f612714565b6020026020010151858381518110610c4957610c49612714565b6020026020010151610577565b828281518110610c6857610c68612714565b6020908102919091010152610c7c81612787565b9050610c11565b509392505050565b610c9361168e565b610c9d60006116ed565b565b6000806001600160a01b0383161580610d3357506004805460408051633654ad2760e11b815290516001600160a01b0390921692636ca95a4e9282820192602092908290030181865afa158015610cfa573d6000803e3d6000fd5b505050506040513d601f19601f82011682018060405250810190610d1e91906127a0565b6001600160a01b0316836001600160a01b0316145b15610d495760016001600160a01b038416610b59565b826001600160a01b03166306fdde036040518163ffffffff1660e01b8152600401600060405180830381865afa925050508015610da857506040513d6000823e601f3d908101601f19168201604052610da591908101906127bd565b60015b610db757506000928392509050565b50826001600160a01b03166318160ddd6040518163ffffffff1660e01b8152600401602060405180830381865afa925050508015610e12575060408051601f3d908101601f19168201909252610e0f91810190612753565b60015b610e2157506000928392509050565b506040516370a0823160e01b81526001600160a01b038416906370a0823190610e4f9060009060040161227c565b602060405180830381865afa925050508015610e88575060408051601f3d908101601f19168201909252610e8591810190612753565b60015b610e9757506000928392509050565b50826001600160a01b031663313ce5676040518163ffffffff1660e01b8152600401602060405180830381865afa925050508015610ef2575060408051601f3d908101601f19168201909252610eef9181019061283e565b60015b610f0157506000928392509050565b5060016001600160a01b038416610b59565b60045460609081906001600160a01b0316331480610f495750610f34610f6d565b6001600160a01b0316336001600160a01b0316145b610f655760405162461bcd60e51b81526004016105de906126f9565b935093915050565b6003546001600160a01b031690565b610f8733838361173f565b5050565b60045460609081906001600160a01b0316331480610fc15750610fac610f6d565b6001600160a01b0316336001600160a01b0316145b610fdd5760405162461bcd60e51b81526004016105de906126f9565b60008681526005602090815260408083206001600160a01b038916845291829052822080548993889291611012908490612861565b90915550506001600160a01b0382161561103f5761103a6001600160a01b038316868861181f565b611077565b6040516001600160a01b0386169087156108fc029088906000818181858888f19350505050158015611075573d6000803e3d6000fd5b505b611082878988611838565b6040805160018082528183019092529060208083019080368337505060408051600180825281830190925292965090506020808301908036833701905050925081846000815181106110d6576110d6612714565b60200260200101906001600160a01b031690816001600160a01b031681525050858360008151811061110a5761110a612714565b60209081029190910101526001600160a01b038216156111d8576040516370a0823160e01b81526001600160a01b038316906370a082319061115090309060040161227c565b602060405180830381865afa15801561116d573d6000803e3d6000fd5b505050506040513d601f19601f820116820180604052508101906111919190612753565b6001600160a01b0383166000908152600660205260409020546111b5908890612861565b11156111d35760405162461bcd60e51b81526004016105de9061276c565b61121c565b6001600160a01b03821660009081526006602052604090205447906111fe908890612861565b111561121c5760405162461bcd60e51b81526004016105de9061276c565b6001600160a01b03821660009081526006602052604081208054889290611244908490612861565b92505081905550505094509492505050565b604080516001808252818301909252606091829190602080830190803683370190505091506112828390565b8260008151811061129557611295612714565b6001600160a01b03929092166020928302919091018201526040805160018082528183019092529182810190803683370190505090506001816000815181106112e0576112e0612714565b602002602001018181525050915091565b6001600160a01b03851633148061130d575061130d8533610509565b6113295760405162461bcd60e51b81526004016105de906126aa565b61075085858585856119a2565b61133e61168e565b6001600160a01b0381166113a35760405162461bcd60e51b815260206004820152602660248201527f4f776e61626c653a206e6577206f776e657220697320746865207a65726f206160448201526564647265737360d01b60648201526084016105de565b6113ac816116ed565b50565b81518351146114115760405162461bcd60e51b815260206004820152602860248201527f455243313135353a2069647320616e6420616d6f756e7473206c656e677468206044820152670dad2e6dac2e8c6d60c31b60648201526084016105de565b6001600160a01b0384166114375760405162461bcd60e51b81526004016105de90612874565b3360005b845181101561151e57600085828151811061145857611458612714565b60200260200101519050600085838151811061147657611476612714565b602090810291909101810151600084815280835260408082206001600160a01b038e1683529093529190912054909150818110156114c65760405162461bcd60e51b81526004016105de906128b9565b6000838152602081815260408083206001600160a01b038e8116855292528083208585039055908b16825281208054849290611503908490612740565b925050819055505050508061151790612787565b905061143b565b50846001600160a01b0316866001600160a01b0316826001600160a01b03167f4a39dc06d4c0dbc64b70af90fd698a233a518aa5d07e595d983b8c0526c8f7fb878760405161156e929190612903565b60405180910390a4611584818787878787611aba565b505050505050565b6001600160a01b0384166115ec5760405162461bcd60e51b815260206004820152602160248201527f455243313135353a206d696e7420746f20746865207a65726f206164647265736044820152607360f81b60648201526084016105de565b3360006115f885611c15565b9050600061160585611c15565b90506000868152602081815260408083206001600160a01b038b16845290915281208054879290611637908490612740565b909155505060408051878152602081018790526001600160a01b03808a169260009291871691600080516020612af1833981519152910160405180910390a461168583600089898989611c60565b50505050505050565b33611697610f6d565b6001600160a01b031614610c9d5760405162461bcd60e51b815260206004820181905260248201527f4f776e61626c653a2063616c6c6572206973206e6f7420746865206f776e657260448201526064016105de565b600380546001600160a01b038381166001600160a01b0319831681179093556040519116919082907f8be0079c531659141344cd1fd0a4f28419497f9722a3daafe3b4186f6b6457e090600090a35050565b816001600160a01b0316836001600160a01b0316036117b25760405162461bcd60e51b815260206004820152602960248201527f455243313135353a2073657474696e6720617070726f76616c20737461747573604482015268103337b91039b2b63360b91b60648201526084016105de565b6001600160a01b03838116600081815260016020908152604080832094871680845294825291829020805460ff191686151590811790915591519182527f17307eab39ab6107e8899845ad3d59bd9653f200f220920489ca2b5937696c31910160405180910390a3505050565b6118336001600160a01b0384168383611d1b565b505050565b6001600160a01b03831661189a5760405162461bcd60e51b815260206004820152602360248201527f455243313135353a206275726e2066726f6d20746865207a65726f206164647260448201526265737360e81b60648201526084016105de565b3360006118a684611c15565b905060006118b384611c15565b60408051602080820183526000918290528882528181528282206001600160a01b038b168352905220549091508481101561193c5760405162461bcd60e51b8152602060048201526024808201527f455243313135353a206275726e20616d6f756e7420657863656564732062616c604482015263616e636560e01b60648201526084016105de565b6000868152602081815260408083206001600160a01b038b81168086529184528285208a8703905582518b81529384018a9052909290881691600080516020612af1833981519152910160405180910390a4604080516020810190915260009052611685565b6001600160a01b0384166119c85760405162461bcd60e51b81526004016105de90612874565b3360006119d485611c15565b905060006119e185611c15565b90506000868152602081815260408083206001600160a01b038c16845290915290205485811015611a245760405162461bcd60e51b81526004016105de906128b9565b6000878152602081815260408083206001600160a01b038d8116855292528083208985039055908a16825281208054889290611a61908490612740565b909155505060408051888152602081018890526001600160a01b03808b16928c82169291881691600080516020612af1833981519152910160405180910390a4611aaf848a8a8a8a8a611c60565b505050505050505050565b6001600160a01b0384163b156115845760405163bc197c8160e01b81526001600160a01b0385169063bc197c8190611afe9089908990889088908890600401612916565b6020604051808303816000875af1925050508015611b39575060408051601f3d908101601f19168201909252611b3691810190612974565b60015b611be557611b45612991565b806308c379a003611b7e5750611b596129ac565b80611b645750611b80565b8060405162461bcd60e51b81526004016105de9190612233565b505b60405162461bcd60e51b815260206004820152603460248201527f455243313135353a207472616e7366657220746f206e6f6e20455243313135356044820152732932b1b2b4bb32b91034b6b83632b6b2b73a32b960611b60648201526084016105de565b6001600160e01b0319811663bc197c8160e01b146116855760405162461bcd60e51b81526004016105de90612a35565b60408051600180825281830190925260609160009190602080830190803683370190505090508281600081518110611c4f57611c4f612714565b602090810291909101015292915050565b6001600160a01b0384163b156115845760405163f23a6e6160e01b81526001600160a01b0385169063f23a6e6190611ca49089908990889088908890600401612a7d565b6020604051808303816000875af1925050508015611cdf575060408051601f3d908101601f19168201909252611cdc91810190612974565b60015b611ceb57611b45612991565b6001600160e01b0319811663f23a6e6160e01b146116855760405162461bcd60e51b81526004016105de90612a35565b604080516001600160a01b03848116602483015260448083018590528351808403909101815260649092018352602080830180516001600160e01b031663a9059cbb60e01b17905283518085019094528084527f5361666545524332303a206c6f772d6c6576656c2063616c6c206661696c65649084015261183392869291600091611dab918516908490611e28565b8051909150156118335780806020019051810190611dc99190612ab7565b6118335760405162461bcd60e51b815260206004820152602a60248201527f5361666545524332303a204552433230206f7065726174696f6e20646964206e6044820152691bdd081cdd58d8d9595960b21b60648201526084016105de565b6060611e378484600085611e41565b90505b9392505050565b606082471015611ea25760405162461bcd60e51b815260206004820152602660248201527f416464726573733a20696e73756666696369656e742062616c616e636520666f6044820152651c8818d85b1b60d21b60648201526084016105de565b6001600160a01b0385163b611ef95760405162461bcd60e51b815260206004820152601d60248201527f416464726573733a2063616c6c20746f206e6f6e2d636f6e747261637400000060448201526064016105de565b600080866001600160a01b03168587604051611f159190612ad4565b60006040518083038185875af1925050503d8060008114611f52576040519150601f19603f3d011682016040523d82523d6000602084013e611f57565b606091505b5091509150611f67828286611f72565b979650505050505050565b60608315611f81575081611e3a565b825115611f915782518084602001fd5b8160405162461bcd60e51b81526004016105de9190612233565b6001600160a01b03811681146113ac57600080fd5b60008060408385031215611fd357600080fd5b8235611fde81611fab565b946020939093013593505050565b634e487b7160e01b600052604160045260246000fd5b601f8201601f191681016001600160401b038111828210171561202757612027611fec565b6040525050565b60006001600160401b0382111561204757612047611fec565b5060051b60200190565b600082601f83011261206257600080fd5b8135602061206f8261202e565b60405161207c8282612002565b83815260059390931b850182019282810191508684111561209c57600080fd5b8286015b848110156120c05780356120b381611fab565b83529183019183016120a0565b509695505050505050565b600082601f8301126120dc57600080fd5b813560206120e98261202e565b6040516120f68282612002565b83815260059390931b850182019282810191508684111561211657600080fd5b8286015b848110156120c0578035835291830191830161211a565b6000806000806080858703121561214757600080fd5b84359350602085013561215981611fab565b925060408501356001600160401b038082111561217557600080fd5b61218188838901612051565b9350606087013591508082111561219757600080fd5b506121a4878288016120cb565b91505092959194509250565b6001600160e01b0319811681146113ac57600080fd5b6000602082840312156121d857600080fd5b8135611e3a816121b0565b60005b838110156121fe5781810151838201526020016121e6565b50506000910152565b6000815180845261221f8160208601602086016121e3565b601f01601f19169290920160200192915050565b602081526000611e3a6020830184612207565b60006020828403121561225857600080fd5b5035919050565b60006020828403121561227157600080fd5b8135611e3a81611fab565b6001600160a01b0391909116815260200190565b60006001600160401b038211156122a9576122a9611fec565b50601f01601f191660200190565b600082601f8301126122c857600080fd5b81356122d381612290565b6040516122e08282612002565b8281528560208487010111156122f557600080fd5b82602086016020830137600092810160200192909252509392505050565b600080600080600060a0868803121561232b57600080fd5b853561233681611fab565b9450602086013561234681611fab565b935060408601356001600160401b038082111561236257600080fd5b61236e89838a016120cb565b9450606088013591508082111561238457600080fd5b61239089838a016120cb565b935060808801359150808211156123a657600080fd5b506123b3888289016122b7565b9150509295509295909350565b600080604083850312156123d357600080fd5b8235915060208301356123e581611fab565b809150509250929050565b600081518084526020808501945080840160005b838110156124295781516001600160a01b031687529582019590820190600101612404565b509495945050505050565b600081518084526020808501945080840160005b8381101561242957815187529582019590820190600101612448565b60408152600061247760408301856123f0565b828103602084015261061e8185612434565b6000806040838503121561249c57600080fd5b82356001600160401b03808211156124b357600080fd5b6124bf86838701612051565b935060208501359150808211156124d557600080fd5b506124e2858286016120cb565b9150509250929050565b602081526000611e3a6020830184612434565b60008060006060848603121561251457600080fd5b83359250602084013561252681611fab565b9150604084013561253681611fab565b809150509250925092565b80151581146113ac57600080fd5b6000806040838503121561256257600080fd5b823561256d81611fab565b915060208301356123e581612541565b6000806000806080858703121561259357600080fd5b8435935060208501356125a581611fab565b92506040850135915060608501356125bc81611fab565b939692955090935050565b602081526000611e3a60208301846123f0565b600080604083850312156125ed57600080fd5b82356125f881611fab565b915060208301356123e581611fab565b600080600080600060a0868803121561262057600080fd5b853561262b81611fab565b9450602086013561263b81611fab565b9350604086013592506060860135915060808601356001600160401b0381111561266457600080fd5b6123b3888289016122b7565b600181811c9082168061268457607f821691505b6020821081036126a457634e487b7160e01b600052602260045260246000fd5b50919050565b6020808252602f908201527f455243313135353a2063616c6c6572206973206e6f7420746f6b656e206f776e60408201526e195c881b9bdc88185c1c1c9bdd9959608a1b606082015260800190565b6020808252600190820152603160f81b604082015260600190565b634e487b7160e01b600052603260045260246000fd5b634e487b7160e01b600052601160045260246000fd5b8082018082111561060a5761060a61272a565b60006020828403121561276557600080fd5b5051919050565b6020808252600190820152600760fb1b604082015260600190565b6000600182016127995761279961272a565b5060010190565b6000602082840312156127b257600080fd5b8151611e3a81611fab565b6000602082840312156127cf57600080fd5b81516001600160401b038111156127e557600080fd5b8201601f810184136127f657600080fd5b805161280181612290565b60405161280e8282612002565b82815286602084860101111561282357600080fd5b6128348360208301602087016121e3565b9695505050505050565b60006020828403121561285057600080fd5b815160ff81168114611e3a57600080fd5b8181038181111561060a5761060a61272a565b60208082526025908201527f455243313135353a207472616e7366657220746f20746865207a65726f206164604082015264647265737360d81b606082015260800190565b6020808252602a908201527f455243313135353a20696e73756666696369656e742062616c616e636520666f60408201526939103a3930b739b332b960b11b606082015260800190565b6040815260006124776040830185612434565b6001600160a01b0386811682528516602082015260a06040820181905260009061294290830186612434565b82810360608401526129548186612434565b905082810360808401526129688185612207565b98975050505050505050565b60006020828403121561298657600080fd5b8151611e3a816121b0565b600060033d11156102915760046000803e5060005160e01c90565b600060443d10156129ba5790565b6040516003193d81016004833e81513d6001600160401b0381602484011181841117156129e957505050505090565b8285019150815181811115612a015750505050505090565b843d8701016020828501011115612a1b5750505050505090565b612a2a60208286010187612002565b509095945050505050565b60208082526028908201527f455243313135353a204552433131353552656365697665722072656a656374656040820152676420746f6b656e7360c01b606082015260800190565b6001600160a01b03868116825285166020820152604081018490526060810183905260a060808201819052600090611f6790830184612207565b600060208284031215612ac957600080fd5b8151611e3a81612541565b60008251612ae68184602087016121e3565b919091019291505056fec3d58168c5ae7397731d063d5bbf3d657854427343f4c083240f7aacaa2d0f62a2646970667358221220bafef2d949df6e2e7fc7b0025a8821e5ec50c8396ea2fa77c788bf7f6701599d64736f6c63430008110033",
  "devdoc": {
    "kind": "dev",
    "methods": {
      "balanceOf(address,uint256)": {
        "details": "See {IERC1155-balanceOf}. Requirements: - `account` cannot be the zero address."
      },
      "balanceOfBatch(address[],uint256[])": {
        "details": "See {IERC1155-balanceOfBatch}. Requirements: - `accounts` and `ids` must have the same length."
      },
      "isApprovedForAll(address,address)": {
        "details": "See {IERC1155-isApprovedForAll}."
      },
      "owner()": {
        "details": "Returns the address of the current owner."
      },
      "renounceOwnership()": {
        "details": "Leaves the contract without owner. It will not be possible to call `onlyOwner` functions anymore. Can only be called by the current owner. NOTE: Renouncing ownership will leave the contract without an owner, thereby removing any functionality that is only available to the owner."
      },
      "safeBatchTransferFrom(address,address,uint256[],uint256[],bytes)": {
        "details": "See {IERC1155-safeBatchTransferFrom}."
      },
      "safeTransferFrom(address,address,uint256,uint256,bytes)": {
        "details": "See {IERC1155-safeTransferFrom}."
      },
      "setApprovalForAll(address,bool)": {
        "details": "See {IERC1155-setApprovalForAll}."
      },
      "supportsInterface(bytes4)": {
        "details": "See {IERC165-supportsInterface}."
      },
      "transferOwnership(address)": {
        "details": "Transfers ownership of the contract to a new account (`newOwner`). Can only be called by the current owner."
      },
      "uri(uint256)": {
        "details": "See {IERC1155MetadataURI-uri}. This implementation returns the same URI for *all* token types. It relies on the token type ID substitution mechanism https://eips.ethereum.org/EIPS/eip-1155#metadata[defined in the EIP]. Clients calling this function must replace the `\\{id\\}` substring with the actual token type ID."
      }
    },
    "version": 1
  },
  "userdoc": {
    "kind": "user",
    "methods": {},
    "version": 1
  },
  "storageLayout": {
    "storage": [
      {
        "astId": 138,
        "contract": "contracts/Banks/ERC20Bank.sol:ERC20Bank",
        "label": "_balances",
        "offset": 0,
        "slot": "0",
        "type": "t_mapping(t_uint256,t_mapping(t_address,t_uint256))"
      },
      {
        "astId": 144,
        "contract": "contracts/Banks/ERC20Bank.sol:ERC20Bank",
        "label": "_operatorApprovals",
        "offset": 0,
        "slot": "1",
        "type": "t_mapping(t_address,t_mapping(t_address,t_bool))"
      },
      {
        "astId": 146,
        "contract": "contracts/Banks/ERC20Bank.sol:ERC20Bank",
        "label": "_uri",
        "offset": 0,
        "slot": "2",
        "type": "t_string_storage"
      },
      {
        "astId": 7,
        "contract": "contracts/Banks/ERC20Bank.sol:ERC20Bank",
        "label": "_owner",
        "offset": 0,
        "slot": "3",
        "type": "t_address"
      },
      {
        "astId": 3313,
        "contract": "contracts/Banks/ERC20Bank.sol:ERC20Bank",
        "label": "positionsManager",
        "offset": 0,
        "slot": "4",
        "type": "t_address"
      },
      {
        "astId": 3583,
        "contract": "contracts/Banks/ERC20Bank.sol:ERC20Bank",
        "label": "poolInfo",
        "offset": 0,
        "slot": "5",
        "type": "t_mapping(t_uint256,t_struct(PoolInfo)3578_storage)"
      },
      {
        "astId": 3587,
        "contract": "contracts/Banks/ERC20Bank.sol:ERC20Bank",
        "label": "balances",
        "offset": 0,
        "slot": "6",
        "type": "t_mapping(t_address,t_uint256)"
      }
    ],
    "types": {
      "t_address": {
        "encoding": "inplace",
        "label": "address",
        "numberOfBytes": "20"
      },
      "t_bool": {
        "encoding": "inplace",
        "label": "bool",
        "numberOfBytes": "1"
      },
      "t_mapping(t_address,t_bool)": {
        "encoding": "mapping",
        "key": "t_address",
        "label": "mapping(address => bool)",
        "numberOfBytes": "32",
        "value": "t_bool"
      },
      "t_mapping(t_address,t_mapping(t_address,t_bool))": {
        "encoding": "mapping",
        "key": "t_address",
        "label": "mapping(address => mapping(address => bool))",
        "numberOfBytes": "32",
        "value": "t_mapping(t_address,t_bool)"
      },
      "t_mapping(t_address,t_uint256)": {
        "encoding": "mapping",
        "key": "t_address",
        "label": "mapping(address => uint256)",
        "numberOfBytes": "32",
        "value": "t_uint256"
      },
      "t_mapping(t_uint256,t_mapping(t_address,t_uint256))": {
        "encoding": "mapping",
        "key": "t_uint256",
        "label": "mapping(uint256 => mapping(address => uint256))",
        "numberOfBytes": "32",
        "value": "t_mapping(t_address,t_uint256)"
      },
      "t_mapping(t_uint256,t_struct(PoolInfo)3578_storage)": {
        "encoding": "mapping",
        "key": "t_uint256",
        "label": "mapping(uint256 => struct ERC20Bank.PoolInfo)",
        "numberOfBytes": "32",
        "value": "t_struct(PoolInfo)3578_storage"
      },
      "t_string_storage": {
        "encoding": "bytes",
        "label": "string",
        "numberOfBytes": "32"
      },
      "t_struct(PoolInfo)3578_storage": {
        "encoding": "inplace",
        "label": "struct ERC20Bank.PoolInfo",
        "members": [
          {
            "astId": 3577,
            "contract": "contracts/Banks/ERC20Bank.sol:ERC20Bank",
            "label": "userShares",
            "offset": 0,
            "slot": "0",
            "type": "t_mapping(t_address,t_uint256)"
          }
        ],
        "numberOfBytes": "32"
      },
      "t_uint256": {
        "encoding": "inplace",
        "label": "uint256",
        "numberOfBytes": "32"
      }
    }
  }
}