{
  "address": "0x9FE401Bc204bE3a5477e009464C3ACf5e7266b36",
  "abi": [
    {
      "inputs": [
        {
          "internalType": "address",
          "name": "_positionsManager",
          "type": "address"
        }
      ],
      "stateMutability": "nonpayable",
      "type": "constructor"
    },
    {
      "anonymous": false,
      "inputs": [
        {
          "indexed": false,
          "internalType": "uint256",
          "name": "tokenId",
          "type": "uint256"
        },
        {
          "indexed": false,
          "internalType": "address",
          "name": "userAddress",
          "type": "address"
        },
        {
          "indexed": false,
          "internalType": "uint256",
          "name": "amount",
          "type": "uint256"
        },
        {
          "indexed": false,
          "internalType": "address",
          "name": "receiver",
          "type": "address"
        }
      ],
      "name": "Burn",
      "type": "event"
    },
    {
      "anonymous": false,
      "inputs": [
        {
          "indexed": false,
          "internalType": "uint256",
          "name": "tokenId",
          "type": "uint256"
        },
        {
          "indexed": false,
          "internalType": "address",
          "name": "userAddress",
          "type": "address"
        },
        {
          "indexed": false,
          "internalType": "address",
          "name": "receiver",
          "type": "address"
        }
      ],
      "name": "Harvest",
      "type": "event"
    },
    {
      "anonymous": false,
      "inputs": [
        {
          "indexed": false,
          "internalType": "uint256",
          "name": "tokenId",
          "type": "uint256"
        },
        {
          "indexed": false,
          "internalType": "address",
          "name": "userAddress",
          "type": "address"
        },
        {
          "indexed": false,
          "internalType": "uint256",
          "name": "amount",
          "type": "uint256"
        }
      ],
      "name": "Mint",
      "type": "event"
    },
    {
      "anonymous": false,
      "inputs": [
        {
          "indexed": true,
          "internalType": "address",
          "name": "previousOwner",
          "type": "address"
        },
        {
          "indexed": true,
          "internalType": "address",
          "name": "newOwner",
          "type": "address"
        }
      ],
      "name": "OwnershipTransferred",
      "type": "event"
    },
    {
      "inputs": [
        {
          "internalType": "address",
          "name": "nftManager",
          "type": "address"
        }
      ],
      "name": "addManager",
      "outputs": [],
      "stateMutability": "nonpayable",
      "type": "function"
    },
    {
      "inputs": [
        {
          "internalType": "uint256",
          "name": "tokenId",
          "type": "uint256"
        },
        {
          "internalType": "address",
          "name": "userAddress",
          "type": "address"
        },
        {
          "internalType": "uint256",
          "name": "amount",
          "type": "uint256"
        },
        {
          "internalType": "address",
          "name": "receiver",
          "type": "address"
        }
      ],
      "name": "burn",
      "outputs": [
        {
          "internalType": "address[]",
          "name": "outTokens",
          "type": "address[]"
        },
        {
          "internalType": "uint256[]",
          "name": "tokenAmounts",
          "type": "uint256[]"
        }
      ],
      "stateMutability": "nonpayable",
      "type": "function"
    },
    {
      "inputs": [
        {
          "internalType": "uint256",
          "name": "id",
          "type": "uint256"
        }
      ],
      "name": "decodeId",
      "outputs": [
        {
          "internalType": "address",
          "name": "poolAddress",
          "type": "address"
        },
        {
          "internalType": "address",
          "name": "nftManager",
          "type": "address"
        },
        {
          "internalType": "uint256",
          "name": "pos_id",
          "type": "uint256"
        }
      ],
      "stateMutability": "view",
      "type": "function"
    },
    {
      "inputs": [
        {
          "internalType": "uint256",
          "name": "id",
          "type": "uint256"
        },
        {
          "internalType": "address",
          "name": "nftManager",
          "type": "address"
        }
      ],
      "name": "encodeId",
      "outputs": [
        {
          "internalType": "uint256",
          "name": "",
          "type": "uint256"
        }
      ],
      "stateMutability": "view",
      "type": "function"
    },
    {
      "inputs": [
        {
          "internalType": "address",
          "name": "manager",
          "type": "address"
        }
      ],
      "name": "getIdFromLpToken",
      "outputs": [
        {
          "internalType": "bool",
          "name": "",
          "type": "bool"
        },
        {
          "internalType": "uint256",
          "name": "",
          "type": "uint256"
        }
      ],
      "stateMutability": "view",
      "type": "function"
    },
    {
      "inputs": [
        {
          "internalType": "uint256",
          "name": "id",
          "type": "uint256"
        }
      ],
      "name": "getLPToken",
      "outputs": [
        {
          "internalType": "address",
          "name": "managerAddress",
          "type": "address"
        }
      ],
      "stateMutability": "view",
      "type": "function"
    },
    {
      "inputs": [
        {
          "internalType": "uint256",
          "name": "tokenId",
          "type": "uint256"
        },
        {
          "internalType": "address",
          "name": "user",
          "type": "address"
        }
      ],
      "name": "getPendingRewardsForUser",
      "outputs": [
        {
          "internalType": "address[]",
          "name": "rewards",
          "type": "address[]"
        },
        {
          "internalType": "uint256[]",
          "name": "amounts",
          "type": "uint256[]"
        }
      ],
      "stateMutability": "view",
      "type": "function"
    },
    {
      "inputs": [
        {
          "internalType": "uint256",
          "name": "tokenId",
          "type": "uint256"
        },
        {
          "internalType": "address",
          "name": "userAddress",
          "type": "address"
        }
      ],
      "name": "getPositionTokens",
      "outputs": [
        {
          "internalType": "address[]",
          "name": "outTokens",
          "type": "address[]"
        },
        {
          "internalType": "uint256[]",
          "name": "tokenAmounts",
          "type": "uint256[]"
        }
      ],
      "stateMutability": "view",
      "type": "function"
    },
    {
      "inputs": [
        {
          "internalType": "uint256",
          "name": "tokenId",
          "type": "uint256"
        }
      ],
      "name": "getRewards",
      "outputs": [
        {
          "internalType": "address[]",
          "name": "rewardsArray",
          "type": "address[]"
        }
      ],
      "stateMutability": "view",
      "type": "function"
    },
    {
      "inputs": [
        {
          "internalType": "uint256",
          "name": "tokenId",
          "type": "uint256"
        }
      ],
      "name": "getUnderlyingForFirstDeposit",
      "outputs": [
        {
          "internalType": "address[]",
          "name": "underlying",
          "type": "address[]"
        },
        {
          "internalType": "uint256[]",
          "name": "ratios",
          "type": "uint256[]"
        }
      ],
      "stateMutability": "view",
      "type": "function"
    },
    {
      "inputs": [
        {
          "internalType": "uint256",
          "name": "tokenId",
          "type": "uint256"
        }
      ],
      "name": "getUnderlyingForRecurringDeposit",
      "outputs": [
        {
          "internalType": "address[]",
          "name": "",
          "type": "address[]"
        },
        {
          "internalType": "uint256[]",
          "name": "ratios",
          "type": "uint256[]"
        }
      ],
      "stateMutability": "view",
      "type": "function"
    },
    {
      "inputs": [
        {
          "internalType": "uint256",
          "name": "tokenId",
          "type": "uint256"
        },
        {
          "internalType": "address",
          "name": "userAddress",
          "type": "address"
        },
        {
          "internalType": "address",
          "name": "receiver",
          "type": "address"
        }
      ],
      "name": "harvest",
      "outputs": [
        {
          "internalType": "address[]",
          "name": "rewardAddresses",
          "type": "address[]"
        },
        {
          "internalType": "uint256[]",
          "name": "rewardAmounts",
          "type": "uint256[]"
        }
      ],
      "stateMutability": "nonpayable",
      "type": "function"
    },
    {
      "inputs": [],
      "name": "isUnderlyingERC721",
      "outputs": [
        {
          "internalType": "bool",
          "name": "",
          "type": "bool"
        }
      ],
      "stateMutability": "pure",
      "type": "function"
    },
    {
      "inputs": [
        {
          "internalType": "uint256",
          "name": "tokenId",
          "type": "uint256"
        },
        {
          "internalType": "address",
          "name": "userAddress",
          "type": "address"
        },
        {
          "internalType": "address[]",
          "name": "suppliedTokens",
          "type": "address[]"
        },
        {
          "internalType": "uint256[]",
          "name": "suppliedAmounts",
          "type": "uint256[]"
        }
      ],
      "name": "mint",
      "outputs": [
        {
          "internalType": "uint256",
          "name": "",
          "type": "uint256"
        }
      ],
      "stateMutability": "nonpayable",
      "type": "function"
    },
    {
      "inputs": [
        {
          "internalType": "uint256",
          "name": "tokenId",
          "type": "uint256"
        },
        {
          "internalType": "address",
          "name": "userAddress",
          "type": "address"
        },
        {
          "internalType": "address[]",
          "name": "suppliedTokens",
          "type": "address[]"
        },
        {
          "internalType": "uint256[]",
          "name": "suppliedAmounts",
          "type": "uint256[]"
        }
      ],
      "name": "mintRecurring",
      "outputs": [
        {
          "internalType": "uint256",
          "name": "",
          "type": "uint256"
        }
      ],
      "stateMutability": "nonpayable",
      "type": "function"
    },
    {
      "inputs": [],
      "name": "name",
      "outputs": [
        {
          "internalType": "string",
          "name": "",
          "type": "string"
        }
      ],
      "stateMutability": "pure",
      "type": "function"
    },
    {
      "inputs": [],
      "name": "owner",
      "outputs": [
        {
          "internalType": "address",
          "name": "",
          "type": "address"
        }
      ],
      "stateMutability": "view",
      "type": "function"
    },
    {
      "inputs": [],
      "name": "renounceOwnership",
      "outputs": [],
      "stateMutability": "nonpayable",
      "type": "function"
    },
    {
      "inputs": [
        {
          "internalType": "address",
          "name": "nftManager",
          "type": "address"
        },
        {
          "internalType": "address",
          "name": "wrapper",
          "type": "address"
        }
      ],
      "name": "setWrapper",
      "outputs": [],
      "stateMutability": "nonpayable",
      "type": "function"
    },
    {
      "inputs": [
        {
          "internalType": "address",
          "name": "newOwner",
          "type": "address"
        }
      ],
      "name": "transferOwnership",
      "outputs": [],
      "stateMutability": "nonpayable",
      "type": "function"
    },
    {
      "stateMutability": "payable",
      "type": "receive"
    }
  ],
  "transactionHash": "0xd5f0f2db1ce9fab2b9dfd5354156768187190085105f87b49f2b46bd0d2b68c0",
  "args": [
    "0x833528b775077A1659b7C879C483DF12d86ec769"
  ],
  "numDeployments": 1,
  "solcInputHash": "0e32d49de90c1ca08094a3215c0047c7",
  "bytecode": "0x608060405234801561001057600080fd5b5060405162001b1438038062001b14833981016040819052610031916100b1565b8061003b33610061565b600180546001600160a01b0319166001600160a01b0392909216919091179055506100e1565b600080546001600160a01b038381166001600160a01b0319831681178455604051919092169283917f8be0079c531659141344cd1fd0a4f28419497f9722a3daafe3b4186f6b6457e09190a35050565b6000602082840312156100c357600080fd5b81516001600160a01b03811681146100da57600080fd5b9392505050565b611a2380620000f16000396000f3fe6080604052600436106101235760003560e01c806387a4459b116100a0578063bfb28ea311610064578063bfb28ea314610361578063c0d8012c14610381578063dc20c6fa146103ae578063e634e1d7146103f4578063f2fde38b1461041457600080fd5b806387a4459b146102d05780638da5cb5b146102f05780639c73e48314610305578063bdef539114610321578063bf7be2101461034157600080fd5b806331feab29116100e757806331feab2914610216578063374598ad146102365780633aad198414610264578063715018a6146102845780638084c91d1461029957600080fd5b806301c777ea1461012f57806306fdde03146101625780630d2c10d91461019c5780632d06177a146101bc5780632eae26a3146101de57600080fd5b3661012a57005b600080fd5b34801561013b57600080fd5b5061014f61014a366004611330565b610434565b6040519081526020015b60405180910390f35b34801561016e57600080fd5b50604080518082018252600b81526a4552433732312042616e6b60a81b602082015290516101599190611434565b3480156101a857600080fd5b5061014f6101b7366004611467565b6105b0565b3480156101c857600080fd5b506101dc6101d7366004611497565b610667565b005b3480156101ea57600080fd5b506101fe6101f93660046114b4565b6106c1565b6040516001600160a01b039091168152602001610159565b34801561022257600080fd5b5061014f610231366004611330565b6106d4565b34801561024257600080fd5b50610256610251366004611467565b610857565b604051610159929190611541565b34801561027057600080fd5b5061025661027f3660046114b4565b610902565b34801561029057600080fd5b506101dc6109ab565b3480156102a557600080fd5b506102b96102b4366004611497565b6109bf565b604080519215158352602083019190915201610159565b3480156102dc57600080fd5b506102566102eb36600461156f565b610a5a565b3480156102fc57600080fd5b506101fe610c0b565b34801561031157600080fd5b5060405160018152602001610159565b34801561032d57600080fd5b506101dc61033c3660046115b1565b610c1a565b34801561034d57600080fd5b5061025661035c3660046115df565b610c50565b34801561036d57600080fd5b5061025661037c366004611467565b610e09565b34801561038d57600080fd5b506103a161039c3660046114b4565b610e61565b6040516101599190611629565b3480156103ba57600080fd5b506103ce6103c93660046114b4565b610e73565b604080516001600160a01b03948516815293909216602084015290820152606001610159565b34801561040057600080fd5b5061025661040f3660046114b4565b610f36565b34801561042057600080fd5b506101dc61042f366004611497565b610fdb565b6001546000906001600160a01b03163314806104685750610453610c0b565b6001600160a01b0316336001600160a01b0316145b61048d5760405162461bcd60e51b81526004016104849061163c565b60405180910390fd5b6000858152600460205260409020546001600160a01b038581169116146104c65760405162461bcd60e51b815260040161048490611657565b6000806104d287610e73565b6001600160a01b03808316600090815260036020526040808220549051949750929550911692509061055d9063e897125d60e01b9061051b90879087908c908c90602401611672565b60408051601f198184030181529190526020810180516001600160e01b03166001600160e01b0319909316929092179091526001600160a01b03841690611054565b905060008180602001905181019061057591906116b6565b905080600460008c8152602001908152602001600020600101600082825461059d91906116e5565b90915550909a9950505050505050505050565b6000805b60025481101561061c57826001600160a01b0316600282815481106105db576105db6116f8565b6000918252602090912001546001600160a01b03160361060a5760f01b6001600160f01b038416179050610661565b806106148161170e565b9150506105b4565b5060405162461bcd60e51b8152602060048201526019602482015278139195081b585b9859d95c881b9bdd081cdd5c1c1bdc9d1959603a1b6044820152606401610484565b92915050565b61066f611080565b600280546001810182556000919091527f405787fa12a823e0f2b7631cc41b3ba8828b3321ca811111fa75cd3aa3bb5ace0180546001600160a01b0319166001600160a01b0392909216919091179055565b60006106cc82610e73565b509392505050565b6001546000906001600160a01b031633148061070857506106f3610c0b565b6001600160a01b0316336001600160a01b0316145b6107245760405162461bcd60e51b81526004016104849061163c565b600083600081518110610739576107396116f8565b60200260200101516001600160a01b03166399fbab8884600081518110610762576107626116f8565b60200260200101516040518263ffffffff1660e01b815260040161078891815260200190565b61018060405180830381865afa1580156107a6573d6000803e3d6000fd5b505050506040513d601f19601f820116820180604052508101906107ca9190611773565b505050506001600160801b03169750505050505050506040518060400160405280866001600160a01b03168152602001828152506004600088815260200190815260200160002060008201518160000160006101000a8154816001600160a01b0302191690836001600160a01b031602179055506020820151816001015590505080915050949350505050565b60608060008061086686610e73565b6001600160a01b0380831660009081526003602052604090819020549051637b98766960e01b81529396509194501691508190637b987669906108af9086908690600401611854565b600060405180830381865afa1580156108cc573d6000803e3d6000fd5b505050506040513d6000823e601f3d908101601f191682016040526108f491908101906118c8565b945094505050509250929050565b60608060008061091185610e73565b6001600160a01b038083166000908152600360205260409081902054905163089b0acf60e41b815293965091945016915081906389b0acf09061095a9086908690600401611854565b600060405180830381865afa158015610977573d6000803e3d6000fd5b505050506040513d6000823e601f3d908101601f1916820160405261099f91908101906118c8565b94509450505050915091565b6109b3611080565b6109bd60006110df565b565b60008060005b600254811015610a4e57836001600160a01b0316600282815481106109ec576109ec6116f8565b6000918252602090912001546001600160a01b031603610a3c57600160028281548110610a1b57610a1b6116f8565b60009182526020909120015490956001600160a01b03909116945092505050565b80610a468161170e565b9150506109c5565b50600093849350915050565b60015460609081906001600160a01b0316331480610a905750610a7b610c0b565b6001600160a01b0316336001600160a01b0316145b610aac5760405162461bcd60e51b81526004016104849061163c565b6000858152600460205260409020546001600160a01b03858116911614610ae55760405162461bcd60e51b815260040161048490611657565b600080610af187610e73565b6001600160a01b038281166000818152600360205260408082205490516024810193909352604483018590528b841660648401529497509295509216925090610b4590637aa5612360e11b9060840161051b565b60405163133f757160e31b8152600481018590529091506000906001600160a01b038616906399fbab889060240161018060405180830381865afa158015610b91573d6000803e3d6000fd5b505050506040513d601f19601f82011682018060405250810190610bb59190611773565b505050506001600160801b031697505050505050505080600460008c81526020019081526020016000206001018190555081806020019051810190610bfa91906118c8565b909b909a5098505050505050505050565b6000546001600160a01b031690565b610c22611080565b6001600160a01b03918216600090815260036020526040902080546001600160a01b03191691909216179055565b60015460609081906001600160a01b0316331480610c865750610c71610c0b565b6001600160a01b0316336001600160a01b0316145b610ca25760405162461bcd60e51b81526004016104849061163c565b6000868152600460205260409020546001600160a01b03868116911614610cdb5760405162461bcd60e51b815260040161048490611657565b600080610ce788610e73565b6001600160a01b03828116600081815260036020526040808220549051602481019390935260448301859052606483018d90528b841660848401529497509295509216925090610d42906316762eed60e01b9060a40161051b565b905080806020019051810190610d5891906118c8565b60405163133f757160e31b81526004810186905291975095506000906001600160a01b038616906399fbab889060240161018060405180830381865afa158015610da6573d6000803e3d6000fd5b505050506040513d601f19601f82011682018060405250810190610dca9190611773565b505050506001600160801b031697505050505050505080600460008d815260200190815260200160002060010181905550505050505094509492505050565b606080600080610e1886610e73565b6001600160a01b03808316600090815260036020526040908190205490516352610d3960e01b815293965091945016915081906352610d39906108af9086908690600401611854565b6060610e6c82610902565b5092915050565b6000806000600260f085901c81548110610e8f57610e8f6116f8565b60009182526020808320909101546001600160a01b03908116808452600390925260409283902054925163206e892360e01b81529194506001600160f01b0387169350919091169063206e892390610eed9085908590600401611854565b602060405180830381865afa158015610f0a573d6000803e3d6000fd5b505050506040513d601f19601f82011682018060405250810190610f2e919061198d565b949193509150565b6060806000610f4484610e73565b50604080516001808252818301909252919350909150602080830190803683370190505092508083600081518110610f7e57610f7e6116f8565b6001600160a01b0392909216602092830291909101820152604080516001808252818301909252918281019080368337019050509150600182600081518110610fc957610fc96116f8565b60200260200101818152505050915091565b610fe3611080565b6001600160a01b0381166110485760405162461bcd60e51b815260206004820152602660248201527f4f776e61626c653a206e6577206f776e657220697320746865207a65726f206160448201526564647265737360d01b6064820152608401610484565b611051816110df565b50565b606061107983836040518060600160405280602781526020016119c76027913961112f565b9392505050565b33611089610c0b565b6001600160a01b0316146109bd5760405162461bcd60e51b815260206004820181905260248201527f4f776e61626c653a2063616c6c6572206973206e6f7420746865206f776e65726044820152606401610484565b600080546001600160a01b038381166001600160a01b0319831681178455604051919092169283917f8be0079c531659141344cd1fd0a4f28419497f9722a3daafe3b4186f6b6457e09190a35050565b60606001600160a01b0384163b6111975760405162461bcd60e51b815260206004820152602660248201527f416464726573733a2064656c65676174652063616c6c20746f206e6f6e2d636f6044820152651b9d1c9858dd60d21b6064820152608401610484565b600080856001600160a01b0316856040516111b291906119aa565b600060405180830381855af49150503d80600081146111ed576040519150601f19603f3d011682016040523d82523d6000602084013e6111f2565b606091505b509150915061120282828661120c565b9695505050505050565b6060831561121b575081611079565b82511561122b5782518084602001fd5b8160405162461bcd60e51b81526004016104849190611434565b6001600160a01b038116811461105157600080fd5b634e487b7160e01b600052604160045260246000fd5b604051601f8201601f1916810167ffffffffffffffff811182821017156112995761129961125a565b604052919050565b600067ffffffffffffffff8211156112bb576112bb61125a565b5060051b60200190565b600082601f8301126112d657600080fd5b813560206112eb6112e6836112a1565b611270565b82815260059290921b8401810191818101908684111561130a57600080fd5b8286015b84811015611325578035835291830191830161130e565b509695505050505050565b6000806000806080858703121561134657600080fd5b8435935060208086013561135981611245565b9350604086013567ffffffffffffffff8082111561137657600080fd5b818801915088601f83011261138a57600080fd5b81356113986112e6826112a1565b81815260059190911b8301840190848101908b8311156113b757600080fd5b938501935b828510156113de5784356113cf81611245565b825293850193908501906113bc565b9650505060608801359250808311156113f657600080fd5b5050611404878288016112c5565b91505092959194509250565b60005b8381101561142b578181015183820152602001611413565b50506000910152565b6020815260008251806020840152611453816040850160208701611410565b601f01601f19169190910160400192915050565b6000806040838503121561147a57600080fd5b82359150602083013561148c81611245565b809150509250929050565b6000602082840312156114a957600080fd5b813561107981611245565b6000602082840312156114c657600080fd5b5035919050565b600081518084526020808501945080840160005b838110156115065781516001600160a01b0316875295820195908201906001016114e1565b509495945050505050565b600081518084526020808501945080840160005b8381101561150657815187529582019590820190600101611525565b60408152600061155460408301856114cd565b82810360208401526115668185611511565b95945050505050565b60008060006060848603121561158457600080fd5b83359250602084013561159681611245565b915060408401356115a681611245565b809150509250925092565b600080604083850312156115c457600080fd5b82356115cf81611245565b9150602083013561148c81611245565b600080600080608085870312156115f557600080fd5b84359350602085013561160781611245565b925060408501359150606085013561161e81611245565b939692955090935050565b60208152600061107960208301846114cd565b6020808252600190820152603160f81b604082015260600190565b6020808252600190820152603960f81b604082015260600190565b60018060a01b038516815283602082015260806040820152600061169960808301856114cd565b82810360608401526116ab8185611511565b979650505050505050565b6000602082840312156116c857600080fd5b5051919050565b634e487b7160e01b600052601160045260246000fd5b80820180821115610661576106616116cf565b634e487b7160e01b600052603260045260246000fd5b600060018201611720576117206116cf565b5060010190565b805161173281611245565b919050565b805162ffffff8116811461173257600080fd5b8051600281900b811461173257600080fd5b80516001600160801b038116811461173257600080fd5b6000806000806000806000806000806000806101808d8f03121561179657600080fd5b8c516bffffffffffffffffffffffff811681146117b257600080fd5b9b506117c060208e01611727565b9a506117ce60408e01611727565b99506117dc60608e01611727565b98506117ea60808e01611737565b97506117f860a08e0161174a565b965061180660c08e0161174a565b955061181460e08e0161175c565b94506101008d015193506101208d015192506118336101408e0161175c565b91506118426101608e0161175c565b90509295989b509295989b509295989b565b6001600160a01b03929092168252602082015260400190565b600082601f83011261187e57600080fd5b8151602061188e6112e6836112a1565b82815260059290921b840181019181810190868411156118ad57600080fd5b8286015b8481101561132557805183529183019183016118b1565b600080604083850312156118db57600080fd5b825167ffffffffffffffff808211156118f357600080fd5b818501915085601f83011261190757600080fd5b815160206119176112e6836112a1565b82815260059290921b8401810191818101908984111561193657600080fd5b948201945b8386101561195d57855161194e81611245565b8252948201949082019061193b565b9188015191965090935050508082111561197657600080fd5b506119838582860161186d565b9150509250929050565b60006020828403121561199f57600080fd5b815161107981611245565b600082516119bc818460208701611410565b919091019291505056fe416464726573733a206c6f772d6c6576656c2064656c65676174652063616c6c206661696c6564a2646970667358221220347e12d333f06f9b1f1b1213d7c0c0cc04fbd6c7a931bc9e65a028242a56c1ea64736f6c63430008110033",
  "devdoc": {
    "kind": "dev",
    "methods": {
      "owner()": {
        "details": "Returns the address of the current owner."
      },
      "renounceOwnership()": {
        "details": "Leaves the contract without owner. It will not be possible to call `onlyOwner` functions anymore. Can only be called by the current owner. NOTE: Renouncing ownership will leave the contract without an owner, thereby removing any functionality that is only available to the owner."
      },
      "transferOwnership(address)": {
        "details": "Transfers ownership of the contract to a new account (`newOwner`). Can only be called by the current owner."
      }
    },
    "version": 1
  },
  "userdoc": {
    "kind": "user",
    "methods": {},
    "version": 1
  },
  "storageLayout": {
    "storage": [
      {
        "astId": 7,
        "contract": "contracts/Banks/ERC721Bank.sol:ERC721Bank",
        "label": "_owner",
        "offset": 0,
        "slot": "0",
        "type": "t_address"
      },
      {
        "astId": 3313,
        "contract": "contracts/Banks/ERC721Bank.sol:ERC721Bank",
        "label": "positionsManager",
        "offset": 0,
        "slot": "1",
        "type": "t_address"
      },
      {
        "astId": 4100,
        "contract": "contracts/Banks/ERC721Bank.sol:ERC721Bank",
        "label": "nftManagers",
        "offset": 0,
        "slot": "2",
        "type": "t_array(t_address)dyn_storage"
      },
      {
        "astId": 4104,
        "contract": "contracts/Banks/ERC721Bank.sol:ERC721Bank",
        "label": "erc721Wrappers",
        "offset": 0,
        "slot": "3",
        "type": "t_mapping(t_address,t_address)"
      },
      {
        "astId": 4109,
        "contract": "contracts/Banks/ERC721Bank.sol:ERC721Bank",
        "label": "poolInfo",
        "offset": 0,
        "slot": "4",
        "type": "t_mapping(t_uint256,t_struct(PoolInfo)4097_storage)"
      }
    ],
    "types": {
      "t_address": {
        "encoding": "inplace",
        "label": "address",
        "numberOfBytes": "20"
      },
      "t_array(t_address)dyn_storage": {
        "base": "t_address",
        "encoding": "dynamic_array",
        "label": "address[]",
        "numberOfBytes": "32"
      },
      "t_mapping(t_address,t_address)": {
        "encoding": "mapping",
        "key": "t_address",
        "label": "mapping(address => address)",
        "numberOfBytes": "32",
        "value": "t_address"
      },
      "t_mapping(t_uint256,t_struct(PoolInfo)4097_storage)": {
        "encoding": "mapping",
        "key": "t_uint256",
        "label": "mapping(uint256 => struct ERC721Bank.PoolInfo)",
        "numberOfBytes": "32",
        "value": "t_struct(PoolInfo)4097_storage"
      },
      "t_struct(PoolInfo)4097_storage": {
        "encoding": "inplace",
        "label": "struct ERC721Bank.PoolInfo",
        "members": [
          {
            "astId": 4094,
            "contract": "contracts/Banks/ERC721Bank.sol:ERC721Bank",
            "label": "user",
            "offset": 0,
            "slot": "0",
            "type": "t_address"
          },
          {
            "astId": 4096,
            "contract": "contracts/Banks/ERC721Bank.sol:ERC721Bank",
            "label": "liquidity",
            "offset": 0,
            "slot": "1",
            "type": "t_uint256"
          }
        ],
        "numberOfBytes": "64"
      },
      "t_uint256": {
        "encoding": "inplace",
        "label": "uint256",
        "numberOfBytes": "32"
      }
    }
  }
}