{
  "address": "0x450b252BB957C9a0190C6A415eae4D5B0DC23e33",
  "abi": [
    {
      "inputs": [
        {
          "internalType": "address",
          "name": "_masterChef",
          "type": "address"
        },
        {
          "internalType": "address",
          "name": "_baseReward",
          "type": "address"
        },
        {
          "internalType": "string",
          "name": "_pendingRewardGetter",
          "type": "string"
        }
      ],
      "stateMutability": "nonpayable",
      "type": "constructor"
    },
    {
      "anonymous": false,
      "inputs": [
        {
          "indexed": false,
          "internalType": "address",
          "name": "masterChef",
          "type": "address"
        },
        {
          "indexed": false,
          "internalType": "address",
          "name": "lpToken",
          "type": "address"
        },
        {
          "indexed": false,
          "internalType": "uint256",
          "name": "poolId",
          "type": "uint256"
        }
      ],
      "name": "LPTokenAdded",
      "type": "event"
    },
    {
      "anonymous": false,
      "inputs": [
        {
          "indexed": true,
          "internalType": "address",
          "name": "previousOwner",
          "type": "address"
        },
        {
          "indexed": true,
          "internalType": "address",
          "name": "newOwner",
          "type": "address"
        }
      ],
      "name": "OwnershipTransferred",
      "type": "event"
    },
    {
      "inputs": [],
      "name": "baseReward",
      "outputs": [
        {
          "internalType": "address",
          "name": "",
          "type": "address"
        }
      ],
      "stateMutability": "view",
      "type": "function"
    },
    {
      "inputs": [
        {
          "internalType": "address",
          "name": "masterChef",
          "type": "address"
        },
        {
          "internalType": "uint256",
          "name": "pid",
          "type": "uint256"
        },
        {
          "internalType": "uint256",
          "name": "amount",
          "type": "uint256"
        }
      ],
      "name": "deposit",
      "outputs": [],
      "stateMutability": "nonpayable",
      "type": "function"
    },
    {
      "inputs": [
        {
          "internalType": "address",
          "name": "lpToken",
          "type": "address"
        }
      ],
      "name": "getIdFromLpToken",
      "outputs": [
        {
          "internalType": "bool",
          "name": "",
          "type": "bool"
        },
        {
          "internalType": "uint256",
          "name": "",
          "type": "uint256"
        }
      ],
      "stateMutability": "view",
      "type": "function"
    },
    {
      "inputs": [
        {
          "internalType": "uint256",
          "name": "pid",
          "type": "uint256"
        }
      ],
      "name": "getLpToken",
      "outputs": [
        {
          "internalType": "address",
          "name": "",
          "type": "address"
        }
      ],
      "stateMutability": "view",
      "type": "function"
    },
    {
      "inputs": [
        {
          "internalType": "uint256",
          "name": "pid",
          "type": "uint256"
        }
      ],
      "name": "getPendingRewards",
      "outputs": [
        {
          "internalType": "address[]",
          "name": "rewards",
          "type": "address[]"
        },
        {
          "internalType": "uint256[]",
          "name": "amounts",
          "type": "uint256[]"
        }
      ],
      "stateMutability": "view",
      "type": "function"
    },
    {
      "inputs": [
        {
          "internalType": "uint256",
          "name": "pid",
          "type": "uint256"
        }
      ],
      "name": "getRewards",
      "outputs": [
        {
          "internalType": "address[]",
          "name": "",
          "type": "address[]"
        }
      ],
      "stateMutability": "view",
      "type": "function"
    },
    {
      "inputs": [
        {
          "internalType": "address",
          "name": "masterChef",
          "type": "address"
        },
        {
          "internalType": "uint256",
          "name": "pid",
          "type": "uint256"
        }
      ],
      "name": "harvest",
      "outputs": [],
      "stateMutability": "nonpayable",
      "type": "function"
    },
    {
      "inputs": [],
      "name": "initialize",
      "outputs": [],
      "stateMutability": "nonpayable",
      "type": "function"
    },
    {
      "inputs": [],
      "name": "masterChef",
      "outputs": [
        {
          "internalType": "address",
          "name": "",
          "type": "address"
        }
      ],
      "stateMutability": "view",
      "type": "function"
    },
    {
      "inputs": [],
      "name": "owner",
      "outputs": [
        {
          "internalType": "address",
          "name": "",
          "type": "address"
        }
      ],
      "stateMutability": "view",
      "type": "function"
    },
    {
      "inputs": [],
      "name": "pendingRewardGetter",
      "outputs": [
        {
          "internalType": "string",
          "name": "",
          "type": "string"
        }
      ],
      "stateMutability": "view",
      "type": "function"
    },
    {
      "inputs": [],
      "name": "renounceOwnership",
      "outputs": [],
      "stateMutability": "nonpayable",
      "type": "function"
    },
    {
      "inputs": [
        {
          "internalType": "uint256",
          "name": "pid",
          "type": "uint256"
        }
      ],
      "name": "setSupported",
      "outputs": [],
      "stateMutability": "nonpayable",
      "type": "function"
    },
    {
      "inputs": [
        {
          "internalType": "address",
          "name": "",
          "type": "address"
        }
      ],
      "name": "supportedLpIndices",
      "outputs": [
        {
          "internalType": "uint256",
          "name": "",
          "type": "uint256"
        }
      ],
      "stateMutability": "view",
      "type": "function"
    },
    {
      "inputs": [
        {
          "internalType": "address",
          "name": "",
          "type": "address"
        }
      ],
      "name": "supportedLps",
      "outputs": [
        {
          "internalType": "bool",
          "name": "",
          "type": "bool"
        }
      ],
      "stateMutability": "view",
      "type": "function"
    },
    {
      "inputs": [
        {
          "internalType": "address",
          "name": "newOwner",
          "type": "address"
        }
      ],
      "name": "transferOwnership",
      "outputs": [],
      "stateMutability": "nonpayable",
      "type": "function"
    },
    {
      "inputs": [
        {
          "internalType": "address",
          "name": "masterChef",
          "type": "address"
        },
        {
          "internalType": "uint256",
          "name": "pid",
          "type": "uint256"
        },
        {
          "internalType": "uint256",
          "name": "amount",
          "type": "uint256"
        }
      ],
      "name": "withdraw",
      "outputs": [],
      "stateMutability": "nonpayable",
      "type": "function"
    }
  ],
  "transactionHash": "0x53d32c5d042a7e0c1c3b551b68afd5b360376a24e975c5ed22006ba2ef4c9cb3",
  "args": [
    "0xDbc1A13490deeF9c3C12b44FE77b503c1B061739",
    "0x965F527D9159dCe6288a2219DB51fc6Eef120dD1",
    "pendingBSW(uint256,address)"
  ],
  "numDeployments": 1,
  "solcInputHash": "0e32d49de90c1ca08094a3215c0047c7",
  "bytecode": "0x60806040523480156200001157600080fd5b50604051620013d9380380620013d98339810160408190526200003491620002aa565b6200003f3362000091565b600380546001600160a01b038086166001600160a01b031992831617909255600480549285169290911691909117905560056200007d828262000415565b5062000088620000e1565b50505062000593565b600080546001600160a01b038381166001600160a01b0319831681178455604051919092169283917f8be0079c531659141344cd1fd0a4f28419497f9722a3daafe3b4186f6b6457e09190a35050565b6003546040805163040f1f6d60e11b815290516000926001600160a01b03169163081e3eda9160048083019260209291908290030181865afa1580156200012c573d6000803e3d6000fd5b505050506040513d601f19601f82011682018060405250810190620001529190620004e1565b905060005b8181101562000180576200016b8162000184565b806200017781620004fb565b91505062000157565b5050565b60006200019182620001c7565b6001600160a01b0316600090815260026020908152604080832094909455600190819052929020805460ff191690921790915550565b600354604051631526fe2760e01b81526004810183905260009182916001600160a01b0390911690631526fe2790602401608060405180830381865afa15801562000216573d6000803e3d6000fd5b505050506040513d601f19601f820116820180604052508101906200023c919062000523565b519392505050565b80516001600160a01b03811681146200025c57600080fd5b919050565b634e487b7160e01b600052604160045260246000fd5b604051601f8201601f191681016001600160401b0381118282101715620002a257620002a262000261565b604052919050565b600080600060608486031215620002c057600080fd5b620002cb8462000244565b92506020620002dc81860162000244565b60408601519093506001600160401b0380821115620002fa57600080fd5b818701915087601f8301126200030f57600080fd5b81518181111562000324576200032462000261565b62000338601f8201601f1916850162000277565b915080825288848285010111156200034f57600080fd5b60005b818110156200036f57838101850151838201860152840162000352565b506000848284010152508093505050509250925092565b600181811c908216806200039b57607f821691505b602082108103620003bc57634e487b7160e01b600052602260045260246000fd5b50919050565b601f8211156200041057600081815260208120601f850160051c81016020861015620003eb5750805b601f850160051c820191505b818110156200040c57828155600101620003f7565b5050505b505050565b81516001600160401b0381111562000431576200043162000261565b620004498162000442845462000386565b84620003c2565b602080601f831160018114620004815760008415620004685750858301515b600019600386901b1c1916600185901b1785556200040c565b600085815260208120601f198616915b82811015620004b25788860151825594840194600190910190840162000491565b5085821015620004d15787850151600019600388901b60f8161c191681555b5050505050600190811b01905550565b600060208284031215620004f457600080fd5b5051919050565b6000600182016200051c57634e487b7160e01b600052601160045260246000fd5b5060010190565b6000608082840312156200053657600080fd5b604051608081016001600160401b03811182821017156200055b576200055b62000261565b604052620005698362000244565b81526020830151602082015260408301516040820152606083015160608201528091505092915050565b610e3680620005a36000396000f3fe608060405234801561001057600080fd5b50600436106100eb5760003560e01c806376ad03bc1161009257806376ad03bc146101d75780638084c91d146101ea5780638129fc1c146102145780638da5cb5b1461021c578063b5c5f6721461022d578063c0d8012c14610240578063c1e9b9fb14610260578063f2fde38b14610275578063f9f87c181461028857600080fd5b8063018ee9b7146100f05780630efe6a8b146101055780632222a24c14610118578063334750301461012b57806351c2588e1461015e578063575a86b21461018957806366500f801461019c578063715018a6146101cf575b600080fd5b6101036100fe366004610a77565b6102a9565b005b610103610113366004610aa3565b61036f565b610103610126366004610ad8565b6103d6565b61014b610139366004610af1565b60026020526000908152604090205481565b6040519081526020015b60405180910390f35b61017161016c366004610ad8565b610417565b6040516001600160a01b039091168152602001610155565b600354610171906001600160a01b031681565b6101bf6101aa366004610af1565b60016020526000908152604090205460ff1681565b6040519015158152602001610155565b610103610491565b600454610171906001600160a01b031681565b6101fd6101f8366004610af1565b6104a5565b604080519215158352602083019190915201610155565b61010361050b565b6000546001600160a01b0316610171565b61010361023b366004610aa3565b6105a5565b61025361024e366004610ad8565b6105d9565b6040516101559190610b52565b61026861063d565b6040516101559190610b89565b610103610283366004610af1565b6106cb565b61029b610296366004610ad8565b610749565b604051610155929190610bbc565b604051630441a3e760e41b815260048101829052600a60248201526001600160a01b0383169063441a3e7090604401600060405180830381600087803b1580156102f257600080fd5b505af1158015610306573d6000803e3d6000fd5b5050604051631c57762b60e31b815260048101849052600a60248201526001600160a01b038516925063e2bbb1589150604401600060405180830381600087803b15801561035357600080fd5b505af1158015610367573d6000803e3d6000fd5b505050505050565b604051631c57762b60e31b815260048101839052602481018290526001600160a01b0384169063e2bbb158906044015b600060405180830381600087803b1580156103b957600080fd5b505af11580156103cd573d6000803e3d6000fd5b50505050505050565b60006103e182610417565b6001600160a01b0316600090815260026020908152604080832094909455600190819052929020805460ff191690921790915550565b600354604051631526fe2760e01b81526004810183905260009182916001600160a01b0390911690631526fe2790602401608060405180830381865afa158015610465573d6000803e3d6000fd5b505050506040513d601f19601f820116820180604052508101906104899190610c13565b519392505050565b610499610879565b6104a360006108d3565b565b6001600160a01b038116600090815260016020526040812054819060ff1615806104dc57506004546001600160a01b038481169116145b156104ec57506000928392509050565b50506001600160a01b0316600090815260026020526040902054600191565b6003546040805163040f1f6d60e11b815290516000926001600160a01b03169163081e3eda9160048083019260209291908290030181865afa158015610555573d6000803e3d6000fd5b505050506040513d601f19601f820116820180604052508101906105799190610c90565b905060005b818110156105a15761058f816103d6565b8061059981610ca9565b91505061057e565b5050565b604051630441a3e760e41b815260048101839052602481018290526001600160a01b0384169063441a3e709060440161039f565b6040805160018082528183019092526060916000919060208083019080368337505060045482519293506001600160a01b03169183915060009061061f5761061f610cd0565b6001600160a01b039092166020928302919091019091015292915050565b6005805461064a90610ce6565b80601f016020809104026020016040519081016040528092919081815260200182805461067690610ce6565b80156106c35780601f10610698576101008083540402835291602001916106c3565b820191906000526020600020905b8154815290600101906020018083116106a657829003601f168201915b505050505081565b6106d3610879565b6001600160a01b03811661073d5760405162461bcd60e51b815260206004820152602660248201527f4f776e61626c653a206e6577206f776e657220697320746865207a65726f206160448201526564647265737360d01b60648201526084015b60405180910390fd5b610746816108d3565b50565b6040516024810182905233604482015260609081906000906107c29060059060640160408051601f19818403018152908290529161078691610d20565b6040519081900390206020820180516001600160e01b03166001600160e01b03199092169190911790526003546001600160a01b031690610923565b90506000818060200190518101906107da9190610c90565b60408051600180825281830190925291925060208083019080368337505060045482519296506001600160a01b03169186915060009061081c5761081c610cd0565b6001600160a01b0392909216602092830291909101820152604080516001808252818301909252918281019080368337019050509250808360008151811061086657610866610cd0565b6020026020010181815250505050915091565b6000546001600160a01b031633146104a35760405162461bcd60e51b815260206004820181905260248201527f4f776e61626c653a2063616c6c6572206973206e6f7420746865206f776e65726044820152606401610734565b600080546001600160a01b038381166001600160a01b0319831681178455604051919092169283917f8be0079c531659141344cd1fd0a4f28419497f9722a3daafe3b4186f6b6457e09190a35050565b60606109488383604051806060016040528060258152602001610ddc6025913961094f565b9392505050565b60606001600160a01b0384163b6109b45760405162461bcd60e51b8152602060048201526024808201527f416464726573733a207374617469632063616c6c20746f206e6f6e2d636f6e746044820152631c9858dd60e21b6064820152608401610734565b600080856001600160a01b0316856040516109cf9190610dbf565b600060405180830381855afa9150503d8060008114610a0a576040519150601f19603f3d011682016040523d82523d6000602084013e610a0f565b606091505b5091509150610a1f828286610a29565b9695505050505050565b60608315610a38575081610948565b825115610a485782518084602001fd5b8160405162461bcd60e51b81526004016107349190610b89565b6001600160a01b038116811461074657600080fd5b60008060408385031215610a8a57600080fd5b8235610a9581610a62565b946020939093013593505050565b600080600060608486031215610ab857600080fd5b8335610ac381610a62565b95602085013595506040909401359392505050565b600060208284031215610aea57600080fd5b5035919050565b600060208284031215610b0357600080fd5b813561094881610a62565b600081518084526020808501945080840160005b83811015610b475781516001600160a01b031687529582019590820190600101610b22565b509495945050505050565b6020815260006109486020830184610b0e565b60005b83811015610b80578181015183820152602001610b68565b50506000910152565b6020815260008251806020840152610ba8816040850160208701610b65565b601f01601f19169190910160400192915050565b604081526000610bcf6040830185610b0e565b82810360208481019190915284518083528582019282019060005b81811015610c0657845183529383019391830191600101610bea565b5090979650505050505050565b600060808284031215610c2557600080fd5b6040516080810181811067ffffffffffffffff82111715610c5657634e487b7160e01b600052604160045260246000fd5b6040528251610c6481610a62565b808252506020830151602082015260408301516040820152606083015160608201528091505092915050565b600060208284031215610ca257600080fd5b5051919050565b600060018201610cc957634e487b7160e01b600052601160045260246000fd5b5060010190565b634e487b7160e01b600052603260045260246000fd5b600181811c90821680610cfa57607f821691505b602082108103610d1a57634e487b7160e01b600052602260045260246000fd5b50919050565b600080835481600182811c915080831680610d3c57607f831692505b60208084108203610d5b57634e487b7160e01b86526022600452602486fd5b818015610d6f5760018114610d8457610db1565b60ff1986168952841515850289019650610db1565b60008a81526020902060005b86811015610da95781548b820152908501908301610d90565b505084890196505b509498975050505050505050565b60008251610dd1818460208701610b65565b919091019291505056fe416464726573733a206c6f772d6c6576656c207374617469632063616c6c206661696c6564a264697066735822122025dba17d936940205fd6cb353248efd2ba1889ec0aea53115f41146cde6d988764736f6c63430008110033",
  "devdoc": {
    "kind": "dev",
    "methods": {
      "owner()": {
        "details": "Returns the address of the current owner."
      },
      "renounceOwnership()": {
        "details": "Leaves the contract without owner. It will not be possible to call `onlyOwner` functions anymore. Can only be called by the current owner. NOTE: Renouncing ownership will leave the contract without an owner, thereby removing any functionality that is only available to the owner."
      },
      "transferOwnership(address)": {
        "details": "Transfers ownership of the contract to a new account (`newOwner`). Can only be called by the current owner."
      }
    },
    "version": 1
  },
  "userdoc": {
    "kind": "user",
    "methods": {},
    "version": 1
  },
  "storageLayout": {
    "storage": [
      {
        "astId": 7,
        "contract": "contracts/Banks/MasterChefWrappers.sol:MasterChefV1Wrapper",
        "label": "_owner",
        "offset": 0,
        "slot": "0",
        "type": "t_address"
      },
      {
        "astId": 7559,
        "contract": "contracts/Banks/MasterChefWrappers.sol:MasterChefV1Wrapper",
        "label": "supportedLps",
        "offset": 0,
        "slot": "1",
        "type": "t_mapping(t_address,t_bool)"
      },
      {
        "astId": 7563,
        "contract": "contracts/Banks/MasterChefWrappers.sol:MasterChefV1Wrapper",
        "label": "supportedLpIndices",
        "offset": 0,
        "slot": "2",
        "type": "t_mapping(t_address,t_uint256)"
      },
      {
        "astId": 7565,
        "contract": "contracts/Banks/MasterChefWrappers.sol:MasterChefV1Wrapper",
        "label": "masterChef",
        "offset": 0,
        "slot": "3",
        "type": "t_address"
      },
      {
        "astId": 7567,
        "contract": "contracts/Banks/MasterChefWrappers.sol:MasterChefV1Wrapper",
        "label": "baseReward",
        "offset": 0,
        "slot": "4",
        "type": "t_address"
      },
      {
        "astId": 7569,
        "contract": "contracts/Banks/MasterChefWrappers.sol:MasterChefV1Wrapper",
        "label": "pendingRewardGetter",
        "offset": 0,
        "slot": "5",
        "type": "t_string_storage"
      }
    ],
    "types": {
      "t_address": {
        "encoding": "inplace",
        "label": "address",
        "numberOfBytes": "20"
      },
      "t_bool": {
        "encoding": "inplace",
        "label": "bool",
        "numberOfBytes": "1"
      },
      "t_mapping(t_address,t_bool)": {
        "encoding": "mapping",
        "key": "t_address",
        "label": "mapping(address => bool)",
        "numberOfBytes": "32",
        "value": "t_bool"
      },
      "t_mapping(t_address,t_uint256)": {
        "encoding": "mapping",
        "key": "t_address",
        "label": "mapping(address => uint256)",
        "numberOfBytes": "32",
        "value": "t_uint256"
      },
      "t_string_storage": {
        "encoding": "bytes",
        "label": "string",
        "numberOfBytes": "32"
      },
      "t_uint256": {
        "encoding": "inplace",
        "label": "uint256",
        "numberOfBytes": "32"
      }
    }
  }
}