{
  "address": "0x16D232aEFD74861aac657435bA18f191a634cBC3",
  "abi": [
    {
      "inputs": [
        {
          "internalType": "address",
          "name": "_positionsManager",
          "type": "address"
        }
      ],
      "stateMutability": "nonpayable",
      "type": "constructor"
    },
    {
      "anonymous": false,
      "inputs": [
        {
          "indexed": true,
          "internalType": "address",
          "name": "account",
          "type": "address"
        },
        {
          "indexed": true,
          "internalType": "address",
          "name": "operator",
          "type": "address"
        },
        {
          "indexed": false,
          "internalType": "bool",
          "name": "approved",
          "type": "bool"
        }
      ],
      "name": "ApprovalForAll",
      "type": "event"
    },
    {
      "anonymous": false,
      "inputs": [
        {
          "indexed": false,
          "internalType": "uint256",
          "name": "tokenId",
          "type": "uint256"
        },
        {
          "indexed": false,
          "internalType": "address",
          "name": "userAddress",
          "type": "address"
        },
        {
          "indexed": false,
          "internalType": "uint256",
          "name": "amount",
          "type": "uint256"
        },
        {
          "indexed": false,
          "internalType": "address",
          "name": "receiver",
          "type": "address"
        }
      ],
      "name": "Burn",
      "type": "event"
    },
    {
      "anonymous": false,
      "inputs": [
        {
          "indexed": false,
          "internalType": "uint256",
          "name": "tokenId",
          "type": "uint256"
        },
        {
          "indexed": false,
          "internalType": "address",
          "name": "userAddress",
          "type": "address"
        },
        {
          "indexed": false,
          "internalType": "address",
          "name": "receiver",
          "type": "address"
        }
      ],
      "name": "Harvest",
      "type": "event"
    },
    {
      "anonymous": false,
      "inputs": [
        {
          "indexed": false,
          "internalType": "uint256",
          "name": "tokenId",
          "type": "uint256"
        },
        {
          "indexed": false,
          "internalType": "address",
          "name": "userAddress",
          "type": "address"
        },
        {
          "indexed": false,
          "internalType": "uint256",
          "name": "amount",
          "type": "uint256"
        }
      ],
      "name": "Mint",
      "type": "event"
    },
    {
      "anonymous": false,
      "inputs": [
        {
          "indexed": true,
          "internalType": "address",
          "name": "previousOwner",
          "type": "address"
        },
        {
          "indexed": true,
          "internalType": "address",
          "name": "newOwner",
          "type": "address"
        }
      ],
      "name": "OwnershipTransferred",
      "type": "event"
    },
    {
      "anonymous": false,
      "inputs": [
        {
          "indexed": false,
          "internalType": "address",
          "name": "masterChef",
          "type": "address"
        },
        {
          "indexed": false,
          "internalType": "address",
          "name": "wrapper",
          "type": "address"
        }
      ],
      "name": "SetMasterChefWrapper",
      "type": "event"
    },
    {
      "anonymous": false,
      "inputs": [
        {
          "indexed": true,
          "internalType": "address",
          "name": "operator",
          "type": "address"
        },
        {
          "indexed": true,
          "internalType": "address",
          "name": "from",
          "type": "address"
        },
        {
          "indexed": true,
          "internalType": "address",
          "name": "to",
          "type": "address"
        },
        {
          "indexed": false,
          "internalType": "uint256[]",
          "name": "ids",
          "type": "uint256[]"
        },
        {
          "indexed": false,
          "internalType": "uint256[]",
          "name": "values",
          "type": "uint256[]"
        }
      ],
      "name": "TransferBatch",
      "type": "event"
    },
    {
      "anonymous": false,
      "inputs": [
        {
          "indexed": true,
          "internalType": "address",
          "name": "operator",
          "type": "address"
        },
        {
          "indexed": true,
          "internalType": "address",
          "name": "from",
          "type": "address"
        },
        {
          "indexed": true,
          "internalType": "address",
          "name": "to",
          "type": "address"
        },
        {
          "indexed": false,
          "internalType": "uint256",
          "name": "id",
          "type": "uint256"
        },
        {
          "indexed": false,
          "internalType": "uint256",
          "name": "value",
          "type": "uint256"
        }
      ],
      "name": "TransferSingle",
      "type": "event"
    },
    {
      "anonymous": false,
      "inputs": [
        {
          "indexed": false,
          "internalType": "string",
          "name": "value",
          "type": "string"
        },
        {
          "indexed": true,
          "internalType": "uint256",
          "name": "id",
          "type": "uint256"
        }
      ],
      "name": "URI",
      "type": "event"
    },
    {
      "inputs": [
        {
          "internalType": "address",
          "name": "account",
          "type": "address"
        },
        {
          "internalType": "uint256",
          "name": "id",
          "type": "uint256"
        }
      ],
      "name": "balanceOf",
      "outputs": [
        {
          "internalType": "uint256",
          "name": "",
          "type": "uint256"
        }
      ],
      "stateMutability": "view",
      "type": "function"
    },
    {
      "inputs": [
        {
          "internalType": "address[]",
          "name": "accounts",
          "type": "address[]"
        },
        {
          "internalType": "uint256[]",
          "name": "ids",
          "type": "uint256[]"
        }
      ],
      "name": "balanceOfBatch",
      "outputs": [
        {
          "internalType": "uint256[]",
          "name": "",
          "type": "uint256[]"
        }
      ],
      "stateMutability": "view",
      "type": "function"
    },
    {
      "inputs": [
        {
          "internalType": "address",
          "name": "",
          "type": "address"
        }
      ],
      "name": "balances",
      "outputs": [
        {
          "internalType": "uint256",
          "name": "",
          "type": "uint256"
        }
      ],
      "stateMutability": "view",
      "type": "function"
    },
    {
      "inputs": [
        {
          "internalType": "uint256",
          "name": "tokenId",
          "type": "uint256"
        },
        {
          "internalType": "address",
          "name": "userAddress",
          "type": "address"
        },
        {
          "internalType": "uint256",
          "name": "amount",
          "type": "uint256"
        },
        {
          "internalType": "address",
          "name": "receiver",
          "type": "address"
        }
      ],
      "name": "burn",
      "outputs": [
        {
          "internalType": "address[]",
          "name": "outTokens",
          "type": "address[]"
        },
        {
          "internalType": "uint256[]",
          "name": "tokenAmounts",
          "type": "uint256[]"
        }
      ],
      "stateMutability": "nonpayable",
      "type": "function"
    },
    {
      "inputs": [
        {
          "internalType": "uint256",
          "name": "id",
          "type": "uint256"
        }
      ],
      "name": "decodeId",
      "outputs": [
        {
          "internalType": "address",
          "name": "lpToken",
          "type": "address"
        },
        {
          "internalType": "address",
          "name": "masterChef",
          "type": "address"
        },
        {
          "internalType": "uint256",
          "name": "pid",
          "type": "uint256"
        }
      ],
      "stateMutability": "view",
      "type": "function"
    },
    {
      "inputs": [
        {
          "internalType": "address",
          "name": "masterChef",
          "type": "address"
        },
        {
          "internalType": "uint256",
          "name": "pid",
          "type": "uint256"
        }
      ],
      "name": "encodeId",
      "outputs": [
        {
          "internalType": "uint256",
          "name": "",
          "type": "uint256"
        }
      ],
      "stateMutability": "pure",
      "type": "function"
    },
    {
      "inputs": [
        {
          "internalType": "address",
          "name": "lpToken",
          "type": "address"
        }
      ],
      "name": "getIdFromLpToken",
      "outputs": [
        {
          "internalType": "bool",
          "name": "",
          "type": "bool"
        },
        {
          "internalType": "uint256",
          "name": "",
          "type": "uint256"
        }
      ],
      "stateMutability": "view",
      "type": "function"
    },
    {
      "inputs": [
        {
          "internalType": "uint256",
          "name": "id",
          "type": "uint256"
        }
      ],
      "name": "getLPToken",
      "outputs": [
        {
          "internalType": "address",
          "name": "tokenAddress",
          "type": "address"
        }
      ],
      "stateMutability": "view",
      "type": "function"
    },
    {
      "inputs": [
        {
          "internalType": "uint256",
          "name": "tokenId",
          "type": "uint256"
        },
        {
          "internalType": "address",
          "name": "user",
          "type": "address"
        }
      ],
      "name": "getPendingRewardsForUser",
      "outputs": [
        {
          "internalType": "address[]",
          "name": "rewards",
          "type": "address[]"
        },
        {
          "internalType": "uint256[]",
          "name": "amounts",
          "type": "uint256[]"
        }
      ],
      "stateMutability": "view",
      "type": "function"
    },
    {
      "inputs": [
        {
          "internalType": "uint256",
          "name": "tokenId",
          "type": "uint256"
        },
        {
          "internalType": "address",
          "name": "userAddress",
          "type": "address"
        }
      ],
      "name": "getPositionTokens",
      "outputs": [
        {
          "internalType": "address[]",
          "name": "outTokens",
          "type": "address[]"
        },
        {
          "internalType": "uint256[]",
          "name": "tokenAmounts",
          "type": "uint256[]"
        }
      ],
      "stateMutability": "view",
      "type": "function"
    },
    {
      "inputs": [
        {
          "internalType": "uint256",
          "name": "tokenId",
          "type": "uint256"
        }
      ],
      "name": "getRewards",
      "outputs": [
        {
          "internalType": "address[]",
          "name": "",
          "type": "address[]"
        }
      ],
      "stateMutability": "view",
      "type": "function"
    },
    {
      "inputs": [
        {
          "internalType": "uint256",
          "name": "tokenId",
          "type": "uint256"
        }
      ],
      "name": "getUnderlyingForFirstDeposit",
      "outputs": [
        {
          "internalType": "address[]",
          "name": "underlying",
          "type": "address[]"
        },
        {
          "internalType": "uint256[]",
          "name": "ratios",
          "type": "uint256[]"
        }
      ],
      "stateMutability": "view",
      "type": "function"
    },
    {
      "inputs": [
        {
          "internalType": "uint256",
          "name": "tokenId",
          "type": "uint256"
        }
      ],
      "name": "getUnderlyingForRecurringDeposit",
      "outputs": [
        {
          "internalType": "address[]",
          "name": "",
          "type": "address[]"
        },
        {
          "internalType": "uint256[]",
          "name": "ratios",
          "type": "uint256[]"
        }
      ],
      "stateMutability": "view",
      "type": "function"
    },
    {
      "inputs": [
        {
          "internalType": "uint256",
          "name": "tokenId",
          "type": "uint256"
        },
        {
          "internalType": "address",
          "name": "userAddress",
          "type": "address"
        },
        {
          "internalType": "address",
          "name": "receiver",
          "type": "address"
        }
      ],
      "name": "harvest",
      "outputs": [
        {
          "internalType": "address[]",
          "name": "rewardAddresses",
          "type": "address[]"
        },
        {
          "internalType": "uint256[]",
          "name": "rewardAmounts",
          "type": "uint256[]"
        }
      ],
      "stateMutability": "nonpayable",
      "type": "function"
    },
    {
      "inputs": [
        {
          "internalType": "address",
          "name": "account",
          "type": "address"
        },
        {
          "internalType": "address",
          "name": "operator",
          "type": "address"
        }
      ],
      "name": "isApprovedForAll",
      "outputs": [
        {
          "internalType": "bool",
          "name": "",
          "type": "bool"
        }
      ],
      "stateMutability": "view",
      "type": "function"
    },
    {
      "inputs": [],
      "name": "isUnderlyingERC721",
      "outputs": [
        {
          "internalType": "bool",
          "name": "",
          "type": "bool"
        }
      ],
      "stateMutability": "pure",
      "type": "function"
    },
    {
      "inputs": [
        {
          "internalType": "address",
          "name": "",
          "type": "address"
        }
      ],
      "name": "masterChefWrappers",
      "outputs": [
        {
          "internalType": "address",
          "name": "",
          "type": "address"
        }
      ],
      "stateMutability": "view",
      "type": "function"
    },
    {
      "inputs": [
        {
          "internalType": "uint256",
          "name": "tokenId",
          "type": "uint256"
        },
        {
          "internalType": "address",
          "name": "userAddress",
          "type": "address"
        },
        {
          "internalType": "address[]",
          "name": "suppliedTokens",
          "type": "address[]"
        },
        {
          "internalType": "uint256[]",
          "name": "suppliedAmounts",
          "type": "uint256[]"
        }
      ],
      "name": "mint",
      "outputs": [
        {
          "internalType": "uint256",
          "name": "",
          "type": "uint256"
        }
      ],
      "stateMutability": "nonpayable",
      "type": "function"
    },
    {
      "inputs": [
        {
          "internalType": "uint256",
          "name": "tokenId",
          "type": "uint256"
        },
        {
          "internalType": "address",
          "name": "userAddress",
          "type": "address"
        },
        {
          "internalType": "address[]",
          "name": "suppliedTokens",
          "type": "address[]"
        },
        {
          "internalType": "uint256[]",
          "name": "suppliedAmounts",
          "type": "uint256[]"
        }
      ],
      "name": "mintRecurring",
      "outputs": [
        {
          "internalType": "uint256",
          "name": "",
          "type": "uint256"
        }
      ],
      "stateMutability": "nonpayable",
      "type": "function"
    },
    {
      "inputs": [],
      "name": "name",
      "outputs": [
        {
          "internalType": "string",
          "name": "",
          "type": "string"
        }
      ],
      "stateMutability": "pure",
      "type": "function"
    },
    {
      "inputs": [],
      "name": "owner",
      "outputs": [
        {
          "internalType": "address",
          "name": "",
          "type": "address"
        }
      ],
      "stateMutability": "view",
      "type": "function"
    },
    {
      "inputs": [
        {
          "internalType": "uint256",
          "name": "",
          "type": "uint256"
        }
      ],
      "name": "poolInfo",
      "outputs": [
        {
          "internalType": "address",
          "name": "lpToken",
          "type": "address"
        },
        {
          "internalType": "uint256",
          "name": "lpSupply",
          "type": "uint256"
        }
      ],
      "stateMutability": "view",
      "type": "function"
    },
    {
      "inputs": [],
      "name": "renounceOwnership",
      "outputs": [],
      "stateMutability": "nonpayable",
      "type": "function"
    },
    {
      "inputs": [
        {
          "internalType": "address",
          "name": "from",
          "type": "address"
        },
        {
          "internalType": "address",
          "name": "to",
          "type": "address"
        },
        {
          "internalType": "uint256[]",
          "name": "ids",
          "type": "uint256[]"
        },
        {
          "internalType": "uint256[]",
          "name": "amounts",
          "type": "uint256[]"
        },
        {
          "internalType": "bytes",
          "name": "data",
          "type": "bytes"
        }
      ],
      "name": "safeBatchTransferFrom",
      "outputs": [],
      "stateMutability": "nonpayable",
      "type": "function"
    },
    {
      "inputs": [
        {
          "internalType": "address",
          "name": "from",
          "type": "address"
        },
        {
          "internalType": "address",
          "name": "to",
          "type": "address"
        },
        {
          "internalType": "uint256",
          "name": "id",
          "type": "uint256"
        },
        {
          "internalType": "uint256",
          "name": "amount",
          "type": "uint256"
        },
        {
          "internalType": "bytes",
          "name": "data",
          "type": "bytes"
        }
      ],
      "name": "safeTransferFrom",
      "outputs": [],
      "stateMutability": "nonpayable",
      "type": "function"
    },
    {
      "inputs": [
        {
          "internalType": "address",
          "name": "operator",
          "type": "address"
        },
        {
          "internalType": "bool",
          "name": "approved",
          "type": "bool"
        }
      ],
      "name": "setApprovalForAll",
      "outputs": [],
      "stateMutability": "nonpayable",
      "type": "function"
    },
    {
      "inputs": [
        {
          "internalType": "address",
          "name": "masterChef",
          "type": "address"
        },
        {
          "internalType": "address",
          "name": "wrapper",
          "type": "address"
        }
      ],
      "name": "setMasterChefWrapper",
      "outputs": [],
      "stateMutability": "nonpayable",
      "type": "function"
    },
    {
      "inputs": [
        {
          "internalType": "uint256",
          "name": "",
          "type": "uint256"
        }
      ],
      "name": "supportedMasterChefs",
      "outputs": [
        {
          "internalType": "address",
          "name": "",
          "type": "address"
        }
      ],
      "stateMutability": "view",
      "type": "function"
    },
    {
      "inputs": [
        {
          "internalType": "bytes4",
          "name": "interfaceId",
          "type": "bytes4"
        }
      ],
      "name": "supportsInterface",
      "outputs": [
        {
          "internalType": "bool",
          "name": "",
          "type": "bool"
        }
      ],
      "stateMutability": "view",
      "type": "function"
    },
    {
      "inputs": [
        {
          "internalType": "address",
          "name": "newOwner",
          "type": "address"
        }
      ],
      "name": "transferOwnership",
      "outputs": [],
      "stateMutability": "nonpayable",
      "type": "function"
    },
    {
      "inputs": [
        {
          "internalType": "uint256",
          "name": "",
          "type": "uint256"
        }
      ],
      "name": "uri",
      "outputs": [
        {
          "internalType": "string",
          "name": "",
          "type": "string"
        }
      ],
      "stateMutability": "view",
      "type": "function"
    },
    {
      "stateMutability": "payable",
      "type": "receive"
    }
  ],
  "transactionHash": "0x75c8cd9d3084902324bdc4f264ef6cd2a9173ed2608e1c02bb2c1d25208cd458",
  "args": [
    "0x833528b775077A1659b7C879C483DF12d86ec769"
  ],
  "numDeployments": 1,
  "solcInputHash": "0e32d49de90c1ca08094a3215c0047c7",
  "bytecode": "0x608060405264e8d4a510006005553480156200001a57600080fd5b5060405162004204380380620042048339810160408190526200003d9162000106565b60408051808201909152600e81526d4d61737465724368656642616e6b60901b602082015281906200006f81620000a2565b506200007b33620000b4565b600480546001600160a01b0319166001600160a01b039290921691909117905550620002a9565b6002620000b08282620001dd565b5050565b600380546001600160a01b038381166001600160a01b0319831681179093556040519116919082907f8be0079c531659141344cd1fd0a4f28419497f9722a3daafe3b4186f6b6457e090600090a35050565b6000602082840312156200011957600080fd5b81516001600160a01b03811681146200013157600080fd5b9392505050565b634e487b7160e01b600052604160045260246000fd5b600181811c908216806200016357607f821691505b6020821081036200018457634e487b7160e01b600052602260045260246000fd5b50919050565b601f821115620001d857600081815260208120601f850160051c81016020861015620001b35750805b601f850160051c820191505b81811015620001d457828155600101620001bf565b5050505b505050565b81516001600160401b03811115620001f957620001f962000138565b62000211816200020a84546200014e565b846200018a565b602080601f831160018114620002495760008415620002305750858301515b600019600386901b1c1916600185901b178555620001d4565b600085815260208120601f198616915b828110156200027a5788860151825594840194600190910190840162000259565b5085821015620002995787850151600019600388901b60f8161c191681555b5050505050600190811b01905550565b613f4b80620002b96000396000f3fe60806040526004361061019b5760003560e01c8063778634e8116100e2578063bfb28ea311610085578063bfb28ea31461054c578063bff8215d1461056c578063c0d8012c1461058c578063dc20c6fa146105b9578063e634e1d7146105ff578063e985e9c51461061f578063f242432a14610668578063f2fde38b1461068857600080fd5b8063778634e81461043b5780638084c91d1461045b57806387a4459b1461049257806389e5b9b7146104b25780638da5cb5b146104e35780639c73e483146104f8578063a22cb4651461050c578063bf7be2101461052c57600080fd5b80632eae26a31161014a5780632eae26a3146103065780632eb2c2d61461033357806331feab2914610355578063374598ad146103755780633aad1984146103a357806347fae3df146103c35780634e1273f4146103f9578063715018a61461042657600080fd5b8062fdd58e146101a757806301c777ea146101da57806301ffc9a7146101fa57806306fdde031461022a5780630e89341c1461026b5780631526fe271461028b57806327e235e3146102d957600080fd5b366101a257005b600080fd5b3480156101b357600080fd5b506101c76101c23660046131fa565b6106a8565b6040519081526020015b60405180910390f35b3480156101e657600080fd5b506101c76101f536600461336b565b610741565b34801561020657600080fd5b5061021a610215366004613400565b610758565b60405190151581526020016101d1565b34801561023657600080fd5b5060408051808201909152600f81526e4d6173746572636865662042616e6b60881b60208201525b6040516101d1919061346d565b34801561027757600080fd5b5061025e610286366004613480565b6107a8565b34801561029757600080fd5b506102cb6102a6366004613480565b600660205260009081526040902080546001909101546001600160a01b039091169082565b6040516101d1929190613499565b3480156102e557600080fd5b506101c76102f43660046134b2565b60096020526000908152604090205481565b34801561031257600080fd5b50610326610321366004613480565b61083c565b6040516101d191906134cf565b34801561033f57600080fd5b5061035361034e366004613556565b610850565b005b34801561036157600080fd5b506101c761037036600461336b565b61089c565b34801561038157600080fd5b50610395610390366004613603565b610c85565b6040516101d19291906136a7565b3480156103af57600080fd5b506103956103be366004613480565b610d42565b3480156103cf57600080fd5b506103266103de3660046134b2565b6007602052600090815260409020546001600160a01b031681565b34801561040557600080fd5b506104196104143660046136cc565b610d57565b6040516101d1919061372f565b34801561043257600080fd5b50610353610e80565b34801561044757600080fd5b50610353610456366004613742565b610e94565b34801561046757600080fd5b5061047b6104763660046134b2565b610faf565b6040805192151583526020830191909152016101d1565b34801561049e57600080fd5b506103956104ad366004613770565b6110db565b3480156104be57600080fd5b506101c76104cd3660046131fa565b60a081901b6001600160a01b0383161792915050565b3480156104ef57600080fd5b50610326611449565b34801561050457600080fd5b50600061021a565b34801561051857600080fd5b506103536105273660046137c0565b611458565b34801561053857600080fd5b506103956105473660046137ee565b611463565b34801561055857600080fd5b50610395610567366004613603565b61178d565b34801561057857600080fd5b50610326610587366004613480565b6119e8565b34801561059857600080fd5b506105ac6105a7366004613480565b611a12565b6040516101d19190613838565b3480156105c557600080fd5b506105d96105d4366004613480565b611aa8565b604080516001600160a01b039485168152939092166020840152908201526060016101d1565b34801561060b57600080fd5b5061039561061a366004613480565b611b34565b34801561062b57600080fd5b5061021a61063a366004613742565b6001600160a01b03918216600090815260016020908152604080832093909416825291909152205460ff1690565b34801561067457600080fd5b5061035361068336600461384b565b611bd1565b34801561069457600080fd5b506103536106a33660046134b2565b611c16565b60006001600160a01b0383166107185760405162461bcd60e51b815260206004820152602a60248201527f455243313135353a2061646472657373207a65726f206973206e6f742061207660448201526930b634b21037bbb732b960b11b60648201526084015b60405180910390fd5b506000818152602081815260408083206001600160a01b03861684529091529020545b92915050565b600061074f8585858561089c565b95945050505050565b60006001600160e01b03198216636cdb3d1360e11b148061078957506001600160e01b031982166303a24d0760e21b145b8061073b57506301ffc9a760e01b6001600160e01b031983161461073b565b6060600280546107b7906138b3565b80601f01602080910402602001604051908101604052809291908181526020018280546107e3906138b3565b80156108305780601f1061080557610100808354040283529160200191610830565b820191906000526020600020905b81548152906001019060200180831161081357829003601f168201915b50505050509050919050565b600061084782611aa8565b50909392505050565b6001600160a01b03851633148061086c575061086c853361063a565b6108885760405162461bcd60e51b815260040161070f906138ed565b6108958585858585611c8f565b5050505050565b6004546000906001600160a01b03163314806108d057506108bb611449565b6001600160a01b0316336001600160a01b0316145b6108ec5760405162461bcd60e51b815260040161070f9061393c565b6108f585611e6c565b600080600061090388611aa8565b9250925092508560008151811061091c5761091c613957565b60200260200101516001600160a01b0316836001600160a01b0316146109685760405162461bcd60e51b81526020600482015260016024820152601b60f91b604482015260640161070f565b6109a0828660008151811061097f5761097f613957565b6020026020010151856001600160a01b03166121f79092919063ffffffff16565b6109c58282876000815181106109b8576109b8613957565b6020026020010151612357565b60008881526006602052604081208651909187916109e5576109e5613957565b60200260200101518160030160008a6001600160a01b03166001600160a01b031681526020019081526020016000206000828254610a239190613983565b9250508190555085600081518110610a3d57610a3d613957565b6020026020010151816001016000828254610a589190613983565b90915550506001600160a01b03838116600090815260076020526040808220549051633036004b60e21b8152600481018690529192169063c0d8012c90602401600060405180830381865afa158015610ab5573d6000803e3d6000fd5b505050506040513d6000823e601f3d908101601f19168201604052610add9190810190613a05565b905060005b8151811015610bb6576000828281518110610aff57610aff613957565b60200260200101519050600554846002016000836001600160a01b03166001600160a01b03168152602001908152602001600020548a600081518110610b4757610b47613957565b6020026020010151610b599190613a39565b610b639190613a50565b6001600160a01b03808d166000908152600487016020908152604080832093861683529290529081208054909190610b9c908490613a72565b90915550829150610bae905081613a9a565b915050610ae2565b50610bec898b89600081518110610bcf57610bcf613957565b6020026020010151604051806020016040528060008152506123d9565b7f4e3883c75cc9c752bb1db2e406a822e4a75067ae77ad9a0a4d179f2709b9e1f68a8a89600081518110610c2257610c22613957565b6020026020010151604051610c53939291909283526001600160a01b03919091166020830152604082015260600190565b60405180910390a186600081518110610c6e57610c6e613957565b602002602001015195505050505050949350505050565b6060806000610c9385611aa8565b505090506000610ca385876106a8565b6040805160018082528183019092529192506020808301908036833750506040805160018082528183019092529296509050602080830190803683370190505092508184600081518110610cf957610cf9613957565b60200260200101906001600160a01b031690816001600160a01b0316815250508083600081518110610d2d57610d2d613957565b60200260200101818152505050509250929050565b606080610d4e83611b34565b91509150915091565b60608151835114610dbc5760405162461bcd60e51b815260206004820152602960248201527f455243313135353a206163636f756e747320616e6420696473206c656e677468604482015268040dad2e6dac2e8c6d60bb1b606482015260840161070f565b600083516001600160401b03811115610dd757610dd7613226565b604051908082528060200260200182016040528015610e00578160200160208202803683370190505b50905060005b8451811015610e7857610e4b858281518110610e2457610e24613957565b6020026020010151858381518110610e3e57610e3e613957565b60200260200101516106a8565b828281518110610e5d57610e5d613957565b6020908102919091010152610e7181613a9a565b9050610e06565b509392505050565b610e886124db565b610e92600061253a565b565b610e9c6124db565b6001600160a01b03828116600090815260076020526040812080546001600160a01b031916928416929092179091555b600854811015610f2457826001600160a01b031660088281548110610ef357610ef3613957565b6000918252602090912001546001600160a01b031603610f1257505050565b80610f1c81613a9a565b915050610ecc565b50600880546001810182556000919091527ff3f7a9fe364faab93b216da50a3214154f22a0a2b415b23a84c8169e8b636ee30180546001600160a01b0319166001600160a01b0384161790556040517fe66daf9199a95c427f079c8703bf597401711dd49a4907a88c299650910c8a0190610fa29084908490613ab3565b60405180910390a15b5050565b60008060005b6008548110156110cf5760006007600060088481548110610fd857610fd8613957565b60009182526020808320909101546001600160a01b0390811684529083019390935260409182018120549151638084c91d60e01b815291909216925081908390638084c91d9061102c908a906004016134cf565b6040805180830381865afa158015611048573d6000803e3d6000fd5b505050506040513d601f19601f8201168201806040525081019061106c9190613acd565b9150915081156110b95760016110ac6008868154811061108e5761108e613957565b6000918252602090912001546001600160a01b031660a084901b1790565b9550955050505050915091565b50505080806110c790613a9a565b915050610fb5565b50600093849350915050565b60045460609081906001600160a01b031633148061111157506110fc611449565b6001600160a01b0316336001600160a01b0316145b61112d5760405162461bcd60e51b815260040161070f9061393c565b61113685611e6c565b6000858152600660205260408120908061114f88611aa8565b6001600160a01b03828116600090815260076020526040808220549051633036004b60e21b8152600481018590529497509295509350169063c0d8012c90602401600060405180830381865afa1580156111ad573d6000803e3d6000fd5b505050506040513d6000823e601f3d908101601f191682016040526111d59190810190613a05565b905080516001600160401b038111156111f0576111f0613226565b604051908082528060200260200182016040528015611219578160200160208202803683370190505b50955080516001600160401b0381111561123557611235613226565b60405190808252806020026020018201604052801561125e578160200160208202803683370190505b50945060005b81518110156113f357600082828151811061128157611281613957565b602002602001015190506000600554876002016000846001600160a01b03166001600160a01b03168152602001908152602001600020548860030160008e6001600160a01b03166001600160a01b03168152602001908152602001600020546112ea9190613a39565b6112f49190613a50565b6001600160a01b03808d16600090815260048a01602090815260408083209387168352929052908120549192509061132c9083613afb565b6001600160a01b03808e16600090815260048b016020908152604080832093881683529290522083905590508015611372576113726001600160a01b0384168c8361258c565b84848151811061138457611384613957565b60200260200101518a858151811061139e5761139e613957565b60200260200101906001600160a01b031690816001600160a01b031681525050808985815181106113d1576113d1613957565b60200260200101818152505050505080806113eb90613a9a565b915050611264565b50604080518a81526001600160a01b038a8116602083015289168183015290517f5f53004cb3da29143bb3d22cec2e917984223b7b4f36be05cde537c3d6b6dfcb9181900360600190a150505050935093915050565b6003546001600160a01b031690565b610fab3383836125a5565b60045460609081906001600160a01b03163314806114995750611484611449565b6001600160a01b0316336001600160a01b0316145b6114b55760405162461bcd60e51b815260040161070f9061393c565b6114be86611e6c565b60008060006114cc89611aa8565b60008c81526006602090815260408083206001600160a01b0386811685526007909352818420549151633036004b60e21b81526004810186905296995094975092955092939092919091169063c0d8012c90602401600060405180830381865afa15801561153e573d6000803e3d6000fd5b505050506040513d6000823e601f3d908101601f191682016040526115669190810190613a05565b905060005b815181101561162557600082828151811061158857611588613957565b60200260200101519050600554846002016000836001600160a01b03166001600160a01b03168152602001908152602001600020548c6115c89190613a39565b6115d29190613a50565b6001600160a01b03808e16600090815260048701602090815260408083209386168352929052908120805490919061160b908490613afb565b9091555082915061161d905081613a9a565b91505061156b565b506001600160a01b038a166000908152600383016020526040812080548b9290611650908490613b22565b925050819055508882600101600082825461166b9190613b22565b9091555061167c905084848b612685565b6116906001600160a01b038616898b61258c565b61169b8a8c8b6126c5565b604080518c81526001600160a01b038c811660208301528183018c90528a16606082015290517f4b4ec05c7eec399d79cfb183d0c3f518b7c0932ad7e7c70f02c7fd086c0af2569181900360800190a160408051600180825281830190925290602080830190803683375050604080516001808252818301909252929950905060208083019080368337019050509550848760008151811061173f5761173f613957565b60200260200101906001600160a01b031690816001600160a01b031681525050888660008151811061177357611773613957565b602002602001018181525050505050505094509492505050565b6000828152600660205260408120600181015460609283929190806117b188611aa8565b6001600160a01b0382811660009081526007602052604090819020549051631f3f0f8360e31b81526004810184905293965091945060609350169063f9f87c1890602401600060405180830381865afa158015611812573d6000803e3d6000fd5b505050506040513d6000823e601f3d908101601f1916820160405261183a9190810190613b35565b815191985091506001600160401b0381111561185857611858613226565b604051908082528060200260200182016040528015611881578160200160208202803683370190505b50955083156119dc5760005b87518110156119da5760008882815181106118aa576118aa613957565b602002602001015190506000866005548585815181106118cc576118cc613957565b60200260200101516118de9190613a39565b6118e89190613a50565b8860020160008c868151811061190057611900613957565b60200260200101516001600160a01b03166001600160a01b03168152602001908152602001600020546119339190613983565b6005546001600160a01b038d16600090815260038b01602052604081205492935091611960908490613a39565b61196a9190613a50565b6001600160a01b03808e16600090815260048c0160209081526040808320938816835292905290812054919250906119a29083613afb565b9050808b86815181106119b7576119b7613957565b6020026020010181815250505050505080806119d290613a9a565b91505061188d565b505b50505050509250929050565b600881815481106119f857600080fd5b6000918252602090912001546001600160a01b0316905081565b6060600080611a2084611aa8565b6001600160a01b0382811660009081526007602052604090819020549051633036004b60e21b815260048101849052939650919450169150819063c0d8012c90602401600060405180830381865afa158015611a80573d6000803e3d6000fd5b505050506040513d6000823e601f3d908101601f1916820160405261074f9190810190613a05565b6001600160a01b038181166000818152600760205260408082205490516328e12c4760e11b815260a086901c60048201819052929491909116906351c2588e90602401602060405180830381865afa158015611b08573d6000803e3d6000fd5b505050506040513d601f19601f82011682018060405250810190611b2c9190613bfa565b949193509150565b60408051600180825281830190925260609182919060208083019080368337019050509150611b628361083c565b82600081518110611b7557611b75613957565b6001600160a01b0392909216602092830291909101820152604080516001808252818301909252918281019080368337019050509050600181600081518110611bc057611bc0613957565b602002602001018181525050915091565b6001600160a01b038516331480611bed5750611bed853361063a565b611c095760405162461bcd60e51b815260040161070f906138ed565b610895858585858561282f565b611c1e6124db565b6001600160a01b038116611c835760405162461bcd60e51b815260206004820152602660248201527f4f776e61626c653a206e6577206f776e657220697320746865207a65726f206160448201526564647265737360d01b606482015260840161070f565b611c8c8161253a565b50565b8151835114611cf15760405162461bcd60e51b815260206004820152602860248201527f455243313135353a2069647320616e6420616d6f756e7473206c656e677468206044820152670dad2e6dac2e8c6d60c31b606482015260840161070f565b6001600160a01b038416611d175760405162461bcd60e51b815260040161070f90613c17565b3360005b8451811015611dfe576000858281518110611d3857611d38613957565b602002602001015190506000858381518110611d5657611d56613957565b602090810291909101810151600084815280835260408082206001600160a01b038e168352909352919091205490915081811015611da65760405162461bcd60e51b815260040161070f90613c5c565b6000838152602081815260408083206001600160a01b038e8116855292528083208585039055908b16825281208054849290611de3908490613983565b9250508190555050505080611df790613a9a565b9050611d1b565b50846001600160a01b0316866001600160a01b0316826001600160a01b03167f4a39dc06d4c0dbc64b70af90fd698a233a518aa5d07e595d983b8c0526c8f7fb8787604051611e4e929190613ca6565b60405180910390a4611e6481878787878761293c565b505050505050565b6004546001600160a01b0316331480611e9d5750611e88611449565b6001600160a01b0316336001600160a01b0316145b611eb95760405162461bcd60e51b815260040161070f9061393c565b6000806000611ec784611aa8565b600087815260066020526040902060018101549396509194509250908015611e64576001600160a01b03848116600090815260076020526040808220549051633036004b60e21b8152600481018790529192169063c0d8012c90602401600060405180830381865afa158015611f41573d6000803e3d6000fd5b505050506040513d6000823e601f3d908101601f19168201604052611f699190810190613a05565b9050600081516001600160401b03811115611f8657611f86613226565b604051908082528060200260200182016040528015611faf578160200160208202803683370190505b50905060005b825181101561207357828181518110611fd057611fd0613957565b60200260200101516001600160a01b03166370a08231306040518263ffffffff1660e01b815260040161200391906134cf565b602060405180830381865afa158015612020573d6000803e3d6000fd5b505050506040513d601f19601f820116820180604052508101906120449190613cb9565b82828151811061205657612056613957565b60209081029190910101528061206b81613a9a565b915050611fb5565b5061207f868887612a97565b60005b82518110156121ec5781818151811061209d5761209d613957565b60200260200101518382815181106120b7576120b7613957565b60200260200101516001600160a01b03166370a08231306040518263ffffffff1660e01b81526004016120ea91906134cf565b602060405180830381865afa158015612107573d6000803e3d6000fd5b505050506040513d601f19601f8201168201806040525081019061212b9190613cb9565b6121359190613b22565b82828151811061214757612147613957565b6020026020010181815250508360055483838151811061216957612169613957565b602002602001015161217b9190613a39565b6121859190613a50565b85600201600085848151811061219d5761219d613957565b60200260200101516001600160a01b03166001600160a01b0316815260200190815260200160002060008282546121d49190613983565b909155508190506121e481613a9a565b915050612082565b505050505050505050565b604051636eb1769f60e11b81526000906001600160a01b0385169063dd62ed3e906122289030908790600401613ab3565b602060405180830381865afa158015612245573d6000803e3d6000fd5b505050506040513d601f19601f820116820180604052508101906122699190613cb9565b905060006122778383613983565b90506000856001600160a01b031663095ea7b360e01b86846040516024016122a0929190613499565b60408051601f198184030181529181526020820180516001600160e01b03166001600160e01b03199094169390931790925290516122de9190613cd2565b6000604051808303816000865af19150503d806000811461231b576040519150601f19603f3d011682016040523d82523d6000602084013e612320565b606091505b5050905080611e64578215611e64576123436001600160a01b0387168685612b2e565b611e646001600160a01b0387168686612c61565b6001600160a01b038084166000908152600760205260409081902054905191169061089590630efe6a8b60e01b9061239790879087908790602401613cee565b60408051601f198184030181529190526020810180516001600160e01b03166001600160e01b0319909316929092179091526001600160a01b03831690612d64565b6001600160a01b0384166124395760405162461bcd60e51b815260206004820152602160248201527f455243313135353a206d696e7420746f20746865207a65726f206164647265736044820152607360f81b606482015260840161070f565b33600061244585612d90565b9050600061245285612d90565b90506000868152602081815260408083206001600160a01b038b16845290915281208054879290612484908490613983565b909155505060408051878152602081018790526001600160a01b03808a169260009291871691600080516020613ecf833981519152910160405180910390a46124d283600089898989612ddb565b50505050505050565b336124e4611449565b6001600160a01b031614610e925760405162461bcd60e51b815260206004820181905260248201527f4f776e61626c653a2063616c6c6572206973206e6f7420746865206f776e6572604482015260640161070f565b600380546001600160a01b038381166001600160a01b0319831681179093556040519116919082907f8be0079c531659141344cd1fd0a4f28419497f9722a3daafe3b4186f6b6457e090600090a35050565b6125a06001600160a01b0384168383612e96565b505050565b816001600160a01b0316836001600160a01b0316036126185760405162461bcd60e51b815260206004820152602960248201527f455243313135353a2073657474696e6720617070726f76616c20737461747573604482015268103337b91039b2b63360b91b606482015260840161070f565b6001600160a01b03838116600081815260016020908152604080832094871680845294825291829020805460ff191686151590811790915591519182527f17307eab39ab6107e8899845ad3d59bd9653f200f220920489ca2b5937696c31910160405180910390a3505050565b6001600160a01b038084166000908152600760205260409081902054905191169061089590635ae2fb3960e11b9061239790879087908790602401613cee565b6001600160a01b0383166127275760405162461bcd60e51b815260206004820152602360248201527f455243313135353a206275726e2066726f6d20746865207a65726f206164647260448201526265737360e81b606482015260840161070f565b33600061273384612d90565b9050600061274084612d90565b60408051602080820183526000918290528882528181528282206001600160a01b038b16835290522054909150848110156127c95760405162461bcd60e51b8152602060048201526024808201527f455243313135353a206275726e20616d6f756e7420657863656564732062616c604482015263616e636560e01b606482015260840161070f565b6000868152602081815260408083206001600160a01b038b81168086529184528285208a8703905582518b81529384018a9052909290881691600080516020613ecf833981519152910160405180910390a46040805160208101909152600090526124d2565b6001600160a01b0384166128555760405162461bcd60e51b815260040161070f90613c17565b33600061286185612d90565b9050600061286e85612d90565b90506000868152602081815260408083206001600160a01b038c168452909152902054858110156128b15760405162461bcd60e51b815260040161070f90613c5c565b6000878152602081815260408083206001600160a01b038d8116855292528083208985039055908a168252812080548892906128ee908490613983565b909155505060408051888152602081018890526001600160a01b03808b16928c82169291881691600080516020613ecf833981519152910160405180910390a46121ec848a8a8a8a8a612ddb565b6001600160a01b0384163b15611e645760405163bc197c8160e01b81526001600160a01b0385169063bc197c81906129809089908990889088908890600401613d0f565b6020604051808303816000875af19250505080156129bb575060408051601f3d908101601f191682019092526129b891810190613d6d565b60015b612a67576129c7613d8a565b806308c379a003612a0057506129db613da6565b806129e65750612a02565b8060405162461bcd60e51b815260040161070f919061346d565b505b60405162461bcd60e51b815260206004820152603460248201527f455243313135353a207472616e7366657220746f206e6f6e20455243313135356044820152732932b1b2b4bb32b91034b6b83632b6b2b73a32b960611b606482015260840161070f565b6001600160e01b0319811663bc197c8160e01b146124d25760405162461bcd60e51b815260040161070f90613e2f565b612aac6001600160a01b03831684600a6121f7565b6001600160a01b03808416600090815260076020526040908190205490519116908190611e649063018ee9b760e01b90612aec9088908790602401613499565b60408051601f198184030181529190526020810180516001600160e01b03166001600160e01b0319909316929092179091526001600160a01b03841690612d64565b604051636eb1769f60e11b81526000906001600160a01b0385169063dd62ed3e90612b5f9030908790600401613ab3565b602060405180830381865afa158015612b7c573d6000803e3d6000fd5b505050506040513d601f19601f82011682018060405250810190612ba09190613cb9565b905081811015612c045760405162461bcd60e51b815260206004820152602960248201527f5361666545524332303a2064656372656173656420616c6c6f77616e63652062604482015268656c6f77207a65726f60b81b606482015260840161070f565b6040518282039061089590869063095ea7b360e01b90612c2a9088908690602401613499565b60408051601f198184030181529190526020810180516001600160e01b03166001600160e01b031990931692909217909152612eb5565b801580612cda5750604051636eb1769f60e11b81526001600160a01b0384169063dd62ed3e90612c979030908690600401613ab3565b602060405180830381865afa158015612cb4573d6000803e3d6000fd5b505050506040513d601f19601f82011682018060405250810190612cd89190613cb9565b155b612d455760405162461bcd60e51b815260206004820152603660248201527f5361666545524332303a20617070726f76652066726f6d206e6f6e2d7a65726f60448201527520746f206e6f6e2d7a65726f20616c6c6f77616e636560501b606482015260840161070f565b6125a08363095ea7b360e01b8484604051602401612c2a929190613499565b6060612d898383604051806060016040528060278152602001613eef60279139612f87565b9392505050565b60408051600180825281830190925260609160009190602080830190803683370190505090508281600081518110612dca57612dca613957565b602090810291909101015292915050565b6001600160a01b0384163b15611e645760405163f23a6e6160e01b81526001600160a01b0385169063f23a6e6190612e1f9089908990889088908890600401613e77565b6020604051808303816000875af1925050508015612e5a575060408051601f3d908101601f19168201909252612e5791810190613d6d565b60015b612e66576129c7613d8a565b6001600160e01b0319811663f23a6e6160e01b146124d25760405162461bcd60e51b815260040161070f90613e2f565b6125a08363a9059cbb60e01b8484604051602401612c2a929190613499565b6000612f0a826040518060400160405280602081526020017f5361666545524332303a206c6f772d6c6576656c2063616c6c206661696c6564815250856001600160a01b03166130649092919063ffffffff16565b8051909150156125a05780806020019051810190612f289190613eb1565b6125a05760405162461bcd60e51b815260206004820152602a60248201527f5361666545524332303a204552433230206f7065726174696f6e20646964206e6044820152691bdd081cdd58d8d9595960b21b606482015260840161070f565b60606001600160a01b0384163b612fef5760405162461bcd60e51b815260206004820152602660248201527f416464726573733a2064656c65676174652063616c6c20746f206e6f6e2d636f6044820152651b9d1c9858dd60d21b606482015260840161070f565b600080856001600160a01b03168560405161300a9190613cd2565b600060405180830381855af49150503d8060008114613045576040519150601f19603f3d011682016040523d82523d6000602084013e61304a565b606091505b509150915061305a82828661307b565b9695505050505050565b606061307384846000856130b4565b949350505050565b6060831561308a575081612d89565b82511561309a5782518084602001fd5b8160405162461bcd60e51b815260040161070f919061346d565b6060824710156131155760405162461bcd60e51b815260206004820152602660248201527f416464726573733a20696e73756666696369656e742062616c616e636520666f6044820152651c8818d85b1b60d21b606482015260840161070f565b6001600160a01b0385163b61316c5760405162461bcd60e51b815260206004820152601d60248201527f416464726573733a2063616c6c20746f206e6f6e2d636f6e7472616374000000604482015260640161070f565b600080866001600160a01b031685876040516131889190613cd2565b60006040518083038185875af1925050503d80600081146131c5576040519150601f19603f3d011682016040523d82523d6000602084013e6131ca565b606091505b50915091506131da82828661307b565b979650505050505050565b6001600160a01b0381168114611c8c57600080fd5b6000806040838503121561320d57600080fd5b8235613218816131e5565b946020939093013593505050565b634e487b7160e01b600052604160045260246000fd5b601f8201601f191681016001600160401b038111828210171561326157613261613226565b6040525050565b60006001600160401b0382111561328157613281613226565b5060051b60200190565b600082601f83011261329c57600080fd5b813560206132a982613268565b6040516132b6828261323c565b83815260059390931b85018201928281019150868411156132d657600080fd5b8286015b848110156132fa5780356132ed816131e5565b83529183019183016132da565b509695505050505050565b600082601f83011261331657600080fd5b8135602061332382613268565b604051613330828261323c565b83815260059390931b850182019282810191508684111561335057600080fd5b8286015b848110156132fa5780358352918301918301613354565b6000806000806080858703121561338157600080fd5b843593506020850135613393816131e5565b925060408501356001600160401b03808211156133af57600080fd5b6133bb8883890161328b565b935060608701359150808211156133d157600080fd5b506133de87828801613305565b91505092959194509250565b6001600160e01b031981168114611c8c57600080fd5b60006020828403121561341257600080fd5b8135612d89816133ea565b60005b83811015613438578181015183820152602001613420565b50506000910152565b6000815180845261345981602086016020860161341d565b601f01601f19169290920160200192915050565b602081526000612d896020830184613441565b60006020828403121561349257600080fd5b5035919050565b6001600160a01b03929092168252602082015260400190565b6000602082840312156134c457600080fd5b8135612d89816131e5565b6001600160a01b0391909116815260200190565b600082601f8301126134f457600080fd5b81356001600160401b0381111561350d5761350d613226565b604051613524601f8301601f19166020018261323c565b81815284602083860101111561353957600080fd5b816020850160208301376000918101602001919091529392505050565b600080600080600060a0868803121561356e57600080fd5b8535613579816131e5565b94506020860135613589816131e5565b935060408601356001600160401b03808211156135a557600080fd5b6135b189838a01613305565b945060608801359150808211156135c757600080fd5b6135d389838a01613305565b935060808801359150808211156135e957600080fd5b506135f6888289016134e3565b9150509295509295909350565b6000806040838503121561361657600080fd5b823591506020830135613628816131e5565b809150509250929050565b600081518084526020808501945080840160005b8381101561366c5781516001600160a01b031687529582019590820190600101613647565b509495945050505050565b600081518084526020808501945080840160005b8381101561366c5781518752958201959082019060010161368b565b6040815260006136ba6040830185613633565b828103602084015261074f8185613677565b600080604083850312156136df57600080fd5b82356001600160401b03808211156136f657600080fd5b6137028683870161328b565b9350602085013591508082111561371857600080fd5b5061372585828601613305565b9150509250929050565b602081526000612d896020830184613677565b6000806040838503121561375557600080fd5b8235613760816131e5565b91506020830135613628816131e5565b60008060006060848603121561378557600080fd5b833592506020840135613797816131e5565b915060408401356137a7816131e5565b809150509250925092565b8015158114611c8c57600080fd5b600080604083850312156137d357600080fd5b82356137de816131e5565b91506020830135613628816137b2565b6000806000806080858703121561380457600080fd5b843593506020850135613816816131e5565b925060408501359150606085013561382d816131e5565b939692955090935050565b602081526000612d896020830184613633565b600080600080600060a0868803121561386357600080fd5b853561386e816131e5565b9450602086013561387e816131e5565b9350604086013592506060860135915060808601356001600160401b038111156138a757600080fd5b6135f6888289016134e3565b600181811c908216806138c757607f821691505b6020821081036138e757634e487b7160e01b600052602260045260246000fd5b50919050565b6020808252602f908201527f455243313135353a2063616c6c6572206973206e6f7420746f6b656e206f776e60408201526e195c881b9bdc88185c1c1c9bdd9959608a1b606082015260800190565b6020808252600190820152603160f81b604082015260600190565b634e487b7160e01b600052603260045260246000fd5b634e487b7160e01b600052601160045260246000fd5b8082018082111561073b5761073b61396d565b600082601f8301126139a757600080fd5b815160206139b482613268565b6040516139c1828261323c565b83815260059390931b85018201928281019150868411156139e157600080fd5b8286015b848110156132fa5780516139f8816131e5565b83529183019183016139e5565b600060208284031215613a1757600080fd5b81516001600160401b03811115613a2d57600080fd5b61307384828501613996565b808202811582820484141761073b5761073b61396d565b600082613a6d57634e487b7160e01b600052601260045260246000fd5b500490565b8082018281126000831280158216821582161715613a9257613a9261396d565b505092915050565b600060018201613aac57613aac61396d565b5060010190565b6001600160a01b0392831681529116602082015260400190565b60008060408385031215613ae057600080fd5b8251613aeb816137b2565b6020939093015192949293505050565b8181036000831280158383131683831282161715613b1b57613b1b61396d565b5092915050565b8181038181111561073b5761073b61396d565b60008060408385031215613b4857600080fd5b82516001600160401b0380821115613b5f57600080fd5b613b6b86838701613996565b9350602091508185015181811115613b8257600080fd5b85019050601f81018613613b9557600080fd5b8051613ba081613268565b604051613bad828261323c565b82815260059290921b8301840191848101915088831115613bcd57600080fd5b928401925b82841015613beb57835182529284019290840190613bd2565b80955050505050509250929050565b600060208284031215613c0c57600080fd5b8151612d89816131e5565b60208082526025908201527f455243313135353a207472616e7366657220746f20746865207a65726f206164604082015264647265737360d81b606082015260800190565b6020808252602a908201527f455243313135353a20696e73756666696369656e742062616c616e636520666f60408201526939103a3930b739b332b960b11b606082015260800190565b6040815260006136ba6040830185613677565b600060208284031215613ccb57600080fd5b5051919050565b60008251613ce481846020870161341d565b9190910192915050565b6001600160a01b039390931683526020830191909152604082015260600190565b6001600160a01b0386811682528516602082015260a060408201819052600090613d3b90830186613677565b8281036060840152613d4d8186613677565b90508281036080840152613d618185613441565b98975050505050505050565b600060208284031215613d7f57600080fd5b8151612d89816133ea565b600060033d1115613da35760046000803e5060005160e01c5b90565b600060443d1015613db45790565b6040516003193d81016004833e81513d6001600160401b038160248401118184111715613de357505050505090565b8285019150815181811115613dfb5750505050505090565b843d8701016020828501011115613e155750505050505090565b613e246020828601018761323c565b509095945050505050565b60208082526028908201527f455243313135353a204552433131353552656365697665722072656a656374656040820152676420746f6b656e7360c01b606082015260800190565b6001600160a01b03868116825285166020820152604081018490526060810183905260a0608082018190526000906131da90830184613441565b600060208284031215613ec357600080fd5b8151612d89816137b256fec3d58168c5ae7397731d063d5bbf3d657854427343f4c083240f7aacaa2d0f62416464726573733a206c6f772d6c6576656c2064656c65676174652063616c6c206661696c6564a264697066735822122038922ec89ba1db8192e11ac01d7636ce313fe118e1eeb602833b68abfa270aa564736f6c63430008110033",
  "devdoc": {
    "kind": "dev",
    "methods": {
      "balanceOf(address,uint256)": {
        "details": "See {IERC1155-balanceOf}. Requirements: - `account` cannot be the zero address."
      },
      "balanceOfBatch(address[],uint256[])": {
        "details": "See {IERC1155-balanceOfBatch}. Requirements: - `accounts` and `ids` must have the same length."
      },
      "isApprovedForAll(address,address)": {
        "details": "See {IERC1155-isApprovedForAll}."
      },
      "owner()": {
        "details": "Returns the address of the current owner."
      },
      "renounceOwnership()": {
        "details": "Leaves the contract without owner. It will not be possible to call `onlyOwner` functions anymore. Can only be called by the current owner. NOTE: Renouncing ownership will leave the contract without an owner, thereby removing any functionality that is only available to the owner."
      },
      "safeBatchTransferFrom(address,address,uint256[],uint256[],bytes)": {
        "details": "See {IERC1155-safeBatchTransferFrom}."
      },
      "safeTransferFrom(address,address,uint256,uint256,bytes)": {
        "details": "See {IERC1155-safeTransferFrom}."
      },
      "setApprovalForAll(address,bool)": {
        "details": "See {IERC1155-setApprovalForAll}."
      },
      "supportsInterface(bytes4)": {
        "details": "See {IERC165-supportsInterface}."
      },
      "transferOwnership(address)": {
        "details": "Transfers ownership of the contract to a new account (`newOwner`). Can only be called by the current owner."
      },
      "uri(uint256)": {
        "details": "See {IERC1155MetadataURI-uri}. This implementation returns the same URI for *all* token types. It relies on the token type ID substitution mechanism https://eips.ethereum.org/EIPS/eip-1155#metadata[defined in the EIP]. Clients calling this function must replace the `\\{id\\}` substring with the actual token type ID."
      }
    },
    "version": 1
  },
  "userdoc": {
    "kind": "user",
    "methods": {},
    "version": 1
  },
  "storageLayout": {
    "storage": [
      {
        "astId": 138,
        "contract": "contracts/Banks/MasterChefBank.sol:MasterChefBank",
        "label": "_balances",
        "offset": 0,
        "slot": "0",
        "type": "t_mapping(t_uint256,t_mapping(t_address,t_uint256))"
      },
      {
        "astId": 144,
        "contract": "contracts/Banks/MasterChefBank.sol:MasterChefBank",
        "label": "_operatorApprovals",
        "offset": 0,
        "slot": "1",
        "type": "t_mapping(t_address,t_mapping(t_address,t_bool))"
      },
      {
        "astId": 146,
        "contract": "contracts/Banks/MasterChefBank.sol:MasterChefBank",
        "label": "_uri",
        "offset": 0,
        "slot": "2",
        "type": "t_string_storage"
      },
      {
        "astId": 7,
        "contract": "contracts/Banks/MasterChefBank.sol:MasterChefBank",
        "label": "_owner",
        "offset": 0,
        "slot": "3",
        "type": "t_address"
      },
      {
        "astId": 3313,
        "contract": "contracts/Banks/MasterChefBank.sol:MasterChefBank",
        "label": "positionsManager",
        "offset": 0,
        "slot": "4",
        "type": "t_address"
      },
      {
        "astId": 6328,
        "contract": "contracts/Banks/MasterChefBank.sol:MasterChefBank",
        "label": "PRECISION",
        "offset": 0,
        "slot": "5",
        "type": "t_uint256"
      },
      {
        "astId": 6333,
        "contract": "contracts/Banks/MasterChefBank.sol:MasterChefBank",
        "label": "poolInfo",
        "offset": 0,
        "slot": "6",
        "type": "t_mapping(t_uint256,t_struct(PoolInfo)6325_storage)"
      },
      {
        "astId": 6337,
        "contract": "contracts/Banks/MasterChefBank.sol:MasterChefBank",
        "label": "masterChefWrappers",
        "offset": 0,
        "slot": "7",
        "type": "t_mapping(t_address,t_address)"
      },
      {
        "astId": 6340,
        "contract": "contracts/Banks/MasterChefBank.sol:MasterChefBank",
        "label": "supportedMasterChefs",
        "offset": 0,
        "slot": "8",
        "type": "t_array(t_address)dyn_storage"
      },
      {
        "astId": 6344,
        "contract": "contracts/Banks/MasterChefBank.sol:MasterChefBank",
        "label": "balances",
        "offset": 0,
        "slot": "9",
        "type": "t_mapping(t_address,t_uint256)"
      }
    ],
    "types": {
      "t_address": {
        "encoding": "inplace",
        "label": "address",
        "numberOfBytes": "20"
      },
      "t_array(t_address)dyn_storage": {
        "base": "t_address",
        "encoding": "dynamic_array",
        "label": "address[]",
        "numberOfBytes": "32"
      },
      "t_bool": {
        "encoding": "inplace",
        "label": "bool",
        "numberOfBytes": "1"
      },
      "t_int256": {
        "encoding": "inplace",
        "label": "int256",
        "numberOfBytes": "32"
      },
      "t_mapping(t_address,t_address)": {
        "encoding": "mapping",
        "key": "t_address",
        "label": "mapping(address => address)",
        "numberOfBytes": "32",
        "value": "t_address"
      },
      "t_mapping(t_address,t_bool)": {
        "encoding": "mapping",
        "key": "t_address",
        "label": "mapping(address => bool)",
        "numberOfBytes": "32",
        "value": "t_bool"
      },
      "t_mapping(t_address,t_int256)": {
        "encoding": "mapping",
        "key": "t_address",
        "label": "mapping(address => int256)",
        "numberOfBytes": "32",
        "value": "t_int256"
      },
      "t_mapping(t_address,t_mapping(t_address,t_bool))": {
        "encoding": "mapping",
        "key": "t_address",
        "label": "mapping(address => mapping(address => bool))",
        "numberOfBytes": "32",
        "value": "t_mapping(t_address,t_bool)"
      },
      "t_mapping(t_address,t_mapping(t_address,t_int256))": {
        "encoding": "mapping",
        "key": "t_address",
        "label": "mapping(address => mapping(address => int256))",
        "numberOfBytes": "32",
        "value": "t_mapping(t_address,t_int256)"
      },
      "t_mapping(t_address,t_uint256)": {
        "encoding": "mapping",
        "key": "t_address",
        "label": "mapping(address => uint256)",
        "numberOfBytes": "32",
        "value": "t_uint256"
      },
      "t_mapping(t_uint256,t_mapping(t_address,t_uint256))": {
        "encoding": "mapping",
        "key": "t_uint256",
        "label": "mapping(uint256 => mapping(address => uint256))",
        "numberOfBytes": "32",
        "value": "t_mapping(t_address,t_uint256)"
      },
      "t_mapping(t_uint256,t_struct(PoolInfo)6325_storage)": {
        "encoding": "mapping",
        "key": "t_uint256",
        "label": "mapping(uint256 => struct MasterChefBank.PoolInfo)",
        "numberOfBytes": "32",
        "value": "t_struct(PoolInfo)6325_storage"
      },
      "t_string_storage": {
        "encoding": "bytes",
        "label": "string",
        "numberOfBytes": "32"
      },
      "t_struct(PoolInfo)6325_storage": {
        "encoding": "inplace",
        "label": "struct MasterChefBank.PoolInfo",
        "members": [
          {
            "astId": 6308,
            "contract": "contracts/Banks/MasterChefBank.sol:MasterChefBank",
            "label": "lpToken",
            "offset": 0,
            "slot": "0",
            "type": "t_address"
          },
          {
            "astId": 6310,
            "contract": "contracts/Banks/MasterChefBank.sol:MasterChefBank",
            "label": "lpSupply",
            "offset": 0,
            "slot": "1",
            "type": "t_uint256"
          },
          {
            "astId": 6314,
            "contract": "contracts/Banks/MasterChefBank.sol:MasterChefBank",
            "label": "rewardAllocationsPerShare",
            "offset": 0,
            "slot": "2",
            "type": "t_mapping(t_address,t_uint256)"
          },
          {
            "astId": 6318,
            "contract": "contracts/Banks/MasterChefBank.sol:MasterChefBank",
            "label": "userShares",
            "offset": 0,
            "slot": "3",
            "type": "t_mapping(t_address,t_uint256)"
          },
          {
            "astId": 6324,
            "contract": "contracts/Banks/MasterChefBank.sol:MasterChefBank",
            "label": "rewardDebt",
            "offset": 0,
            "slot": "4",
            "type": "t_mapping(t_address,t_mapping(t_address,t_int256))"
          }
        ],
        "numberOfBytes": "160"
      },
      "t_uint256": {
        "encoding": "inplace",
        "label": "uint256",
        "numberOfBytes": "32"
      }
    }
  }
}