{
  "address": "0x833528b775077A1659b7C879C483DF12d86ec769",
  "abi": [
    {
      "inputs": [
        {
          "internalType": "address",
          "name": "_universalSwap",
          "type": "address"
        },
        {
          "internalType": "address",
          "name": "_stableToken",
          "type": "address"
        }
      ],
      "stateMutability": "nonpayable",
      "type": "constructor"
    },
    {
      "anonymous": false,
      "inputs": [
        {
          "indexed": false,
          "internalType": "uint256",
          "name": "positionId",
          "type": "uint256"
        },
        {
          "indexed": false,
          "internalType": "address",
          "name": "bank",
          "type": "address"
        },
        {
          "indexed": false,
          "internalType": "uint256",
          "name": "bankToken",
          "type": "uint256"
        },
        {
          "indexed": false,
          "internalType": "address",
          "name": "user",
          "type": "address"
        },
        {
          "indexed": false,
          "internalType": "uint256",
          "name": "amount",
          "type": "uint256"
        },
        {
          "components": [
            {
              "internalType": "address",
              "name": "watchedToken",
              "type": "address"
            },
            {
              "internalType": "address",
              "name": "liquidateTo",
              "type": "address"
            },
            {
              "internalType": "bool",
              "name": "lessThan",
              "type": "bool"
            },
            {
              "internalType": "uint256",
              "name": "liquidationPoint",
              "type": "uint256"
            },
            {
              "internalType": "uint256",
              "name": "slippage",
              "type": "uint256"
            }
          ],
          "indexed": false,
          "internalType": "struct LiquidationCondition[]",
          "name": "liquidationPoints",
          "type": "tuple[]"
        }
      ],
      "name": "Deposit",
      "type": "event"
    },
    {
      "anonymous": false,
      "inputs": [
        {
          "indexed": false,
          "internalType": "uint256",
          "name": "positionId",
          "type": "uint256"
        },
        {
          "indexed": false,
          "internalType": "address[]",
          "name": "rewards",
          "type": "address[]"
        },
        {
          "indexed": false,
          "internalType": "uint256[]",
          "name": "rewardAmounts",
          "type": "uint256[]"
        }
      ],
      "name": "Harvest",
      "type": "event"
    },
    {
      "anonymous": false,
      "inputs": [
        {
          "indexed": false,
          "internalType": "uint256",
          "name": "positionId",
          "type": "uint256"
        },
        {
          "indexed": false,
          "internalType": "uint256",
          "name": "lpTokens",
          "type": "uint256"
        }
      ],
      "name": "HarvestRecompound",
      "type": "event"
    },
    {
      "anonymous": false,
      "inputs": [
        {
          "indexed": false,
          "internalType": "uint256",
          "name": "positionId",
          "type": "uint256"
        },
        {
          "indexed": false,
          "internalType": "uint256",
          "name": "amount",
          "type": "uint256"
        }
      ],
      "name": "IncreasePosition",
      "type": "event"
    },
    {
      "anonymous": false,
      "inputs": [
        {
          "indexed": true,
          "internalType": "address",
          "name": "previousOwner",
          "type": "address"
        },
        {
          "indexed": true,
          "internalType": "address",
          "name": "newOwner",
          "type": "address"
        }
      ],
      "name": "OwnershipTransferred",
      "type": "event"
    },
    {
      "anonymous": false,
      "inputs": [
        {
          "indexed": false,
          "internalType": "uint256",
          "name": "positionId",
          "type": "uint256"
        }
      ],
      "name": "PositionClose",
      "type": "event"
    },
    {
      "anonymous": false,
      "inputs": [
        {
          "indexed": false,
          "internalType": "uint256",
          "name": "positionId",
          "type": "uint256"
        },
        {
          "indexed": false,
          "internalType": "uint256",
          "name": "amount",
          "type": "uint256"
        }
      ],
      "name": "Withdraw",
      "type": "event"
    },
    {
      "inputs": [
        {
          "internalType": "uint256",
          "name": "positionId",
          "type": "uint256"
        },
        {
          "components": [
            {
              "internalType": "address",
              "name": "watchedToken",
              "type": "address"
            },
            {
              "internalType": "address",
              "name": "liquidateTo",
              "type": "address"
            },
            {
              "internalType": "bool",
              "name": "lessThan",
              "type": "bool"
            },
            {
              "internalType": "uint256",
              "name": "liquidationPoint",
              "type": "uint256"
            },
            {
              "internalType": "uint256",
              "name": "slippage",
              "type": "uint256"
            }
          ],
          "internalType": "struct LiquidationCondition[]",
          "name": "_liquidationPoints",
          "type": "tuple[]"
        }
      ],
      "name": "adjustLiquidationPoints",
      "outputs": [],
      "stateMutability": "nonpayable",
      "type": "function"
    },
    {
      "inputs": [
        {
          "internalType": "uint256",
          "name": "",
          "type": "uint256"
        }
      ],
      "name": "banks",
      "outputs": [
        {
          "internalType": "address payable",
          "name": "",
          "type": "address"
        }
      ],
      "stateMutability": "view",
      "type": "function"
    },
    {
      "inputs": [
        {
          "internalType": "uint256",
          "name": "positionId",
          "type": "uint256"
        },
        {
          "internalType": "uint256",
          "name": "liquidationIndex",
          "type": "uint256"
        },
        {
          "components": [
            {
              "internalType": "uint256",
              "name": "amountIn",
              "type": "uint256"
            },
            {
              "internalType": "uint256",
              "name": "valueIn",
              "type": "uint256"
            },
            {
              "internalType": "uint256",
              "name": "amountOut",
              "type": "uint256"
            },
            {
              "internalType": "uint256",
              "name": "valueOut",
              "type": "uint256"
            },
            {
              "internalType": "int256",
              "name": "slippage",
              "type": "int256"
            },
            {
              "internalType": "address",
              "name": "tokenIn",
              "type": "address"
            },
            {
              "internalType": "address[]",
              "name": "swappers",
              "type": "address[]"
            },
            {
              "internalType": "address",
              "name": "tokenOut",
              "type": "address"
            },
            {
              "internalType": "address[][]",
              "name": "paths",
              "type": "address[][]"
            }
          ],
          "internalType": "struct SwapPoint[]",
          "name": "swaps",
          "type": "tuple[]"
        },
        {
          "components": [
            {
              "components": [
                {
                  "internalType": "address",
                  "name": "pool",
                  "type": "address"
                },
                {
                  "internalType": "address",
                  "name": "manager",
                  "type": "address"
                },
                {
                  "internalType": "uint256",
                  "name": "tokenId",
                  "type": "uint256"
                },
                {
                  "internalType": "uint256",
                  "name": "liquidity",
                  "type": "uint256"
                },
                {
                  "internalType": "bytes",
                  "name": "data",
                  "type": "bytes"
                }
              ],
              "internalType": "struct Asset",
              "name": "desiredERC721",
              "type": "tuple"
            },
            {
              "internalType": "address",
              "name": "desiredERC20",
              "type": "address"
            },
            {
              "internalType": "uint256",
              "name": "value",
              "type": "uint256"
            },
            {
              "internalType": "address[]",
              "name": "underlying",
              "type": "address[]"
            },
            {
              "internalType": "uint256[]",
              "name": "underlyingValues",
              "type": "uint256[]"
            }
          ],
          "internalType": "struct Conversion[]",
          "name": "conversions",
          "type": "tuple[]"
        }
      ],
      "name": "botLiquidate",
      "outputs": [],
      "stateMutability": "nonpayable",
      "type": "function"
    },
    {
      "inputs": [
        {
          "internalType": "uint256",
          "name": "positionId",
          "type": "uint256"
        }
      ],
      "name": "checkLiquidate",
      "outputs": [
        {
          "internalType": "uint256",
          "name": "index",
          "type": "uint256"
        },
        {
          "internalType": "bool",
          "name": "liquidate",
          "type": "bool"
        }
      ],
      "stateMutability": "view",
      "type": "function"
    },
    {
      "inputs": [
        {
          "internalType": "uint256",
          "name": "positionId",
          "type": "uint256"
        }
      ],
      "name": "close",
      "outputs": [],
      "stateMutability": "nonpayable",
      "type": "function"
    },
    {
      "inputs": [
        {
          "components": [
            {
              "internalType": "address",
              "name": "user",
              "type": "address"
            },
            {
              "internalType": "address",
              "name": "bank",
              "type": "address"
            },
            {
              "internalType": "uint256",
              "name": "bankToken",
              "type": "uint256"
            },
            {
              "internalType": "uint256",
              "name": "amount",
              "type": "uint256"
            },
            {
              "components": [
                {
                  "internalType": "address",
                  "name": "watchedToken",
                  "type": "address"
                },
                {
                  "internalType": "address",
                  "name": "liquidateTo",
                  "type": "address"
                },
                {
                  "internalType": "bool",
                  "name": "lessThan",
                  "type": "bool"
                },
                {
                  "internalType": "uint256",
                  "name": "liquidationPoint",
                  "type": "uint256"
                },
                {
                  "internalType": "uint256",
                  "name": "slippage",
                  "type": "uint256"
                }
              ],
              "internalType": "struct LiquidationCondition[]",
              "name": "liquidationPoints",
              "type": "tuple[]"
            }
          ],
          "internalType": "struct Position",
          "name": "position",
          "type": "tuple"
        },
        {
          "internalType": "address[]",
          "name": "suppliedTokens",
          "type": "address[]"
        },
        {
          "internalType": "uint256[]",
          "name": "suppliedAmounts",
          "type": "uint256[]"
        }
      ],
      "name": "deposit",
      "outputs": [
        {
          "internalType": "uint256",
          "name": "",
          "type": "uint256"
        }
      ],
      "stateMutability": "payable",
      "type": "function"
    },
    {
      "inputs": [
        {
          "internalType": "uint256",
          "name": "positionId",
          "type": "uint256"
        },
        {
          "components": [
            {
              "internalType": "address[]",
              "name": "tokens",
              "type": "address[]"
            },
            {
              "internalType": "uint256[]",
              "name": "amounts",
              "type": "uint256[]"
            },
            {
              "components": [
                {
                  "internalType": "address",
                  "name": "pool",
                  "type": "address"
                },
                {
                  "internalType": "address",
                  "name": "manager",
                  "type": "address"
                },
                {
                  "internalType": "uint256",
                  "name": "tokenId",
                  "type": "uint256"
                },
                {
                  "internalType": "uint256",
                  "name": "liquidity",
                  "type": "uint256"
                },
                {
                  "internalType": "bytes",
                  "name": "data",
                  "type": "bytes"
                }
              ],
              "internalType": "struct Asset[]",
              "name": "nfts",
              "type": "tuple[]"
            }
          ],
          "internalType": "struct Provided",
          "name": "provided",
          "type": "tuple"
        },
        {
          "components": [
            {
              "internalType": "uint256",
              "name": "amountIn",
              "type": "uint256"
            },
            {
              "internalType": "uint256",
              "name": "valueIn",
              "type": "uint256"
            },
            {
              "internalType": "uint256",
              "name": "amountOut",
              "type": "uint256"
            },
            {
              "internalType": "uint256",
              "name": "valueOut",
              "type": "uint256"
            },
            {
              "internalType": "int256",
              "name": "slippage",
              "type": "int256"
            },
            {
              "internalType": "address",
              "name": "tokenIn",
              "type": "address"
            },
            {
              "internalType": "address[]",
              "name": "swappers",
              "type": "address[]"
            },
            {
              "internalType": "address",
              "name": "tokenOut",
              "type": "address"
            },
            {
              "internalType": "address[][]",
              "name": "paths",
              "type": "address[][]"
            }
          ],
          "internalType": "struct SwapPoint[]",
          "name": "swaps",
          "type": "tuple[]"
        },
        {
          "components": [
            {
              "components": [
                {
                  "internalType": "address",
                  "name": "pool",
                  "type": "address"
                },
                {
                  "internalType": "address",
                  "name": "manager",
                  "type": "address"
                },
                {
                  "internalType": "uint256",
                  "name": "tokenId",
                  "type": "uint256"
                },
                {
                  "internalType": "uint256",
                  "name": "liquidity",
                  "type": "uint256"
                },
                {
                  "internalType": "bytes",
                  "name": "data",
                  "type": "bytes"
                }
              ],
              "internalType": "struct Asset",
              "name": "desiredERC721",
              "type": "tuple"
            },
            {
              "internalType": "address",
              "name": "desiredERC20",
              "type": "address"
            },
            {
              "internalType": "uint256",
              "name": "value",
              "type": "uint256"
            },
            {
              "internalType": "address[]",
              "name": "underlying",
              "type": "address[]"
            },
            {
              "internalType": "uint256[]",
              "name": "underlyingValues",
              "type": "uint256[]"
            }
          ],
          "internalType": "struct Conversion[]",
          "name": "conversions",
          "type": "tuple[]"
        },
        {
          "internalType": "uint256[]",
          "name": "minAmounts",
          "type": "uint256[]"
        }
      ],
      "name": "depositInExisting",
      "outputs": [],
      "stateMutability": "payable",
      "type": "function"
    },
    {
      "inputs": [
        {
          "internalType": "uint256",
          "name": "positionId",
          "type": "uint256"
        },
        {
          "internalType": "address",
          "name": "inTermsOf",
          "type": "address"
        }
      ],
      "name": "estimateValue",
      "outputs": [
        {
          "internalType": "uint256",
          "name": "",
          "type": "uint256"
        }
      ],
      "stateMutability": "view",
      "type": "function"
    },
    {
      "inputs": [],
      "name": "getBanks",
      "outputs": [
        {
          "internalType": "address payable[]",
          "name": "",
          "type": "address[]"
        }
      ],
      "stateMutability": "view",
      "type": "function"
    },
    {
      "inputs": [
        {
          "internalType": "uint256",
          "name": "positionId",
          "type": "uint256"
        }
      ],
      "name": "getPosition",
      "outputs": [
        {
          "components": [
            {
              "components": [
                {
                  "internalType": "address",
                  "name": "user",
                  "type": "address"
                },
                {
                  "internalType": "address",
                  "name": "bank",
                  "type": "address"
                },
                {
                  "internalType": "uint256",
                  "name": "bankToken",
                  "type": "uint256"
                },
                {
                  "internalType": "uint256",
                  "name": "amount",
                  "type": "uint256"
                },
                {
                  "components": [
                    {
                      "internalType": "address",
                      "name": "watchedToken",
                      "type": "address"
                    },
                    {
                      "internalType": "address",
                      "name": "liquidateTo",
                      "type": "address"
                    },
                    {
                      "internalType": "bool",
                      "name": "lessThan",
                      "type": "bool"
                    },
                    {
                      "internalType": "uint256",
                      "name": "liquidationPoint",
                      "type": "uint256"
                    },
                    {
                      "internalType": "uint256",
                      "name": "slippage",
                      "type": "uint256"
                    }
                  ],
                  "internalType": "struct LiquidationCondition[]",
                  "name": "liquidationPoints",
                  "type": "tuple[]"
                }
              ],
              "internalType": "struct Position",
              "name": "position",
              "type": "tuple"
            },
            {
              "components": [
                {
                  "internalType": "address",
                  "name": "lpToken",
                  "type": "address"
                },
                {
                  "internalType": "address",
                  "name": "manager",
                  "type": "address"
                },
                {
                  "internalType": "uint256",
                  "name": "idInManager",
                  "type": "uint256"
                }
              ],
              "internalType": "struct BankTokenInfo",
              "name": "bankTokenInfo",
              "type": "tuple"
            },
            {
              "internalType": "address[]",
              "name": "underlyingTokens",
              "type": "address[]"
            },
            {
              "internalType": "uint256[]",
              "name": "underlyingAmounts",
              "type": "uint256[]"
            },
            {
              "internalType": "uint256[]",
              "name": "underlyingValues",
              "type": "uint256[]"
            },
            {
              "internalType": "address[]",
              "name": "rewardTokens",
              "type": "address[]"
            },
            {
              "internalType": "uint256[]",
              "name": "rewardAmounts",
              "type": "uint256[]"
            },
            {
              "internalType": "uint256[]",
              "name": "rewardValues",
              "type": "uint256[]"
            },
            {
              "internalType": "uint256",
              "name": "usdValue",
              "type": "uint256"
            }
          ],
          "internalType": "struct PositionData",
          "name": "data",
          "type": "tuple"
        }
      ],
      "stateMutability": "view",
      "type": "function"
    },
    {
      "inputs": [
        {
          "internalType": "uint256",
          "name": "positionId",
          "type": "uint256"
        }
      ],
      "name": "getPositionInteractions",
      "outputs": [
        {
          "components": [
            {
              "internalType": "string",
              "name": "action",
              "type": "string"
            },
            {
              "internalType": "uint256",
              "name": "timestamp",
              "type": "uint256"
            },
            {
              "internalType": "uint256",
              "name": "blockNumber",
              "type": "uint256"
            },
            {
              "components": [
                {
                  "internalType": "address[]",
                  "name": "tokens",
                  "type": "address[]"
                },
                {
                  "internalType": "uint256[]",
                  "name": "amounts",
                  "type": "uint256[]"
                },
                {
                  "components": [
                    {
                      "internalType": "address",
                      "name": "pool",
                      "type": "address"
                    },
                    {
                      "internalType": "address",
                      "name": "manager",
                      "type": "address"
                    },
                    {
                      "internalType": "uint256",
                      "name": "tokenId",
                      "type": "uint256"
                    },
                    {
                      "internalType": "uint256",
                      "name": "liquidity",
                      "type": "uint256"
                    },
                    {
                      "internalType": "bytes",
                      "name": "data",
                      "type": "bytes"
                    }
                  ],
                  "internalType": "struct Asset[]",
                  "name": "nfts",
                  "type": "tuple[]"
                }
              ],
              "internalType": "struct Provided",
              "name": "assets",
              "type": "tuple"
            },
            {
              "internalType": "uint256",
              "name": "usdValue",
              "type": "uint256"
            },
            {
              "internalType": "uint256",
              "name": "positionSizeChange",
              "type": "uint256"
            }
          ],
          "internalType": "struct PositionInteraction[]",
          "name": "",
          "type": "tuple[]"
        }
      ],
      "stateMutability": "view",
      "type": "function"
    },
    {
      "inputs": [
        {
          "internalType": "uint256",
          "name": "positionId",
          "type": "uint256"
        }
      ],
      "name": "getPositionRewards",
      "outputs": [
        {
          "internalType": "address[]",
          "name": "rewards",
          "type": "address[]"
        },
        {
          "internalType": "uint256[]",
          "name": "rewardAmounts",
          "type": "uint256[]"
        },
        {
          "internalType": "uint256[]",
          "name": "rewardValues",
          "type": "uint256[]"
        }
      ],
      "stateMutability": "view",
      "type": "function"
    },
    {
      "inputs": [
        {
          "internalType": "uint256",
          "name": "positionId",
          "type": "uint256"
        }
      ],
      "name": "getPositionTokens",
      "outputs": [
        {
          "internalType": "address[]",
          "name": "tokens",
          "type": "address[]"
        },
        {
          "internalType": "uint256[]",
          "name": "amounts",
          "type": "uint256[]"
        },
        {
          "internalType": "uint256[]",
          "name": "values",
          "type": "uint256[]"
        }
      ],
      "stateMutability": "view",
      "type": "function"
    },
    {
      "inputs": [
        {
          "internalType": "address",
          "name": "user",
          "type": "address"
        }
      ],
      "name": "getPositions",
      "outputs": [
        {
          "internalType": "uint256[]",
          "name": "",
          "type": "uint256[]"
        }
      ],
      "stateMutability": "view",
      "type": "function"
    },
    {
      "inputs": [
        {
          "internalType": "uint256",
          "name": "positionId",
          "type": "uint256"
        },
        {
          "components": [
            {
              "internalType": "uint256",
              "name": "amountIn",
              "type": "uint256"
            },
            {
              "internalType": "uint256",
              "name": "valueIn",
              "type": "uint256"
            },
            {
              "internalType": "uint256",
              "name": "amountOut",
              "type": "uint256"
            },
            {
              "internalType": "uint256",
              "name": "valueOut",
              "type": "uint256"
            },
            {
              "internalType": "int256",
              "name": "slippage",
              "type": "int256"
            },
            {
              "internalType": "address",
              "name": "tokenIn",
              "type": "address"
            },
            {
              "internalType": "address[]",
              "name": "swappers",
              "type": "address[]"
            },
            {
              "internalType": "address",
              "name": "tokenOut",
              "type": "address"
            },
            {
              "internalType": "address[][]",
              "name": "paths",
              "type": "address[][]"
            }
          ],
          "internalType": "struct SwapPoint[]",
          "name": "swaps",
          "type": "tuple[]"
        },
        {
          "components": [
            {
              "components": [
                {
                  "internalType": "address",
                  "name": "pool",
                  "type": "address"
                },
                {
                  "internalType": "address",
                  "name": "manager",
                  "type": "address"
                },
                {
                  "internalType": "uint256",
                  "name": "tokenId",
                  "type": "uint256"
                },
                {
                  "internalType": "uint256",
                  "name": "liquidity",
                  "type": "uint256"
                },
                {
                  "internalType": "bytes",
                  "name": "data",
                  "type": "bytes"
                }
              ],
              "internalType": "struct Asset",
              "name": "desiredERC721",
              "type": "tuple"
            },
            {
              "internalType": "address",
              "name": "desiredERC20",
              "type": "address"
            },
            {
              "internalType": "uint256",
              "name": "value",
              "type": "uint256"
            },
            {
              "internalType": "address[]",
              "name": "underlying",
              "type": "address[]"
            },
            {
              "internalType": "uint256[]",
              "name": "underlyingValues",
              "type": "uint256[]"
            }
          ],
          "internalType": "struct Conversion[]",
          "name": "conversions",
          "type": "tuple[]"
        },
        {
          "internalType": "uint256[]",
          "name": "minAmounts",
          "type": "uint256[]"
        }
      ],
      "name": "harvestAndRecompound",
      "outputs": [
        {
          "internalType": "uint256",
          "name": "",
          "type": "uint256"
        }
      ],
      "stateMutability": "nonpayable",
      "type": "function"
    },
    {
      "inputs": [
        {
          "internalType": "uint256",
          "name": "positionId",
          "type": "uint256"
        }
      ],
      "name": "harvestRewards",
      "outputs": [
        {
          "internalType": "address[]",
          "name": "",
          "type": "address[]"
        },
        {
          "internalType": "uint256[]",
          "name": "",
          "type": "uint256[]"
        }
      ],
      "stateMutability": "nonpayable",
      "type": "function"
    },
    {
      "inputs": [],
      "name": "helper",
      "outputs": [
        {
          "internalType": "contract ManagerHelper",
          "name": "",
          "type": "address"
        }
      ],
      "stateMutability": "view",
      "type": "function"
    },
    {
      "inputs": [
        {
          "internalType": "address",
          "name": "",
          "type": "address"
        }
      ],
      "name": "keepers",
      "outputs": [
        {
          "internalType": "bool",
          "name": "",
          "type": "bool"
        }
      ],
      "stateMutability": "view",
      "type": "function"
    },
    {
      "inputs": [],
      "name": "networkToken",
      "outputs": [
        {
          "internalType": "address",
          "name": "",
          "type": "address"
        }
      ],
      "stateMutability": "view",
      "type": "function"
    },
    {
      "inputs": [],
      "name": "numPositions",
      "outputs": [
        {
          "internalType": "uint256",
          "name": "",
          "type": "uint256"
        }
      ],
      "stateMutability": "view",
      "type": "function"
    },
    {
      "inputs": [],
      "name": "owner",
      "outputs": [
        {
          "internalType": "address",
          "name": "",
          "type": "address"
        }
      ],
      "stateMutability": "view",
      "type": "function"
    },
    {
      "inputs": [
        {
          "internalType": "uint256",
          "name": "",
          "type": "uint256"
        }
      ],
      "name": "positionClosed",
      "outputs": [
        {
          "internalType": "bool",
          "name": "",
          "type": "bool"
        }
      ],
      "stateMutability": "view",
      "type": "function"
    },
    {
      "inputs": [
        {
          "internalType": "uint256",
          "name": "",
          "type": "uint256"
        },
        {
          "internalType": "uint256",
          "name": "",
          "type": "uint256"
        }
      ],
      "name": "positionInteractions",
      "outputs": [
        {
          "internalType": "string",
          "name": "action",
          "type": "string"
        },
        {
          "internalType": "uint256",
          "name": "timestamp",
          "type": "uint256"
        },
        {
          "internalType": "uint256",
          "name": "blockNumber",
          "type": "uint256"
        },
        {
          "components": [
            {
              "internalType": "address[]",
              "name": "tokens",
              "type": "address[]"
            },
            {
              "internalType": "uint256[]",
              "name": "amounts",
              "type": "uint256[]"
            },
            {
              "components": [
                {
                  "internalType": "address",
                  "name": "pool",
                  "type": "address"
                },
                {
                  "internalType": "address",
                  "name": "manager",
                  "type": "address"
                },
                {
                  "internalType": "uint256",
                  "name": "tokenId",
                  "type": "uint256"
                },
                {
                  "internalType": "uint256",
                  "name": "liquidity",
                  "type": "uint256"
                },
                {
                  "internalType": "bytes",
                  "name": "data",
                  "type": "bytes"
                }
              ],
              "internalType": "struct Asset[]",
              "name": "nfts",
              "type": "tuple[]"
            }
          ],
          "internalType": "struct Provided",
          "name": "assets",
          "type": "tuple"
        },
        {
          "internalType": "uint256",
          "name": "usdValue",
          "type": "uint256"
        },
        {
          "internalType": "uint256",
          "name": "positionSizeChange",
          "type": "uint256"
        }
      ],
      "stateMutability": "view",
      "type": "function"
    },
    {
      "inputs": [
        {
          "internalType": "uint256",
          "name": "",
          "type": "uint256"
        }
      ],
      "name": "positions",
      "outputs": [
        {
          "internalType": "address",
          "name": "user",
          "type": "address"
        },
        {
          "internalType": "address",
          "name": "bank",
          "type": "address"
        },
        {
          "internalType": "uint256",
          "name": "bankToken",
          "type": "uint256"
        },
        {
          "internalType": "uint256",
          "name": "amount",
          "type": "uint256"
        }
      ],
      "stateMutability": "view",
      "type": "function"
    },
    {
      "inputs": [
        {
          "internalType": "address",
          "name": "lpToken",
          "type": "address"
        }
      ],
      "name": "recommendBank",
      "outputs": [
        {
          "internalType": "address[]",
          "name": "",
          "type": "address[]"
        },
        {
          "internalType": "uint256[]",
          "name": "",
          "type": "uint256[]"
        }
      ],
      "stateMutability": "view",
      "type": "function"
    },
    {
      "inputs": [],
      "name": "renounceOwnership",
      "outputs": [],
      "stateMutability": "nonpayable",
      "type": "function"
    },
    {
      "inputs": [
        {
          "internalType": "address payable[]",
          "name": "_banks",
          "type": "address[]"
        }
      ],
      "name": "setBanks",
      "outputs": [],
      "stateMutability": "nonpayable",
      "type": "function"
    },
    {
      "inputs": [
        {
          "internalType": "address",
          "name": "keeperAddress",
          "type": "address"
        },
        {
          "internalType": "bool",
          "name": "active",
          "type": "bool"
        }
      ],
      "name": "setKeeper",
      "outputs": [],
      "stateMutability": "nonpayable",
      "type": "function"
    },
    {
      "inputs": [
        {
          "internalType": "address",
          "name": "_universalSwap",
          "type": "address"
        }
      ],
      "name": "setUniversalSwap",
      "outputs": [],
      "stateMutability": "nonpayable",
      "type": "function"
    },
    {
      "inputs": [],
      "name": "stableToken",
      "outputs": [
        {
          "internalType": "address",
          "name": "",
          "type": "address"
        }
      ],
      "stateMutability": "view",
      "type": "function"
    },
    {
      "inputs": [
        {
          "internalType": "address",
          "name": "newOwner",
          "type": "address"
        }
      ],
      "name": "transferOwnership",
      "outputs": [],
      "stateMutability": "nonpayable",
      "type": "function"
    },
    {
      "inputs": [],
      "name": "universalSwap",
      "outputs": [
        {
          "internalType": "address",
          "name": "",
          "type": "address"
        }
      ],
      "stateMutability": "view",
      "type": "function"
    },
    {
      "inputs": [
        {
          "internalType": "address",
          "name": "",
          "type": "address"
        },
        {
          "internalType": "uint256",
          "name": "",
          "type": "uint256"
        }
      ],
      "name": "userPositions",
      "outputs": [
        {
          "internalType": "uint256",
          "name": "",
          "type": "uint256"
        }
      ],
      "stateMutability": "view",
      "type": "function"
    },
    {
      "inputs": [
        {
          "internalType": "uint256",
          "name": "positionId",
          "type": "uint256"
        },
        {
          "internalType": "uint256",
          "name": "amount",
          "type": "uint256"
        }
      ],
      "name": "withdraw",
      "outputs": [],
      "stateMutability": "nonpayable",
      "type": "function"
    },
    {
      "stateMutability": "payable",
      "type": "receive"
    }
  ],
  "transactionHash": "0x56baeb271d0b8386ccbee705fa7f950374b23480d527e4876db12b4904786f5d",
  "args": [
    "0xb8a314bCC7C6f3445FC6Dd7902b08B805F2539FE",
    "0xe9e7CEA3DedcA5984780Bafc599bD69ADd087D56"
  ],
  "numDeployments": 1,
  "solcInputHash": "0e32d49de90c1ca08094a3215c0047c7",
  "bytecode": "0x60806040523480156200001157600080fd5b5060405162008386380380620083868339810160408190526200003491620001c9565b6200003f336200014e565b600680546001600160a01b038085166001600160a01b03199283168117909355600880549185169190921617905560408051633654ad2760e11b81529051636ca95a4e916004808201926020929091908290030181865afa158015620000a9573d6000803e3d6000fd5b505050506040513d601f19601f82011682018060405250810190620000cf919062000201565b600780546001600160a01b0319166001600160a01b0392909216919091179055604051620000fd906200019e565b604051809103906000f0801580156200011a573d6000803e3d6000fd5b50600980546001600160a01b0319166001600160a01b03929092169190911790555050600180548101815560005262000226565b600080546001600160a01b038381166001600160a01b0319831681178455604051919092169283917f8be0079c531659141344cd1fd0a4f28419497f9722a3daafe3b4186f6b6457e09190a35050565b6121a580620061e183390190565b80516001600160a01b0381168114620001c457600080fd5b919050565b60008060408385031215620001dd57600080fd5b620001e883620001ac565b9150620001f860208401620001ac565b90509250929050565b6000602082840312156200021457600080fd5b6200021f82620001ac565b9392505050565b615fab80620002366000396000f3fe6080604052600436106101bc5760003560e01c8063685f5607116100ed578063c40f94c511610090578063c40f94c514610594578063cadbcfce146105b4578063d1b9e853146105d4578063e808e676146105f4578063ea532a3314610614578063eb02c30114610644578063ef9a187614610671578063f2fde38b14610691578063fc341b0d146106b157600080fd5b8063685f5607146104765780636ca95a4e14610496578063715018a6146104b657806378ca319a146104cb5780638da5cb5b146104eb57806398bd03681461050957806399fbab8814610529578063a9d75b2b1461057457600080fd5b80634052005411610160578063405200541461033257806343347e0e14610364578063441a3e701461038657806344e0b33d146103a657806355909f9d146103d457806357126d0d146104015780635e1b4d99146104215780635e71823b1461044157806363b0e66a1461045657600080fd5b806285ae2b146101c85780630aebeb4e146101fe578063151ab1aa1461022057806315f28b2c1461024f5780632abb55351461027d57806338af1dac146102905780633bbd64bc146102c55780633eeb530e1461030557600080fd5b366101c357005b600080fd5b3480156101d457600080fd5b506101e86101e3366004614216565b6106c4565b6040516101f5919061422f565b60405180910390f35b34801561020a57600080fd5b5061021e610219366004614216565b6106ee565b005b34801561022c57600080fd5b5061024061023b366004614216565b6108e7565b6040516101f5939291906142b7565b34801561025b57600080fd5b5061026f61026a36600461431f565b6109a1565b6040519081526020016101f5565b61021e61028b3660046148ac565b610a45565b34801561029c57600080fd5b506102b06102ab366004614216565b61101b565b604080519283529015156020830152016101f5565b3480156102d157600080fd5b506102f56102e0366004614a49565b600a6020526000908152604090205460ff1681565b60405190151581526020016101f5565b34801561031157600080fd5b50610325610320366004614a49565b6110bf565b6040516101f59190614a66565b34801561033e57600080fd5b5061035261034d366004614a79565b61112b565b6040516101f596959493929190614bd7565b34801561037057600080fd5b506103796113f8565b6040516101f59190614c1e565b34801561039257600080fd5b5061021e6103a1366004614a79565b61145a565b3480156103b257600080fd5b506103c66103c1366004614a49565b6115ab565b6040516101f5929190614c6b565b3480156103e057600080fd5b506103f46103ef366004614216565b611625565b6040516101f59190614c90565b34801561040d57600080fd5b506103c661041c366004614216565b611948565b34801561042d57600080fd5b5061026f61043c366004614d40565b611adf565b34801561044d57600080fd5b5060015461026f565b34801561046257600080fd5b506009546101e8906001600160a01b031681565b34801561048257600080fd5b5061021e610491366004614e30565b611b10565b3480156104a257600080fd5b506007546101e8906001600160a01b031681565b3480156104c257600080fd5b5061021e611c86565b3480156104d757600080fd5b506006546101e8906001600160a01b031681565b3480156104f757600080fd5b506000546001600160a01b03166101e8565b34801561051557600080fd5b5061021e610524366004614e76565b611c9a565b34801561053557600080fd5b50610549610544366004614216565b611cb9565b604080516001600160a01b0395861681529490931660208501529183015260608201526080016101f5565b34801561058057600080fd5b506008546101e8906001600160a01b031681565b3480156105a057600080fd5b506102406105af366004614216565b611cff565b3480156105c057600080fd5b5061021e6105cf366004614f04565b611d3c565b3480156105e057600080fd5b5061021e6105ef366004614f7a565b61229c565b34801561060057600080fd5b5061021e61060f366004614a49565b6122cf565b34801561062057600080fd5b506102f561062f366004614216565b60026020526000908152604090205460ff1681565b34801561065057600080fd5b5061066461065f366004614216565b6122f9565b6040516101f59190615054565b34801561067d57600080fd5b5061026f61068c36600461516f565b612427565b34801561069d57600080fd5b5061021e6106ac366004614a49565b612856565b61026f6106bf3660046151f4565b6128cf565b600581815481106106d457600080fd5b6000918252602090912001546001600160a01b0316905081565b600081815260026020526040902054819060ff16151560010361072c5760405162461bcd60e51b8152600401610723906152e5565b60405180910390fd5b60006001838154811061074157610741615301565b60009182526020822060059091020180549092506107699085906001600160a01b03166130ad565b82549091506000906001600160a01b031633146107aa576040518060400160405280600c81526020016b13dc99195c8811985a5b195960a21b8152506107c9565b60405180604001604052806005815260200164436c6f736560d81b8152505b6040805160c0810182528281524260208201524381830152606081018590526006546008549251639b1fbbe760e01b8152939450600093919260808401926001600160a01b0392831692639b1fbbe79261082b928a9290911690600401615317565b602060405180830381865afa158015610848573d6000803e3d6000fd5b505050506040513d601f19601f8201168201806040525081019061086c9190615341565b81526020018560030154815250905061088581876132cd565b6000600385018190558681526002602052604090819020805460ff19166001179055517fc4d725ed84805f25e3904a1a4b3a00514e1794a5921999d96c8a1df37d9b80b5906108d79088815260200190565b60405180910390a1505050505050565b6060806060600960009054906101000a90046001600160a01b03166001600160a01b0316631e532122856001878154811061092457610924615301565b90600052602060002090600502016040518363ffffffff1660e01b815260040161094f929190615412565b600060405180830381865afa15801561096c573d6000803e3d6000fd5b505050506040513d6000823e601f3d908101601f1916820160405261099491908101906154ea565b9250925092509193909250565b600954600180546000926001600160a01b03169163f22c6a9291869190829081106109ce576109ce615301565b9060005260206000209060050201856040518463ffffffff1660e01b81526004016109fb93929190615567565b602060405180830381865afa158015610a18573d6000803e3d6000fd5b505050506040513d601f19601f82011682018060405250810190610a3c9190615341565b90505b92915050565b600085815260026020526040902054859060ff161515600103610a7a5760405162461bcd60e51b8152600401610723906152e5565b600060018781548110610a8f57610a8f615301565b6000918252602082206005919091020160018101546002820154604051630eab466160e21b815260048101919091529193506001600160a01b03169160609181908490633aad198490602401600060405180830381865afa158015610af8573d6000803e3d6000fd5b505050506040513d6000823e601f3d908101601f19168201604052610b209190810190615598565b8851919350915015610da75760005b8a5151811015610bb65760065460208c01518051610ba49233926001600160a01b039091169185908110610b6557610b65615301565b60200260200101518e600001518581518110610b8357610b83615301565b60200260200101516001600160a01b03166135d6909392919063ffffffff16565b80610bae81615607565b915050610b2f565b5060005b8a6040015151811015610c93578a604001518181518110610bdd57610bdd615301565b6020026020010151602001516001600160a01b03166342842e0e33600660009054906101000a90046001600160a01b03168e604001518581518110610c2457610c24615301565b6020026020010151604001516040518463ffffffff1660e01b8152600401610c4e93929190615620565b600060405180830381600087803b158015610c6857600080fd5b505af1158015610c7c573d6000803e3d6000fd5b505050508080610c8b90615607565b915050610bba565b5060065460408051608081019091528381526001600160a01b0390911690636b7577559034908d908d908d90602081016000604051908082528060200260200182016040528015610cfe57816020015b610ceb61409f565b815260200190600190039081610ce35790505b5081526020018881526020018e8152508a6040518763ffffffff1660e01b8152600401610d2f959493929190615791565b60006040518083038185885af1158015610d4d573d6000803e3d6000fd5b50505050506040513d6000823e601f3d908101601f19168201604052610d7691908101906158c5565b92503415610da2578951610d8b9060006135eb565b8a5260208a0151610d9c90346136d7565b60208b01525b610e4a565b60005b8a5151811015610de157610dcf33868d602001518481518110610b6557610b65615301565b80610dd981615607565b915050610daa565b503415610e42578951610df59060006135eb565b8a5260208a0151610e0690346136d7565b60208b01526040516001600160a01b038516903480156108fc02916000818181858888f19350505050158015610e40573d6000803e3d6000fd5b505b896020015192505b6000846001600160a01b03166301c777ea87600201548e86886040518563ffffffff1660e01b8152600401610e8294939291906158f9565b6020604051808303816000875af1158015610ea1573d6000803e3d6000fd5b505050506040513d601f19601f82011682018060405250810190610ec59190615341565b905080866003016000828254610edb9190615935565b9250508190555060006040518060c001604052806040518060400160405280600781526020016611195c1bdcda5d60ca1b81525081526020014281526020014381526020018d8152602001600660009054906101000a90046001600160a01b03166001600160a01b0316639b1fbbe78f600860009054906101000a90046001600160a01b03166040518363ffffffff1660e01b8152600401610f7e929190615317565b602060405180830381865afa158015610f9b573d6000803e3d6000fd5b505050506040513d601f19601f82011682018060405250810190610fbf9190615341565b81526020018390529050610fd3818e6132cd565b604080518e8152602081018490527f4bbf8764ae625c4ff8e582be131207d2aa5f19b9acc4b0c898b9a3aa5caae44e910160405180910390a150505050505050505050505050565b6009546001805460009283926001600160a01b039091169163668c48b59186918290811061104b5761104b615301565b90600052602060002090600502016040518363ffffffff1660e01b8152600401611076929190615412565b6040805180830381865afa158015611092573d6000803e3d6000fd5b505050506040513d601f19601f820116820180604052508101906110b69190615948565b91509150915091565b6001600160a01b03811660009081526004602090815260409182902080548351818402810184019094528084526060939283018282801561111f57602002820191906000526020600020905b81548152602001906001019080831161110b575b50505050509050919050565b6003602052816000526040600020818154811061114757600080fd5b90600052602060002090600802016000915091505080600001805461116b9061596d565b80601f01602080910402602001604051908101604052809291908181526020018280546111979061596d565b80156111e45780601f106111b9576101008083540402835291602001916111e4565b820191906000526020600020905b8154815290600101906020018083116111c757829003601f168201915b505050505090806001015490806002015490806003016040518060600160405290816000820180548060200260200160405190810160405280929190818152602001828054801561125e57602002820191906000526020600020905b81546001600160a01b03168152600190910190602001808311611240575b50505050508152602001600182018054806020026020016040519081016040528092919081815260200182805480156112b657602002820191906000526020600020905b8154815260200190600101908083116112a2575b5050505050815260200160028201805480602002602001604051908101604052809291908181526020016000905b828210156113e05760008481526020908190206040805160a0810182526005860290920180546001600160a01b039081168452600182015416938301939093526002830154908201526003820154606082015260048201805491929160808401919061134f9061596d565b80601f016020809104026020016040519081016040528092919081815260200182805461137b9061596d565b80156113c85780601f1061139d576101008083540402835291602001916113c8565b820191906000526020600020905b8154815290600101906020018083116113ab57829003601f168201915b505050505081525050815260200190600101906112e4565b50505091525050600682015460079092015490919086565b6060600580548060200260200160405190810160405280929190818152602001828054801561145057602002820191906000526020600020905b81546001600160a01b03168152600190910190602001808311611432575b5050505050905090565b600082815260026020526040902054829060ff16151560010361148f5760405162461bcd60e51b8152600401610723906152e5565b600061149b84846137a8565b6040805161010081018252600860c0820181815267576974686472617760c01b60e0840152825242602083015243828401526060820184905260065490549251639b1fbbe760e01b8152939450600093919260808401926001600160a01b0392831692639b1fbbe79261151692899290911690600401615317565b602060405180830381865afa158015611533573d6000803e3d6000fd5b505050506040513d601f19601f820116820180604052508101906115579190615341565b8152602001859052905061156b81866132cd565b60408051868152602081018690527f56ca301a9219608c91e7bcee90e083c19671d2cdcc96752c7af291cee5f9c8c8910160405180910390a15050505050565b6009546040516344e0b33d60e01b815260609182916001600160a01b03909116906344e0b33d906115e090869060040161422f565b600060405180830381865afa1580156115fd573d6000803e3d6000fd5b505050506040513d6000823e601f3d908101601f191682016040526110b69190810190615598565b606060036000838152602001908152602001600020805480602002602001604051908101604052809291908181526020016000905b8282101561193d57838290600052602060002090600802016040518060c001604052908160008201805461168d9061596d565b80601f01602080910402602001604051908101604052809291908181526020018280546116b99061596d565b80156117065780601f106116db57610100808354040283529160200191611706565b820191906000526020600020905b8154815290600101906020018083116116e957829003601f168201915b505050505081526020016001820154815260200160028201548152602001600382016040518060600160405290816000820180548060200260200160405190810160405280929190818152602001828054801561178c57602002820191906000526020600020905b81546001600160a01b0316815260019091019060200180831161176e575b50505050508152602001600182018054806020026020016040519081016040528092919081815260200182805480156117e457602002820191906000526020600020905b8154815260200190600101908083116117d0575b5050505050815260200160028201805480602002602001604051908101604052809291908181526020016000905b8282101561190e5760008481526020908190206040805160a0810182526005860290920180546001600160a01b039081168452600182015416938301939093526002830154908201526003820154606082015260048201805491929160808401919061187d9061596d565b80601f01602080910402602001604051908101604052809291908181526020018280546118a99061596d565b80156118f65780601f106118cb576101008083540402835291602001916118f6565b820191906000526020600020905b8154815290600101906020018083116118d957829003601f168201915b50505050508152505081526020019060010190611812565b50505050815250508152602001600682015481526020016007820154815250508152602001906001019061165a565b505050509050919050565b6000818152600260205260409020546060908190839060ff1615156001036119825760405162461bcd60e51b8152600401610723906152e5565b60006119ba856001878154811061199b5761199b615301565b60009182526020909120600590910201546001600160a01b031661393d565b6040805161010081018252600760c082019081526612185c9d995cdd60ca1b60e083015281524260208201524381830152606081018390526006546008549251639b1fbbe760e01b8152939450600093919260808401926001600160a01b0392831692639b1fbbe792611a3592899290911690600401615317565b602060405180830381865afa158015611a52573d6000803e3d6000fd5b505050506040513d601f19601f82011682018060405250810190611a769190615341565b815260200160008152509050611a8c81876132cd565b815160208301516040517f271c841af08388c9753b6e316025af2460a41ccc2696e168a739d95e21ed74bd92611ac3928a926159a7565b60405180910390a1508051602090910151909350915050915091565b60046020528160005260406000208181548110611afb57600080fd5b90600052602060002001600091509150505481565b600082815260026020526040902054829060ff161515600103611b455760405162461bcd60e51b8152600401610723906152e5565b60018381548110611b5857611b58615301565b60009182526020909120600590910201546001600160a01b03163314611b905760405162461bcd60e51b8152600401610723906159d2565b600060018481548110611ba557611ba5615301565b90600052602060002090600502019050806004016000611bc591906140e0565b60005b8351811015611c7f5781600401848281518110611be757611be7615301565b602090810291909101810151825460018181018555600094855293839020825160049092020180546001600160a01b039283166001600160a01b031990911617815592820151938301805460408401511515600160a01b026001600160a81b03199091169590921694909417179092556060820151600282015560809091015160039091015580611c7781615607565b915050611bc8565b5050505050565b611c8e613a26565b611c986000613a80565b565b611ca2613a26565b8051611cb5906005906020840190614101565b5050565b60018181548110611cc957600080fd5b600091825260209091206005909102018054600182015460028301546003909301546001600160a01b0392831694509116919084565b6060806060600960009054906101000a90046001600160a01b03166001600160a01b031663cd7bdaf7856001878154811061092457610924615301565b600084815260026020526040902054849060ff161515600103611d715760405162461bcd60e51b8152600401610723906152e5565b600060018681548110611d8657611d86615301565b6000918252602082206006546005909202019250611dae9088906001600160a01b03166130ad565b6040805160018082528183019092529192506000918291829190602080830190803683375050604080516001808252818301909252929350600092915060208083019080368337019050509050856004018a81548110611e1057611e10615301565b6000918252602082206001600490920201015483516001600160a01b03909116918491611e3f57611e3f615301565b60200260200101906001600160a01b031690816001600160a01b031681525050600181600081518110611e7457611e74615301565b602090810291909101810191909152600654604080516060810182528851815288840151818501528151600080825294810183526001600160a01b0390931692636b7577559282019085611ede565b611ecb61409f565b815260200190600190039081611ec35790505b50905260408051608081019091528681528d908d90602081016000604051908082528060200260200182016040528015611f3257816020015b611f1f61409f565b815260200190600190039081611f175790505b50815260208082018a90526040805160018082528183018352919093019291828101908036833750505090528c5460405160e087901b6001600160e01b0319168152611f8e95949392916001600160a01b031690600401615791565b6000604051808303816000875af1158015611fad573d6000803e3d6000fd5b505050506040513d6000823e601f3d908101601f19168201604052611fd591908101906158c5565b905080600081518110611fea57611fea615301565b6020908102919091010151600654600854604051639b1fbbe760e01b81529296506001600160a01b039182169550639b1fbbe7945061203193508892911690600401615317565b602060405180830381865afa15801561204e573d6000803e3d6000fd5b505050506040513d601f19601f820116820180604052508101906120729190615341565b91506000670de0b6b3a7640000856004018a8154811061209457612094615301565b906000526020600020906004020160030154670de0b6b3a76400006120b991906159ed565b6120c39085615a00565b6120cd9190615a2d565b6006546004870180549293506000926001600160a01b0390921691636d6f00a491908d9081106120ff576120ff615301565b600091825260209091206004918202016001015460085460405160e085901b6001600160e01b03191681526001600160a01b039283169381019390935260248301889052166044820152606401602060405180830381865afa158015612169573d6000803e3d6000fd5b505050506040513d601f19601f8201168201806040525081019061218d9190615341565b90508181116121c25760405162461bcd60e51b81526020600482015260016024820152603360f81b6044820152606401610723565b505060006040518060c001604052806121e68b60016121e19190615935565b613ad0565b6040516020016121f69190615a41565b604051602081830303815290604052815260200142815260200143815260200185815260200184815260200186600301548152509050612236818b6132cd565b6000600386018190558a81526002602052604090819020805460ff19166001179055517fc4d725ed84805f25e3904a1a4b3a00514e1794a5921999d96c8a1df37d9b80b590612288908c815260200190565b60405180910390a150505050505050505050565b6122a4613a26565b6001600160a01b03919091166000908152600a60205260409020805460ff1916911515919091179055565b6122d7613a26565b600680546001600160a01b0319166001600160a01b0392909216919091179055565b61238c604080516101c08101909152600061012082018181526101408301829052610160830182905261018083019190915260606101a0830152819081526040805160608101825260008082526020828101829052928201529101908152602001606081526020016060815260200160608152602001606081526020016060815260200160608152602001600081525090565b600954600180546001600160a01b03909216916343b0861d918591829081106123b7576123b7615301565b90600052602060002090600502016040518363ffffffff1660e01b81526004016123e2929190615412565b600060405180830381865afa1580156123ff573d6000803e3d6000fd5b505050506040513d6000823e601f3d908101601f19168201604052610a3f9190810190615bf1565b600084815260026020526040812054859060ff16151560010361245c5760405162461bcd60e51b8152600401610723906152e5565b336001600160a01b03166001878154811061247957612479615301565b60009182526020909120600590910201546001600160a01b0316146124b05760405162461bcd60e51b8152600401610723906159d2565b6000600187815481106124c5576124c5615301565b60009182526020822060016005909202019081015486519193506001600160a01b0316919061250b908a906124fa578361393d565b6006546001600160a01b031661393d565b9050600080836001600160a01b0316633aad198486600201546040518263ffffffff1660e01b815260040161254291815260200190565b600060405180830381865afa15801561255f573d6000803e3d6000fd5b505050506040513d6000823e601f3d908101601f191682016040526125879190810190615598565b9150915060606000895111156126945760006125a68560200151613bd8565b111561268f5760065460408051608081019091528481526001600160a01b0390911690636b7577559086908e908e9060208101600060405190808252806020026020018201604052801561261457816020015b61260161409f565b8152602001906001900390816125f95790505b5081526020018881526020018f8152508a6040518663ffffffff1660e01b8152600401612645959493929190615791565b6000604051808303816000875af1158015612664573d6000803e3d6000fd5b505050506040513d6000823e601f3d908101601f1916820160405261268c91908101906158c5565b90505b61269b565b5060208301515b6000806126a783613bd8565b111561274257856001600160a01b03166301c777ea88600201548f87866040518563ffffffff1660e01b81526004016126e394939291906158f9565b6020604051808303816000875af1158015612702573d6000803e3d6000fd5b505050506040513d601f19601f820116820180604052508101906127269190615341565b90508087600301600082825461273c9190615935565b90915550505b6040805161010081018252600860c082018181526714995a5b9d995cdd60c21b60e0840152825242602083015243828401526060820188905260065490549251639b1fbbe760e01b815260009360808401926001600160a01b0390811692639b1fbbe7926127b7928d92911690600401615317565b602060405180830381865afa1580156127d4573d6000803e3d6000fd5b505050506040513d601f19601f820116820180604052508101906127f89190615341565b8152602001839052905061280c818f6132cd565b604080518f8152602081018490527f1031bbd7620e3c20c07deb7749c884db9e0f800f32bedb6d9068de483fc6cb35910160405180910390a1509c9b505050505050505050505050565b61285e613a26565b6001600160a01b0381166128c35760405162461bcd60e51b815260206004820152602660248201527f4f776e61626c653a206e6577206f776e657220697320746865207a65726f206160448201526564647265737360d01b6064820152608401610723565b6128cc81613a80565b50565b60208301516040808501519051632eae26a360e01b815260048101919091526000919082906001600160a01b03831690632eae26a390602401602060405180830381865afa158015612925573d6000803e3d6000fd5b505050506040513d601f19601f820116820180604052508101906129499190615d59565b600654604051634f129c5360e01b81529192506001600160a01b031690634f129c539061297a90849060040161422f565b6020604051808303816000875af1158015612999573d6000803e3d6000fd5b505050506040513d601f19601f820116820180604052508101906129bd9190615d76565b6129ed5760405162461bcd60e51b81526020600482015260016024820152601960f91b6044820152606401610723565b6000341180156129fc57508451155b80612a11575034158015612a11575060008551115b612a415760405162461bcd60e51b81526020600482015260016024820152601b60f91b6044820152606401610723565b60005b8551811015612a9057612a7e3384878481518110612a6457612a64615301565b6020026020010151898581518110610b8357610b83615301565b80612a8881615607565b915050612a44565b503415612b625760408051600180825281830190925290602080830190803683375050604080516001808252818301909252929750905060208083019080368337019050509350600085600081518110612aec57612aec615301565b60200260200101906001600160a01b031690816001600160a01b0316815250503484600081518110612b2057612b20615301565b60209081029190910101526040516001600160a01b038316903480156108fc02916000818181858888f19350505050158015612b60573d6000803e3d6000fd5b505b60408087015160015491516331feab2960e01b81526000926001600160a01b038616926331feab2992612b9c92908b908b906004016158f9565b6020604051808303816000875af1158015612bbb573d6000803e3d6000fd5b505050506040513d601f19601f82011682018060405250810190612bdf9190615341565b6001805481018082556000828152929350612bfb9082906159ed565b81548110612c0b57612c0b615301565b600091825260208083208b516005939093020180546001600160a01b03199081166001600160a01b03948516178255918c0151600182018054909316931692909217905560408a015160028201556003810184905591505b886080015151811015612d22578160040189608001518281518110612c8a57612c8a615301565b602090810291909101810151825460018181018555600094855293839020825160049092020180546001600160a01b039283166001600160a01b031990911617815592820151938301805460408401511515600160a01b026001600160a81b03199091169590921694909417179092556060820151600282015560809091015160039091015580612d1a81615607565b915050612c63565b5087516001600160a01b0316600090815260046020526040902060018054612d4a91906159ed565b81546001810183556000928352602090922090910155612d68614166565b846001600160a01b0316639c73e4836040518163ffffffff1660e01b8152600401602060405180830381865afa158015612da6573d6000803e3d6000fd5b505050506040513d601f19601f82011682018060405250810190612dca9190615d76565b15612eff5760006040518060a0016040528060006001600160a01b031681526020018a600081518110612dff57612dff615301565b60200260200101516001600160a01b0316815260200189600081518110612e2857612e28615301565b60200260200101518152602001858152602001604051806020016040528060008152508152509050600060016001600160401b03811115612e6b57612e6b61434f565b604051908082528060200260200182016040528015612ea457816020015b612e9161409f565b815260200190600190039081612e895790505b5090508181600081518110612ebb57612ebb615301565b60209081029190910181019190915260408051600060608201818152608083018452825282519081528084018352928101929092528101919091529150612f4c9050565b6040805160608101825289815260208082018a9052825160008082529181018452919283019190612f46565b612f3361409f565b815260200190600190039081612f2b5790505b50905290505b6040805161010081018252600760c082019081526611195c1bdcda5d60ca1b60e083015281524260208201524381830152606081018390526006546008549251639b1fbbe760e01b815260009360808401926001600160a01b0390811692639b1fbbe792612fc1928992911690600401615317565b602060405180830381865afa158015612fde573d6000803e3d6000fd5b505050506040513d601f19601f820116820180604052508101906130029190615341565b815260200185905260018054919250613025918391613020916159ed565b6132cd565b600180547f4c77a279ddd91d6287f9c2dd1f87b08cfd4b4567f96cf3f29be2029f1cb3790491613054916159ed565b600185015460028601548654600388015460405161308795946001600160a01b03908116949316919060048b0190615d93565b60405180910390a16001805461309d91906159ed565b96505050505050505b9392505050565b6130b5614166565b6000600184815481106130ca576130ca615301565b6000918252602090912060059091020160018101549091506001600160a01b03166060806130f6614166565b336000908152600a602052604090205460ff168061311d575084546001600160a01b031633145b8061313257506000546001600160a01b031633145b61314e5760405162461bcd60e51b8152600401610723906159d2565b600080856001600160a01b03166387a4459b88600201548c8c6040518463ffffffff1660e01b815260040161318593929190615ddf565b6000604051808303816000875af11580156131a4573d6000803e3d6000fd5b505050506040513d6000823e601f3d908101601f191682016040526131cc9190810190615598565b91509150600080876001600160a01b031663bf7be2108a600201548e8c600301548f6040518563ffffffff1660e01b815260040161320d9493929190615dfe565b6000604051808303816000875af115801561322c573d6000803e3d6000fd5b505050506040513d6000823e601f3d908101601f191682016040526132549190810190615598565b90925090506132638483613c27565b965061326f8382613d55565b604080516060810182528981526020808201849052825160008082529181018452939950909291830191906132ba565b6132a761409f565b81526020019060019003908161329f5790505b5090529c9b505050505050505050505050565b600081815260036020526040812080546001908101918290556132ef916159ed565b83516000848152600360205260409020805492935090918390811061331657613316615301565b906000526020600020906008020160000190816133339190615e73565b50826020015160036000848152602001908152602001600020828154811061335d5761335d615301565b906000526020600020906008020160010181905550826040015160036000848152602001908152602001600020828154811061339b5761339b615301565b90600052602060002090600802016002018190555082608001516003600084815260200190815260200160002082815481106133d9576133d9615301565b9060005260206000209060080201600601819055508260a0015160036000848152602001908152602001600020828154811061341757613417615301565b90600052602060002090600802016007018190555082606001516000015160036000848152602001908152602001600020828154811061345957613459615301565b90600052602060002090600802016003016000019080519060200190613480929190614101565b508260600151602001516003600084815260200190815260200160002082815481106134ae576134ae615301565b906000526020600020906008020160030160010190805190602001906134d5929190614187565b5060005b836060015160400151518110156135d057600083815260036020526040902080548390811061350a5761350a615301565b9060005260206000209060080201600301600201846060015160400151828151811061353857613538615301565b602090810291909101810151825460018181018555600094855293839020825160059092020180546001600160a01b039283166001600160a01b03199182161782559383015194810180549590921694909316939093179092556040820151600282015560608201516003820155608082015160048201906135ba9082615e73565b50505080806135c890615607565b9150506134d9565b50505050565b6135d06001600160a01b038516848484613e61565b60606000835160016135fd9190615935565b6001600160401b038111156136145761361461434f565b60405190808252806020026020018201604052801561363d578160200160208202803683370190505b50905060005b84518110156136a25784818151811061365e5761365e615301565b602002602001015182828151811061367857613678615301565b6001600160a01b03909216602092830291909101909101528061369a81615607565b915050613643565b5082818551815181106136b7576136b7615301565b6001600160a01b0390921660209283029190910190910152905092915050565b60606000835160016136e99190615935565b6001600160401b038111156137005761370061434f565b604051908082528060200260200182016040528015613729578160200160208202803683370190505b50905060005b84518110156137815784818151811061374a5761374a615301565b602002602001015182828151811061376457613764615301565b60209081029190910101528061377981615607565b91505061372f565b50828185518151811061379657613796615301565b60209081029190910101529392505050565b6137b0614166565b6000600184815481106137c5576137c5615301565b60009182526020909120600590910201600181015460038201549192506001600160a01b03169084111561381f5760405162461bcd60e51b81526020600482015260016024820152603760f81b6044820152606401610723565b81546001600160a01b031633146138485760405162461bcd60e51b8152600401610723906159d2565b8382600301600082825461385c91906159ed565b90915550506002820154604051630bf7be2160e41b815260009182916001600160a01b0385169163bf7be2109161389c91908b908b903390600401615dfe565b6000604051808303816000875af11580156138bb573d6000803e3d6000fd5b505050506040513d6000823e601f3d908101601f191682016040526138e39190810190615598565b604080516060810182528381526020808201849052825160008082529181018452949650929450929083019161392f565b61391c61409f565b8152602001906001900390816139145790505b509052979650505050505050565b613945614166565b336001600160a01b03166001848154811061396257613962615301565b60009182526020909120600590910201546001600160a01b0316146139995760405162461bcd60e51b8152600401610723906159d2565b6000600184815481106139ae576139ae615301565b60009182526020822060016005909202019081015460028201546040516387a4459b60e01b81529294506001600160a01b039091169291829184916387a4459b9161389c918b908b90600401615ddf565b613a0761409f565b8152602001906001900390816139ff5750509052979650505050505050565b6000546001600160a01b03163314611c985760405162461bcd60e51b815260206004820181905260248201527f4f776e61626c653a2063616c6c6572206973206e6f7420746865206f776e65726044820152606401610723565b600080546001600160a01b038381166001600160a01b0319831681178455604051919092169283917f8be0079c531659141344cd1fd0a4f28419497f9722a3daafe3b4186f6b6457e09190a35050565b606081600003613af75750506040805180820190915260018152600360fc1b602082015290565b8160005b8115613b215780613b0b81615607565b9150613b1a9050600a83615a2d565b9150613afb565b6000816001600160401b03811115613b3b57613b3b61434f565b6040519080825280601f01601f191660200182016040528015613b65576020820181803683370190505b5090505b8415613bd057613b7a6001836159ed565b9150613b87600a86615f32565b613b92906030615935565b60f81b818381518110613ba757613ba7615301565b60200101906001600160f81b031916908160001a905350613bc9600a86615a2d565b9450613b69565b949350505050565b60008060005b8351811015613c2057838181518110613bf957613bf9615301565b602002602001015182613c0c9190615935565b915080613c1881615607565b915050613bde565b5092915050565b6060600082518451613c399190615935565b6001600160401b03811115613c5057613c5061434f565b604051908082528060200260200182016040528015613c79578160200160208202803683370190505b50905060005b8451811015613cde57848181518110613c9a57613c9a615301565b6020026020010151828281518110613cb457613cb4615301565b6001600160a01b039092166020928302919091019091015280613cd681615607565b915050613c7f565b5060005b8351811015613d4d57838181518110613cfd57613cfd615301565b602002602001015182865183613d139190615935565b81518110613d2357613d23615301565b6001600160a01b039092166020928302919091019091015280613d4581615607565b915050613ce2565b509392505050565b6060600082518451613d679190615935565b6001600160401b03811115613d7e57613d7e61434f565b604051908082528060200260200182016040528015613da7578160200160208202803683370190505b50905060005b8451811015613dff57848181518110613dc857613dc8615301565b6020026020010151828281518110613de257613de2615301565b602090810291909101015280613df781615607565b915050613dad565b5060005b8351811015613d4d57838181518110613e1e57613e1e615301565b602002602001015182865183613e349190615935565b81518110613e4457613e44615301565b602090810291909101015280613e5981615607565b915050613e03565b6135d0846323b872dd60e01b858585604051602401613e8293929190615620565b60408051601f198184030181529190526020810180516001600160e01b03166001600160e01b0319909316929092179091526000613f09826040518060400160405280602081526020017f5361666545524332303a206c6f772d6c6576656c2063616c6c206661696c6564815250856001600160a01b0316613f8b9092919063ffffffff16565b805190915015613f865780806020019051810190613f279190615d76565b613f865760405162461bcd60e51b815260206004820152602a60248201527f5361666545524332303a204552433230206f7065726174696f6e20646964206e6044820152691bdd081cdd58d8d9595960b21b6064820152608401610723565b505050565b6060613bd08484600085856001600160a01b0385163b613fed5760405162461bcd60e51b815260206004820152601d60248201527f416464726573733a2063616c6c20746f206e6f6e2d636f6e74726163740000006044820152606401610723565b600080866001600160a01b031685876040516140099190615f46565b60006040518083038185875af1925050503d8060008114614046576040519150601f19603f3d011682016040523d82523d6000602084013e61404b565b606091505b509150915061405b828286614066565b979650505050505050565b606083156140755750816130a6565b8251156140855782518084602001fd5b8160405162461bcd60e51b81526004016107239190615f62565b6040518060a0016040528060006001600160a01b0316815260200160006001600160a01b031681526020016000815260200160008152602001606081525090565b50805460008255600402906000526020600020908101906128cc91906141c2565b828054828255906000526020600020908101928215614156579160200282015b8281111561415657825182546001600160a01b0319166001600160a01b03909116178255602090920191600190910190614121565b50614162929150614201565b5090565b60405180606001604052806060815260200160608152602001606081525090565b828054828255906000526020600020908101928215614156579160200282015b828111156141565782518255916020019190600101906141a7565b5b808211156141625780546001600160a01b03191681556001810180546001600160a81b031916905560006002820181905560038201556004016141c3565b5b808211156141625760008155600101614202565b60006020828403121561422857600080fd5b5035919050565b6001600160a01b0391909116815260200190565b600081518084526020808501945080840160005b8381101561427c5781516001600160a01b031687529582019590820190600101614257565b509495945050505050565b600081518084526020808501945080840160005b8381101561427c5781518752958201959082019060010161429b565b6060815260006142ca6060830186614243565b82810360208401526142dc8186614287565b905082810360408401526142f08185614287565b9695505050505050565b6001600160a01b03811681146128cc57600080fd5b803561431a816142fa565b919050565b6000806040838503121561433257600080fd5b823591506020830135614344816142fa565b809150509250929050565b634e487b7160e01b600052604160045260246000fd5b60405160a081016001600160401b03811182821017156143875761438761434f565b60405290565b60405161012081016001600160401b03811182821017156143875761438761434f565b604051606081016001600160401b03811182821017156143875761438761434f565b604051601f8201601f191681016001600160401b03811182821017156143fa576143fa61434f565b604052919050565b60006001600160401b0382111561441b5761441b61434f565b5060051b60200190565b600082601f83011261443657600080fd5b8135602061444b61444683614402565b6143d2565b82815260059290921b8401810191818101908684111561446a57600080fd5b8286015b8481101561448e578035614481816142fa565b835291830191830161446e565b509695505050505050565b600082601f8301126144aa57600080fd5b813560206144ba61444683614402565b82815260059290921b840181019181810190868411156144d957600080fd5b8286015b8481101561448e57803583529183019183016144dd565b600060a0828403121561450657600080fd5b61450e614365565b9050813561451b816142fa565b815260208281013561452c816142fa565b808284015250604083013560408301526060830135606083015260808301356001600160401b038082111561456057600080fd5b818501915085601f83011261457457600080fd5b8135818111156145865761458661434f565b614598601f8201601f191685016143d2565b915080825286848285010111156145ae57600080fd5b808484018584013760008482840101525080608085015250505092915050565b600082601f8301126145df57600080fd5b813560206145ef61444683614402565b82815260059290921b8401810191818101908684111561460e57600080fd5b8286015b8481101561448e5780356001600160401b038111156146315760008081fd5b61463f8986838b0101614425565b845250918301918301614612565b600082601f83011261465e57600080fd5b8135602061466e61444683614402565b82815260059290921b8401810191818101908684111561468d57600080fd5b8286015b8481101561448e5780356001600160401b03808211156146b15760008081fd5b90880190610120828b03601f19018113156146cc5760008081fd5b6146d461438d565b87840135815260408085013589830152606080860135828401526080915081860135818401525060a0808601358284015260c0915061471482870161430f565b9083015260e0858101358581111561472c5760008081fd5b61473a8f8c838a0101614425565b8385015250610100915061474f82870161430f565b908301529184013591838311156147665760008081fd5b6147748d8a858801016145ce565b908201528652505050918301918301614691565b600082601f83011261479957600080fd5b813560206147a961444683614402565b82815260059290921b840181019181810190868411156147c857600080fd5b8286015b8481101561448e5780356001600160401b03808211156147ec5760008081fd5b9088019060a0828b03601f19018113156148065760008081fd5b61480e614365565b87840135838111156148205760008081fd5b61482e8d8a838801016144f4565b825250604061483e81860161430f565b89830152606080860135828401526080915081860135858111156148625760008081fd5b6148708f8c838a0101614425565b8285015250508285013592508383111561488a5760008081fd5b6148988d8a85880101614499565b9082015286525050509183019183016147cc565b600080600080600060a086880312156148c457600080fd5b853594506020808701356001600160401b03808211156148e357600080fd5b908801906060828b0312156148f757600080fd5b6148ff6143b0565b818335111561490d57600080fd5b61491a8b84358501614425565b8152838301358281111561492d57600080fd5b6149398c828601614499565b858301525060408301358281111561495057600080fd5b8084019350508a601f84011261496557600080fd5b823561497361444682614402565b81815260059190911b8401850190858101908d83111561499257600080fd5b8686015b838110156149c85785813511156149ac57600080fd5b6149bb8f8983358a01016144f4565b8352918701918701614996565b508060408501525050508097505060408901359250808311156149ea57600080fd5b6149f68a848b0161464d565b95506060890135925080831115614a0c57600080fd5b614a188a848b01614788565b94506080890135925080831115614a2e57600080fd5b5050614a3c88828901614499565b9150509295509295909350565b600060208284031215614a5b57600080fd5b81356130a6816142fa565b602081526000610a3c6020830184614287565b60008060408385031215614a8c57600080fd5b50508035926020909101359150565b60005b83811015614ab6578181015183820152602001614a9e565b50506000910152565b60008151808452614ad7816020860160208601614a9b565b601f01601f19169290920160200192915050565b600060018060a01b03808351168452806020840151166020850152506040820151604084015260608201516060840152608082015160a06080850152613bd060a0850182614abf565b6000815180845260208085019450848260051b860182860160005b85811015614b79578383038952614b67838351614aeb565b98850198925090840190600101614b4f565b5090979650505050505050565b6000815160608452614b9b6060850182614243565b905060208301518482036020860152614bb48282614287565b91505060408301518482036040860152614bce8282614b34565b95945050505050565b60c081526000614bea60c0830189614abf565b8760208401528660408401528281036060840152614c088187614b86565b6080840195909552505060a00152949350505050565b6020808252825182820181905260009190848201906040850190845b81811015614c5f5783516001600160a01b031683529284019291840191600101614c3a565b50909695505050505050565b604081526000614c7e6040830185614243565b8281036020840152614bce8185614287565b60006020808301818452808551808352604092508286019150828160051b87010184880160005b83811015614d3257603f19898403018552815160c08151818652614cdd82870182614abf565b9150508882015189860152878201518886015260608083015186830382880152614d078382614b86565b6080858101519089015260a09485015194909701939093525050509386019390860190600101614cb7565b509098975050505050505050565b60008060408385031215614d5357600080fd5b8235614d5e816142fa565b946020939093013593505050565b80151581146128cc57600080fd5b600082601f830112614d8b57600080fd5b81356020614d9b61444683614402565b82815260a09283028501820192828201919087851115614dba57600080fd5b8387015b85811015614b795781818a031215614dd65760008081fd5b614dde614365565b8135614de9816142fa565b815281860135614df8816142fa565b81870152604082810135614e0b81614d6c565b9082015260608281013590820152608080830135908201528452928401928101614dbe565b60008060408385031215614e4357600080fd5b8235915060208301356001600160401b03811115614e6057600080fd5b614e6c85828601614d7a565b9150509250929050565b60006020808385031215614e8957600080fd5b82356001600160401b03811115614e9f57600080fd5b8301601f81018513614eb057600080fd5b8035614ebe61444682614402565b81815260059190911b82018301908381019087831115614edd57600080fd5b928401925b8284101561405b578335614ef5816142fa565b82529284019290840190614ee2565b60008060008060808587031215614f1a57600080fd5b843593506020850135925060408501356001600160401b0380821115614f3f57600080fd5b614f4b8883890161464d565b93506060870135915080821115614f6157600080fd5b50614f6e87828801614788565b91505092959194509250565b60008060408385031215614f8d57600080fd5b8235614f98816142fa565b9150602083013561434481614d6c565b600060a080840160018060a01b0380855116865260208181870151168188015260408087015181890152606080880151818a015260808089015187828c015286815180895260c08d0191508683019850600092505b808310156150445788518051891683528781015189168884015286810151151587840152858101518684015284015184830152978601976001929092019190890190614ffd565b509b9a5050505050505050505050565b6020815260008251610160806020850152615073610180850183614fa8565b915060208501516150a9604086018280516001600160a01b03908116835260208083015190911690830152604090810151910152565b506040850151601f19808685030160a08701526150c68483614243565b935060608701519150808685030160c08701526150e38483614287565b935060808701519150808685030160e08701526151008483614287565b935060a0870151915061010081878603018188015261511f8584614243565b945060c08801519250818786030161012088015261513d8584614287565b945060e08801519250818786030161014088015261515b8584614287565b970151959092019490945250929392505050565b6000806000806080858703121561518557600080fd5b8435935060208501356001600160401b03808211156151a357600080fd5b6151af8883890161464d565b945060408701359150808211156151c557600080fd5b6151d188838901614788565b935060608701359150808211156151e757600080fd5b50614f6e87828801614499565b60008060006060848603121561520957600080fd5b83356001600160401b038082111561522057600080fd5b9085019060a0828803121561523457600080fd5b61523c614365565b8235615247816142fa565b81526020830135615257816142fa565b80602083015250604083013560408201526060830135606082015260808301358281111561528457600080fd5b61529089828601614d7a565b608083015250945060208601359150808211156152ac57600080fd5b6152b887838801614425565b935060408601359150808211156152ce57600080fd5b506152db86828701614499565b9150509250925092565b602080825260029082015261189960f11b604082015260600190565b634e487b7160e01b600052603260045260246000fd5b60408152600061532a6040830185614b86565b905060018060a01b03831660208301529392505050565b60006020828403121561535357600080fd5b5051919050565b6000815480845260208085019450836000528060002060005b8381101561427c5781546001600160a01b039081168852600183810154918216858a015260a091821c60ff16151560408a0152600284015460608a0152600384015460808a015297019660049092019101615373565b80546001600160a01b0390811683526001820154166020830152600281015460408301526003810154606083015260a060808301819052600090610a3c9084016004840161535a565b828152604060208201526000613bd060408301846153c9565b600082601f83011261543c57600080fd5b8151602061544c61444683614402565b82815260059290921b8401810191818101908684111561546b57600080fd5b8286015b8481101561448e578051615482816142fa565b835291830191830161546f565b600082601f8301126154a057600080fd5b815160206154b061444683614402565b82815260059290921b840181019181810190868411156154cf57600080fd5b8286015b8481101561448e57805183529183019183016154d3565b6000806000606084860312156154ff57600080fd5b83516001600160401b038082111561551657600080fd5b6155228783880161542b565b9450602086015191508082111561553857600080fd5b6155448783880161548f565b9350604086015191508082111561555a57600080fd5b506152db8682870161548f565b83815260606020820152600061558060608301856153c9565b905060018060a01b0383166040830152949350505050565b600080604083850312156155ab57600080fd5b82516001600160401b03808211156155c257600080fd5b6155ce8683870161542b565b935060208501519150808211156155e457600080fd5b50614e6c8582860161548f565b634e487b7160e01b600052601160045260246000fd5b600060018201615619576156196155f1565b5060010190565b6001600160a01b039384168152919092166020820152604081019190915260600190565b6000815180845260208085019450848260051b860182860160005b85811015614b79578383038952615677838351614243565b9885019892509084019060010161565f565b6000815180845260208085019450848260051b860182860160005b85811015614b79578383038952815160a081518186526156c682870182614aeb565b838901516001600160a01b0316878a015260408085015190880152606080850151888303828a015291935091506156fd8382614243565b925050506080808301519250858203818701525061571b8183614287565b9a87019a94505050908401906001016156a4565b60008151608084526157446080850182614243565b90506020830151848203602086015261575d8282614b34565b915050604083015184820360408601526157778282614287565b91505060608301518482036060860152614bce8282614287565b600060a08083526157a481840189614b86565b6020848203818601528189518084528284019150828160051b850101838c0160005b8381101561588057601f198784030185528151805184528681015187850152604080820151908501526060808201519085015260808082015190850152888101516001600160a01b0381168a860152610120905060c080830151828288015261583183880182614243565b9250505060e08083015161584f828801826001600160a01b03169052565b5050610100808301519250858203818701525061586c8183615644565b9688019694505050908501906001016157c6565b50508781036040890152615894818c615689565b9550505050505082810360608401526158ad818661572f565b9150506142f060808301846001600160a01b03169052565b6000602082840312156158d757600080fd5b81516001600160401b038111156158ed57600080fd5b613bd08482850161548f565b8481526001600160a01b038416602082015260806040820181905260009061592390830185614243565b828103606084015261405b8185614287565b80820180821115610a3f57610a3f6155f1565b6000806040838503121561595b57600080fd5b82519150602083015161434481614d6c565b600181811c9082168061598157607f821691505b6020821081036159a157634e487b7160e01b600052602260045260246000fd5b50919050565b8381526060602082015260006159c06060830185614243565b82810360408401526142f08185614287565b6020808252600190820152603160f81b604082015260600190565b81810381811115610a3f57610a3f6155f1565b8082028115828204841417610a3f57610a3f6155f1565b634e487b7160e01b600052601260045260246000fd5b600082615a3c57615a3c615a17565b500490565b6c22bc32b1ba3ab29037b93232b960991b815260008251615a6981600d850160208701614a9b565b91909101600d0192915050565b600060a0808385031215615a8957600080fd5b615a91614365565b91508251615a9e816142fa565b8252602083810151615aaf816142fa565b8382015260408481015181850152606080860151818601526080808701516001600160401b03811115615ae157600080fd5b8701601f81018913615af257600080fd5b8051615b0061444682614402565b8181529087028201860190868101908b831115615b1c57600080fd5b928701925b82841015615b8f5788848d031215615b395760008081fd5b615b41614365565b8451615b4c816142fa565b815284890151615b5b816142fa565b818a015284880151615b6c81614d6c565b818901528487015187820152858501518682015282529288019290870190615b21565b80858b015250505050505050505092915050565b600060608284031215615bb557600080fd5b615bbd6143b0565b90508151615bca816142fa565b81526020820151615bda816142fa565b806020830152506040820151604082015292915050565b600060208284031215615c0357600080fd5b81516001600160401b0380821115615c1a57600080fd5b908301906101608286031215615c2f57600080fd5b615c3761438d565b825182811115615c4657600080fd5b615c5287828601615a76565b825250615c628660208501615ba3565b6020820152608083015182811115615c7957600080fd5b615c858782860161542b565b60408301525060a083015182811115615c9d57600080fd5b615ca98782860161548f565b60608301525060c083015182811115615cc157600080fd5b615ccd8782860161548f565b60808301525060e083015182811115615ce557600080fd5b615cf18782860161542b565b60a0830152506101008084015183811115615d0b57600080fd5b615d178882870161548f565b60c08401525061012084015183811115615d3057600080fd5b615d3c8882870161548f565b60e084015250610140840151818301525080935050505092915050565b600060208284031215615d6b57600080fd5b81516130a6816142fa565b600060208284031215615d8857600080fd5b81516130a681614d6c565b8681526001600160a01b03868116602083015260408201869052841660608201526080810183905260c060a08201819052600090615dd39083018461535a565b98975050505050505050565b9283526001600160a01b03918216602084015216604082015260600190565b9384526001600160a01b039283166020850152604084019190915216606082015260800190565b601f821115613f8657600081815260208120601f850160051c81016020861015615e4c5750805b601f850160051c820191505b81811015615e6b57828155600101615e58565b505050505050565b81516001600160401b03811115615e8c57615e8c61434f565b615ea081615e9a845461596d565b84615e25565b602080601f831160018114615ed55760008415615ebd5750858301515b600019600386901b1c1916600185901b178555615e6b565b600085815260208120601f198616915b82811015615f0457888601518255948401946001909101908401615ee5565b5085821015615f225787850151600019600388901b60f8161c191681555b5050505050600190811b01905550565b600082615f4157615f41615a17565b500690565b60008251615f58818460208701614a9b565b9190910192915050565b602081526000610a3c6020830184614abf56fea26469706673582212206e655cad30802a639e7134cecc97c62cfdf2a266d3a42418c223b76a2010c8eb64736f6c63430008110033608060405234801561001057600080fd5b50600080546001600160a01b03191633179055612173806100326000396000f3fe608060405234801561001057600080fd5b50600436106100625760003560e01c80631e5321221461006757806343b0861d1461009257806344e0b33d146100b2578063668c48b5146100d3578063cd7bdaf7146100fb578063f22c6a921461010e575b600080fd5b61007a610075366004611844565b61012f565b604051610089939291906118fe565b60405180910390f35b6100a56100a0366004611844565b6105ad565b60405161008991906119ed565b6100c56100c0366004611b08565b610784565b604051610089929190611b2c565b6100e66100e1366004611844565b610903565b60408051928352901515602083015201610089565b61007a610109366004611844565b610cb4565b61012161011c366004611b5a565b610f65565b604051908152602001610089565b606080606060008060009054906101000a90046001600160a01b03166001600160a01b03166378ca319a6040518163ffffffff1660e01b8152600401602060405180830381865afa158015610188573d6000803e3d6000fd5b505050506040513d601f19601f820116820180604052508101906101ac9190611bb4565b905060008060009054906101000a90046001600160a01b03166001600160a01b031663a9d75b2b6040518163ffffffff1660e01b8152600401602060405180830381865afa158015610202573d6000803e3d6000fd5b505050506040513d601f19601f820116820180604052508101906102269190611bb4565b6020870151604080890151905163374598ad60e01b815292935090916001600160a01b0383169163374598ad9161026291908c90600401611bd1565b600060405180830381865afa15801561027f573d6000803e3d6000fd5b505050506040513d6000823e601f3d908101601f191682016040526102a79190810190611c4e565b604080516060810182528381526020808201849052825160008082529181018452949a509298506001600160a01b03871693639d9c503b939192830191610304565b6102f161161a565b8152602001906001900390816102e95790505b508152506040518263ffffffff1660e01b81526004016103249190611e13565b600060405180830381865afa158015610341573d6000803e3d6000fd5b505050506040513d6000823e601f3d908101601f191682016040526103699190810190611c4e565b815191975095506001600160401b038111156103875761038761165b565b6040519080825280602002602001820160405280156103b0578160200160208202803683370190505b50935060005b8651811015610497576000846001600160a01b0316636d6f00a48984815181106103e2576103e2611e26565b60200260200101518985815181106103fc576103fc611e26565b6020026020010151876040518463ffffffff1660e01b815260040161042393929190611e3c565b602060405180830381865afa158015610440573d6000803e3d6000fd5b505050506040513d601f19601f820116820180604052508101906104649190611e5f565b90508086838151811061047957610479611e26565b6020908102919091010152508061048f81611e8e565b9150506103b6565b5085516000036105a3576040878101519051630eab466160e21b815260048101919091526001600160a01b03821690633aad198490602401600060405180830381865afa1580156104ec573d6000803e3d6000fd5b505050506040513d6000823e601f3d908101601f191682016040526105149190810190611c4e565b5080519096506001600160401b038111156105315761053161165b565b60405190808252806020026020018201604052801561055a578160200160208202803683370190505b50945085516001600160401b038111156105765761057661165b565b60405190808252806020026020018201604052801561059f578160200160208202803683370190505b5093505b5050509250925092565b610640604080516101c08101909152600061012082018181526101408301829052610160830182905261018083019190915260606101a0830152819081526040805160608101825260008082526020828101829052928201529101908152602001606081526020016060815260200160608152602001606081526020016060815260200160608152602001600081525090565b600080600084602001516001600160a01b031663dc20c6fa86604001516040518263ffffffff1660e01b815260040161067b91815260200190565b606060405180830381865afa158015610698573d6000803e3d6000fd5b505050506040513d601f19601f820116820180604052508101906106bc9190611ea7565b92509250925060008060006106d1898961012f565b92509250925060008060006106e68c8c610cb4565b9250925092506040518061012001604052808c815260200160405180606001604052808c6001600160a01b031681526020018b6001600160a01b031681526020018a815250815260200187815260200186815260200185815260200184815260200183815260200182815260200161075d836111d4565b610766876111d4565b6107709190611eea565b905299505050505050505050505b92915050565b60608060008060009054906101000a90046001600160a01b03166001600160a01b03166343347e0e6040518163ffffffff1660e01b8152600401600060405180830381865afa1580156107db573d6000803e3d6000fd5b505050506040513d6000823e601f3d908101601f191682016040526108039190810190611efd565b905060608060005b83518110156108f85760008085838151811061082957610829611e26565b6020908102919091010151604051638084c91d60e01b81526001600160a01b038b8116600483015290911690638084c91d906024016040805180830381865afa15801561087a573d6000803e3d6000fd5b505050506040513d601f19601f8201168201806040525081019061089e9190611f96565b9150915081156108e3576108d48684815181106108bd576108bd611e26565b60200260200101518561122390919063ffffffff16565b93506108e0858261130f565b94505b505080806108f090611e8e565b91505061080b565b509590945092505050565b60008060008060009054906101000a90046001600160a01b03166001600160a01b031663a9d75b2b6040518163ffffffff1660e01b8152600401602060405180830381865afa15801561095a573d6000803e3d6000fd5b505050506040513d601f19601f8201168201806040525081019061097e9190611bb4565b905060005b846080015151811015610cab576000856080015182815181106109a8576109a8611e26565b6020908102919091010151805190915060006001600160a01b038216610a65576109d3898987610f65565b9050846001600160a01b031663313ce5676040518163ffffffff1660e01b8152600401602060405180830381865afa158015610a13573d6000803e3d6000fd5b505050506040513d601f19601f82011682018060405250810190610a379190611fc4565b610a4290600a6120cb565b610a5482670de0b6b3a76400006120da565b610a5e91906120f1565b9050610c44565b60008054906101000a90046001600160a01b03166001600160a01b03166378ca319a6040518163ffffffff1660e01b8152600401602060405180830381865afa158015610ab6573d6000803e3d6000fd5b505050506040513d601f19601f82011682018060405250810190610ada9190611bb4565b6001600160a01b0316636d6f00a483846001600160a01b031663313ce5676040518163ffffffff1660e01b8152600401602060405180830381865afa158015610b27573d6000803e3d6000fd5b505050506040513d601f19601f82011682018060405250810190610b4b9190611fc4565b610b5690600a6120cb565b886040518463ffffffff1660e01b8152600401610b7593929190611e3c565b602060405180830381865afa158015610b92573d6000803e3d6000fd5b505050506040513d601f19601f82011682018060405250810190610bb69190611e5f565b9050846001600160a01b031663313ce5676040518163ffffffff1660e01b8152600401602060405180830381865afa158015610bf6573d6000803e3d6000fd5b505050506040513d601f19601f82011682018060405250810190610c1a9190611fc4565b610c2590600a6120cb565b610c3782670de0b6b3a76400006120da565b610c4191906120f1565b90505b82604001518015610c585750826060015181105b15610c6c5783965060019550505050610cab565b8260400151158015610c815750826060015181115b15610c955783965060019550505050610cab565b5050508080610ca390611e8e565b915050610983565b50509250929050565b606080606060008060009054906101000a90046001600160a01b03166001600160a01b03166378ca319a6040518163ffffffff1660e01b8152600401602060405180830381865afa158015610d0d573d6000803e3d6000fd5b505050506040513d601f19601f82011682018060405250810190610d319190611bb4565b905060008060009054906101000a90046001600160a01b03166001600160a01b031663a9d75b2b6040518163ffffffff1660e01b8152600401602060405180830381865afa158015610d87573d6000803e3d6000fd5b505050506040513d601f19601f82011682018060405250810190610dab9190611bb4565b6020870151604080890151905163bfb28ea360e01b815292935090916001600160a01b0383169163bfb28ea391610de791908c90600401611bd1565b600060405180830381865afa158015610e04573d6000803e3d6000fd5b505050506040513d6000823e601f3d908101601f19168201604052610e2c9190810190611c4e565b815191975095506001600160401b03811115610e4a57610e4a61165b565b604051908082528060200260200182016040528015610e73578160200160208202803683370190505b50935060005b8651811015610f5a576000846001600160a01b0316636d6f00a4898481518110610ea557610ea5611e26565b6020026020010151898581518110610ebf57610ebf611e26565b6020026020010151876040518463ffffffff1660e01b8152600401610ee693929190611e3c565b602060405180830381865afa158015610f03573d6000803e3d6000fd5b505050506040513d601f19601f82011682018060405250810190610f279190611e5f565b905080868381518110610f3c57610f3c611e26565b60209081029190910101525080610f5281611e8e565b915050610e79565b505050509250925092565b6020820151604080840151905163374598ad60e01b815260009291839182916001600160a01b0385169163374598ad91610fa3918b90600401611bd1565b600060405180830381865afa158015610fc0573d6000803e3d6000fd5b505050506040513d6000823e601f3d908101601f19168201604052610fe89190810190611c4e565b91509150600080846001600160a01b031663bfb28ea389604001518a600001516040518363ffffffff1660e01b8152600401611025929190611bd1565b600060405180830381865afa158015611042573d6000803e3d6000fd5b505050506040513d6000823e601f3d908101601f1916820160405261106a9190810190611c4e565b915091506000604051806060016040528061108e85886113e090919063ffffffff16565b815260200161109d868561150e565b815260200160006040519080825280602002602001820160405280156110dd57816020015b6110ca61161a565b8152602001906001900390816110c25790505b50815250905060008054906101000a90046001600160a01b03166001600160a01b03166378ca319a6040518163ffffffff1660e01b8152600401602060405180830381865afa158015611134573d6000803e3d6000fd5b505050506040513d601f19601f820116820180604052508101906111589190611bb4565b6001600160a01b0316639b1fbbe7828a6040518363ffffffff1660e01b8152600401611185929190612113565b602060405180830381865afa1580156111a2573d6000803e3d6000fd5b505050506040513d601f19601f820116820180604052508101906111c69190611e5f565b9a9950505050505050505050565b60008060005b835181101561121c578381815181106111f5576111f5611e26565b6020026020010151826112089190611eea565b91508061121481611e8e565b9150506111da565b5092915050565b60606000835160016112359190611eea565b6001600160401b0381111561124c5761124c61165b565b604051908082528060200260200182016040528015611275578160200160208202803683370190505b50905060005b84518110156112da5784818151811061129657611296611e26565b60200260200101518282815181106112b0576112b0611e26565b6001600160a01b0390921660209283029190910190910152806112d281611e8e565b91505061127b565b5082818551815181106112ef576112ef611e26565b6001600160a01b0390921660209283029190910190910152905092915050565b60606000835160016113219190611eea565b6001600160401b038111156113385761133861165b565b604051908082528060200260200182016040528015611361578160200160208202803683370190505b50905060005b84518110156113b95784818151811061138257611382611e26565b602002602001015182828151811061139c5761139c611e26565b6020908102919091010152806113b181611e8e565b915050611367565b5082818551815181106113ce576113ce611e26565b60209081029190910101529392505050565b60606000825184516113f29190611eea565b6001600160401b038111156114095761140961165b565b604051908082528060200260200182016040528015611432578160200160208202803683370190505b50905060005b84518110156114975784818151811061145357611453611e26565b602002602001015182828151811061146d5761146d611e26565b6001600160a01b03909216602092830291909101909101528061148f81611e8e565b915050611438565b5060005b8351811015611506578381815181106114b6576114b6611e26565b6020026020010151828651836114cc9190611eea565b815181106114dc576114dc611e26565b6001600160a01b0390921660209283029190910190910152806114fe81611e8e565b91505061149b565b509392505050565b60606000825184516115209190611eea565b6001600160401b038111156115375761153761165b565b604051908082528060200260200182016040528015611560578160200160208202803683370190505b50905060005b84518110156115b85784818151811061158157611581611e26565b602002602001015182828151811061159b5761159b611e26565b6020908102919091010152806115b081611e8e565b915050611566565b5060005b8351811015611506578381815181106115d7576115d7611e26565b6020026020010151828651836115ed9190611eea565b815181106115fd576115fd611e26565b60209081029190910101528061161281611e8e565b9150506115bc565b6040518060a0016040528060006001600160a01b0316815260200160006001600160a01b031681526020016000815260200160008152602001606081525090565b634e487b7160e01b600052604160045260246000fd5b60405160a081016001600160401b03811182821017156116935761169361165b565b60405290565b604051601f8201601f191681016001600160401b03811182821017156116c1576116c161165b565b604052919050565b6001600160a01b03811681146116de57600080fd5b50565b60006001600160401b038211156116fa576116fa61165b565b5060051b60200190565b80151581146116de57600080fd5b600060a080838503121561172557600080fd5b61172d611671565b9150823561173a816116c9565b825260208381013561174b816116c9565b8382015260408481013581850152606080860135818601526080808701356001600160401b0381111561177d57600080fd5b8701601f8101891361178e57600080fd5b80356117a161179c826116e1565b611699565b8181529087028201860190868101908b8311156117bd57600080fd5b928701925b828410156118305788848d0312156117da5760008081fd5b6117e2611671565b84356117ed816116c9565b8152848901356117fc816116c9565b818a01528488013561180d81611704565b8189015284870135878201528585013586820152825292880192908701906117c2565b80858b015250505050505050505092915050565b6000806040838503121561185757600080fd5b8235915060208301356001600160401b0381111561187457600080fd5b61188085828601611712565b9150509250929050565b600081518084526020808501945080840160005b838110156118c35781516001600160a01b03168752958201959082019060010161189e565b509495945050505050565b600081518084526020808501945080840160005b838110156118c3578151875295820195908201906001016118e2565b606081526000611911606083018661188a565b828103602084015261192381866118ce565b9050828103604084015261193781856118ce565b9695505050505050565b600060a080840160018060a01b0380855116865260208181870151168188015260408087015181890152606080880151818a015260808089015187828c015286815180895260c08d0191508683019850600092505b808310156119dd5788518051891683528781015189168884015286810151151587840152858101518684015284015184830152978601976001929092019190890190611996565b509b9a5050505050505050505050565b6020815260008251610160806020850152611a0c610180850183611941565b91506020850151611a42604086018280516001600160a01b03908116835260208083015190911690830152604090810151910152565b506040850151601f19808685030160a0870152611a5f848361188a565b935060608701519150808685030160c0870152611a7c84836118ce565b935060808701519150808685030160e0870152611a9984836118ce565b935060a08701519150610100818786030181880152611ab8858461188a565b945060c088015192508187860301610120880152611ad685846118ce565b945060e088015192508187860301610140880152611af485846118ce565b970151959092019490945250929392505050565b600060208284031215611b1a57600080fd5b8135611b25816116c9565b9392505050565b604081526000611b3f604083018561188a565b8281036020840152611b5181856118ce565b95945050505050565b600080600060608486031215611b6f57600080fd5b8335925060208401356001600160401b03811115611b8c57600080fd5b611b9886828701611712565b9250506040840135611ba9816116c9565b809150509250925092565b600060208284031215611bc657600080fd5b8151611b25816116c9565b9182526001600160a01b0316602082015260400190565b600082601f830112611bf957600080fd5b81516020611c0961179c836116e1565b82815260059290921b84018101918181019086841115611c2857600080fd5b8286015b84811015611c435780518352918301918301611c2c565b509695505050505050565b60008060408385031215611c6157600080fd5b82516001600160401b0380821115611c7857600080fd5b818501915085601f830112611c8c57600080fd5b81516020611c9c61179c836116e1565b82815260059290921b84018101918181019089841115611cbb57600080fd5b948201945b83861015611ce2578551611cd3816116c9565b82529482019490820190611cc0565b91880151919650909350505080821115611cfb57600080fd5b5061188085828601611be8565b600060608251818552611d1d8286018261188a565b905060208085015186830382880152611d3683826118ce565b925050604080860151878403828901528381518086528486019150848160051b87010185840193506000805b83811015611e0257601f1989840381018652865180516001600160a01b0390811686528a820151168a86015288810151898601528b8101518c86015260809081015160a091860182905280519186018290529084905b80821015611dd6578282018c015187830160c00152908b0190611db8565b86810160c0908101879052998c0199988c0198601f909101909316909501909101935050600101611d62565b50909b9a5050505050505050505050565b602081526000611b256020830184611d08565b634e487b7160e01b600052603260045260246000fd5b6001600160a01b0393841681526020810192909252909116604082015260600190565b600060208284031215611e7157600080fd5b5051919050565b634e487b7160e01b600052601160045260246000fd5b600060018201611ea057611ea0611e78565b5060010190565b600080600060608486031215611ebc57600080fd5b8351611ec7816116c9565b6020850151909350611ed8816116c9565b80925050604084015190509250925092565b8082018082111561077e5761077e611e78565b60006020808385031215611f1057600080fd5b82516001600160401b03811115611f2657600080fd5b8301601f81018513611f3757600080fd5b8051611f4561179c826116e1565b81815260059190911b82018301908381019087831115611f6457600080fd5b928401925b82841015611f8b578351611f7c816116c9565b82529284019290840190611f69565b979650505050505050565b60008060408385031215611fa957600080fd5b8251611fb481611704565b6020939093015192949293505050565b600060208284031215611fd657600080fd5b815160ff81168114611b2557600080fd5b600181815b8085111561202257816000190482111561200857612008611e78565b8085161561201557918102915b93841c9390800290611fec565b509250929050565b6000826120395750600161077e565b816120465750600061077e565b816001811461205c576002811461206657612082565b600191505061077e565b60ff84111561207757612077611e78565b50506001821b61077e565b5060208310610133831016604e8410600b84101617156120a5575081810a61077e565b6120af8383611fe7565b80600019048211156120c3576120c3611e78565b029392505050565b6000611b2560ff84168361202a565b808202811582820484141761077e5761077e611e78565b60008261210e57634e487b7160e01b600052601260045260246000fd5b500490565b6040815260006121266040830185611d08565b905060018060a01b0383166020830152939250505056fea264697066735822122045a106984515ec3046ff1ee1c4816a9dccde2febbb6ca29a074d15a89dfb56fb64736f6c63430008110033",
  "devdoc": {
    "kind": "dev",
    "methods": {
      "adjustLiquidationPoints(uint256,(address,address,bool,uint256,uint256)[])": {
        "params": {
          "_liquidationPoints": "New list of liquidation conditions",
          "positionId": "position ID"
        }
      },
      "botLiquidate(uint256,uint256,(uint256,uint256,uint256,uint256,int256,address,address[],address,address[][])[],((address,address,uint256,uint256,bytes),address,uint256,address[],uint256[])[])": {
        "params": {
          "conversions": "Conversions to conduct to get desired asset from position",
          "liquidationIndex": "Index of liquidation condition that is no longer satisfied",
          "positionId": "Position ID",
          "swaps": "Swaps to conduct to get desired asset from position"
        }
      },
      "checkLiquidate(uint256)": {
        "params": {
          "positionId": "Position ID"
        },
        "returns": {
          "index": "Index of the liquidation condition that has become true",
          "liquidate": "Flag used to tell wether liquidation should be performed"
        }
      },
      "close(uint256)": {
        "params": {
          "positionId": "Position ID"
        }
      },
      "deposit((address,address,uint256,uint256,(address,address,bool,uint256,uint256)[]),address[],uint256[])": {
        "details": "Before calling, make sure PositionsManager contract has approvals according to suppliedAmountsFor creating an ERC721Bank position, suppliedTokens will contain the ERC721 contract and suppliedAmounts will contain the tokenId",
        "params": {
          "position": "position details",
          "suppliedAmounts": "amounts supplied for each of the supplied tokens",
          "suppliedTokens": "list of tokens supplied to increase the positions value"
        }
      },
      "depositInExisting(uint256,(address[],uint256[],(address,address,uint256,uint256,bytes)[]),(uint256,uint256,uint256,uint256,int256,address,address[],address,address[][])[],((address,address,uint256,uint256,bytes),address,uint256,address[],uint256[])[],uint256[])": {
        "details": "Before calling, make sure PositionsManager contract has approvals according to suppliedAmounts",
        "params": {
          "conversions": "Conversions to conduct if provided assets do not match underlying for position",
          "minAmounts": "Slippage control, used when provided assets don't match the positions underlying",
          "positionId": "position ID",
          "provided": "Assets provided to deposit into position",
          "swaps": "Swaps to conduct if provided assets do not match underlying for position"
        }
      },
      "estimateValue(uint256,address)": {
        "params": {
          "positionId": "Position ID"
        },
        "returns": {
          "_0": "Value of the position in terms of inTermsOf"
        }
      },
      "getBanks()": {
        "returns": {
          "_0": "Addresses of banks"
        }
      },
      "getPosition(uint256)": {
        "params": {
          "positionId": "position ID"
        },
        "returns": {
          "data": "Position details"
        }
      },
      "getPositionInteractions(uint256)": {
        "params": {
          "positionId": "position ID"
        },
        "returns": {
          "_0": "List of position interactions"
        }
      },
      "harvestAndRecompound(uint256,(uint256,uint256,uint256,uint256,int256,address,address[],address,address[][])[],((address,address,uint256,uint256,bytes),address,uint256,address[],uint256[])[],uint256[])": {
        "params": {
          "conversions": "Conversions to conduct if harvested assets do not match underlying for position",
          "minAmounts": "Slippage control, used when harvested assets don't match the positions underlying",
          "positionId": "Position ID",
          "swaps": "Swaps to conduct if harvested assets do not match underlying for position"
        },
        "returns": {
          "_0": "Amount of new tokens added/increase in liquidity for position"
        }
      },
      "harvestRewards(uint256)": {
        "params": {
          "positionId": "Position ID"
        },
        "returns": {
          "_0": "List of tokens obtained as rewards",
          "_1": "Amount of tokens received as reward"
        }
      },
      "numPositions()": {
        "returns": {
          "_0": "Number of positions that have been opened"
        }
      },
      "owner()": {
        "details": "Returns the address of the current owner."
      },
      "recommendBank(address)": {
        "details": "bankToken for ERC721 banks is not supported and will always be 0",
        "params": {
          "token": "The token for which to get supported banks"
        },
        "returns": {
          "_0": "List of banks that support the token",
          "_1": "token IDs corresponding to the provided token for each of the banks"
        }
      },
      "renounceOwnership()": {
        "details": "Leaves the contract without owner. It will not be possible to call `onlyOwner` functions anymore. Can only be called by the current owner. NOTE: Renouncing ownership will leave the contract without an owner, thereby removing any functionality that is only available to the owner."
      },
      "transferOwnership(address)": {
        "details": "Transfers ownership of the contract to a new account (`newOwner`). Can only be called by the current owner."
      },
      "withdraw(uint256,uint256)": {
        "details": "In case of ERC721Bank position, amount should be liquidity to withdraw like in UniswapV3PositionsManager",
        "params": {
          "amount": "amount to withdraw",
          "positionId": "position ID"
        }
      }
    },
    "version": 1
  },
  "userdoc": {
    "kind": "user",
    "methods": {
      "adjustLiquidationPoints(uint256,(address,address,bool,uint256,uint256)[])": {
        "notice": "-------------Core logic-------------"
      },
      "botLiquidate(uint256,uint256,(uint256,uint256,uint256,uint256,int256,address,address[],address,address[][])[],((address,address,uint256,uint256,bytes),address,uint256,address[],uint256[])[])": {
        "notice": "Liquidate a position that has violated some liquidation conditionCan only be called by a keeper"
      },
      "checkLiquidate(uint256)": {
        "notice": "Check wether one of the liquidation conditions has become true"
      },
      "close(uint256)": {
        "notice": "Withdraws all funds from a position"
      },
      "deposit((address,address,uint256,uint256,(address,address,bool,uint256,uint256)[]),address[],uint256[])": {
        "notice": "Create new position and deposit into it"
      },
      "depositInExisting(uint256,(address[],uint256[],(address,address,uint256,uint256,bytes)[]),(uint256,uint256,uint256,uint256,int256,address,address[],address,address[][])[],((address,address,uint256,uint256,bytes),address,uint256,address[],uint256[])[],uint256[])": {
        "notice": "Deposit into existing position"
      },
      "estimateValue(uint256,address)": {
        "notice": "Estimates the net worth of the position in terms of another token"
      },
      "getBanks()": {
        "notice": "Returns number of banks"
      },
      "getPosition(uint256)": {
        "notice": "Get a position"
      },
      "getPositionInteractions(uint256)": {
        "notice": "Returns a list of position interactions, each interaction is a two element array consisting of block number and interaction typeInteraction type 0 is deposit, 1 is withdraw, 2 is harvest, 3 is compound and 4 is bot liquidation"
      },
      "getPositionRewards(uint256)": {
        "notice": "Get the rewards, rewad amounts and corresponding usd values that have been generated for a position"
      },
      "getPositionTokens(uint256)": {
        "notice": "Get the underlying tokens, amounts and corresponding usd values for a position"
      },
      "getPositions(address)": {
        "notice": "Returns a list of position ids for the user"
      },
      "harvestAndRecompound(uint256,(uint256,uint256,uint256,uint256,int256,address,address[],address,address[][])[],((address,address,uint256,uint256,bytes),address,uint256,address[],uint256[])[],uint256[])": {
        "notice": "Harvest rewards for position and deposit them back to increase position value"
      },
      "harvestRewards(uint256)": {
        "notice": "Harvest and receive the rewards for a position"
      },
      "networkToken()": {
        "notice": "Returns the address of the wrapped network token"
      },
      "numPositions()": {
        "notice": "-------------Public view functions-------------"
      },
      "recommendBank(address)": {
        "notice": "Get a list of banks and bank tokens that support the provided token"
      },
      "setBanks(address[])": {
        "notice": "Updates bank addresses"
      },
      "setKeeper(address,bool)": {
        "notice": "-------------Permissioned functions-------------"
      },
      "setUniversalSwap(address)": {
        "notice": "Function to change the swap utility"
      },
      "stableToken()": {
        "notice": "Returns the address of the preferred stable token for the network"
      },
      "universalSwap()": {
        "notice": "Returns the address of universal swap"
      },
      "withdraw(uint256,uint256)": {
        "notice": "Withdraw from a position"
      }
    },
    "version": 1
  },
  "storageLayout": {
    "storage": [
      {
        "astId": 7,
        "contract": "contracts/PositionsManager.sol:PositionsManager",
        "label": "_owner",
        "offset": 0,
        "slot": "0",
        "type": "t_address"
      },
      {
        "astId": 12810,
        "contract": "contracts/PositionsManager.sol:PositionsManager",
        "label": "positions",
        "offset": 0,
        "slot": "1",
        "type": "t_array(t_struct(Position)23850_storage)dyn_storage"
      },
      {
        "astId": 12814,
        "contract": "contracts/PositionsManager.sol:PositionsManager",
        "label": "positionClosed",
        "offset": 0,
        "slot": "2",
        "type": "t_mapping(t_uint256,t_bool)"
      },
      {
        "astId": 12820,
        "contract": "contracts/PositionsManager.sol:PositionsManager",
        "label": "positionInteractions",
        "offset": 0,
        "slot": "3",
        "type": "t_mapping(t_uint256,t_array(t_struct(PositionInteraction)23871_storage)dyn_storage)"
      },
      {
        "astId": 12825,
        "contract": "contracts/PositionsManager.sol:PositionsManager",
        "label": "userPositions",
        "offset": 0,
        "slot": "4",
        "type": "t_mapping(t_address,t_array(t_uint256)dyn_storage)"
      },
      {
        "astId": 12828,
        "contract": "contracts/PositionsManager.sol:PositionsManager",
        "label": "banks",
        "offset": 0,
        "slot": "5",
        "type": "t_array(t_address_payable)dyn_storage"
      },
      {
        "astId": 12830,
        "contract": "contracts/PositionsManager.sol:PositionsManager",
        "label": "universalSwap",
        "offset": 0,
        "slot": "6",
        "type": "t_address"
      },
      {
        "astId": 12832,
        "contract": "contracts/PositionsManager.sol:PositionsManager",
        "label": "networkToken",
        "offset": 0,
        "slot": "7",
        "type": "t_address"
      },
      {
        "astId": 12834,
        "contract": "contracts/PositionsManager.sol:PositionsManager",
        "label": "stableToken",
        "offset": 0,
        "slot": "8",
        "type": "t_address"
      },
      {
        "astId": 12837,
        "contract": "contracts/PositionsManager.sol:PositionsManager",
        "label": "helper",
        "offset": 0,
        "slot": "9",
        "type": "t_contract(ManagerHelper)9991"
      },
      {
        "astId": 12841,
        "contract": "contracts/PositionsManager.sol:PositionsManager",
        "label": "keepers",
        "offset": 0,
        "slot": "10",
        "type": "t_mapping(t_address,t_bool)"
      }
    ],
    "types": {
      "t_address": {
        "encoding": "inplace",
        "label": "address",
        "numberOfBytes": "20"
      },
      "t_address_payable": {
        "encoding": "inplace",
        "label": "address payable",
        "numberOfBytes": "20"
      },
      "t_array(t_address)dyn_storage": {
        "base": "t_address",
        "encoding": "dynamic_array",
        "label": "address[]",
        "numberOfBytes": "32"
      },
      "t_array(t_address_payable)dyn_storage": {
        "base": "t_address_payable",
        "encoding": "dynamic_array",
        "label": "address payable[]",
        "numberOfBytes": "32"
      },
      "t_array(t_struct(Asset)23632_storage)dyn_storage": {
        "base": "t_struct(Asset)23632_storage",
        "encoding": "dynamic_array",
        "label": "struct Asset[]",
        "numberOfBytes": "32"
      },
      "t_array(t_struct(LiquidationCondition)23837_storage)dyn_storage": {
        "base": "t_struct(LiquidationCondition)23837_storage",
        "encoding": "dynamic_array",
        "label": "struct LiquidationCondition[]",
        "numberOfBytes": "32"
      },
      "t_array(t_struct(Position)23850_storage)dyn_storage": {
        "base": "t_struct(Position)23850_storage",
        "encoding": "dynamic_array",
        "label": "struct Position[]",
        "numberOfBytes": "32"
      },
      "t_array(t_struct(PositionInteraction)23871_storage)dyn_storage": {
        "base": "t_struct(PositionInteraction)23871_storage",
        "encoding": "dynamic_array",
        "label": "struct PositionInteraction[]",
        "numberOfBytes": "32"
      },
      "t_array(t_uint256)dyn_storage": {
        "base": "t_uint256",
        "encoding": "dynamic_array",
        "label": "uint256[]",
        "numberOfBytes": "32"
      },
      "t_bool": {
        "encoding": "inplace",
        "label": "bool",
        "numberOfBytes": "1"
      },
      "t_bytes_storage": {
        "encoding": "bytes",
        "label": "bytes",
        "numberOfBytes": "32"
      },
      "t_contract(ManagerHelper)9991": {
        "encoding": "inplace",
        "label": "contract ManagerHelper",
        "numberOfBytes": "20"
      },
      "t_mapping(t_address,t_array(t_uint256)dyn_storage)": {
        "encoding": "mapping",
        "key": "t_address",
        "label": "mapping(address => uint256[])",
        "numberOfBytes": "32",
        "value": "t_array(t_uint256)dyn_storage"
      },
      "t_mapping(t_address,t_bool)": {
        "encoding": "mapping",
        "key": "t_address",
        "label": "mapping(address => bool)",
        "numberOfBytes": "32",
        "value": "t_bool"
      },
      "t_mapping(t_uint256,t_array(t_struct(PositionInteraction)23871_storage)dyn_storage)": {
        "encoding": "mapping",
        "key": "t_uint256",
        "label": "mapping(uint256 => struct PositionInteraction[])",
        "numberOfBytes": "32",
        "value": "t_array(t_struct(PositionInteraction)23871_storage)dyn_storage"
      },
      "t_mapping(t_uint256,t_bool)": {
        "encoding": "mapping",
        "key": "t_uint256",
        "label": "mapping(uint256 => bool)",
        "numberOfBytes": "32",
        "value": "t_bool"
      },
      "t_string_storage": {
        "encoding": "bytes",
        "label": "string",
        "numberOfBytes": "32"
      },
      "t_struct(Asset)23632_storage": {
        "encoding": "inplace",
        "label": "struct Asset",
        "members": [
          {
            "astId": 23623,
            "contract": "contracts/PositionsManager.sol:PositionsManager",
            "label": "pool",
            "offset": 0,
            "slot": "0",
            "type": "t_address"
          },
          {
            "astId": 23625,
            "contract": "contracts/PositionsManager.sol:PositionsManager",
            "label": "manager",
            "offset": 0,
            "slot": "1",
            "type": "t_address"
          },
          {
            "astId": 23627,
            "contract": "contracts/PositionsManager.sol:PositionsManager",
            "label": "tokenId",
            "offset": 0,
            "slot": "2",
            "type": "t_uint256"
          },
          {
            "astId": 23629,
            "contract": "contracts/PositionsManager.sol:PositionsManager",
            "label": "liquidity",
            "offset": 0,
            "slot": "3",
            "type": "t_uint256"
          },
          {
            "astId": 23631,
            "contract": "contracts/PositionsManager.sol:PositionsManager",
            "label": "data",
            "offset": 0,
            "slot": "4",
            "type": "t_bytes_storage"
          }
        ],
        "numberOfBytes": "160"
      },
      "t_struct(LiquidationCondition)23837_storage": {
        "encoding": "inplace",
        "label": "struct LiquidationCondition",
        "members": [
          {
            "astId": 23828,
            "contract": "contracts/PositionsManager.sol:PositionsManager",
            "label": "watchedToken",
            "offset": 0,
            "slot": "0",
            "type": "t_address"
          },
          {
            "astId": 23830,
            "contract": "contracts/PositionsManager.sol:PositionsManager",
            "label": "liquidateTo",
            "offset": 0,
            "slot": "1",
            "type": "t_address"
          },
          {
            "astId": 23832,
            "contract": "contracts/PositionsManager.sol:PositionsManager",
            "label": "lessThan",
            "offset": 20,
            "slot": "1",
            "type": "t_bool"
          },
          {
            "astId": 23834,
            "contract": "contracts/PositionsManager.sol:PositionsManager",
            "label": "liquidationPoint",
            "offset": 0,
            "slot": "2",
            "type": "t_uint256"
          },
          {
            "astId": 23836,
            "contract": "contracts/PositionsManager.sol:PositionsManager",
            "label": "slippage",
            "offset": 0,
            "slot": "3",
            "type": "t_uint256"
          }
        ],
        "numberOfBytes": "128"
      },
      "t_struct(Position)23850_storage": {
        "encoding": "inplace",
        "label": "struct Position",
        "members": [
          {
            "astId": 23839,
            "contract": "contracts/PositionsManager.sol:PositionsManager",
            "label": "user",
            "offset": 0,
            "slot": "0",
            "type": "t_address"
          },
          {
            "astId": 23841,
            "contract": "contracts/PositionsManager.sol:PositionsManager",
            "label": "bank",
            "offset": 0,
            "slot": "1",
            "type": "t_address"
          },
          {
            "astId": 23843,
            "contract": "contracts/PositionsManager.sol:PositionsManager",
            "label": "bankToken",
            "offset": 0,
            "slot": "2",
            "type": "t_uint256"
          },
          {
            "astId": 23845,
            "contract": "contracts/PositionsManager.sol:PositionsManager",
            "label": "amount",
            "offset": 0,
            "slot": "3",
            "type": "t_uint256"
          },
          {
            "astId": 23849,
            "contract": "contracts/PositionsManager.sol:PositionsManager",
            "label": "liquidationPoints",
            "offset": 0,
            "slot": "4",
            "type": "t_array(t_struct(LiquidationCondition)23837_storage)dyn_storage"
          }
        ],
        "numberOfBytes": "160"
      },
      "t_struct(PositionInteraction)23871_storage": {
        "encoding": "inplace",
        "label": "struct PositionInteraction",
        "members": [
          {
            "astId": 23859,
            "contract": "contracts/PositionsManager.sol:PositionsManager",
            "label": "action",
            "offset": 0,
            "slot": "0",
            "type": "t_string_storage"
          },
          {
            "astId": 23861,
            "contract": "contracts/PositionsManager.sol:PositionsManager",
            "label": "timestamp",
            "offset": 0,
            "slot": "1",
            "type": "t_uint256"
          },
          {
            "astId": 23863,
            "contract": "contracts/PositionsManager.sol:PositionsManager",
            "label": "blockNumber",
            "offset": 0,
            "slot": "2",
            "type": "t_uint256"
          },
          {
            "astId": 23866,
            "contract": "contracts/PositionsManager.sol:PositionsManager",
            "label": "assets",
            "offset": 0,
            "slot": "3",
            "type": "t_struct(Provided)24290_storage"
          },
          {
            "astId": 23868,
            "contract": "contracts/PositionsManager.sol:PositionsManager",
            "label": "usdValue",
            "offset": 0,
            "slot": "6",
            "type": "t_uint256"
          },
          {
            "astId": 23870,
            "contract": "contracts/PositionsManager.sol:PositionsManager",
            "label": "positionSizeChange",
            "offset": 0,
            "slot": "7",
            "type": "t_uint256"
          }
        ],
        "numberOfBytes": "256"
      },
      "t_struct(Provided)24290_storage": {
        "encoding": "inplace",
        "label": "struct Provided",
        "members": [
          {
            "astId": 24282,
            "contract": "contracts/PositionsManager.sol:PositionsManager",
            "label": "tokens",
            "offset": 0,
            "slot": "0",
            "type": "t_array(t_address)dyn_storage"
          },
          {
            "astId": 24285,
            "contract": "contracts/PositionsManager.sol:PositionsManager",
            "label": "amounts",
            "offset": 0,
            "slot": "1",
            "type": "t_array(t_uint256)dyn_storage"
          },
          {
            "astId": 24289,
            "contract": "contracts/PositionsManager.sol:PositionsManager",
            "label": "nfts",
            "offset": 0,
            "slot": "2",
            "type": "t_array(t_struct(Asset)23632_storage)dyn_storage"
          }
        ],
        "numberOfBytes": "96"
      },
      "t_uint256": {
        "encoding": "inplace",
        "label": "uint256",
        "numberOfBytes": "32"
      }
    }
  }
}