{
  "address": "0x173304C5b392D3266b48D4DC5448C1dEaEC17668",
  "abi": [
    {
      "inputs": [
        {
          "internalType": "contract IUniversalSwap",
          "name": "_universalSwap",
          "type": "address"
        }
      ],
      "stateMutability": "nonpayable",
      "type": "constructor"
    },
    {
      "inputs": [
        {
          "components": [
            {
              "internalType": "address[]",
              "name": "tokens",
              "type": "address[]"
            },
            {
              "internalType": "uint256[]",
              "name": "amounts",
              "type": "uint256[]"
            },
            {
              "components": [
                {
                  "internalType": "address",
                  "name": "pool",
                  "type": "address"
                },
                {
                  "internalType": "address",
                  "name": "manager",
                  "type": "address"
                },
                {
                  "internalType": "uint256",
                  "name": "tokenId",
                  "type": "uint256"
                },
                {
                  "internalType": "uint256",
                  "name": "liquidity",
                  "type": "uint256"
                },
                {
                  "internalType": "bytes",
                  "name": "data",
                  "type": "bytes"
                }
              ],
              "internalType": "struct Asset[]",
              "name": "nfts",
              "type": "tuple[]"
            }
          ],
          "internalType": "struct Provided",
          "name": "provided",
          "type": "tuple"
        }
      ],
      "name": "simplifyWithoutWrite",
      "outputs": [
        {
          "internalType": "address[]",
          "name": "simplifiedTokens",
          "type": "address[]"
        },
        {
          "internalType": "uint256[]",
          "name": "simplifiedAmounts",
          "type": "uint256[]"
        }
      ],
      "stateMutability": "view",
      "type": "function"
    },
    {
      "inputs": [],
      "name": "universalSwap",
      "outputs": [
        {
          "internalType": "contract IUniversalSwap",
          "name": "",
          "type": "address"
        }
      ],
      "stateMutability": "view",
      "type": "function"
    }
  ],
  "transactionHash": "0x80f51092e29e05d29fdd6c11bef98a0f2179e610864bc9f7f304dee3df6c47c7",
  "args": [
    "0x884C153C148e80FbcE69070c7214156548037E8E"
  ],
  "numDeployments": 1,
  "solcInputHash": "ddb28ac097d983a53f2b709d35d2ebb5",
  "bytecode": "0x60803461007457601f61106d38819003918201601f19168301916001600160401b038311848410176100795780849260209460405283398101031261007457516001600160a01b0381169081900361007457600080546001600160a01b031916919091179055604051610fdd90816100908239f35b600080fd5b634e487b7160e01b600052604160045260246000fdfe608080604052600436101561001357600080fd5b60003560e01c908163307adfb41461006357506378ca319a1461003557600080fd5b3461005e57600036600319011261005e576000546040516001600160a01b039091168152602090f35b600080fd5b3461005e576003199060203683011261005e57600435916001600160401b03831161005e57606090833603011261005e57606081018181106001600160401b0382111761083a5760405281600401356001600160401b03811161005e5782013660238201121561005e576004810135906100dc82610899565b916100ea6040519384610878565b8083526024602084019160051b8301019136831161005e57602401905b82821061086057505050815260248201356001600160401b03811161005e5782013660238201121561005e5760048101359061014282610899565b916101506040519384610878565b8083526024602084019160051b8301019136831161005e57602401905b82821061085057505050602082015260448201356001600160401b03811161005e5736602382850101121561005e57600481840101356101ac81610899565b936101ba6040519586610878565b81855260208501923660248460051b83850101011161005e57602481830101935b60248460051b8385010101851061072957604080870188815260008054925163045725af60e41b815291926001600160a01b031691899181600481865afa90811561041c5760009161070e575b506040516311ef73c560e01b815291600083600481875afa92831561041c576000936106ee575b5060006004939460405194858092631e6676a560e11b82525afa92831561041c576000936106c7575b5091809383602061028d955191015190610a6e565b9251926060916060916000915b86518310156104805760005b865181101561046f576001600160a01b036102c18289610996565b511660206001600160a01b03816102d8888d610996565b51015116602460405180948193632d53013b60e21b835260048301525afa90811561041c57600091610440575b50610319575b61031490610987565b6102a6565b939460806001600160a01b0361032f878a610996565b511661033b868b610996565b516040805163763e36f760e11b815260206004820181905283516001600160a01b039081166024840152908401511660448201529082015160648201526060820151608482015292015160a060a4840152805160c48401819052839160005b82811061042857505091816000938160e49186838284010152601f801991011681010301915afa91821561041c57610314926103ec926000906000926103f4575b506103e69192610ded565b97610ee5565b94905061030b565b6103e6925061041691503d806000833e61040e8183610878565b8101906109d8565b916103db565b6040513d6000823e3d90fd5b602082820181015160e488840101528694500161039a565b610462915060203d602011610468575b61045a8183610878565b8101906109c0565b89610305565b503d610450565b509161047a90610987565b9161029a565b8361048e8661049493610ded565b92610ee5565b9061049f8151610dbb565b916000905b825182101561055c57815b835181101561054b5780836104ce92118061051c575b6104d357610987565b6104af565b6104f26104e08585610996565b516104eb8386610996565b5190610dae565b6104fc8585610996565b5260006105098285610996565b5260016105168288610996565b52610987565b506001600160a01b0361052f8587610996565b51166001600160a01b036105438388610996565b5116146104c5565b509061055690610987565b906104a4565b8260009160005b82518110156105b2576105768183610996565b5161058a575b61058590610987565b610563565b926001810180911161059c579261057c565b634e487b7160e01b600052601160045260246000fd5b506105c56105bf84610dbb565b93610dbb565b9060009360005b845181101561063a576105df8184610996565b516105f3575b6105ee90610987565b6105cc565b946001600160a01b036106068787610996565b51166106128284610996565b5261061d8684610996565b516106288286610996565b526001810180911161059c57946105e5565b5082906040519182916040830160408452815180915260206060850192019060005b8181106106a55750505082810360208401526020808351928381520192019060005b81811061068c575050500390f35b825184528594506020938401939092019160010161067e565b82516001600160a01b031684528695506020938401939092019160010161065c565b61028d93506106e8903d806000833e6106e08183610878565b81019061093e565b92610278565b600493506107076000913d8084833e6106e08183610878565b935061024f565b61072391503d806000833e6106e08183610878565b84610228565b84356001600160401b03811161005e578284010160a09182602319833603011261005e576040519283018381106001600160401b0382111761083a57604052610774602483016108b0565b8352610782604483016108b0565b6020840152606482013560408401526084820135606084015260a4820135906001600160401b03821161005e5736604383850101121561005e576001600160401b03602483850101351161083a57604051936107ee84840160240135601f01601f191660200186610878565b83830160248101358087523691016044011161005e576024946000602087868882849a99859a0101356044838301018588013701013583010152608082015281520195019490506101db565b634e487b7160e01b600052604160045260246000fd5b813581526020918201910161016d565b6020809161086d846108b0565b815201910190610107565b90601f801991011681019081106001600160401b0382111761083a57604052565b6001600160401b03811161083a5760051b60200190565b35906001600160a01b038216820361005e57565b51906001600160a01b038216820361005e57565b81601f8201121561005e578051916108ef83610899565b926108fd6040519485610878565b808452602092838086019260051b82010192831161005e578301905b828210610927575050505090565b838091610933846108c4565b815201910190610919565b9060208282031261005e5781516001600160401b03811161005e5761096392016108d8565b90565b506040513d6000823e3d90fd5b9081602091031261005e57610963906108c4565b600019811461059c5760010190565b80518210156109aa5760209160051b010190565b634e487b7160e01b600052603260045260246000fd5b9081602091031261005e5751801515810361005e5790565b919060408382031261005e578251926001600160401b039384811161005e5782610a039183016108d8565b936020918281015191821161005e57019180601f8401121561005e578251610a2a81610899565b93610a386040519586610878565b818552838086019260051b82010192831161005e578301905b828210610a5f575050505090565b81518152908301908301610a51565b60005491959460609485949193909290610a98906001600160a01b03165b6001600160a01b031690565b604051633654ad2760e11b815290602082600481845afa918215610da1575b600092610d70575b5090976000985b83518a1015610d63578a610b186020610aef610ae28e89610996565b516001600160a01b031690565b60405163e7c87f1960e01b81526001600160a01b03909116600482015291829081906024820190565b0381885afa908115610d56575b600091610d37575b50610cd7575060005b8b8651821015610cc1578b610b926020610b59610a8c610a8c610ae2888e610996565b610b66610ae2858c610996565b604051632d53013b60e21b81526001600160a01b03909116600482015292839190829081906024820190565b03915afa908115610cb4575b600091610c95575b50610bbc575b5050610bb790610987565b610b36565b8888610c2c6000869f9e96958b8f9680610bf3610ae2610bf993610bed610a8c610a8c610c499f610ae2908e610996565b95610996565b93610996565b51604051636331f17f60e01b81526001600160a01b03909316600484015260248301529092839190829081906044820190565b03915afa908115610c88575b600090600092610c6a575b50610a6e565b610bb792610c6092610c5a91610ded565b9a610ee5565b9990508b8b610bac565b9050610c8191503d806000833e61040e8183610878565b9038610c43565b610c90610966565b610c38565b610cae915060203d6020116104685761045a8183610878565b38610ba6565b610cbc610966565b610b9e565b5050919098610ccf90610987565b989091610ac6565b978a99610d218395949c610d2893610ccf9560018060a01b03610cfd610ae2858d610996565b1615610d2e5750610d1b90610d15610ae2848c610996565b90610e7a565b9b610996565b5190610f50565b98610987565b610d1b91610e7a565b610d50915060203d6020116104685761045a8183610878565b38610b2d565b610d5e610966565b610b25565b5096975050505050509250565b610d9391925060203d602011610d9a575b610d8b8183610878565b810190610973565b9038610abf565b503d610d81565b610da9610966565b610ab7565b9190820180921161059c57565b90610dc582610899565b610dd26040519182610878565b8281528092610de3601f1991610899565b0190602036910137565b610e02610dfd8251845190610dae565b610dbb565b9260005b8251811015610e3657610e31906001600160a01b03610e258286610996565b51166105168288610996565b610e06565b509160005b8151811015610e7557610e70906001600160a01b03610e5a8285610996565b5116610516610e6a865184610dae565b88610996565b610e3b565b505050565b9081519160019283810180911161059c57610e9490610dbb565b926000815b610ebb575b5050610eab905183610996565b6001600160a01b03909116905290565b8251811015610ee057610eda906001600160a01b03610e258286610996565b81610e99565b610e9e565b610ef5610dfd8251845190610dae565b9260005b8251811015610f205780610f10610f1b9285610996565b516105168288610996565b610ef9565b509160005b8151811015610e755780610f3c610f4b9284610996565b51610516610e6a865184610dae565b610f25565b9081519160019283810180911161059c57610f6a90610dbb565b926000815b610f85575b5050610f81905183610996565b5290565b8251811015610fa25780610f10610f9c9285610996565b81610f6f565b610f7456fea26469706673582212208e6d42a1c99964599f540b8625a74de54ce728e759287daeeb50746982c9abea64736f6c63430008110033",
  "devdoc": {
    "kind": "dev",
    "methods": {},
    "version": 1
  },
  "userdoc": {
    "kind": "user",
    "methods": {
      "simplifyWithoutWrite((address[],uint256[],(address,address,uint256,uint256,bytes)[]))": {
        "notice": "-------------Internal logic-------------"
      }
    },
    "version": 1
  },
  "storageLayout": {
    "storage": [
      {
        "astId": 4770,
        "contract": "contracts/UniversalSwap/ProvidedHelper.sol:ProvidedHelper",
        "label": "universalSwap",
        "offset": 0,
        "slot": "0",
        "type": "t_contract(IUniversalSwap)9096"
      }
    ],
    "types": {
      "t_contract(IUniversalSwap)9096": {
        "encoding": "inplace",
        "label": "contract IUniversalSwap",
        "numberOfBytes": "20"
      }
    }
  }
}