{
  "address": "0xa7450505e917610C4f8F98C455deC5eE219A600e",
  "abi": [
    {
      "inputs": [
        {
          "internalType": "address",
          "name": "_router",
          "type": "address"
        },
        {
          "internalType": "address[]",
          "name": "_commonPoolTokens",
          "type": "address[]"
        }
      ],
      "stateMutability": "nonpayable",
      "type": "constructor"
    },
    {
      "anonymous": false,
      "inputs": [
        {
          "indexed": false,
          "internalType": "address",
          "name": "holderAddress",
          "type": "address"
        },
        {
          "indexed": false,
          "internalType": "uint256",
          "name": "amount",
          "type": "uint256"
        }
      ],
      "name": "Burn",
      "type": "event"
    },
    {
      "anonymous": false,
      "inputs": [
        {
          "indexed": true,
          "internalType": "address",
          "name": "previousOwner",
          "type": "address"
        },
        {
          "indexed": true,
          "internalType": "address",
          "name": "newOwner",
          "type": "address"
        }
      ],
      "name": "OwnershipTransferred",
      "type": "event"
    },
    {
      "inputs": [
        {
          "internalType": "address",
          "name": "inToken",
          "type": "address"
        }
      ],
      "name": "checkSwappable",
      "outputs": [
        {
          "internalType": "bool",
          "name": "",
          "type": "bool"
        }
      ],
      "stateMutability": "view",
      "type": "function"
    },
    {
      "inputs": [
        {
          "internalType": "uint256",
          "name": "",
          "type": "uint256"
        }
      ],
      "name": "commonPoolTokens",
      "outputs": [
        {
          "internalType": "address",
          "name": "",
          "type": "address"
        }
      ],
      "stateMutability": "view",
      "type": "function"
    },
    {
      "inputs": [
        {
          "internalType": "uint256",
          "name": "amount",
          "type": "uint256"
        },
        {
          "internalType": "address[]",
          "name": "path",
          "type": "address[]"
        }
      ],
      "name": "getAmountOut",
      "outputs": [
        {
          "internalType": "uint256",
          "name": "",
          "type": "uint256"
        }
      ],
      "stateMutability": "view",
      "type": "function"
    },
    {
      "inputs": [
        {
          "internalType": "uint256",
          "name": "amount",
          "type": "uint256"
        },
        {
          "internalType": "address[]",
          "name": "path",
          "type": "address[]"
        },
        {
          "internalType": "uint256[][][]",
          "name": "amountsForSwaps",
          "type": "uint256[][][]"
        },
        {
          "components": [
            {
              "internalType": "uint256",
              "name": "amountIn",
              "type": "uint256"
            },
            {
              "internalType": "uint256",
              "name": "valueIn",
              "type": "uint256"
            },
            {
              "internalType": "uint256",
              "name": "amountOut",
              "type": "uint256"
            },
            {
              "internalType": "uint256",
              "name": "valueOut",
              "type": "uint256"
            },
            {
              "internalType": "int256",
              "name": "slippage",
              "type": "int256"
            },
            {
              "internalType": "address",
              "name": "tokenIn",
              "type": "address"
            },
            {
              "internalType": "address[]",
              "name": "swappers",
              "type": "address[]"
            },
            {
              "internalType": "address",
              "name": "tokenOut",
              "type": "address"
            },
            {
              "internalType": "address[][]",
              "name": "paths",
              "type": "address[][]"
            }
          ],
          "internalType": "struct SwapPoint[]",
          "name": "priorSwaps",
          "type": "tuple[]"
        }
      ],
      "name": "getAmountsOutWithPath",
      "outputs": [
        {
          "internalType": "uint256[]",
          "name": "amountsOut",
          "type": "uint256[]"
        }
      ],
      "stateMutability": "view",
      "type": "function"
    },
    {
      "inputs": [],
      "name": "getCommonPoolTokens",
      "outputs": [
        {
          "internalType": "address[]",
          "name": "",
          "type": "address[]"
        }
      ],
      "stateMutability": "view",
      "type": "function"
    },
    {
      "inputs": [
        {
          "internalType": "address",
          "name": "token",
          "type": "address"
        },
        {
          "internalType": "address",
          "name": "inTermsOf",
          "type": "address"
        }
      ],
      "name": "getPrice",
      "outputs": [
        {
          "internalType": "uint256",
          "name": "",
          "type": "uint256"
        }
      ],
      "stateMutability": "view",
      "type": "function"
    },
    {
      "inputs": [],
      "name": "owner",
      "outputs": [
        {
          "internalType": "address",
          "name": "",
          "type": "address"
        }
      ],
      "stateMutability": "view",
      "type": "function"
    },
    {
      "inputs": [],
      "name": "renounceOwnership",
      "outputs": [],
      "stateMutability": "nonpayable",
      "type": "function"
    },
    {
      "inputs": [],
      "name": "router",
      "outputs": [
        {
          "internalType": "contract IUniswapV2Router02",
          "name": "",
          "type": "address"
        }
      ],
      "stateMutability": "view",
      "type": "function"
    },
    {
      "inputs": [
        {
          "internalType": "uint256",
          "name": "amount",
          "type": "uint256"
        },
        {
          "internalType": "address[]",
          "name": "path",
          "type": "address[]"
        },
        {
          "internalType": "address",
          "name": "self",
          "type": "address"
        }
      ],
      "name": "swap",
      "outputs": [
        {
          "internalType": "uint256",
          "name": "obtained",
          "type": "uint256"
        }
      ],
      "stateMutability": "payable",
      "type": "function"
    },
    {
      "inputs": [
        {
          "internalType": "address",
          "name": "newOwner",
          "type": "address"
        }
      ],
      "name": "transferOwnership",
      "outputs": [],
      "stateMutability": "nonpayable",
      "type": "function"
    }
  ],
  "transactionHash": "0x6fb7e60815895dea6f482702d354ed75907723ce23ecacc5c9a8f57cac259f46",
  "args": [
    "0x10ED43C718714eb63d5aA57B78B54704E256024E",
    [
      "0xbb4CdB9CBd36B01bD1cBaEBF2De08d9173bc095c",
      "0xe9e7CEA3DedcA5984780Bafc599bD69ADd087D56",
      "0x8AC76a51cc950d9822D68b83fE1Ad97B32Cd580d",
      "0x55d398326f99059fF775485246999027B3197955",
      "0x2170Ed0880ac9A755fd29B2688956BD959F933F8"
    ]
  ],
  "numDeployments": 2,
  "solcInputHash": "6706525d7cf8761db6896821476dc820",
  "bytecode": "0x608060405234620001b757620025aa803803806200001d81620001d2565b928339810190604081830312620001b7576200003981620001f8565b60208083015191926001600160401b039290838211620001b757019084601f83011215620001b757815194838611620001bc578560051b92826200007f818601620001d2565b809881520190838295820101928311620001b75783809101915b8383106200019c57505060008054336001600160a01b0319808316821784556040519a6001600160a01b0398949796509394509187167f8be0079c531659141344cd1fd0a4f28419497f9722a3daafe3b4186f6b6457e08780a38560019816908854161787555194851162000188576801000000000000000085116200018857600254856002558086106200015d575b509260028352818320925b858110620001495761239c88816200020e8239f35b845182168482015593820193860162000134565b60028452868684862092830192015b8281106200017c57505062000129565b8581550187906200016c565b634e487b7160e01b83526041600452602483fd5b8190620001a984620001f8565b815201910190839062000099565b600080fd5b634e487b7160e01b600052604160045260246000fd5b6040519190601f01601f191682016001600160401b03811183821017620001bc57604052565b51906001600160a01b0382168203620001b75756fe60c080604052600436101561001357600080fd5b60003560e01c9081632a5c07fa1461079257508063715018a6146107395780638da5cb5b14610710578063a40103d4146106c2578063ac41865a14610689578063b8239ebb14610644578063c0e7d8de14610217578063c663bc85146101bc578063f2fde38b146100f3578063f7d44c46146100c65763f887ea401461009857600080fd5b346100c15760003660031901126100c1576001546040516001600160a01b039091168152602090f35b600080fd5b346100c15760203660031901126100c15760206100e96100e46108b8565b611ed8565b6040519015158152f35b346100c15760203660031901126100c15761010c6108b8565b6101146109cc565b6001600160a01b0390811690811561016857600054826bffffffffffffffffffffffff60a01b821617600055167f8be0079c531659141344cd1fd0a4f28419497f9722a3daafe3b4186f6b6457e0600080a3005b60405162461bcd60e51b815260206004820152602660248201527f4f776e61626c653a206e6577206f776e657220697320746865207a65726f206160448201526564647265737360d01b6064820152608490fd5b346100c15760203660031901126100c1576004356002548110156100c15760026000527f405787fa12a823e0f2b7631cc41b3ba8828b3321ca811111fa75cd3aa3bb5ace01546040516001600160a01b039091168152602090f35b346100c15760803660031901126100c1576024356001600160401b0381116100c1576102479036906004016108e2565b6001600160401b03604435116100c1573660236044350112156100c1576044356004013590610275826108a1565b916102836040519384610880565b80835260208301903660248260051b6044350101116100c157602460443501915b60248260051b60443501018310610519575050506001600160401b03606435116100c1573660236064350112156100c15760643560040135916102e6836108a1565b916102f46040519384610880565b83835260208301933660248260051b6064350101116100c157602460643501945b60248260051b6064350101861061037a5750506103359350600435611083565b60405180916020820160208352815180915260206040840192019060005b818110610361575050500390f35b8251845285945060209384019390920191600101610353565b85356001600160401b0381116100c1576101206064358201360360231901126100c15760405190816101208101106001600160401b03610120840111176105035761012082016040908152606480358301602481013585526044810135602086015290810135918401919091526084810135606084015260a481013560808401526104079060c4016108ce565b60a083015260e4816064350101356001600160401b0381116100c1576104379060243691846064350101016108e2565b60c083015261044d6101048260643501016108ce565b60e083015261012481606435010135906001600160401b0382116100c1576064350101366043820112156100c1576024810135610489816108a1565b916104976040519384610880565b8183526044602084019260051b820101903682116100c15760448101925b8284106104d45750505050610100820152815260209586019501610315565b83356001600160401b0381116100c1576020916104f88392604436918701016108e2565b8152019301926104b5565b634e487b7160e01b600052604160045260246000fd5b82356001600160401b0381116100c15736604382604435010112156100c15760248160443501013561054a816108a1565b916105586040519384610880565b81835260208301913660448260051b848235010101116100c15760448281350101925b60448260051b84823501010184106105a05750505090825250602092830192016102a4565b83356001600160401b0381116100c157366063828660443501010112156100c157604481858235010101356105d4816108a1565b916105e26040519384610880565b818352602083019060649036828560051b838b60443501010101116100c157818189604435010101925b828560051b838b6044350101010184106106345750505091835250506020938401930161057b565b833581526020938401930161060c565b346100c15760403660031901126100c1576024356001600160401b0381116100c15761068161067960209236906004016108e2565b600435611abb565b604051908152f35b346100c15760403660031901126100c1576106a26108b8565b602435906001600160a01b03821682036100c15760209161068191611c12565b60603660031901126100c1576024356001600160401b0381116100c1576106ed9036906004016108e2565b604435906001600160a01b03821682036100c15760209161068191600435610af1565b346100c15760003660031901126100c1576000546040516001600160a01b039091168152602090f35b346100c15760003660031901126100c1576107526109cc565b600080546001600160a01b0319811682556001600160a01b03167f8be0079c531659141344cd1fd0a4f28419497f9722a3daafe3b4186f6b6457e08280a3005b346100c15760003660031901126100c1576002548082526020908282810160026000527f405787fa12a823e0f2b7631cc41b3ba8828b3321ca811111fa75cd3aa3bb5ace9260005b85828210610809575050506107f192500383610880565b610805604051928284938452830190610828565b0390f35b85546001600160a01b03168452600195860195889550930192016107da565b90815180825260208080930193019160005b828110610848575050505090565b83516001600160a01b03168552938101939281019260010161083a565b606081019081106001600160401b0382111761050357604052565b90601f801991011681019081106001600160401b0382111761050357604052565b6001600160401b0381116105035760051b60200190565b600435906001600160a01b03821682036100c157565b35906001600160a01b03821682036100c157565b81601f820112156100c1578035916108f9836108a1565b926109076040519485610880565b808452602092838086019260051b8201019283116100c1578301905b828210610931575050505090565b83809161093d846108ce565b815201910190610923565b60025481101561097f5760026000527f405787fa12a823e0f2b7631cc41b3ba8828b3321ca811111fa75cd3aa3bb5ace0190600090565b634e487b7160e01b600052603260045260246000fd5b6002546001101561097f5760026000527f405787fa12a823e0f2b7631cc41b3ba8828b3321ca811111fa75cd3aa3bb5acf90600090565b6000546001600160a01b031633036109e057565b606460405162461bcd60e51b815260206004820152602060248201527f4f776e61626c653a2063616c6c6572206973206e6f7420746865206f776e65726044820152fd5b80511561097f5760200190565b80516001101561097f5760400190565b805182101561097f5760209160051b010190565b91908203918211610a6257565b634e487b7160e01b600052601160045260246000fd5b60209081818403126100c1578051906001600160401b0382116100c157019180601f840112156100c1578251610aad816108a1565b93610abb6040519586610880565b818552838086019260051b8201019283116100c1578301905b828210610ae2575050505090565b81518152908301908301610ad4565b90929192805115801561103e575b8015611036575b6110315760408051916303e21fa960e61b835260206004968185898160018060a01b038095165afa94851561102657600095610fe8575b5080610b4884610a24565b518551636eb1769f60e11b808252308c8301908152989094166001600160a01b03811660208a015297929091169290918490839081906040010381865afa918215610fdd57600092610fae575b50610ba0888361144c565b865163095ea7b360e01b8682018190526001600160a01b038a166024830152604480830193909352918152601f1993919291906000908190610be3606482610880565b888151910182895af1610bf46114cd565b5015610d58575b50505050505081519263d06ca61f60e01b8452848785015282602485015260008480610c2a6044820186610828565b0381845afa60009481610d3d575b50610c4857506000955050505050565b83516000199590868101908111610d2857610c639086610a41565b5115610d1c57916000918493838a610ca19751978895869485936338ed173960e01b855284015283602484015260a0604484015260a4830190610828565b30606483015242608483015203925af1908115610d125750610cef575b508051918201918211610cda57610cd6929350610a41565b5190565b601184634e487b7160e01b6000525260246000fd5b610d0b903d806000833e610d038183610880565b810190610a78565b5038610cbe565b513d6000823e3d90fd5b50600096505050505050565b601189634e487b7160e01b6000525260246000fd5b610d5191953d8091833e610d038183610880565b9338610c38565b888c82610d67575b5050610bfb565b8951848152309181019182526001600160a01b0390921660208201528790829081906040010381895afa908115610fa357600091610f76575b50818110610f215788518781018590526001600160a01b038b166024820152919003604482015260648481018252610de39190610ddd9082610880565b856121a1565b87858c8b15938415610ea0575b5050505015610e3e578551938401526001600160a01b03861660248401526044830187905260649081018352610e31929190610e2c9083610880565b6121a1565b388080808080888c610d60565b855162461bcd60e51b8152808b01859052603660248201527f5361666545524332303a20617070726f76652066726f6d206e6f6e2d7a65726f60448201527520746f206e6f6e2d7a65726f20616c6c6f77616e636560501b6064820152608490fd5b8a51908152309181019182526001600160a01b03909316602082015291925090829081906040010381875afa908115610f1657600091610ee6575b501587858c38610df0565b908582813d8311610f0f575b610efc8183610880565b81010312610f0c57505138610edb565b80fd5b503d610ef2565b87513d6000823e3d90fd5b885162461bcd60e51b8152808e01889052602960248201527f5361666545524332303a2064656372656173656420616c6c6f77616e63652062604482015268656c6f77207a65726f60b81b6064820152608490fd5b908782813d8311610f9c575b610f8c8183610880565b81010312610f0c57505138610da0565b503d610f82565b89513d6000823e3d90fd5b90918482813d8311610fd6575b610fc58183610880565b81010312610f0c5750519038610b95565b503d610fbb565b86513d6000823e3d90fd5b8281819793973d831161101f575b6110008183610880565b8101031261101b5751908582168203610f0c57509338610b3d565b5080fd5b503d610ff6565b84513d6000823e3d90fd5b509150565b508115610b06565b506001600160a01b038061105183610a24565b51169082516000198101908111610a625761106c9084610a41565b511614610aff565b6000198114610a625760010190565b9093926080528351158015611416575b801561140e575b6113d957918351916110ab836108a1565b926110b96040519485610880565b8084526110c8601f19916108a1565b0136602085013782936110da84610a24565b526001915b85518310156113d157826000198101116113bc579394936001600160a01b0361110c600019850187610a41565b511660a0526001600160a01b036111238487610a41565b51169360009360009687935b60805180518610156112f9578561114591610a41565b519960005b60c08c015180518210156112e1578c9030906001600160a01b0390611170908590610a41565b511614611187575b5061118290611074565b61114a565b509697939160019a9593999a915b8c6111a58a610100830151610a41565b51518410156112c957896101006111bd920151610a41565b5183600019810111610a62578d968b8a8f8d946111e660018060a01b03916000198b0190610a41565b51168b6112098a6112038961010060018060a01b03950151610a41565b51610a41565b51169160a05191828114806112c0575b1561125f575050505061124e8493611247610100946112036111a598611203611254978e6000190194610a41565b519061144c565b96611074565b959850505050611195565b9995991491826112b6575b5050611283575b5050906101006112546111a593611074565b6112a9839b6112476101009461120388611203611254976111a59b9a6000190194610a41565b9a92935050508b8a611271565b149050388061126a565b50818414611219565b50915091939796611182909a9993959a90508b611178565b5050919950936112f090611074565b9398909861112f565b509790989496506113b3935061134b91929560018060a01b0361132060001986018c610a41565b51166001600160a01b03611334868d610a41565b511661134460001987018a610a41565b519161150c565b6113558286610a41565b5260405161136281610865565b6002815260403660208301376001600160a01b0361138460001984018a610a41565b511661138f82610a24565b526113ad6001600160a01b036113a5848b610a41565b511691610a31565b52611074565b919290936110df565b60246000634e487b7160e01b81526011600452fd5b939450505050565b91925050604051906113ea82610865565b6002825260403660208401378061140083610a24565b5261140a82610a31565b5290565b50801561109a565b506001600160a01b038061142986610a24565b51169085516000198101908111610a62576114449087610a41565b511614611093565b91908201809211610a6257565b908160209103126100c157516001600160a01b03811681036100c15790565b51906001600160701b03821682036100c157565b519063ffffffff821682036100c157565b908160609103126100c1576114b181611478565b916114ca60406114c360208501611478565b930161148c565b90565b3d15611507573d906001600160401b03821161050357604051916114fb601f8201601f191660200184610880565b82523d6000602084013e565b606090565b6001546040805163c45a015560e01b815290966001600160a01b0396602096959388169460049491939091888287818a5afa918215611ab0578a928a9261158992600092611a91575b508d5163e6a4390560e01b81526001600160a01b038088168b83019081529216602083015294859384928391604090910190565b0392165afa908115611a865785918a91600091611a69575b501698600092898b8d5194858092630dfe168160e01b82525afa928315611a5f578493611a2e575b5081169116146000146119c757508751630240bc6b60e21b81529160608385818b5afa8015610fa3576000938491611992575b506001600160701b038091169316975b89516354cf2aeb60e01b89820190815286825290808c016001600160401b0381118282101761197d578c52518a959493926000928392915afa61164d6114cd565b906117e9575089519088828061168387630153543560e21b998a8452868c85016040919493926060820195825260208201520152565b03818a5afa600092816117ba575b5061179d575b50508851908382528782806116c18c87868b85016040919493926060820195825260208201520152565b0381895afa6000928161176e575b5061174c575b5050611700908697985198899687958695865285016040919493926060820195825260208201520152565b03915afa91829160009361171b575b50506114ca5750600090565b8181949293943d8311611745575b6117338183610880565b81010312610f0c57505190388061170f565b503d611729565b87989161175f611765926117009561144c565b92610a55565b978192506116d5565b90928982813d8311611796575b6117858183610880565b81010312610f0c57505191386116cf565b503d61177b565b6117ac906117b293949a61144c565b98610a55565b903880611697565b90928a82813d83116117e2575b6117d18183610880565b81010312610f0c5750519138611691565b503d6117c7565b9350919087848051810103126100c1578961184a9389848c61180d838b9a0161148c565b945163149c1f6360e21b8082529981018581526020810192909252604082019290925263ffffffff85166060820152939690938491829160800190565b03818b5afa6000928161194e575b5061192d575b5050895184815285810182815260208101849052604081018b905263ffffffff851660608201529091908990839081906080015b03818a5afa600092816118fe575b506118e0575b5050906117009187989951998a978896879687528601929363ffffffff919594606093608086019786526020860152604085015216910152565b88999161175f6118f492611700969561144c565b98819293506118a6565b90928a82813d8311611926575b6119158183610880565b81010312610f0c57505191386118a0565b503d61190b565b906119406119469261189294959c61144c565b9a610a55565b91903861185e565b90928b82813d8311611976575b6119658183610880565b81010312610f0c5750519138611858565b503d61195b565b604188634e487b7160e01b6000525260246000fd5b90506119b691935060603d81116119c0575b6119ae8183610880565b81019061149d565b50929092386115fc565b503d6119a4565b96918851630240bc6b60e21b81526060818681875afa908115611a245789916119ff575b506001600160701b0380911698169261160c565b9050611a1a91985060603d81116119c0576119ae8183610880565b50979097386119eb565b8a513d8b823e3d90fd5b82919350611a51908b3d8d11611a58575b611a498183610880565b810190611459565b92906115c9565b503d611a3f565b8c513d86823e3d90fd5b611a8091508a3d8c11611a5857611a498183610880565b386115a1565b8a513d6000823e3d90fd5b611aa9919250843d8611611a5857611a498183610880565b9038611555565b8b513d6000823e3d90fd5b611af9929160018060a01b03600154169160405192839163d06ca61f60e01b8352600483015260406024830152818060009788956044830190610828565b03915afa839181611b3b575b50611b0d5750565b8051600019810191908211611b2757610cd6929350610a41565b634e487b7160e01b84526011600452602484fd5b611b509192503d8086833e610d038183610880565b9038611b05565b908160209103126100c1575160ff811681036100c15790565b8015611bd957600190602081108216604e8210831617611bd1578190600a925b808211611ba857505081600019048111610a62570290565b909280600019048111610a6257818416611bc8575b800292811c90611b90565b80920291611bbd565b9050600a0a90565b50600190565b81810292918115918404141715610a6257565b8115611bfc570490565b634e487b7160e01b600052601260045260246000fd5b6001600160a01b0391818316918184168314611e6357836001541660409283518093819363c45a015560e01b8352602094859160049788915afa918215610fdd5791611c9b93918593600092611e44575b50875163e6a4390560e01b81526001600160a01b0391821688820190815293909116602084015293849283918b918391604090910190565b0392165afa90811561102657908691600091611e27575b50169384611cc557505050505050600090565b8351630240bc6b60e21b8152956060878581895afa968715611e1c576000908198611df5575b508385916001600160701b03809116991697875192838092630dfe168160e01b82525afa908115610fdd57600091611dd8575b50168103611d9a57819084519384809263313ce56760e01b82525afa928315610d12575060ff611d68936114ca969593611d6293600092611d6d575b505016611b70565b90611bdf565b611bf2565b611d8c9250803d10611d93575b611d848183610880565b810190611b57565b3880611d5a565b503d611d7a565b819084969596519384809263313ce56760e01b82525afa928315610d12575060ff611d68936114ca969593611d6293600092611d6d57505016611b70565b611def9150843d8611611a5857611a498183610880565b38611d1e565b849850859150611e129060603d81116119c0576119ae8183610880565b5098909150611ceb565b85513d6000823e3d90fd5b611e3e9150833d8511611a5857611a498183610880565b38611cb2565b611e5c919250843d8611611a5857611a498183610880565b9038611c63565b505060405163313ce56760e01b81529150602090829060049082905afa908115611ebb576114ca9160ff91600091611e9d575b5016611b70565b611eb5915060203d8111611d9357611d848183610880565b38611e96565b6040513d6000823e3d90fd5b60ff16604d8111610a6257600a0a90565b600180546040805163c45a015560e01b81526020946001600160a01b0393909291600491879082908490829089165afa90811561219657908591600091612179575b5060025497911660005b888110611f3957505050505050505050600090565b86611f4382610948565b919054600392831b1c168888161461216c57611f7f88611f6284610948565b905490841b1c1689611f72610995565b905490851b1c1690611c12565b611fcb858a611f8d86610948565b90548b5163e6a4390560e01b81526001600160a01b03808f168d830190815293891b9290921c93909316166020820152909283918291604090910190565b0381885afa9081156120f257908a9160009161214f575b5016801561214357858a611ff586610948565b905490861b1c169160248a51809481936370a0823160e01b83528c8301525afa9081156120f257600091612114575b509061202f91611bdf565b908861203a84610948565b905490831b1c1687518681898163313ce56760e01b958682525afa908115610fa35761207188928d926000916120fd575b50611ec7565b9361207a610995565b9054911b1c1691888a518094819382525afa9081156120f2576120b692611d626103e895936120b0936000916120d55750611ec7565b90611bf2565b116120c9576120c490611074565b611f24565b50505050505050905090565b6120ec91508a3d8c11611d9357611d848183610880565b3861206b565b88513d6000823e3d90fd5b6120ec9150843d8611611d9357611d848183610880565b908682813d831161213c575b61212a8183610880565b81010312610f0c57505161202f612024565b503d612120565b5050506120c490611074565b6121669150873d8911611a5857611a498183610880565b38611fe2565b5050505050505050905090565b6121909150883d8a11611a5857611a498183610880565b38611f1a565b83513d6000823e3d90fd5b60018060a01b031690604051604081018181106001600160401b03821117610503576040526020928382527f5361666545524332303a206c6f772d6c6576656c2063616c6c206661696c656484830152803b156122a6579061221b9160008481959282888195519301915af16122156114cd565b906122eb565b805180612229575b50505050565b8184918101031261101b5782015190811591821503610f0c575061224f57808080612223565b6084906040519062461bcd60e51b82526004820152602a60248201527f5361666545524332303a204552433230206f7065726174696f6e20646964206e6044820152691bdd081cdd58d8d9595960b21b6064820152fd5b60405162461bcd60e51b815260048101859052601d60248201527f416464726573733a2063616c6c20746f206e6f6e2d636f6e74726163740000006044820152606490fd5b909190156122f7575090565b8151156123075750805190602001fd5b6040519062461bcd60e51b82528160208060048301528251908160248401526000935b82851061234d575050604492506000838284010152601f80199101168101030190fd5b848101820151868601604401529381019385935061232a56fea2646970667358221220063b201aff92b3f2cad6289768c97f855ca8c520f3f826d825d504bbe0b2155664736f6c63430008110033",
  "devdoc": {
    "kind": "dev",
    "methods": {
      "owner()": {
        "details": "Returns the address of the current owner."
      },
      "renounceOwnership()": {
        "details": "Leaves the contract without owner. It will not be possible to call `onlyOwner` functions anymore. Can only be called by the current owner. NOTE: Renouncing ownership will leave the contract without an owner, thereby removing any functionality that is only available to the owner."
      },
      "transferOwnership(address)": {
        "details": "Transfers ownership of the contract to a new account (`newOwner`). Can only be called by the current owner."
      }
    },
    "version": 1
  },
  "userdoc": {
    "kind": "user",
    "methods": {},
    "version": 1
  },
  "storageLayout": {
    "storage": [
      {
        "astId": 2812,
        "contract": "contracts/Swappers/UniswapV2Swapper.sol:UniswapV2Swapper",
        "label": "_owner",
        "offset": 0,
        "slot": "0",
        "type": "t_address"
      },
      {
        "astId": 17096,
        "contract": "contracts/Swappers/UniswapV2Swapper.sol:UniswapV2Swapper",
        "label": "router",
        "offset": 0,
        "slot": "1",
        "type": "t_contract(IUniswapV2Router02)28424"
      },
      {
        "astId": 17099,
        "contract": "contracts/Swappers/UniswapV2Swapper.sol:UniswapV2Swapper",
        "label": "commonPoolTokens",
        "offset": 0,
        "slot": "2",
        "type": "t_array(t_address)dyn_storage"
      }
    ],
    "types": {
      "t_address": {
        "encoding": "inplace",
        "label": "address",
        "numberOfBytes": "20"
      },
      "t_array(t_address)dyn_storage": {
        "base": "t_address",
        "encoding": "dynamic_array",
        "label": "address[]",
        "numberOfBytes": "32"
      },
      "t_contract(IUniswapV2Router02)28424": {
        "encoding": "inplace",
        "label": "contract IUniswapV2Router02",
        "numberOfBytes": "20"
      }
    }
  }
}