{
  "address": "0xAb031175A712357234Dee702d6Fe59B934504b39",
  "abi": [
    {
      "inputs": [
        {
          "internalType": "address",
          "name": "_factory",
          "type": "address"
        },
        {
          "internalType": "address[]",
          "name": "_commonPoolTokens",
          "type": "address[]"
        }
      ],
      "stateMutability": "nonpayable",
      "type": "constructor"
    },
    {
      "inputs": [
        {
          "internalType": "address",
          "name": "token",
          "type": "address"
        },
        {
          "internalType": "address",
          "name": "inTermsOf",
          "type": "address"
        }
      ],
      "name": "getPrice",
      "outputs": [
        {
          "internalType": "uint256",
          "name": "",
          "type": "uint256"
        }
      ],
      "stateMutability": "view",
      "type": "function"
    }
  ],
  "transactionHash": "0x86ad9257dccd1c3ae3a8015cb6916acd23aad1823442072d0cd638b70d11fb21",
  "args": [
    "0x858E3312ed3A876947EA49d572A7C42DE08af7EE",
    [
      "0xbb4CdB9CBd36B01bD1cBaEBF2De08d9173bc095c",
      "0xe9e7CEA3DedcA5984780Bafc599bD69ADd087D56",
      "0x8AC76a51cc950d9822D68b83fE1Ad97B32Cd580d",
      "0x55d398326f99059fF775485246999027B3197955",
      "0x2170Ed0880ac9A755fd29B2688956BD959F933F8"
    ]
  ],
  "numDeployments": 2,
  "solcInputHash": "6706525d7cf8761db6896821476dc820",
  "bytecode": "0x608060405234610165576109488038038061001981610180565b92833981019060408183031261016557610032816101a5565b916020908183015160018060401b039384821161016557019381601f860112156101655784519184831161016a578260051b9584610071818901610180565b8095815201908582988201019283116101655785809101915b83831061014d575050600080546001600160a01b0319166001600160a01b0394851617815593519592939286119150610139905057680100000000000000008411610139576001948554858755808610610112575b5092858252808220915b8581106100ff5760405161078e90816101ba8239f35b84518416838201559381019386016100e9565b868352868686852092830192015b82811061012e5750506100df565b848155018790610120565b634e487b7160e01b81526041600452602490fd5b8190610158846101a5565b815201910190859061008a565b600080fd5b634e487b7160e01b600052604160045260246000fd5b6040519190601f01601f191682016001600160401b0381118382101761016a57604052565b51906001600160a01b03821682036101655756fe6080604052600436101561001257600080fd5b6000803560e01c63ac41865a1461002857600080fd5b3461006f57604036600319011261006f576001600160a01b039060043590828216820361006f57602435928316830361006f5760206100678484610252565b604051908152f35b80fd5b90601f8019910116810190811067ffffffffffffffff82111761009457604052565b634e487b7160e01b600052604160045260246000fd5b908160209103126100c957516001600160a01b03811681036100c95790565b600080fd5b506040513d6000823e3d90fd5b51906001600160701b03821682036100c957565b908160609103126100c957610103816100db565b916040610112602084016100db565b92015163ffffffff811681036100c95790565b908160209103126100c9575160ff811681036100c95790565b80156101bd57600190602081108216604e82108316176101b5578190600a925b80821161018c57505081600019048111610176570290565b634e487b7160e01b600052601160045260246000fd5b909280600019048111610176578184166101ac575b800292811c9061015e565b809202916101a1565b9050600a0a90565b50600190565b8181029291811591840414171561017657565b81156101e0570490565b634e487b7160e01b600052601260045260246000fd5b60001981146101765760010190565b60015481101561023c5760016000527fb10e2d527612073b26eecdfd717e6a320cf44b4afac2b0732d9fcbe2b7fa0cf60190600090565b634e487b7160e01b600052603260045260246000fd5b60008054909290610273906001600160a01b03165b6001600160a01b031690565b6040805163e6a4390560e01b8082526001600160a01b038681166004808501919091529086166024840152939591949193919260209182876044818b5afa96871561074b575b899761072c575b506001600160a01b03968716806105e4575060015497895b8981106102ec575050505050505050505090565b8861033c866103126102fd85610205565b905460039190911b1c6001600160a01b031690565b87518781526001600160a01b03808e168c8301908152921660208301529283918291604090910190565b0381875afa9081156105d7575b8d916105ba575b5016806103665750610361906101f6565b6102d8565b97989a96819a50848695945088935061038c86926103876102fd8b96610205565b610252565b6104949d61048e9c60ff9c6104669761026797610267976102fd976104609796815196630240bc6b60e21b88526060808987818b5afa9889156105ad575b8791889a610571575b50509084869493926001600160701b038091169a1698845195868092630dfe168160e01b82525afa938415610564575b8794610533575b508116921682036104fb579360ff9193836104509461045b99989661045698519384809263313ce56760e01b82525afa9283156104ee575b926104d1575b50501661013e565b906101c3565b6101d6565b6101c3565b9b610205565b905163313ce56760e01b815293849182905afa9283156104c4575b926104975750501661013e565b906101d6565b90565b6104b69250803d106104bd575b6104ae8183610072565b810190610125565b3880610448565b503d6104a4565b6104cc6100ce565b610481565b6104e79250803d106104bd576104ae8183610072565b388f610448565b6104f66100ce565b610442565b9360ff9193836104509461045b999661045698519384809263313ce56760e01b82525afa9283156104ee57926104d15750501661013e565b8291945061055690863d881161055d575b61054e8183610072565b8101906100aa565b939061040a565b503d610544565b61056c6100ce565b610403565b869a50879594939250908161059a92903d106105a6575b6105928183610072565b8101906100ef565b509990919293946103d3565b503d610588565b6105b56100ce565b6103ca565b6105d19150873d891161055d5761054e8183610072565b38610350565b6105df6100ce565b610349565b97505080929497959193505196630240bc6b60e21b885260608886818a5afa97881561071f575b869087996106f2575b509084869493926001600160701b038091169a1698845195868092630dfe168160e01b82525afa9384156106e5575b87946106c4575b5081169216820361068d5793610494969593836104509460ff9461045698519384809263313ce56760e01b82525afa9283156104c457926104975750501661013e565b936104949693836104509460ff9461045698519384809263313ce56760e01b82525afa9283156104c457926104975750501661013e565b829194506106de90863d881161055d5761054e8183610072565b939061064a565b6106ed6100ce565b610643565b8599508694939291506107129060603d81116105a6576105928183610072565b5099909192939450610614565b6107276100ce565b61060b565b610744919750833d851161055d5761054e8183610072565b95386102c0565b6107536100ce565b6102b956fea2646970667358221220dba3ceeeda9a308b90add94105c3f5c4c9d655fef3adc4f0dd0de575b48ad42064736f6c63430008110033",
  "devdoc": {
    "kind": "dev",
    "methods": {},
    "version": 1
  },
  "userdoc": {
    "kind": "user",
    "methods": {
      "getPrice(address,address)": {
        "notice": "Gives price of token in terms of another token"
      }
    },
    "version": 1
  },
  "storageLayout": {
    "storage": [
      {
        "astId": 11116,
        "contract": "contracts/BasicOracle.sol:UniswapV2Source",
        "label": "factory",
        "offset": 0,
        "slot": "0",
        "type": "t_contract(IUniswapV2Factory)27776"
      },
      {
        "astId": 11119,
        "contract": "contracts/BasicOracle.sol:UniswapV2Source",
        "label": "commonPoolTokens",
        "offset": 0,
        "slot": "1",
        "type": "t_array(t_address)dyn_storage"
      }
    ],
    "types": {
      "t_address": {
        "encoding": "inplace",
        "label": "address",
        "numberOfBytes": "20"
      },
      "t_array(t_address)dyn_storage": {
        "base": "t_address",
        "encoding": "dynamic_array",
        "label": "address[]",
        "numberOfBytes": "32"
      },
      "t_contract(IUniswapV2Factory)27776": {
        "encoding": "inplace",
        "label": "contract IUniswapV2Factory",
        "numberOfBytes": "20"
      }
    }
  }
}