{
  "address": "0xC721F4884A1Eb9DdC5cfE2303C894Ffb44929FD4",
  "abi": [
    {
      "anonymous": false,
      "inputs": [
        {
          "indexed": false,
          "internalType": "address",
          "name": "lpTokenAddress",
          "type": "address"
        },
        {
          "indexed": false,
          "internalType": "uint256",
          "name": "amount",
          "type": "uint256"
        }
      ],
      "name": "Burn",
      "type": "event"
    },
    {
      "inputs": [
        {
          "internalType": "address",
          "name": "lpTokenAddress",
          "type": "address"
        },
        {
          "internalType": "uint256",
          "name": "amount",
          "type": "uint256"
        },
        {
          "internalType": "address",
          "name": "self",
          "type": "address"
        }
      ],
      "name": "burn",
      "outputs": [
        {
          "internalType": "address[]",
          "name": "",
          "type": "address[]"
        },
        {
          "internalType": "uint256[]",
          "name": "",
          "type": "uint256[]"
        }
      ],
      "stateMutability": "payable",
      "type": "function"
    },
    {
      "inputs": [
        {
          "internalType": "address",
          "name": "lpTokenAddress",
          "type": "address"
        },
        {
          "internalType": "uint256",
          "name": "amount",
          "type": "uint256"
        }
      ],
      "name": "getUnderlyingAmount",
      "outputs": [
        {
          "internalType": "address[]",
          "name": "underlying",
          "type": "address[]"
        },
        {
          "internalType": "uint256[]",
          "name": "amounts",
          "type": "uint256[]"
        }
      ],
      "stateMutability": "view",
      "type": "function"
    },
    {
      "inputs": [
        {
          "internalType": "address",
          "name": "lpTokenAddress",
          "type": "address"
        }
      ],
      "name": "getUnderlyingTokens",
      "outputs": [
        {
          "internalType": "address[]",
          "name": "",
          "type": "address[]"
        },
        {
          "internalType": "uint256[]",
          "name": "",
          "type": "uint256[]"
        }
      ],
      "stateMutability": "view",
      "type": "function"
    },
    {
      "inputs": [
        {
          "internalType": "address",
          "name": "toMint",
          "type": "address"
        },
        {
          "internalType": "address[]",
          "name": "underlyingTokens",
          "type": "address[]"
        },
        {
          "internalType": "uint256[]",
          "name": "underlyingAmounts",
          "type": "uint256[]"
        },
        {
          "internalType": "address",
          "name": "receiver",
          "type": "address"
        },
        {
          "internalType": "address",
          "name": "self",
          "type": "address"
        }
      ],
      "name": "mint",
      "outputs": [
        {
          "internalType": "uint256",
          "name": "",
          "type": "uint256"
        }
      ],
      "stateMutability": "payable",
      "type": "function"
    },
    {
      "inputs": [
        {
          "internalType": "address",
          "name": "toMint",
          "type": "address"
        },
        {
          "internalType": "address[]",
          "name": "underlyingTokens",
          "type": "address[]"
        },
        {
          "internalType": "uint256[]",
          "name": "underlyingAmounts",
          "type": "uint256[]"
        }
      ],
      "name": "simulateMint",
      "outputs": [
        {
          "internalType": "uint256",
          "name": "minted",
          "type": "uint256"
        }
      ],
      "stateMutability": "view",
      "type": "function"
    },
    {
      "inputs": [
        {
          "internalType": "address",
          "name": "token",
          "type": "address"
        }
      ],
      "name": "testSupported",
      "outputs": [
        {
          "internalType": "bool",
          "name": "",
          "type": "bool"
        }
      ],
      "stateMutability": "view",
      "type": "function"
    },
    {
      "stateMutability": "payable",
      "type": "receive"
    }
  ],
  "transactionHash": "0x486a2e3f3809b36a2292a5062b86df4cc4c8b2f46197eea6b19046e66fc83f31",
  "args": [],
  "numDeployments": 2,
  "solcInputHash": "6706525d7cf8761db6896821476dc820",
  "bytecode": "0x6080806040523461001657610d58908161001c8239f35b600080fdfe6080604081815260049182361015610022575b505050361561002057600080fd5b005b600090813560e01c9081636331f17f1461088d57508063656dc2e414610859578063b54c04ec1461082a578063b8ce670d146105ab578063d65bd6161461019e5763feff3e8d03610012573461019b57606036600319011261019b57610086610973565b67ffffffffffffffff602435818111610197576100a69036908701610a84565b506044359081116101935760206100c1869236908401610af2565b855163182df0f560e01b815290939092839182906001600160a01b03165afa928315610188579261014e575b506100f790610b68565b5191670de0b6b3a76400009283810293818504149015171561013957811561012457602093505191048152f35b601284634e487b7160e01b6000525260246000fd5b601184634e487b7160e01b6000525260246000fd5b9091506020813d8211610180575b8161016960209383610a4a565b8101031261017b5751906100f76100ed565b600080fd5b3d915061015c565b8451903d90823e3d90fd5b8280fd5b8380fd5b80fd5b509060a03660031901126105a7576101b4610973565b9260249267ffffffffffffffff8435818111610193576101d79036908501610a84565b90604435908111610193576101ef9036908501610af2565b606435956001600160a01b038088169390919084890361017b576084358381160361017b57828a16938851936370a0823160e01b92838652308a87015260209c8d8787818b5afa96871561059d578a9761056e575b5073a07c5b74c9b40447a954e1466938b865b6bbea368803610434575061026a90610b68565b511661027582610b68565b51813b15610430578890858b838e519586948593632e1a7d4d60e01b85528401525af1801561042657908891610412575b50506102b190610b68565b51843b1561040e578688918a5192838092631249c58b60e01b8252895af18015610404578b929188916103e7575b50505b88519283918252308983015281865afa9081156103dd5790899493929186916103aa575b509061031191610b9f565b9687923003610324575b50508451908152f35b865163a9059cbb60e01b81526001600160a01b039091169581019586526020860192909252909384919082908590829060400103925af190811561039f5750610372575b808484828061031b565b61039190843d8611610398575b6103898183610a4a565b810190610b50565b5038610368565b503d61037f565b8351903d90823e3d90fd5b8581939692503d83116103d6575b6103c28183610a4a565b8101031261017b5751889390610311610306565b503d6103b8565b87513d87823e3d90fd5b6103f391929350610a04565b61040057899086386102df565b8580fd5b89513d89823e3d90fd5b8680fd5b61041b90610a04565b61040e5786386102a6565b8a513d8a823e3d90fd5b8880fd5b9690939b9295899b9892959d995b85518110156104ff576104a38b8b8f8f8c918e9161046e888f8f8261046691610b8b565b511695610b8b565b51945163095ea7b360e01b81526001600160a01b03909316908301908152602081019490945290948593849291839160400190565b03925af180156104f3576104d6575b5060001981146104c457600101610442565b634e487b7160e01b8d5260118c528e8dfd5b6104ec908c8d3d10610398576103898183610a4a565b50386104b2565b8e8c51903d90823e3d90fd5b509591979a989c94509550610516919a9250610b68565b5188519063140e25ad60e31b8252888201528a8184818a895af1801561040457908b91610545575b50906102e2565b813d8311610567575b6105588183610a4a565b8101031261017b57893861053e565b503d61054e565b9096508d81813d8311610596575b6105868183610a4a565b8101031261017b57519538610244565b503d61057c565b8c513d8c823e3d90fd5b5080fd5b509060603660031901126105a7576105c1610973565b602435939092906001600160a01b039060443582811603610193579085939291818616916105ee87610c1c565b50855163095ea7b360e01b81526001600160a01b0390981683890190815260208181019a909a52909790899082908190604001038188885af180156107975761080d575b508061063d88610b68565b51169285519689886024816370a0823160e01b9889825230898301525afa97881561080357908a929187996107cf575b509060248793928951948593849263db006a7560e01b8452898401525af180156107975790899392916107a1575b5047610738575b6024906106ae89610b68565b51169386519485938492835230908301525afa91821561039f5791610709575b50610705926106f1918351966106e388610a2e565b600188523681890137610b9f565b6106fa85610b68565b525192839283610989565b0390f35b90508481813d8311610731575b6107208183610a4a565b8101031261017b57516107056106ce565b503d610716565b9091504773bb4cdb9cbd36b01bd1cbaebf2de08d9173bc095c803b1561040057859084885180948193630d0e30db60e41b83525af18015610797579089939291610783575b506106a2565b9461079060249296610a04565b949061077d565b86513d87823e3d90fd5b839192933d83116107c8575b6107b78183610a4a565b81010312610197579087913861069b565b503d6107ad565b83819394929a503d83116107fc575b6107e88183610a4a565b81010312610400575196899190602461066d565b503d6107de565b87513d88823e3d90fd5b61082390893d8b11610398576103898183610a4a565b5038610632565b5090346105a75760203660031901126105a75760209061085061084b610973565b610bc2565b90519015158152f35b5090346105a75760203660031901126105a7576107059061088061087b610973565b610c1c565b9290915192839283610989565b90508284346101975781600319360112610197576108a9610973565b63182df0f560e01b8452602094602435929091868683816001600160a01b0385165afa958615610969578396610938575b506108e490610c1c565b50948451966108f288610a2e565b60018852368189013783810293818504149015171561092557505090670de0b6b3a764000061070592046106fa85610b68565b634e487b7160e01b825260119052602490fd5b9095508681813d8311610962575b6109508183610a4a565b810103126101935751946108e46108da565b503d610946565b85513d85823e3d90fd5b600435906001600160a01b038216820361017b57565b6040810190604081528251809252606081019160208094019060005b8181106109e7575050508281830391015281808451928381520193019160005b8281106109d3575050505090565b8351855293810193928101926001016109c5565b82516001600160a01b0316855293850193918501916001016109a5565b67ffffffffffffffff8111610a1857604052565b634e487b7160e01b600052604160045260246000fd5b6040810190811067ffffffffffffffff821117610a1857604052565b90601f8019910116810190811067ffffffffffffffff821117610a1857604052565b67ffffffffffffffff8111610a185760051b60200190565b81601f8201121561017b57803591610a9b83610a6c565b92610aa96040519485610a4a565b808452602092838086019260051b82010192831161017b578301905b828210610ad3575050505090565b81356001600160a01b038116810361017b578152908301908301610ac5565b81601f8201121561017b57803591610b0983610a6c565b92610b176040519485610a4a565b808452602092838086019260051b82010192831161017b578301905b828210610b41575050505090565b81358152908301908301610b33565b9081602091031261017b5751801515810361017b5790565b805115610b755760200190565b634e487b7160e01b600052603260045260246000fd5b8051821015610b755760209160051b010190565b91908203918211610bac57565b634e487b7160e01b600052601160045260246000fd5b604051633d9ea3a160e01b815290602090829060049082906001600160a01b03165afa60009181610bfc575b50610bf95750600090565b90565b610c1591925060203d8111610398576103898183610a4a565b9038610bee565b9060405191610c2a83610a2e565b6001835260209081368186013760405191610c4483610a2e565b600183528036818501376001610c5986610b68565b526001600160a01b0391821673a07c5b74c9b40447a954e1466938b865b6bbea368114610cfc578160049160405192838092636f307dc360e01b82525afa918215610cf057600092610cba575b505090610cb283610b68565b911690529190565b81813d8311610ce9575b610cce8183610a4a565b810103126105a7575190828216820361019b57503880610ca6565b503d610cc4565b6040513d6000823e3d90fd5b50505073bb4cdb9cbd36b01bd1cbaebf2de08d9173bc095c610d1d82610b68565b52919056fea2646970667358221220baec82aedce27b91f945c30801a4eb0bcf49ada9574c6c83216e81c36e135f0f64736f6c63430008110033",
  "devdoc": {
    "kind": "dev",
    "methods": {},
    "version": 1
  },
  "userdoc": {
    "kind": "user",
    "methods": {},
    "version": 1
  },
  "storageLayout": {
    "storage": [],
    "types": null
  }
}