{
  "address": "0xFF657Bd1FAEe5802A2dBd4f686fEd2ee495f2396",
  "abi": [
    {
      "anonymous": false,
      "inputs": [
        {
          "indexed": false,
          "internalType": "uint8",
          "name": "version",
          "type": "uint8"
        }
      ],
      "name": "Initialized",
      "type": "event"
    },
    {
      "inputs": [
        {
          "internalType": "uint256",
          "name": "positionId",
          "type": "uint256"
        }
      ],
      "name": "checkLiquidate",
      "outputs": [
        {
          "internalType": "uint256",
          "name": "index",
          "type": "uint256"
        },
        {
          "internalType": "bool",
          "name": "liquidate",
          "type": "bool"
        }
      ],
      "stateMutability": "view",
      "type": "function"
    },
    {
      "inputs": [
        {
          "internalType": "uint256",
          "name": "positionId",
          "type": "uint256"
        },
        {
          "internalType": "address",
          "name": "inTermsOf",
          "type": "address"
        }
      ],
      "name": "estimateValue",
      "outputs": [
        {
          "internalType": "uint256",
          "name": "",
          "type": "uint256"
        }
      ],
      "stateMutability": "view",
      "type": "function"
    },
    {
      "inputs": [
        {
          "internalType": "uint256",
          "name": "positionId",
          "type": "uint256"
        }
      ],
      "name": "getPosition",
      "outputs": [
        {
          "components": [
            {
              "components": [
                {
                  "internalType": "address",
                  "name": "user",
                  "type": "address"
                },
                {
                  "internalType": "address",
                  "name": "bank",
                  "type": "address"
                },
                {
                  "internalType": "uint256",
                  "name": "bankToken",
                  "type": "uint256"
                },
                {
                  "internalType": "uint256",
                  "name": "amount",
                  "type": "uint256"
                },
                {
                  "components": [
                    {
                      "internalType": "address",
                      "name": "watchedToken",
                      "type": "address"
                    },
                    {
                      "internalType": "address",
                      "name": "liquidateTo",
                      "type": "address"
                    },
                    {
                      "internalType": "bool",
                      "name": "lessThan",
                      "type": "bool"
                    },
                    {
                      "internalType": "uint256",
                      "name": "liquidationPoint",
                      "type": "uint256"
                    },
                    {
                      "internalType": "uint256",
                      "name": "slippage",
                      "type": "uint256"
                    }
                  ],
                  "internalType": "struct LiquidationCondition[]",
                  "name": "liquidationPoints",
                  "type": "tuple[]"
                }
              ],
              "internalType": "struct Position",
              "name": "position",
              "type": "tuple"
            },
            {
              "components": [
                {
                  "internalType": "address",
                  "name": "lpToken",
                  "type": "address"
                },
                {
                  "internalType": "address",
                  "name": "manager",
                  "type": "address"
                },
                {
                  "internalType": "uint256",
                  "name": "idInManager",
                  "type": "uint256"
                }
              ],
              "internalType": "struct BankTokenInfo",
              "name": "bankTokenInfo",
              "type": "tuple"
            },
            {
              "internalType": "address[]",
              "name": "underlyingTokens",
              "type": "address[]"
            },
            {
              "internalType": "uint256[]",
              "name": "underlyingAmounts",
              "type": "uint256[]"
            },
            {
              "internalType": "uint256[]",
              "name": "underlyingValues",
              "type": "uint256[]"
            },
            {
              "internalType": "address[]",
              "name": "rewardTokens",
              "type": "address[]"
            },
            {
              "internalType": "uint256[]",
              "name": "rewardAmounts",
              "type": "uint256[]"
            },
            {
              "internalType": "uint256[]",
              "name": "rewardValues",
              "type": "uint256[]"
            },
            {
              "internalType": "uint256",
              "name": "usdValue",
              "type": "uint256"
            }
          ],
          "internalType": "struct PositionData",
          "name": "",
          "type": "tuple"
        }
      ],
      "stateMutability": "view",
      "type": "function"
    },
    {
      "inputs": [
        {
          "internalType": "uint256",
          "name": "positionId",
          "type": "uint256"
        }
      ],
      "name": "getPositionRewards",
      "outputs": [
        {
          "internalType": "address[]",
          "name": "rewards",
          "type": "address[]"
        },
        {
          "internalType": "uint256[]",
          "name": "rewardAmounts",
          "type": "uint256[]"
        },
        {
          "internalType": "uint256[]",
          "name": "rewardValues",
          "type": "uint256[]"
        }
      ],
      "stateMutability": "view",
      "type": "function"
    },
    {
      "inputs": [
        {
          "internalType": "uint256",
          "name": "positionId",
          "type": "uint256"
        }
      ],
      "name": "getPositionTokens",
      "outputs": [
        {
          "internalType": "address[]",
          "name": "tokens",
          "type": "address[]"
        },
        {
          "internalType": "uint256[]",
          "name": "amounts",
          "type": "uint256[]"
        },
        {
          "internalType": "uint256[]",
          "name": "values",
          "type": "uint256[]"
        }
      ],
      "stateMutability": "view",
      "type": "function"
    },
    {
      "inputs": [
        {
          "internalType": "address",
          "name": "_manager",
          "type": "address"
        }
      ],
      "name": "initialize",
      "outputs": [],
      "stateMutability": "nonpayable",
      "type": "function"
    },
    {
      "inputs": [
        {
          "internalType": "address",
          "name": "lpToken",
          "type": "address"
        }
      ],
      "name": "recommendBank",
      "outputs": [
        {
          "internalType": "address[]",
          "name": "",
          "type": "address[]"
        },
        {
          "internalType": "uint256[]",
          "name": "",
          "type": "uint256[]"
        }
      ],
      "stateMutability": "view",
      "type": "function"
    }
  ],
  "transactionHash": "0x7baf5711ad6f06ed55f7261f372b5e85cf8ef9bb981d23054e417a0bb2084fd8",
  "args": [],
  "numDeployments": 18,
  "solcInputHash": "752d9709abf8ce296c7fa7fd42f9d9b8",
  "bytecode": "0x6080806040523461001657611caf908161001c8239f35b600080fdfe6080604052600436101561001257600080fd5b60003560e01c8063151ab1aa14610cb957806315f28b2c14610c7f57806338af1dac146108ad57806344e0b33d146105e1578063c40f94c5146105af578063c4d66de8146104635763eb02c3011461006957600080fd5b3461040f57602036600319011261040f5760405160043561008982610d99565b60405160a0810181811067ffffffffffffffff82111761044d57602493600092610100926040528381528360208201528360408201528360608201526060608082015281526040516100da81610db6565b83815283602082015283604082015260208201526060604082015260608082015260606080820152606060a0820152606060c0820152606060e08201520152600060018060a01b03815460101c166040519384809263eb02c30160e01b82528560048301525afa91821561041c57600092610428575b5060018060a01b036020830151169060606040840151602460405180958193636e10637d60e11b835260048301525afa91821561041c576000926000916000916103c7575b506101ab6101a2846115fa565b92909195611a08565b9691949095604051986101bd8a610db6565b6001600160a01b039081168a5216602089015260408801526101f06101e184611c41565b6101ea88611c41565b90611c34565b96604051986101fe8a610d99565b8952602089015260408801526060870152608086015260a085015260c084015260e0830152610100820152604051602081528151916101606020830152608061022083019360018060a01b0381511661018085015260018060a01b036020820151166101a085015260408101516101c085015260608101516101e085015201519260a061020084015283518091526020610240840194019060005b8181106103745750505061010061036783946040602085015160018060a01b038151168288015260018060a01b0360208201511660608801520151608086015261035161033c610329610315610301604089015195601f1996878c83030160a08d0152610cd8565b6060890151868b83030160c08c0152610d15565b6080880151858a83030160e08b0152610d15565b60a08701518489830301878a0152610cd8565b60c08601518388830301610120890152610d15565b9060e08501519086830301610140870152610d15565b9101516101608301520390f35b825180516001600160a01b03908116885260208281015190911681890152604080830151151590890152606080830151908901526080918201519188019190915260a09096019590920191600101610299565b935050506060823d606011610414575b816103e460609383610dee565b8101031261040f576103f582610e10565b604061040360208501610e10565b93015190929038610195565b600080fd5b3d91506103d7565b6040513d6000823e3d90fd5b6104469192503d806000833e61043e8183610dee565b810190610e49565b9038610150565b634e487b7160e01b600052604160045260246000fd5b3461040f57602036600319011261040f5761047c610d83565b6000549060ff8260081c1615918280936105a2575b801561058b575b1561052f5760ff1981166001176000558261051d575b506000805462010000600160b01b0319811660109390931b62010000600160b01b031692831790915590916104df57005b610100600160b01b03191617600055604051600181527f7f26b83ff96e1f2b6a682f133852f6798a09c465da95921460cefb384740249890602090a1005b61ffff191661010117600055826104ae565b60405162461bcd60e51b815260206004820152602e60248201527f496e697469616c697a61626c653a20636f6e747261637420697320616c72656160448201526d191e481a5b9a5d1a585b1a5e995960921b6064820152608490fd5b50303b1580156104985750600160ff821614610498565b50600160ff821610610491565b3461040f57602036600319011261040f576105dd6105ce600435611a08565b60409391935193849384610d49565b0390f35b3461040f5760208060031936011261040f576004906105fe610d83565b9060018060a01b0390600082815460101c166040519586809263219a3f0760e11b82525afa93841561041c57600094610814575b506060939284929081169060005b85518110156107ea576040826106568389611554565b5116815191828092638084c91d60e01b825287600483015260249485915afa90811561041c576000906000926107aa575b5061069d575b505061069890611545565b610640565b90959197836106ac8a8a611554565b511692805193600194858101809111610795576106c8906115c8565b91856000815b610766575b50506106e0905183611554565b529681519084820180921161075257506106f9906115c8565b926000815b61071e575b50509061071561069893925183611554565b5296908861068d565b825181101561074d5761074781610736849386611554565b516107418289611554565b52611545565b906106fe565b610703565b634e487b7160e01b60009081526011600452fd5b825181101561079057808961077e61078a9386611554565b51166107418288611554565b816106ce565b6106d3565b89634e487b7160e01b60005260116004526000fd5b9150506040813d6040116107e2575b816107c660409383610dee565b8101031261040f57856107d882610e3c565b910151908a610687565b3d91506107b9565b610807856105dd868a604051948594604086526040860190610cd8565b9184830390850152610d15565b9093503d806000833e6108278183610dee565b810190848183031261040f5780519067ffffffffffffffff821161040f57019080601f8301121561040f57815161085d81610e24565b9261086b6040519485610dee565b818452868085019260051b82010192831161040f578601905b828210610895575050509284610632565b8151858116810361040f578152908601908601610884565b3461040f57602036600319011261040f576000805460405163eb02c30160e01b815260048035908201529160109190911c6001600160a01b031690808084602481865afa93841561041c57600094610c62575b5060405163a9d75b2b60e01b815291602083600481875afa92831561041c57600093610c26575b5060005b60808601518051821015610c17578161094391611554565b5180516001600160a01b0316868103610a7e575061096385600435611188565b670de0b6b3a7640000908082810204821481151715610a685760405163313ce56760e01b8152916020836004816001600160a01b038c165afa92831561041c576109c0936109b991600091610a39575b50611597565b91026115a8565b60408201511591821580610a2c575b610a195782610a0b575b50506109f1576109ea608091611545565b905061092b565b93505050506040915060015b825191825215156020820152f35b6060015110905087806109d9565b50505093505050506040915060016109fd565b50606081015182106109cf565b610a5b915060203d602011610a61575b610a538183610dee565b81019061157e565b8c6109b3565b503d610a49565b634e487b7160e01b600052601160045260246000fd5b604051633c6518cd60e11b81526020816004818b5afa90811561041c57600091610bdd575b5060405163313ce56760e01b815290602082600481865afa90811561041c57610b1793610adb8a93602095600091610bc05750611597565b604051631b5bc02960e21b81526001600160a01b0392831660048201526024810191909152921660448301529092839190829081906064820190565b03916001600160a01b03165afa90811561041c57600091610b8e575b50670de0b6b3a7640000908082810204821481151715610a685760405163313ce56760e01b8152916020836004816001600160a01b038c165afa92831561041c57610b89936109b991600091610a395750611597565b6109c0565b90506020813d602011610bb8575b81610ba960209383610dee565b8101031261040f575188610b33565b3d9150610b9c565b610bd79150863d8811610a6157610a538183610dee565b8e6109b3565b90506020813d602011610c0f575b81610bf860209383610dee565b8101031261040f57610c0990610e10565b89610aa3565b3d9150610beb565b505092509050604092506109fd565b9092506020813d602011610c5a575b81610c4260209383610dee565b8101031261040f57610c5390610e10565b9185610927565b3d9150610c35565b610c789194503d806000833e61043e8183610dee565b9284610900565b3461040f57604036600319011261040f576024356001600160a01b038116810361040f57610cb1602091600435611188565b604051908152f35b3461040f57602036600319011261040f576105dd6105ce6004356115fa565b90815180825260208080930193019160005b828110610cf8575050505090565b83516001600160a01b031685529381019392810192600101610cea565b90815180825260208080930193019160005b828110610d35575050505090565b835185529381019392810192600101610d27565b91610d7290610d64610d809593606086526060860190610cd8565b908482036020860152610d15565b916040818403910152610d15565b90565b600435906001600160a01b038216820361040f57565b610120810190811067ffffffffffffffff82111761044d57604052565b6060810190811067ffffffffffffffff82111761044d57604052565b60a0810190811067ffffffffffffffff82111761044d57604052565b90601f8019910116810190811067ffffffffffffffff82111761044d57604052565b51906001600160a01b038216820361040f57565b67ffffffffffffffff811161044d5760051b60200190565b5190811515820361040f57565b906020808383031261040f57825167ffffffffffffffff9384821161040f57019060a090818385031261040f57604090815195610e8587610dd2565b610e8e85610e10565b8752610e9b828601610e10565b82880152828501518388015260609081860151828901526080958681015191821161040f57019286601f8501121561040f57835191610ed983610e24565b97610ee68351998a610dee565b8389528487818b0195028701019581871161040f578501935b868510610f1457505050505050505082015290565b878583031261040f578588918551610f2b81610dd2565b610f3488610e10565b8152610f41838901610e10565b83820152610f50878901610e3c565b8782015285880151868201528b8801518c820152815201940193610eff565b919060408382031261040f57825167ffffffffffffffff9081811161040f5784019082601f8301121561040f57815191610fa883610e24565b90610fb66040519283610dee565b838252602093848084019160051b8301019186831161040f5785809101915b8383106110485750505050948281015191821161040f57019180601f8401121561040f57825161100481610e24565b936110126040519586610dee565b818552838086019260051b82010192831161040f578301905b828210611039575050505090565b8151815290830190830161102b565b819061105384610e10565b8152019101908590610fd5565b6040516020810181811067ffffffffffffffff82111761044d576040526000815290565b80519061109960609283855283850190610cd8565b6110af6020918284015186820384880152610d15565b9260408093015194838186039101528451928385528285019083808660051b88010197019560009182945b8786106110ed5750505050505050505090565b90919293949596979887601f1991828682030188528b519260018060a01b038085511683528385015116838301528584015186830152848401518583015260808094015160a0809584015280518095840152885b858110611173575050928291600194601f60c0938b858286010152011601019b019601960194979695939291906110da565b81810185015184820160c001528c9401611141565b9160018060a01b039160009183835460101c169460409586519663eb02c30160e01b88528260048901528588602481855afa97881561153b578698611515575b50602088810151828a018051845163374598ad60e01b81526004810191909152958a166001600160a01b031660248701529089169994959194909392919088878c8180604481015b03915afa94851561150b57908a9b8a9b999a92839984986114e5575b50519151855163bfb28ea360e01b81526004810193909352999099166001600160a01b03166024820152969795969586908180604481015b03915afa9182156114dc5789958a936114b2575b5061128e6112898951885190611c34565b6115c8565b988a5b8c8a518210156112bd57908b610741826112b8946112b08f8390611554565b511692611554565b611291565b50509091929394959699989798805b8c895182101561130157908b6107416112f66112fc946112ec858f611554565b5116925184611c34565b8d611554565b6112cc565b50509295985092955092959761131d6112898951885190611c34565b99825b8b8a518210156113495790611344916107418261133d818f611554565b5192611554565b611320565b50509091929394959698835b885181101561138857808a6107418e61137d611374611383968f611554565b51935185611c34565b90611554565b611355565b509296509397600493975081959961139e611060565b908a51946113ab86610db6565b855283850152898401528851633c6518cd60e11b815293849182905afa9182156114a85790849392918692611464575b508261140491895198899586948593639b1fbbe760e01b85528d60048601526044850190611084565b911660248301520392165afa93841561145957508193611425575b50505090565b9091809350813d8311611452575b61143d8183610dee565b8101031261144f57505138808061141f565b80fd5b503d611433565b51913d9150823e3d90fd5b809250849193943d83116114a1575b61147d8183610dee565b8101031261149d579061140483611495869594610e10565b9291506113db565b8480fd5b503d611473565b87513d87823e3d90fd5b9092506114d29195503d808b833e6114ca8183610dee565b810190610f6f565b9490949138611278565b513d8a823e3d90fd5b611264999a506115009198503d8086833e6114ca8183610dee565b90999890979061122c565b83513d8b823e3d90fd5b611210949392919850611531903d8089833e61043e8183610dee565b97909192936111c8565b81513d88823e3d90fd5b6000198114610a685760010190565b80518210156115685760209160051b010190565b634e487b7160e01b600052603260045260246000fd5b9081602091031261040f575160ff8116810361040f5790565b60ff16604d8111610a6857600a0a90565b81156115b2570490565b634e487b7160e01b600052601260045260246000fd5b906115d282610e24565b6115df6040519182610dee565b82815280926115f0601f1991610e24565b0190602036910137565b9060018060a01b039060009180835460101c1692604093845163eb02c30160e01b815260049387858301528382602481865afa9182156119fe5784926119e2575b50865191633c6518cd60e11b835260209384848881845afa93841561199a578794939291869188956119a4575b508a5163a9d75b2b60e01b815298899182905afa96871561199a578697611958575b508085015190890151895163374598ad60e01b81528581019182529a83166001600160a01b0316602082015286918b9190841690829081906040015b03915afa91821561194e578599869361192c575b50828a6116e682611c41565b156118625750506117369798998287921693611700611060565b908c519261170d84610db6565b8352878301528b8201528a5180998192639d9c503b60e01b835288888401526024830190611084565b0381855afa9081156118585785978692611839575b5081978061175982516115c8565b99885b835181101561182a578d898c8a6117bc89611777878b611554565b511692611784878d611554565b519551631b5bc02960e21b81526001600160a01b03948516938101938452602084019690965290921660408201528391829160600190565b03818b5afa90811561181f57908d92918c916117e6575b50610741826117e194611554565b61175c565b809293508b8092503d8311611818575b6118008183610dee565b8101031261181457518c91906107416117d3565b8a80fd5b503d6117f6565b508e513d8c823e3d90fd5b509a98509a5050505050505050565b90975061185091503d8087833e6114ca8183610dee565b90963861174b565b89513d87823e3d90fd5b959350995092979550845b84518110156118925780670de0b6b3a764000061074161188d938d611554565b61186d565b508495976118da97996118a3611060565b908a51966118b088610db6565b87528487015289860152885197889586948593639d9c503b60e01b85528401526024830190611084565b0392165afa92831561192257508092611906575b50508091610d806118ff83516115c8565b92516115c8565b61191a92503d8091833e6114ca8183610dee565b5038806118ee565b51903d90823e3d90fd5b9092506119449199503d8087833e6114ca8183610dee565b98909891386116da565b88513d87823e3d90fd5b9096508481813d8311611993575b6119708183610dee565b8101031261198f576116c6996119868792610e10565b9791509961168a565b8580fd5b503d611966565b89513d88823e3d90fd5b92939450945081813d83116119db575b6119be8183610dee565b8101031261198f5790846119d488959493610e10565b9338611668565b503d6119b4565b6119f79192503d8086833e61043e8183610dee565b903861163b565b87513d86823e3d90fd5b9060018060a01b039060009180835460101c1692604093845163eb02c30160e01b815260049387858301528382602481865afa9182156119fe578492611c18575b50865191633c6518cd60e11b835260209384848881845afa93841561199a57879493929186918895611bda575b508a5163a9d75b2b60e01b815298899182905afa96871561199a578697611b98575b508085015190890151895163bfb28ea360e01b81528581019182529a83166001600160a01b03166020820152989997988691899190841690829081906040015b03915afa9081156118585785978692611b79575b50819780611afa82516115c8565b99885b835181101561182a578d898c8a611b1889611777878b611554565b0381898c165afa90811561181f57908d92918c91611b44575b5061074182611b3f94611554565b611afd565b809293508b8092503d8311611b72575b611b5e8183610dee565b8101031261181457518c9190610741611b31565b503d611b54565b909750611b9091503d8087833e6114ca8183610dee565b909638611aec565b9096508481813d8311611bd3575b611bb08183610dee565b8101031261198f57611ad8979899611bc88792610e10565b979150999897611a98565b503d611ba6565b92939450945081813d8311611c11575b611bf48183610dee565b8101031261198f579084611c0a88959493610e10565b9338611a76565b503d611bea565b611c2d9192503d8086833e61043e8183610dee565b9038611a49565b91908201809211610a6857565b600090815b8151831015611c7357611c67611c6d91611c608585611554565b5190611c34565b92611545565b91611c46565b9150509056fea2646970667358221220de6245d08b27a0edee44362da003999a1ace31182af414ff54c94983e1891f2164736f6c63430008110033",
  "devdoc": {
    "kind": "dev",
    "methods": {},
    "version": 1
  },
  "userdoc": {
    "kind": "user",
    "methods": {},
    "version": 1
  },
  "storageLayout": {
    "storage": [
      {
        "astId": 6,
        "contract": "contracts/ManagerHelper.sol:ManagerHelper",
        "label": "_initialized",
        "offset": 0,
        "slot": "0",
        "type": "t_uint8"
      },
      {
        "astId": 9,
        "contract": "contracts/ManagerHelper.sol:ManagerHelper",
        "label": "_initializing",
        "offset": 1,
        "slot": "0",
        "type": "t_bool"
      },
      {
        "astId": 4560,
        "contract": "contracts/ManagerHelper.sol:ManagerHelper",
        "label": "positionManager",
        "offset": 2,
        "slot": "0",
        "type": "t_contract(PositionsManager)7368"
      }
    ],
    "types": {
      "t_bool": {
        "encoding": "inplace",
        "label": "bool",
        "numberOfBytes": "1"
      },
      "t_contract(PositionsManager)7368": {
        "encoding": "inplace",
        "label": "contract PositionsManager",
        "numberOfBytes": "20"
      },
      "t_uint8": {
        "encoding": "inplace",
        "label": "uint8",
        "numberOfBytes": "1"
      }
    }
  }
}