{
  "address": "0x28403d57FCf0C53d4A6060467F8c2133328313E8",
  "abi": [
    {
      "anonymous": false,
      "inputs": [
        {
          "indexed": true,
          "internalType": "uint256",
          "name": "positionId",
          "type": "uint256"
        },
        {
          "indexed": false,
          "internalType": "uint256",
          "name": "amount",
          "type": "uint256"
        },
        {
          "indexed": false,
          "internalType": "uint256",
          "name": "usdValue",
          "type": "uint256"
        },
        {
          "indexed": false,
          "internalType": "uint256",
          "name": "liquidationIndex",
          "type": "uint256"
        }
      ],
      "name": "BotLiquidate",
      "type": "event"
    },
    {
      "anonymous": false,
      "inputs": [
        {
          "indexed": true,
          "internalType": "uint256",
          "name": "positionId",
          "type": "uint256"
        },
        {
          "indexed": false,
          "internalType": "uint256",
          "name": "amount",
          "type": "uint256"
        },
        {
          "indexed": false,
          "internalType": "uint256",
          "name": "usdValue",
          "type": "uint256"
        }
      ],
      "name": "Deposit",
      "type": "event"
    },
    {
      "anonymous": false,
      "inputs": [
        {
          "indexed": true,
          "internalType": "uint256",
          "name": "positionId",
          "type": "uint256"
        },
        {
          "indexed": false,
          "internalType": "uint256",
          "name": "amount",
          "type": "uint256"
        },
        {
          "indexed": false,
          "internalType": "uint256",
          "name": "usdValue",
          "type": "uint256"
        }
      ],
      "name": "Harvest",
      "type": "event"
    },
    {
      "anonymous": false,
      "inputs": [
        {
          "indexed": true,
          "internalType": "uint256",
          "name": "positionId",
          "type": "uint256"
        },
        {
          "indexed": false,
          "internalType": "uint256",
          "name": "amount",
          "type": "uint256"
        },
        {
          "indexed": false,
          "internalType": "uint256",
          "name": "usdValue",
          "type": "uint256"
        }
      ],
      "name": "HarvestRecompound",
      "type": "event"
    },
    {
      "anonymous": false,
      "inputs": [
        {
          "indexed": true,
          "internalType": "uint256",
          "name": "positionId",
          "type": "uint256"
        },
        {
          "indexed": false,
          "internalType": "uint256",
          "name": "amount",
          "type": "uint256"
        },
        {
          "indexed": false,
          "internalType": "uint256",
          "name": "usdValue",
          "type": "uint256"
        }
      ],
      "name": "IncreasePosition",
      "type": "event"
    },
    {
      "anonymous": false,
      "inputs": [
        {
          "indexed": false,
          "internalType": "uint8",
          "name": "version",
          "type": "uint8"
        }
      ],
      "name": "Initialized",
      "type": "event"
    },
    {
      "anonymous": false,
      "inputs": [
        {
          "indexed": true,
          "internalType": "address",
          "name": "previousOwner",
          "type": "address"
        },
        {
          "indexed": true,
          "internalType": "address",
          "name": "newOwner",
          "type": "address"
        }
      ],
      "name": "OwnershipTransferred",
      "type": "event"
    },
    {
      "anonymous": false,
      "inputs": [
        {
          "indexed": true,
          "internalType": "uint256",
          "name": "positionId",
          "type": "uint256"
        },
        {
          "indexed": false,
          "internalType": "uint256",
          "name": "amount",
          "type": "uint256"
        },
        {
          "indexed": false,
          "internalType": "uint256",
          "name": "usdValue",
          "type": "uint256"
        }
      ],
      "name": "PositionClose",
      "type": "event"
    },
    {
      "anonymous": false,
      "inputs": [
        {
          "indexed": true,
          "internalType": "uint256",
          "name": "positionId",
          "type": "uint256"
        },
        {
          "indexed": false,
          "internalType": "uint256",
          "name": "amount",
          "type": "uint256"
        },
        {
          "indexed": false,
          "internalType": "uint256",
          "name": "usdValue",
          "type": "uint256"
        },
        {
          "indexed": false,
          "internalType": "string",
          "name": "reason",
          "type": "string"
        }
      ],
      "name": "Refund",
      "type": "event"
    },
    {
      "anonymous": false,
      "inputs": [
        {
          "indexed": true,
          "internalType": "uint256",
          "name": "positionId",
          "type": "uint256"
        },
        {
          "indexed": false,
          "internalType": "uint256",
          "name": "amount",
          "type": "uint256"
        },
        {
          "indexed": false,
          "internalType": "uint256",
          "name": "usdValue",
          "type": "uint256"
        }
      ],
      "name": "Withdraw",
      "type": "event"
    },
    {
      "inputs": [
        {
          "internalType": "uint256",
          "name": "positionId",
          "type": "uint256"
        },
        {
          "components": [
            {
              "internalType": "address",
              "name": "watchedToken",
              "type": "address"
            },
            {
              "internalType": "address",
              "name": "liquidateTo",
              "type": "address"
            },
            {
              "internalType": "bool",
              "name": "lessThan",
              "type": "bool"
            },
            {
              "internalType": "uint256",
              "name": "liquidationPoint",
              "type": "uint256"
            },
            {
              "internalType": "uint256",
              "name": "slippage",
              "type": "uint256"
            }
          ],
          "internalType": "struct LiquidationCondition[]",
          "name": "_liquidationPoints",
          "type": "tuple[]"
        }
      ],
      "name": "adjustLiquidationPoints",
      "outputs": [],
      "stateMutability": "nonpayable",
      "type": "function"
    },
    {
      "inputs": [
        {
          "internalType": "uint256",
          "name": "",
          "type": "uint256"
        }
      ],
      "name": "banks",
      "outputs": [
        {
          "internalType": "address payable",
          "name": "",
          "type": "address"
        }
      ],
      "stateMutability": "view",
      "type": "function"
    },
    {
      "inputs": [
        {
          "internalType": "uint256",
          "name": "positionId",
          "type": "uint256"
        },
        {
          "internalType": "uint256",
          "name": "liquidationIndex",
          "type": "uint256"
        },
        {
          "internalType": "uint256",
          "name": "liquidationFee",
          "type": "uint256"
        },
        {
          "components": [
            {
              "internalType": "uint256",
              "name": "amountIn",
              "type": "uint256"
            },
            {
              "internalType": "uint256",
              "name": "valueIn",
              "type": "uint256"
            },
            {
              "internalType": "uint256",
              "name": "amountOut",
              "type": "uint256"
            },
            {
              "internalType": "uint256",
              "name": "valueOut",
              "type": "uint256"
            },
            {
              "internalType": "int256",
              "name": "slippage",
              "type": "int256"
            },
            {
              "internalType": "address",
              "name": "tokenIn",
              "type": "address"
            },
            {
              "internalType": "address[]",
              "name": "swappers",
              "type": "address[]"
            },
            {
              "internalType": "address",
              "name": "tokenOut",
              "type": "address"
            },
            {
              "internalType": "address[][]",
              "name": "paths",
              "type": "address[][]"
            }
          ],
          "internalType": "struct SwapPoint[]",
          "name": "swaps",
          "type": "tuple[]"
        },
        {
          "components": [
            {
              "components": [
                {
                  "internalType": "address",
                  "name": "pool",
                  "type": "address"
                },
                {
                  "internalType": "address",
                  "name": "manager",
                  "type": "address"
                },
                {
                  "internalType": "uint256",
                  "name": "tokenId",
                  "type": "uint256"
                },
                {
                  "internalType": "uint256",
                  "name": "liquidity",
                  "type": "uint256"
                },
                {
                  "internalType": "bytes",
                  "name": "data",
                  "type": "bytes"
                }
              ],
              "internalType": "struct Asset",
              "name": "desiredERC721",
              "type": "tuple"
            },
            {
              "internalType": "address",
              "name": "desiredERC20",
              "type": "address"
            },
            {
              "internalType": "uint256",
              "name": "value",
              "type": "uint256"
            },
            {
              "internalType": "address[]",
              "name": "underlying",
              "type": "address[]"
            },
            {
              "internalType": "uint256[]",
              "name": "underlyingValues",
              "type": "uint256[]"
            }
          ],
          "internalType": "struct Conversion[]",
          "name": "conversions",
          "type": "tuple[]"
        }
      ],
      "name": "botLiquidate",
      "outputs": [],
      "stateMutability": "nonpayable",
      "type": "function"
    },
    {
      "inputs": [
        {
          "internalType": "uint256",
          "name": "positionId",
          "type": "uint256"
        },
        {
          "internalType": "string",
          "name": "reason",
          "type": "string"
        }
      ],
      "name": "close",
      "outputs": [],
      "stateMutability": "nonpayable",
      "type": "function"
    },
    {
      "inputs": [],
      "name": "currentOwner",
      "outputs": [
        {
          "internalType": "address",
          "name": "",
          "type": "address"
        }
      ],
      "stateMutability": "view",
      "type": "function"
    },
    {
      "inputs": [
        {
          "components": [
            {
              "internalType": "address",
              "name": "user",
              "type": "address"
            },
            {
              "internalType": "address",
              "name": "bank",
              "type": "address"
            },
            {
              "internalType": "uint256",
              "name": "bankToken",
              "type": "uint256"
            },
            {
              "internalType": "uint256",
              "name": "amount",
              "type": "uint256"
            },
            {
              "components": [
                {
                  "internalType": "address",
                  "name": "watchedToken",
                  "type": "address"
                },
                {
                  "internalType": "address",
                  "name": "liquidateTo",
                  "type": "address"
                },
                {
                  "internalType": "bool",
                  "name": "lessThan",
                  "type": "bool"
                },
                {
                  "internalType": "uint256",
                  "name": "liquidationPoint",
                  "type": "uint256"
                },
                {
                  "internalType": "uint256",
                  "name": "slippage",
                  "type": "uint256"
                }
              ],
              "internalType": "struct LiquidationCondition[]",
              "name": "liquidationPoints",
              "type": "tuple[]"
            }
          ],
          "internalType": "struct Position",
          "name": "position",
          "type": "tuple"
        },
        {
          "internalType": "address[]",
          "name": "suppliedTokens",
          "type": "address[]"
        },
        {
          "internalType": "uint256[]",
          "name": "suppliedAmounts",
          "type": "uint256[]"
        }
      ],
      "name": "deposit",
      "outputs": [
        {
          "internalType": "uint256",
          "name": "",
          "type": "uint256"
        }
      ],
      "stateMutability": "payable",
      "type": "function"
    },
    {
      "inputs": [
        {
          "internalType": "uint256",
          "name": "positionId",
          "type": "uint256"
        },
        {
          "components": [
            {
              "internalType": "address[]",
              "name": "tokens",
              "type": "address[]"
            },
            {
              "internalType": "uint256[]",
              "name": "amounts",
              "type": "uint256[]"
            },
            {
              "components": [
                {
                  "internalType": "address",
                  "name": "pool",
                  "type": "address"
                },
                {
                  "internalType": "address",
                  "name": "manager",
                  "type": "address"
                },
                {
                  "internalType": "uint256",
                  "name": "tokenId",
                  "type": "uint256"
                },
                {
                  "internalType": "uint256",
                  "name": "liquidity",
                  "type": "uint256"
                },
                {
                  "internalType": "bytes",
                  "name": "data",
                  "type": "bytes"
                }
              ],
              "internalType": "struct Asset[]",
              "name": "nfts",
              "type": "tuple[]"
            }
          ],
          "internalType": "struct Provided",
          "name": "provided",
          "type": "tuple"
        },
        {
          "components": [
            {
              "internalType": "uint256",
              "name": "amountIn",
              "type": "uint256"
            },
            {
              "internalType": "uint256",
              "name": "valueIn",
              "type": "uint256"
            },
            {
              "internalType": "uint256",
              "name": "amountOut",
              "type": "uint256"
            },
            {
              "internalType": "uint256",
              "name": "valueOut",
              "type": "uint256"
            },
            {
              "internalType": "int256",
              "name": "slippage",
              "type": "int256"
            },
            {
              "internalType": "address",
              "name": "tokenIn",
              "type": "address"
            },
            {
              "internalType": "address[]",
              "name": "swappers",
              "type": "address[]"
            },
            {
              "internalType": "address",
              "name": "tokenOut",
              "type": "address"
            },
            {
              "internalType": "address[][]",
              "name": "paths",
              "type": "address[][]"
            }
          ],
          "internalType": "struct SwapPoint[]",
          "name": "swaps",
          "type": "tuple[]"
        },
        {
          "components": [
            {
              "components": [
                {
                  "internalType": "address",
                  "name": "pool",
                  "type": "address"
                },
                {
                  "internalType": "address",
                  "name": "manager",
                  "type": "address"
                },
                {
                  "internalType": "uint256",
                  "name": "tokenId",
                  "type": "uint256"
                },
                {
                  "internalType": "uint256",
                  "name": "liquidity",
                  "type": "uint256"
                },
                {
                  "internalType": "bytes",
                  "name": "data",
                  "type": "bytes"
                }
              ],
              "internalType": "struct Asset",
              "name": "desiredERC721",
              "type": "tuple"
            },
            {
              "internalType": "address",
              "name": "desiredERC20",
              "type": "address"
            },
            {
              "internalType": "uint256",
              "name": "value",
              "type": "uint256"
            },
            {
              "internalType": "address[]",
              "name": "underlying",
              "type": "address[]"
            },
            {
              "internalType": "uint256[]",
              "name": "underlyingValues",
              "type": "uint256[]"
            }
          ],
          "internalType": "struct Conversion[]",
          "name": "conversions",
          "type": "tuple[]"
        },
        {
          "internalType": "uint256[]",
          "name": "minAmounts",
          "type": "uint256[]"
        }
      ],
      "name": "depositInExisting",
      "outputs": [],
      "stateMutability": "payable",
      "type": "function"
    },
    {
      "inputs": [],
      "name": "getBanks",
      "outputs": [
        {
          "internalType": "address payable[]",
          "name": "",
          "type": "address[]"
        }
      ],
      "stateMutability": "view",
      "type": "function"
    },
    {
      "inputs": [
        {
          "internalType": "uint256",
          "name": "positionId",
          "type": "uint256"
        }
      ],
      "name": "getPosition",
      "outputs": [
        {
          "components": [
            {
              "internalType": "address",
              "name": "user",
              "type": "address"
            },
            {
              "internalType": "address",
              "name": "bank",
              "type": "address"
            },
            {
              "internalType": "uint256",
              "name": "bankToken",
              "type": "uint256"
            },
            {
              "internalType": "uint256",
              "name": "amount",
              "type": "uint256"
            },
            {
              "components": [
                {
                  "internalType": "address",
                  "name": "watchedToken",
                  "type": "address"
                },
                {
                  "internalType": "address",
                  "name": "liquidateTo",
                  "type": "address"
                },
                {
                  "internalType": "bool",
                  "name": "lessThan",
                  "type": "bool"
                },
                {
                  "internalType": "uint256",
                  "name": "liquidationPoint",
                  "type": "uint256"
                },
                {
                  "internalType": "uint256",
                  "name": "slippage",
                  "type": "uint256"
                }
              ],
              "internalType": "struct LiquidationCondition[]",
              "name": "liquidationPoints",
              "type": "tuple[]"
            }
          ],
          "internalType": "struct Position",
          "name": "position",
          "type": "tuple"
        }
      ],
      "stateMutability": "view",
      "type": "function"
    },
    {
      "inputs": [
        {
          "internalType": "address",
          "name": "user",
          "type": "address"
        }
      ],
      "name": "getPositions",
      "outputs": [
        {
          "internalType": "uint256[]",
          "name": "",
          "type": "uint256[]"
        }
      ],
      "stateMutability": "view",
      "type": "function"
    },
    {
      "inputs": [
        {
          "internalType": "uint256",
          "name": "positionId",
          "type": "uint256"
        },
        {
          "components": [
            {
              "internalType": "uint256",
              "name": "amountIn",
              "type": "uint256"
            },
            {
              "internalType": "uint256",
              "name": "valueIn",
              "type": "uint256"
            },
            {
              "internalType": "uint256",
              "name": "amountOut",
              "type": "uint256"
            },
            {
              "internalType": "uint256",
              "name": "valueOut",
              "type": "uint256"
            },
            {
              "internalType": "int256",
              "name": "slippage",
              "type": "int256"
            },
            {
              "internalType": "address",
              "name": "tokenIn",
              "type": "address"
            },
            {
              "internalType": "address[]",
              "name": "swappers",
              "type": "address[]"
            },
            {
              "internalType": "address",
              "name": "tokenOut",
              "type": "address"
            },
            {
              "internalType": "address[][]",
              "name": "paths",
              "type": "address[][]"
            }
          ],
          "internalType": "struct SwapPoint[]",
          "name": "swaps",
          "type": "tuple[]"
        },
        {
          "components": [
            {
              "components": [
                {
                  "internalType": "address",
                  "name": "pool",
                  "type": "address"
                },
                {
                  "internalType": "address",
                  "name": "manager",
                  "type": "address"
                },
                {
                  "internalType": "uint256",
                  "name": "tokenId",
                  "type": "uint256"
                },
                {
                  "internalType": "uint256",
                  "name": "liquidity",
                  "type": "uint256"
                },
                {
                  "internalType": "bytes",
                  "name": "data",
                  "type": "bytes"
                }
              ],
              "internalType": "struct Asset",
              "name": "desiredERC721",
              "type": "tuple"
            },
            {
              "internalType": "address",
              "name": "desiredERC20",
              "type": "address"
            },
            {
              "internalType": "uint256",
              "name": "value",
              "type": "uint256"
            },
            {
              "internalType": "address[]",
              "name": "underlying",
              "type": "address[]"
            },
            {
              "internalType": "uint256[]",
              "name": "underlyingValues",
              "type": "uint256[]"
            }
          ],
          "internalType": "struct Conversion[]",
          "name": "conversions",
          "type": "tuple[]"
        },
        {
          "internalType": "uint256[]",
          "name": "minAmounts",
          "type": "uint256[]"
        }
      ],
      "name": "harvestAndRecompound",
      "outputs": [
        {
          "internalType": "uint256",
          "name": "",
          "type": "uint256"
        }
      ],
      "stateMutability": "nonpayable",
      "type": "function"
    },
    {
      "inputs": [
        {
          "internalType": "uint256",
          "name": "positionId",
          "type": "uint256"
        }
      ],
      "name": "harvestRewards",
      "outputs": [
        {
          "internalType": "address[]",
          "name": "",
          "type": "address[]"
        },
        {
          "internalType": "uint256[]",
          "name": "",
          "type": "uint256[]"
        }
      ],
      "stateMutability": "nonpayable",
      "type": "function"
    },
    {
      "inputs": [
        {
          "internalType": "address",
          "name": "_universalSwap",
          "type": "address"
        },
        {
          "internalType": "address",
          "name": "_stableToken",
          "type": "address"
        }
      ],
      "name": "initialize",
      "outputs": [],
      "stateMutability": "nonpayable",
      "type": "function"
    },
    {
      "inputs": [
        {
          "internalType": "address",
          "name": "",
          "type": "address"
        }
      ],
      "name": "keepers",
      "outputs": [
        {
          "internalType": "bool",
          "name": "",
          "type": "bool"
        }
      ],
      "stateMutability": "view",
      "type": "function"
    },
    {
      "inputs": [
        {
          "internalType": "uint256",
          "name": "",
          "type": "uint256"
        }
      ],
      "name": "liquidationFailure",
      "outputs": [
        {
          "internalType": "string",
          "name": "",
          "type": "string"
        }
      ],
      "stateMutability": "view",
      "type": "function"
    },
    {
      "inputs": [],
      "name": "minDepositAmount",
      "outputs": [
        {
          "internalType": "uint256",
          "name": "",
          "type": "uint256"
        }
      ],
      "stateMutability": "view",
      "type": "function"
    },
    {
      "inputs": [],
      "name": "networkToken",
      "outputs": [
        {
          "internalType": "address",
          "name": "",
          "type": "address"
        }
      ],
      "stateMutability": "view",
      "type": "function"
    },
    {
      "inputs": [],
      "name": "numPositions",
      "outputs": [
        {
          "internalType": "uint256",
          "name": "",
          "type": "uint256"
        }
      ],
      "stateMutability": "view",
      "type": "function"
    },
    {
      "inputs": [
        {
          "internalType": "uint256",
          "name": "",
          "type": "uint256"
        }
      ],
      "name": "positionClosed",
      "outputs": [
        {
          "internalType": "bool",
          "name": "",
          "type": "bool"
        }
      ],
      "stateMutability": "view",
      "type": "function"
    },
    {
      "inputs": [
        {
          "internalType": "uint256",
          "name": "",
          "type": "uint256"
        }
      ],
      "name": "positions",
      "outputs": [
        {
          "internalType": "address",
          "name": "user",
          "type": "address"
        },
        {
          "internalType": "address",
          "name": "bank",
          "type": "address"
        },
        {
          "internalType": "uint256",
          "name": "bankToken",
          "type": "uint256"
        },
        {
          "internalType": "uint256",
          "name": "amount",
          "type": "uint256"
        }
      ],
      "stateMutability": "view",
      "type": "function"
    },
    {
      "inputs": [
        {
          "internalType": "address",
          "name": "lpToken",
          "type": "address"
        }
      ],
      "name": "recommendBank",
      "outputs": [
        {
          "internalType": "address[]",
          "name": "",
          "type": "address[]"
        },
        {
          "internalType": "uint256[]",
          "name": "",
          "type": "uint256[]"
        }
      ],
      "stateMutability": "view",
      "type": "function"
    },
    {
      "inputs": [],
      "name": "renounceOwnership",
      "outputs": [],
      "stateMutability": "nonpayable",
      "type": "function"
    },
    {
      "inputs": [
        {
          "internalType": "address payable[]",
          "name": "_banks",
          "type": "address[]"
        }
      ],
      "name": "setBanks",
      "outputs": [],
      "stateMutability": "nonpayable",
      "type": "function"
    },
    {
      "inputs": [
        {
          "internalType": "address",
          "name": "keeperAddress",
          "type": "address"
        },
        {
          "internalType": "bool",
          "name": "active",
          "type": "bool"
        }
      ],
      "name": "setKeeper",
      "outputs": [],
      "stateMutability": "nonpayable",
      "type": "function"
    },
    {
      "inputs": [
        {
          "internalType": "uint256",
          "name": "positionId",
          "type": "uint256"
        },
        {
          "internalType": "string",
          "name": "reason",
          "type": "string"
        }
      ],
      "name": "setLiquidationFailure",
      "outputs": [],
      "stateMutability": "nonpayable",
      "type": "function"
    },
    {
      "inputs": [
        {
          "internalType": "uint256",
          "name": "_minDepositAmount",
          "type": "uint256"
        }
      ],
      "name": "setMinDepositAmount",
      "outputs": [],
      "stateMutability": "nonpayable",
      "type": "function"
    },
    {
      "inputs": [],
      "name": "stableToken",
      "outputs": [
        {
          "internalType": "address",
          "name": "",
          "type": "address"
        }
      ],
      "stateMutability": "view",
      "type": "function"
    },
    {
      "inputs": [
        {
          "internalType": "address",
          "name": "newOwner",
          "type": "address"
        }
      ],
      "name": "transferOwnership",
      "outputs": [],
      "stateMutability": "nonpayable",
      "type": "function"
    },
    {
      "inputs": [],
      "name": "universalSwap",
      "outputs": [
        {
          "internalType": "address",
          "name": "",
          "type": "address"
        }
      ],
      "stateMutability": "view",
      "type": "function"
    },
    {
      "inputs": [
        {
          "internalType": "address",
          "name": "",
          "type": "address"
        },
        {
          "internalType": "uint256",
          "name": "",
          "type": "uint256"
        }
      ],
      "name": "userPositions",
      "outputs": [
        {
          "internalType": "uint256",
          "name": "",
          "type": "uint256"
        }
      ],
      "stateMutability": "view",
      "type": "function"
    },
    {
      "inputs": [
        {
          "internalType": "uint256",
          "name": "positionId",
          "type": "uint256"
        },
        {
          "internalType": "uint256",
          "name": "amount",
          "type": "uint256"
        }
      ],
      "name": "withdraw",
      "outputs": [],
      "stateMutability": "nonpayable",
      "type": "function"
    },
    {
      "stateMutability": "payable",
      "type": "receive"
    }
  ],
  "transactionHash": "0xc32a8749ef58bf2726514d559dad1bd81d673771781dd2c0e482796906adb6c2",
  "args": [],
  "numDeployments": 18,
  "solcInputHash": "752d9709abf8ce296c7fa7fd42f9d9b8",
  "bytecode": "0x60808060405234610016576145c6908161001c8239f35b600080fdfe608080604052600436101561001d575b50361561001b57600080fd5b005b60003560e01c90816285ae2b14612f0f575080632a80cda314612eee5780632abb5535146128945780633bbd64bc146128555780633eeb530e146127ca57806343347e0e14612714578063441a3e701461235557806344e0b33d146121c6578063485cc95514611f4b57806357126d0d14611e2b5780635af2b3f414611cd95780635e1b4d9914611c815780635e71823b14611c63578063606fde3214611b8a578063628cc87d146119c1578063645006ca146119a3578063685f5607146118a55780636c956b011461124d5780636ca95a4e14611224578063715018a6146111c757806378ca319a1461119e57806398bd03681461108357806399fbab8814610fa5578063a9d75b2b14610f7c578063b387ef9214610f53578063d1b9e85314610efd578063ea532a3314610ecc578063eb02c30114610d10578063ef9a18761461096f578063f2fde38b146108e25763fc341b0d1461017e573861000f565b600319606036820112610674576004356001600160401b03918282116106745760a090823603011261067457604051906101b782612fdf565b6101c38160040161307e565b82526101d16024820161307e565b602083015260448101356040830152606481013560608301526084810135908382116106745760046102069236920101613643565b608082015260243582811161067457610223903690600401613092565b916044359081116106745761023c9036906004016130f8565b9180839260018060a01b0360208201511692604082015160405190632eae26a360e01b82526004820152602081602481885afa908115610681576000916108a3575b50606954604051634f129c5360e01b81526001600160a01b0392831660048201529160209183916024918391600091165af190811561068157600091610869575b501561084057341515948580610837575b8015610825575b156107fc5760005b8451811015610369576103649061035f61034c8a61035a610314856001600160a01b0361030c828e613838565b511693613838565b516040516323b872dd60e01b60208201523360248201526001600160a01b038d16604482015260648101919091529283906084820190565b03601f198101845283613030565b614204565b61379e565b6102df565b50849086610793575b60408481015160655491516331feab2960e01b815291602091839182916103aa9187918a916001600160a01b03169060048601613dc5565b03816000875af190811561068157600091610761575b506103c961374d565b50506065546000199490858101908111610632576103e6906136fe565b50865181546001600160a01b03199081166001600160a01b039283161783556020890151600180850180549093169190931617905560408801516002830155600382018481559097909591886000815b61072c575b505090516001600160a01b031660009081526067602052604090206065549092888201925090821161063257825491600160401b83101561071657610489836004958c602096018155612f91565b819291549060031b8b811b9283911b169119161790556104a7613e54565b50604051639c73e48360e01b815292839182905afa908115610681576000916106dc575b50156106a4576104ef906001600160a01b03906104e79061381b565b51169261381b565b51604051926104fd84612fdf565b6000845260208401526040830152606082015260405161051c81613015565b6000815260808201526040519361053285612ffa565b845260005b6020811061068d5750836020916105506105c89661381b565b5261055a8161381b565b506040519061056882613015565b6000825260405161057881613015565b600081526040519261058984612fc4565b83528383015260408201525b606954606b54604051639b1fbbe760e01b81529687936001600160a01b0393841693859384939291169060048401613e0a565b03915afa92831561068157600093610648575b506105e9606d548411613e73565b606554918201918211610632577f33da4f9b82b3e18a281ca2cabbe2f076925692abb593b7ea3f850009e8ec9770604060209484935490825191825286820152a2604051908152f35b634e487b7160e01b600052601160045260246000fd5b9092506020813d602011610679575b8161066460209383613030565b81010312610674575191836105db565b600080fd5b3d9150610657565b6040513d6000823e3d90fd5b602090610698613770565b82828801015201610537565b90506105c89450602091604051906106bb82613015565b60008252604051926106cc84612fc4565b8352838301526040820152610595565b90506020813d60201161070e575b816106f760209383613030565b8101031261067457610708906137ad565b876104cb565b3d91506106ea565b634e487b7160e01b600052604160045260246000fd5b608084015190815181101561075b5761035f61074b8261075594613838565b5160048601613868565b81610436565b5061043b565b90506020813d60201161078b575b8161077c60209383613030565b810103126106745751856103c0565b3d915061076f565b5060405191506107a282612ffa565b6001825260203681840137816040516107ba81612ffa565b600181526020368183013760006107d1829361381b565b526107dc349161381b565b526107f7600080808034875af16107f1613a07565b50613a37565b610372565b60405162461bcd60e51b81526020600482015260016024820152601b60f91b6044820152606490fd5b503415346102d75750835115156102d7565b508351156102d0565b60405162461bcd60e51b81526020600482015260016024820152601960f91b6044820152606490fd5b90506020813d60201161089b575b8161088460209383613030565b8101031261067457610895906137ad565b386102bf565b3d9150610877565b90506020813d6020116108da575b816108be60209383613030565b810103126106745760206108d3600092613739565b915061027e565b3d91506108b1565b34610674576020366003190112610674576108fb613068565b6109036144cf565b6001600160a01b0381161561091b5761001b90614527565b60405162461bcd60e51b815260206004820152602660248201527f4f776e61626c653a206e6577206f776e657220697320746865207a65726f206160448201526564647265737360d01b6064820152608490fd5b34610674576080366003190112610674576001600160401b03602435818111610674576109a090369060040161322a565b90604435818111610674576109b99036906004016133ec565b90606435908111610674576109d29036906004016130f8565b9160043560005260666020526109f5600160ff60406000205416151514156137ba565b610a15610a036004356136fe565b50546001600160a01b031633146137eb565b610a206004356136fe565b50600181015484519192916001600160a01b039091169015610d0757606954610a55906001600160a01b03165b600435613ebb565b9460028401549460405195630eab466160e21b87526004870152600086602481865afa91821561068157600096600093610cdc575b5080516060959015610ccc57610aa360208a0151614437565b610c24575b505050505b600093610ab983614437565b610b80575b5050606954606b54604051639b1fbbe760e01b815295602094508693506001600160a01b039283169284928392610afc929091169060048401613e0a565b03915afa801561068157600090610b4d575b6020925060405190828252838201527fae0e106e67fdb6bb12594459c59dcb404165ba98b3782f0ec258d8aecc289d57604060043592a2604051908152f35b506020823d602011610b78575b81610b6760209383613030565b810103126106745760209151610b0e565b3d9150610b5a565b600284015460405162e3bbf560e11b815294955060209385939284926000928492610bbb92600480356001600160a01b031691908601613dc5565b03925af190811561068157600091610bf0575b50610afc9281610be660036020949501918254613dfd565b9055928480610abe565b90506020813d602011610c1c575b81610c0b60209383613030565b810103126106745751610afc610bce565b3d9150610bfe565b6069546040519596506000946001600160a01b039091169290610c4687613015565b85875260405196610c5688612fa9565b8a88526020880152604087015260608601528389610c8b8860405198899788968795636b75775560e01b875260048701613b79565b03925af190811561068157600091610ca9575b509085808080610aa8565b610cc691503d806000833e610cbe8183613030565b810190613a75565b85610c9e565b5050505060208501519150610aad565b909250610cfd9196503d806000833e610cf58183613030565b81019061396a565b9590959188610a8a565b610a5581610a4d565b3461067457602036600319011261067457610d29613770565b50610d356004356136fe565b50600460405191610d4583612fdf565b80546001600160a01b03908116845260018201541660208401526002810154604084015260038101546060840152018054909190610d8281613051565b92610d906040519485613030565b818452602084019060005260206000206000915b838310610e6f57608080860187815260408051602080825289516001600160a01b0390811682840152818b015116828401529189015160608083019190915289015181850152915160a0808401819052815160c085018190529394859460e08601949390930192916000915b838310610e1d5786860387f35b845180516001600160a01b039081168852602082810151909116818901526040808301511515908901526060808301519089015290820151878301528897509582019590940193600190920191610e10565b60046020600192604051610e8281612fdf565b848060a01b03865416815260ff85870154868060a01b0381168584015260a01c16151560408201526002860154606082015260038601546080820152815201920192019190610da4565b34610674576020366003190112610674576004356000526066602052602060ff604060002054166040519015158152f35b3461067457604036600319011261067457610f16613068565b6024359081151580920361067457610f2c6144cf565b60018060a01b0316600052606c60205260406000209060ff80198354169116179055600080f35b34610674576000366003190112610674576033546040516001600160a01b039091168152602090f35b3461067457600036600319011261067457606b546040516001600160a01b039091168152602090f35b346106745760203660031901126106745760043560655481101561067457600560809160656000520260018060a01b039081817f8ff97419363ffd7000167f130ef7168fbea05faf9251824ca5043f113cc6a7c7015416917f8ff97419363ffd7000167f130ef7168fbea05faf9251824ca5043f113cc6a7c882015416907f8ff97419363ffd7000167f130ef7168fbea05faf9251824ca5043f113cc6a7ca7f8ff97419363ffd7000167f130ef7168fbea05faf9251824ca5043f113cc6a7c982015491015491604051938452602084015260408301526060820152f35b3461067457602080600319360112610674576001600160401b036004358181116106745736602382011215610674578060040135906110c182613051565b906110cf6040519283613030565b8282528482016024819460051b8301019136831161067457602401905b82821061117f575050506110fe6144cf565b5191821161071657600160401b8211610716576068548260685580831061115b575b50606860005260005b82811061113257005b81516001600160a01b031660008051602061457183398151915282015590830190600101611129565b61117990836000805160206145718339815191529182019101613ea4565b83611120565b81356001600160a01b03811681036106745781529086019086016110ec565b34610674576000366003190112610674576069546040516001600160a01b039091168152602090f35b34610674576000366003190112610674576111e06144cf565b603380546001600160a01b031981169091556000906001600160a01b03167f8be0079c531659141344cd1fd0a4f28419497f9722a3daafe3b4186f6b6457e08280a3005b3461067457600036600319011261067457606a546040516001600160a01b039091168152602090f35b346106745760a0366003190112610674576001600160401b036064358181116106745761127e90369060040161322a565b90608435908111610674576112979036906004016133ec565b9060043560005260666020526112ba600160ff60406000205416151514156137ba565b6112c56004356136fe565b509133600052606c60205260ff604060002054168015611892575b801561187e575b6112f0906137eb565b6069546113439061130c906001600160a01b0316600435613f82565b606954606a54604051639b1fbbe760e01b8152929592936001600160a01b0392831692602092869283929091168960048401613e0a565b0381845afa92831561068157600093611849575b5060009293836040519361136a85612fc4565b6002855260403660208701376040519661138388612fc4565b6002885260403660208a013761139e60243560048c0161384c565b50600101546001600160a01b03166113b58761381b565b52826113c087613828565b526113ca8861381b565b526044356113d788613828565b528751966020890151604051906113ed82613015565b848252604051996113fd8b612fc4565b8a5260208a015260408901526040519061141682613015565b8382526040519161142683612fc4565b6002835260403660208501376040519761143f89612fa9565b885260208801526040870152606086015261147260405197889687958694636b75775560e01b8652309360048701613b79565b03925af180156106815761148e9160009161182e575b5061381b565b5161149e6024356004850161384c565b50600101546001600160a01b0316156117fc576114ff6114c36024356004860161384c565b5060010154845460405163a9059cbb60e01b60208201526001600160a01b03918216602482015260448082018690528152911661035a82612fa9565b4760443560011c116117d257606954606a54606b54604051631b5bc02960e21b81526001600160a01b0392831660048201524760248201529082166044820152929160209184916064918391165afa9182156106815760009261179e575b50600080808047818115611795575b3390f11561068157606954606b54604051639b1fbbe760e01b8152946001600160a01b03928316939190921691602090869081906115af90869060048401613e0a565b0381865afa94851561068157600095611761575b5060036115d56024356004890161384c565b50015491670de0b6b3a764000083810311610632578583670de0b6b3a76400000381020483670de0b6b3a7640000031486151715610632576116669360209261162360243560048b0161384c565b5060010154604051631b5bc02960e21b81526001600160a01b03918216600482015260248101929092529290921660448301529093849190829081906064820190565b03915afa91821561068157600092611725575b5090670de0b6b3a764000061169392810385020492613dfd565b106116fc5760036000920190815490604051918252602082015260243560408201527f01e7211643557ea24a6812213391528ec546f2f1ffda4e9e627b085f979d2bc8606060043592a2556004356000908152606660205260409020805460ff19166001179055005b60405162461bcd60e51b81526020600482015260016024820152603360f81b6044820152606490fd5b91506020823d602011611759575b8161174060209383613030565b8101031261067457905190670de0b6b3a7640000611679565b3d9150611733565b9094506020813d60201161178d575b8161177d60209383613030565b81010312610674575193866115c3565b3d9150611770565b506108fc61156c565b9091506020813d6020116117ca575b816117ba60209383613030565b810103126106745751908461155d565b3d91506117ad565b60405162461bcd60e51b8152602060048201526002602482015261313360f01b6044820152606490fd5b60008080808460018060a01b03885416828215611825575bf16114ff576040513d6000823e3d90fd5b506108fc611814565b61184391503d806000833e610cbe8183613030565b84611488565b92506020833d602011611876575b8161186460209383613030565b81010312610674576000925192611357565b3d9150611857565b506033546001600160a01b031633146112e7565b5082546001600160a01b031633146112e0565b34610674576040366003190112610674576004356024356001600160401b038111610674576118d8903690600401613643565b9080600052606660205260046119116001926119008460ff60406000205416151514156137ba565b61190c610a03826136fe565b6136fe565b50019182546000845580611952575b506000825b61192b57005b815181101561001b578061035f61194561194c9385613838565b5186613868565b82611925565b6001600160fe1b03811681036106325783600052602060002090600290811b8201915b828110611983575050611920565b806000600492556000868201556000838201556000600382015501611975565b34610674576000366003190112610674576020606d54604051908152f35b3461067457611a686119d236613589565b9080600052602091606683526119f5600160ff60406000205416151514156137ba565b6119fe826136fe565b509033600052606c845260ff604060002054168015611b77575b8015611b63575b611a28906137eb565b81546001600160a01b03908590611a4190831686613f82565b826069541683606b541691604051809a81948293639b1fbbe760e01b845260048401613e0a565b03915afa95861561068157600096611b32575b50918360669660039360009584541633148614611ae2575060407f0f33bbc279d851e67d102f7abb2e8c51416838820555673e8885cfed07e10210918585015490825191825289820152a25b0155600052526040600020600160ff19825416179055600080f35b907f9e9d498ee5dd5d5c54a3ed3dbf8386d28c718cd773d24a0a5fa2561be2aaeceb91611b2a868601549160405193849384528b840152606060408401526060830190613603565b0390a2611ac7565b9550918486813d8311611b5c575b611b4a8183613030565b81010312610674579451949183611a7b565b503d611b40565b506033546001600160a01b03163314611a1f565b5081546001600160a01b03163314611a18565b346106745760208060031936011261067457600435600052606e8152604060002090604051918260008254611bbe816135c9565b93848452600191868382169182600014611c41575050600114611c02575b5050611bea92500383613030565b611bfe604051928284938452830190613603565b0390f35b85925060005281600020906000915b858310611c29575050611bea93508201018580611bdc565b80548389018501528794508693909201918101611c11565b9250935050611bea94915060ff191682840152151560051b8201018580611bdc565b34610674576000366003190112610674576020606554604051908152f35b3461067457604036600319011261067457611c9a613068565b6001600160a01b031660009081526067602052604090208054602435919082101561067457602091611ccb91612f91565b90546040519160031b1c8152f35b3461067457611ce736613589565b9033600052602090606c825260ff604060002054168015611e17575b611d0c906137eb565b600052606e81526040600020908251906001600160401b03821161071657611d3483546135c9565b601f8111611ddc575b5080601f8311600114611d795750819293600092611d6e575b5050600019600383901b1c191660019190911b179055005b015190508380611d56565b90601f198316948460005282600020926000905b878210611dc4575050836001959610611dab575b505050811b019055005b015160001960f88460031b161c19169055838080611da1565b80600185968294968601518155019501930190611d8d565b611e07908460005282600020601f850160051c810191848610611e0d575b601f0160051c0190613ea4565b84611d3d565b9091508190611dfa565b506033546001600160a01b03163314611d03565b346106745760208060031936011261067457600435908160005260668152611e60600160ff60406000205416151514156137ba565b611e69826136fe565b50546001600160a01b039290611e8290841633146137eb565b611ec482611e9c85611e93856136fe565b50541684613ebb565b94806069541690606b5416906040518080958194639b1fbbe760e01b83528a60048401613e0a565b03915afa90811561068157600091611f1d575b5060407f4ec2d4038813a7f233af1d6d09519189db3ed5bc5b823bf72f6d3144574721de918151906000825285820152a2815191015190611bfe60405192839283613561565b90508281813d8311611f44575b611f348183613030565b8101031261067457516040611ed7565b503d611f2a565b3461067457604036600319011261067457611f64613068565b6001600160a01b039060243582811690819003610674576000549060ff91828160081c1615938480956121ba575b80156121a4575b156121485760ff198216600117600055859185612136575b50166bffffffffffffffffffffffff60a01b918183606954161760695582606b541617606b55604051948591633654ad2760e11b835282600460209889935afa80156106815786926000916120fa575b5092816004941690606a541617606a5561201961374d565b5050606b54166040519283809263313ce56760e01b82525afa80156106815782916000916120c0575b5016604d811161063257600a0a9081600a0291600a8304036106325761207a91606d5560005460081c166120758161446f565b61446f565b61208333614527565b61208957005b7f7f26b83ff96e1f2b6a682f133852f6798a09c465da95921460cefb38474024989061ff00196000541660005560405160018152a1005b809250858092503d83116120f3575b6120d98183613030565b810103126106745751818116810361067457819085612042565b503d6120cf565b83819492503d831161212f575b6121118183613030565b8101031261067457600492816121278894613739565b919450612001565b503d612107565b61ffff19166101011760005586611fb1565b60405162461bcd60e51b815260206004820152602e60248201527f496e697469616c697a61626c653a20636f6e747261637420697320616c72656160448201526d191e481a5b9a5d1a585b1a5e995960921b6064820152608490fd5b50303b158015611f995750600184831614611f99565b50600184831610611f92565b3461067457602080600319360112610674576121e0613068565b60685460609283926001600160a01b0392919083169060005b83811061220f5760405180611bfe898983613561565b8461221982612f56565b91905491604080518094638084c91d60e01b8252886004830152816024958692600396871b1c165afa92831561068157600090600094612315575b5061226b575b5050506122669061379e565b6121f9565b879061227b859b9a939495612f56565b9054911b1c16908051600193848201809211612301575061229b90613e22565b926000815b6122cb575b50509161226693916122bb6122c2945183613838565b52976143e4565b9690888061225a565b82518110156122fc576122f6818b6122e4859487613838565b51166122f08289613838565b5261379e565b906122a0565b6122a5565b634e487b7160e01b60009081526011600452fd5b9350506040833d60401161234d575b8161233160409383613030565b810103126106745784612343846137ad565b930151928b612254565b3d9150612324565b34610674576040366003190112610674576004356024358160005260206066815261238d600160ff60406000205416151514156137ba565b612396836136fe565b50546001600160a01b0391906123af90831633146137eb565b6123b8846136fe565b50918060018401541690600384019081548681106126eb5786810390811161063257909155600284018054604051630bf7be2160e41b815260048101919091528783166001600160a01b03811660248301526044820188905233606483015291939092919060008460848183855af18015610681576000946000916126c3575b506124a09394956000916040519061244f82613015565b8382526040519861245f8a612fc4565b8952898901526040808901919091529054905163374598ad60e01b8152600481018290526001600160a01b0390941660248501529293849081906044820190565b0381845afa96871561068157600093600098612696575b505460405163bfb28ea360e01b8152600481019390935284166001600160a01b0316602483015290919060009083908180604481015b03915afa80156106815761251792600090600092612676575b50612511919261410b565b95614379565b6040519061252482613015565b600082526040519561253587612fc4565b8652848601526040850152806069541690606b54169160405184818061256a87639b1fbbe760e01b9a8b845260048401613e0a565b0381865afa9081156106815760009161263f575b50906125a99561259486959493606d5410613e73565b60405196879485938493845260048401613e0a565b03915afa918215610681576000926125ee575b50916040917fa01a72713bf837059e3a668d28f0de277fb7f24f2a4e95bf926703c95b5f12b2938351928352820152a2005b9150918282813d8311612638575b6126068183613030565b8101031261067457905190917fa01a72713bf837059e3a668d28f0de277fb7f24f2a4e95bf926703c95b5f12b26125bc565b503d6125fc565b93929190508484813d831161266f575b6126598183613030565b81010312610674579251919290916125a961257e565b503d61264f565b612511925061269091503d806000833e610cf58183613030565b91612506565b85939198506124ed9450916126b66000933d8086833e610cf58183613030565b99909550919350916124b7565b6124a0949550600091506126e0903d8084833e610cf58183613030565b909594909150612438565b60405162461bcd60e51b81526004810186905260016024820152603760f81b6044820152606490fd5b3461067457600036600319011261067457604051806068548083526020809301809160686000526000805160206145718339815191529060005b868282106127ad57868661276482880383613030565b604051928392818401908285525180915260408401929160005b82811061278d57505050500390f35b83516001600160a01b03168552869550938101939281019260010161277e565b83546001600160a01b03168552909301926001928301920161274e565b3461067457602080600319360112610674576001600160a01b036127ec613068565b1660005260678152604060002090604051808383829554938481520190600052836000209260005b8582821061283f5750505061282b92500383613030565b611bfe6040519282849384528301906134f0565b8554845260019586019588955093019201612814565b34610674576020366003190112610674576001600160a01b03612876613068565b16600052606c602052602060ff604060002054166040519015158152f35b60031960a03682011261067457602435906001600160401b0382116106745760609082360301126106745760405190606082018281106001600160401b038211176107165760405280600401356001600160401b038111610674576128ff9060043691840101613092565b825260248101356001600160401b0381116106745761292490600436918401016130f8565b60208301526044810135906001600160401b03821161067457013660238201121561067457600481013561295781613051565b916129656040519384613030565b8183526024602084019260051b820101903682116106745760248101925b828410612ebf57858560408201526044356001600160401b038111610674576129b090369060040161322a565b6064356001600160401b038111610674576129cf9036906004016133ec565b6084356001600160401b038111610674576129ee9036906004016130f8565b906004356000526066602052612a11600160ff60406000205416151514156137ba565b612a1f610a036004356136fe565b612a2a6004356136fe565b509260018060a01b0360018501541660028501549460405195630eab466160e21b87526004870152600086602481855afa95861561068157600090600097612e9f575b50855115612dcb5760005b8880518051831015612afa57612af5929161035f916001600160a01b0390612aa1908590613838565b511661035a612abf85602060018060a01b0360695416950151613838565b516040516323b872dd60e01b60208201523360248201526001600160a01b0390941660448501526064840152826084810161034c565b612a78565b50505091939590929460005b60408901518051821015612bc1576001600160a01b0390602090612b2b908490613838565b5101511690896040612b4b838260018060a01b0360695416940151613838565b510151833b1561067457604051632142170760e11b81523360048201526001600160a01b039290921660248301526044820152916000908390606490829084905af1801561068157612ba7575b612ba2915061379e565b612b06565b6001600160401b03821161071657612ba291604052612b98565b5050849796600093949660018060a01b03606954169260405194612be486613015565b86865260405195612bf487612fa9565b888752602087015260408601526060850152612c2760405197889586948594636b75775560e01b86528d60048701613b79565b039134905af194851561068157612c7f95602093600091612db0575b509134612d8e575b600285015460405162e3bbf560e11b815297889485936000938593929190600480356001600160a01b031691908601613dc5565b03925af192831561068157600093612d58575b50612cdd91600360209201612ca8858254613dfd565b9055606954606b54604051639b1fbbe760e01b81529485936001600160a01b0393841693859384939291169060048401613e0a565b03915afa90811561068157600091612d26575b5060405191825260208201527f815e6315628bb7b8698b390413fee535126352d4a4310b9d2937dc644ef1d766604060043592a2005b90506020813d602011612d50575b81612d4160209383613030565b81010312610674575182612cf0565b3d9150612d34565b9092506020813d602011612d86575b81612d7460209383613030565b81010312610674575191612cdd612c92565b3d9150612d67565b612d988651614198565b8652612da734858801516143e4565b84870152612c4b565b612dc591503d806000833e610cbe8183613030565b87612c43565b935094509492505060005b82518051821015612e4d579061035f61034c612e4893612dfd8460018060a01b0392613838565b511661035a612e108560208a0151613838565b516040516323b872dd60e01b60208201523360248201526001600160a01b038c16604482015260648101919091529283906084820190565b612dd6565b5050602090612c7f9493929334612e69575b8285015191612c4b565b612e738551614198565b8552612e8234848701516143e4565b83860152612e9a600080808034865af16107f1613a07565b612e5f565b9050612eb79196503d806000833e610cf58183613030565b959088612a6d565b83356001600160401b03811161067457602091612ee38392602436918701016131a8565b815201930192612983565b3461067457602036600319011261067457612f076144cf565b600435606d55005b346106745760203660031901126106745760043590606854821015610674576068600052600080516020614571833981519152909101546001600160a01b03168152602090f35b606854811015612f7b5760686000526000805160206145718339815191520190600090565b634e487b7160e01b600052603260045260246000fd5b8054821015612f7b5760005260206000200190600090565b608081019081106001600160401b0382111761071657604052565b606081019081106001600160401b0382111761071657604052565b60a081019081106001600160401b0382111761071657604052565b604081019081106001600160401b0382111761071657604052565b602081019081106001600160401b0382111761071657604052565b90601f801991011681019081106001600160401b0382111761071657604052565b6001600160401b0381116107165760051b60200190565b600435906001600160a01b038216820361067457565b35906001600160a01b038216820361067457565b81601f82011215610674578035916130a983613051565b926130b76040519485613030565b808452602092838086019260051b820101928311610674578301905b8282106130e1575050505090565b8380916130ed8461307e565b8152019101906130d3565b81601f820112156106745780359161310f83613051565b9261311d6040519485613030565b808452602092838086019260051b820101928311610674578301905b828210613147575050505090565b81358152908301908301613139565b6001600160401b03811161071657601f01601f191660200190565b92919261317d82613156565b9161318b6040519384613030565b829481845281830111610674578281602093846000960137010152565b919060a08382031261067457604051906131c182612fdf565b81936131cc8161307e565b83526131da6020820161307e565b602084015260408101356040840152606081013560608401526080810135906001600160401b038211610674570181601f820112156106745760809181602061322593359101613171565b910152565b9080601f830112156106745781359161324283613051565b9260409061325282519586613030565b808552602093848087019260051b8501019381851161067457858101925b858410613281575050505050505090565b6001600160401b0384358181116106745783019061012080601f19848803011261067457875192818401848110848211176133d75789528a8101358452888101358b850152606091828201358a860152608092838301359086015260a092838301359086015260c0926132f584840161307e565b9086015260e0928383013585811161067457898e61331592860101613092565b908601526101009261332884840161307e565b9086015281013590838211610674570186603f82011215610674578a8101359061335182613051565b9361335e8b519586613030565b8285528a8d86019360051b830101918983116106745790918d9694928c839997959901925b82841061339f5750505050849550820152815201930192613270565b9193959750919395978435838111610674578f916133c38f8e908594870101613092565b8152019401918e9795939198969498613383565b60246000634e487b7160e01b81526041600452fd5b9080601f8301121561067457813561340381613051565b9260409161341383519586613030565b808552602093848087019260051b8401019381851161067457858401925b858410613442575050505050505090565b6001600160401b0384358181116106745786019160a080601f1985880301126106745784519061347182612fdf565b8a85013584811161067457878c61348a928801016131a8565b825261349786860161307e565b8b83015260609081860135878401526080918287013586811161067457898e6134c2928a0101613092565b90840152850135938411610674576134e1878c809796819701016130f8565b90820152815201930192613431565b90815180825260208080930193019160005b828110613510575050505090565b835185529381019392810192600101613502565b90815180825260208080930193019160005b828110613544575050505090565b83516001600160a01b031685529381019392810192600101613536565b909161357861358693604084526040840190613524565b9160208184039101526134f0565b90565b9060406003198301126106745760043591602435906001600160401b03821161067457806023830112156106745781602461358693600401359101613171565b90600182811c921680156135f9575b60208310146135e357565b634e487b7160e01b600052602260045260246000fd5b91607f16916135d8565b919082519283825260005b84811061362f575050826000602080949584010152601f8019910116010190565b60208183018101518483018201520161360e565b81601f820112156106745780359061365a82613051565b9260409061366a82519586613030565b838552602091828601918360a080970286010194818611610674578401925b85841061369a575050505050505090565b8684830312610674578251906136af82612fdf565b6136b88561307e565b82526136c586860161307e565b868301528385013590811515820361067457828792868b9501526060808801359082015260808088013590820152815201930192613689565b606554811015612f7b576005906065600052027f8ff97419363ffd7000167f130ef7168fbea05faf9251824ca5043f113cc6a7c70190600090565b51906001600160a01b038216820361067457565b606554600160401b8110156107165780600161376c92016065556136fe565b9091565b6040519061377d82612fdf565b60606080836000815260006020820152600060408201526000838201520152565b60001981146106325760010190565b5190811515820361067457565b156137c157565b60405162461bcd60e51b8152602060048201526002602482015261189960f11b6044820152606490fd5b156137f257565b60405162461bcd60e51b81526020600482015260016024820152603160f81b6044820152606490fd5b805115612f7b5760200190565b805160011015612f7b5760400190565b8051821015612f7b5760209160051b010190565b8054821015612f7b5760005260206000209060021b0190600090565b8054600160401b811015610716576138859160018201815561384c565b9190916138f657608060039160018060a01b03808251166bffffffffffffffffffffffff60a01b865416178555600185019060208301511681549060ff60a01b6040850151151560a01b16916affffffffffffffffffffff60a81b1617179055606081015160028501550151910155565b634e487b7160e01b600052600060045260246000fd5b81601f820112156106745780519161392383613051565b926139316040519485613030565b808452602092838086019260051b820101928311610674578301905b82821061395b575050505090565b8151815290830190830161394d565b919091604081840312610674578051926001600160401b03938481116106745782019381601f860112156106745784516139a381613051565b906139b16040519283613030565b808252602096878084019260051b820101918583116106745788809201905b8382106139f057505050509483015190811161067457613586920161390c565b8280916139fc84613739565b8152019101906139d0565b3d15613a32573d90613a1882613156565b91613a266040519384613030565b82523d6000602084013e565b606090565b15613a3e57565b60405162461bcd60e51b815260206004820152600f60248201526e151c985b9cd9995c8811985a5b1959608a1b6044820152606490fd5b906020828203126106745781516001600160401b03811161067457613586920161390c565b9060a0608061358693600180841b03808251168552602082015116602085015260408101516040850152606081015160608501520151918160808201520190613603565b908082519081815260208091019281808460051b8301019501936000915b848310613b0c5750505050505090565b9091929394958480613b2a600193601f198682030187528a51613a9a565b9801930193019194939290613afc565b613586916040613b68613b568451606085526060850190613524565b602085015184820360208601526134f0565b920151906040818403910152613ade565b93929190959495613b9260a09182875282870190613b3a565b9060209186810383880152835180825283820190600592858083861b8301019701926000915b838310613cdd57505050505060409387810385890152855191828252848084818501931b8401019701936000925b848410613c6157505050505050916060613c4060809593613c2e613c5196898603858b0152613c1c87518a88528a880190613524565b90808801519087830390880152613ade565b908086015190858303908601526134f0565b9201519060608184039101526134f0565b6001600160a01b03909416910152565b9091929394978680613ccd600193601f198682030188528c51613cba8d613c8f83518b86528b860190613a9a565b90888060a01b0387850151168786015280840151908501526060808401519085830390860152613524565b91608080920151918184039101526134f0565b9a01940194019294939190613be6565b909192939787601f19808484030185528a519283518152828401518382015260408085015190820152606080850151908201526080808501519082015260018060a01b0390818b860151168b820152613d4660c080870151906101208091850152830190613524565b9160e09081870151169082015261010080950151948183039101528351808252838201918480838d1b8301019601936000905b838210613d9957505050505050806001929a019301930191939290613bb8565b91939580613db4898588600196989a9c03018a528a51613524565b9801960192018d9594929391613d79565b926135869492613def92855260018060a01b03166020850152608060408501526080840190613524565b9160608184039101526134f0565b9190820180921161063257565b90613c51602091949394604084526040840190613b3a565b90613e2c82613051565b613e396040519182613030565b8281528092613e4a601f1991613051565b0190602036910137565b60405190613e6182612fc4565b60606040838281528260208201520152565b15613e7a57565b60405162461bcd60e51b81526020600482015260026024820152610c4d60f21b6044820152606490fd5b818110613eaf575050565b60008155600101613ea4565b90613ec4613e54565b50613ece826136fe565b5060018101546002909101546040516387a4459b60e01b815260048101919091526001600160a01b039384166024820152918316604483015290916000918291849160649183918591165af18015613f755781928291613f55575b5060405191613f3783613015565b825260405192613f4684612fc4565b83526020830152604082015290565b9050613f6c9192503d8084833e610cf58183613030565b91909138613f29565b50604051903d90823e3d90fd5b90613f8b613e54565b50613f95826136fe565b5060018101546001600160a01b039391929084169190613fb3613e54565b50600284018054604080516387a4459b60e01b81526004810192909252969093166001600160a01b0381811660248601528316604485015290956000959094909186858060648101038183865af197881561410157879588996140d3575b5054600393909301548651630bf7be2160e41b815260048101949094526001600160a01b03918216602485015260448401529290921660648201529084908290608490829084905af19081156140c6576140809291859182916140a7575b5061407a919261410b565b94614379565b81519261408c84613015565b835281519361409a85612fc4565b8452602084015282015290565b61407a92506140c091503d8088833e610cf58183613030565b9161406f565b50505051903d90823e3d90fd5b88949392919950600396506140f285913d8084833e610cf58183613030565b9790979a929394955050614011565b86513d89823e3d90fd5b61412061411b8251845190613dfd565b613e22565b9260005b82518110156141545761414f906001600160a01b036141438286613838565b51166122f08288613838565b614124565b509160005b81518110156141935761418e906001600160a01b036141788285613838565b51166122f0614188865184613dfd565b88613838565b614159565b505050565b805190600191828101809111610632576141b190613e22565b916000815b6141ce575b50506141ca6000915183613838565b5290565b82518110156141ff576141f9906001600160a01b036141ed8286613838565b51166122f08287613838565b816141b6565b6141bb565b6040516001600160a01b03919091169161421d82612ffa565b6020928383527f5361666545524332303a206c6f772d6c6576656c2063616c6c206661696c656484840152803b156142f0576000828192828761426f9796519301915af1614269613a07565b90614335565b80518061427b57505050565b81839181010312610674578161429191016137ad565b156142995750565b6084906040519062461bcd60e51b82526004820152602a60248201527f5361666545524332303a204552433230206f7065726174696f6e20646964206e6044820152691bdd081cdd58d8d9595960b21b6064820152fd5b60405162461bcd60e51b815260048101859052601d60248201527f416464726573733a2063616c6c20746f206e6f6e2d636f6e74726163740000006044820152606490fd5b90919015614341575090565b8151156143515750805190602001fd5b60405162461bcd60e51b815260206004820152908190614375906024830190613603565b0390fd5b61438961411b8251845190613dfd565b9260005b82518110156143b457806143a46143af9285613838565b516122f08288613838565b61438d565b509160005b815181101561419357806143d06143df9284613838565b516122f0614188865184613dfd565b6143b9565b90815191600192838101809111610632576143fe90613e22565b926000815b614415575b50506141ca905183613838565b825181101561443257806143a461442c9285613838565b81614403565b614408565b600090815b81518310156144695761445d614463916144568585613838565b5190613dfd565b9261379e565b9161443c565b91505090565b1561447657565b60405162461bcd60e51b815260206004820152602b60248201527f496e697469616c697a61626c653a20636f6e7472616374206973206e6f74206960448201526a6e697469616c697a696e6760a81b6064820152608490fd5b6033546001600160a01b031633036144e357565b606460405162461bcd60e51b815260206004820152602060248201527f4f776e61626c653a2063616c6c6572206973206e6f7420746865206f776e65726044820152fd5b603380546001600160a01b039283166001600160a01b0319821681179092559091167f8be0079c531659141344cd1fd0a4f28419497f9722a3daafe3b4186f6b6457e0600080a356fea2153420d844928b4421650203c77babc8b33d7f2e7b450e2966db0c22097753a2646970667358221220fb07e3600c10b14ee366e9c5a9be467f8cf10882069c23416d292076cee7f1de64736f6c63430008110033",
  "devdoc": {
    "kind": "dev",
    "methods": {
      "adjustLiquidationPoints(uint256,(address,address,bool,uint256,uint256)[])": {
        "params": {
          "_liquidationPoints": "New list of liquidation conditions",
          "positionId": "position ID"
        }
      },
      "botLiquidate(uint256,uint256,uint256,(uint256,uint256,uint256,uint256,int256,address,address[],address,address[][])[],((address,address,uint256,uint256,bytes),address,uint256,address[],uint256[])[])": {
        "params": {
          "conversions": "Conversions to conduct to get desired asset from position",
          "liquidationFee": "ETH to be refunded to bot that triggered the liquidation",
          "liquidationIndex": "Index of liquidation condition that is no longer satisfied",
          "positionId": "Position ID",
          "swaps": "Swaps to conduct to get desired asset from position"
        }
      },
      "close(uint256,string)": {
        "details": "Called by position owner or keepers or admin",
        "params": {
          "positionId": "Position ID",
          "reason": "In case admin is calling close to refund user, reason needs to be specified"
        }
      },
      "currentOwner()": {
        "details": "Returns the address of the current owner."
      },
      "deposit((address,address,uint256,uint256,(address,address,bool,uint256,uint256)[]),address[],uint256[])": {
        "details": "Before calling, make sure PositionsManager contract has approvals according to suppliedAmountsFor creating an ERC721Bank position, suppliedTokens will contain the ERC721 contract and suppliedAmounts will contain the tokenId",
        "params": {
          "position": "position details",
          "suppliedAmounts": "amounts supplied for each of the supplied tokens",
          "suppliedTokens": "list of tokens supplied to increase the positions value"
        }
      },
      "depositInExisting(uint256,(address[],uint256[],(address,address,uint256,uint256,bytes)[]),(uint256,uint256,uint256,uint256,int256,address,address[],address,address[][])[],((address,address,uint256,uint256,bytes),address,uint256,address[],uint256[])[],uint256[])": {
        "details": "Before calling, make sure PositionsManager contract has approvals according to suppliedAmounts",
        "params": {
          "conversions": "Conversions to conduct if provided assets do not match underlying for position",
          "minAmounts": "Slippage control, used when provided assets don't match the positions underlying",
          "positionId": "position ID",
          "provided": "Assets provided to deposit into position",
          "swaps": "Swaps to conduct if provided assets do not match underlying for position"
        }
      },
      "getBanks()": {
        "returns": {
          "_0": "Addresses of banks"
        }
      },
      "harvestAndRecompound(uint256,(uint256,uint256,uint256,uint256,int256,address,address[],address,address[][])[],((address,address,uint256,uint256,bytes),address,uint256,address[],uint256[])[],uint256[])": {
        "params": {
          "conversions": "Conversions to conduct if harvested assets do not match underlying for position",
          "minAmounts": "Slippage control, used when harvested assets don't match the positions underlying",
          "positionId": "Position ID",
          "swaps": "Swaps to conduct if harvested assets do not match underlying for position"
        },
        "returns": {
          "_0": "Amount of new tokens added/increase in liquidity for position"
        }
      },
      "harvestRewards(uint256)": {
        "params": {
          "positionId": "Position ID"
        },
        "returns": {
          "_0": "List of tokens obtained as rewards",
          "_1": "Amount of tokens received as reward"
        }
      },
      "numPositions()": {
        "returns": {
          "_0": "Number of positions that have been opened"
        }
      },
      "recommendBank(address)": {
        "details": "bankToken for ERC721 banks is not supported and will always be 0",
        "params": {
          "token": "The token for which to get supported banks"
        },
        "returns": {
          "_0": "List of banks that support the token",
          "_1": "token IDs corresponding to the provided token for each of the banks"
        }
      },
      "renounceOwnership()": {
        "details": "Leaves the contract without owner. It will not be possible to call `onlyOwner` functions anymore. Can only be called by the current owner. NOTE: Renouncing ownership will leave the contract without an owner, thereby removing any functionality that is only available to the owner."
      },
      "setMinDepositAmount(uint256)": {
        "details": "This limit is placed to ensure that the gas fees for the transaction can be covered"
      },
      "transferOwnership(address)": {
        "details": "Transfers ownership of the contract to a new account (`newOwner`). Can only be called by the current owner."
      },
      "withdraw(uint256,uint256)": {
        "details": "In case of ERC721Bank position, amount should be liquidity to withdraw like in UniswapV3PositionsManager",
        "params": {
          "amount": "amount to withdraw",
          "positionId": "position ID"
        }
      }
    },
    "version": 1
  },
  "userdoc": {
    "kind": "user",
    "methods": {
      "adjustLiquidationPoints(uint256,(address,address,bool,uint256,uint256)[])": {
        "notice": "-------------Core logic-------------"
      },
      "botLiquidate(uint256,uint256,uint256,(uint256,uint256,uint256,uint256,int256,address,address[],address,address[][])[],((address,address,uint256,uint256,bytes),address,uint256,address[],uint256[])[])": {
        "notice": "Liquidate a position that has violated some liquidation conditionCan only be called by a keeper"
      },
      "close(uint256,string)": {
        "notice": "Withdraws all funds from a position"
      },
      "deposit((address,address,uint256,uint256,(address,address,bool,uint256,uint256)[]),address[],uint256[])": {
        "notice": "Create new position and deposit into it"
      },
      "depositInExisting(uint256,(address[],uint256[],(address,address,uint256,uint256,bytes)[]),(uint256,uint256,uint256,uint256,int256,address,address[],address,address[][])[],((address,address,uint256,uint256,bytes),address,uint256,address[],uint256[])[],uint256[])": {
        "notice": "Deposit into existing position"
      },
      "getBanks()": {
        "notice": "Returns number of banks"
      },
      "getPosition(uint256)": {
        "notice": "Get position data for position id"
      },
      "getPositions(address)": {
        "notice": "Returns a list of position ids for the user"
      },
      "harvestAndRecompound(uint256,(uint256,uint256,uint256,uint256,int256,address,address[],address,address[][])[],((address,address,uint256,uint256,bytes),address,uint256,address[],uint256[])[],uint256[])": {
        "notice": "Harvest rewards for position and deposit them back to increase position value"
      },
      "harvestRewards(uint256)": {
        "notice": "Harvest and receive the rewards for a position"
      },
      "networkToken()": {
        "notice": "Returns the address of the wrapped network token"
      },
      "numPositions()": {
        "notice": "-------------Public view functions-------------"
      },
      "recommendBank(address)": {
        "notice": "Get a list of banks and bank tokens that support the provided token"
      },
      "setBanks(address[])": {
        "notice": "Updates bank addresses"
      },
      "setKeeper(address,bool)": {
        "notice": "-------------Permissioned functions-------------"
      },
      "setLiquidationFailure(uint256,string)": {
        "notice": "Specify a reason as to why a position can't be liquidated. Such a position should be closed by user"
      },
      "setMinDepositAmount(uint256)": {
        "notice": "Update minimum deposit required for limit orders to be executed"
      },
      "stableToken()": {
        "notice": "Returns the address of the preferred stable token for the network"
      },
      "universalSwap()": {
        "notice": "Returns the address of universal swap"
      },
      "withdraw(uint256,uint256)": {
        "notice": "Withdraw from a position"
      }
    },
    "version": 1
  },
  "storageLayout": {
    "storage": [
      {
        "astId": 6,
        "contract": "contracts/PositionsManager.sol:PositionsManager",
        "label": "_initialized",
        "offset": 0,
        "slot": "0",
        "type": "t_uint8"
      },
      {
        "astId": 9,
        "contract": "contracts/PositionsManager.sol:PositionsManager",
        "label": "_initializing",
        "offset": 1,
        "slot": "0",
        "type": "t_bool"
      },
      {
        "astId": 2747,
        "contract": "contracts/PositionsManager.sol:PositionsManager",
        "label": "__gap",
        "offset": 0,
        "slot": "1",
        "type": "t_array(t_uint256)50_storage"
      },
      {
        "astId": 11407,
        "contract": "contracts/PositionsManager.sol:PositionsManager",
        "label": "_owner",
        "offset": 0,
        "slot": "51",
        "type": "t_address"
      },
      {
        "astId": 11527,
        "contract": "contracts/PositionsManager.sol:PositionsManager",
        "label": "__gap",
        "offset": 0,
        "slot": "52",
        "type": "t_array(t_uint256)49_storage"
      },
      {
        "astId": 5334,
        "contract": "contracts/PositionsManager.sol:PositionsManager",
        "label": "positions",
        "offset": 0,
        "slot": "101",
        "type": "t_array(t_struct(Position)7498_storage)dyn_storage"
      },
      {
        "astId": 5338,
        "contract": "contracts/PositionsManager.sol:PositionsManager",
        "label": "positionClosed",
        "offset": 0,
        "slot": "102",
        "type": "t_mapping(t_uint256,t_bool)"
      },
      {
        "astId": 5343,
        "contract": "contracts/PositionsManager.sol:PositionsManager",
        "label": "userPositions",
        "offset": 0,
        "slot": "103",
        "type": "t_mapping(t_address,t_array(t_uint256)dyn_storage)"
      },
      {
        "astId": 5346,
        "contract": "contracts/PositionsManager.sol:PositionsManager",
        "label": "banks",
        "offset": 0,
        "slot": "104",
        "type": "t_array(t_address_payable)dyn_storage"
      },
      {
        "astId": 5348,
        "contract": "contracts/PositionsManager.sol:PositionsManager",
        "label": "universalSwap",
        "offset": 0,
        "slot": "105",
        "type": "t_address"
      },
      {
        "astId": 5350,
        "contract": "contracts/PositionsManager.sol:PositionsManager",
        "label": "networkToken",
        "offset": 0,
        "slot": "106",
        "type": "t_address"
      },
      {
        "astId": 5352,
        "contract": "contracts/PositionsManager.sol:PositionsManager",
        "label": "stableToken",
        "offset": 0,
        "slot": "107",
        "type": "t_address"
      },
      {
        "astId": 5356,
        "contract": "contracts/PositionsManager.sol:PositionsManager",
        "label": "keepers",
        "offset": 0,
        "slot": "108",
        "type": "t_mapping(t_address,t_bool)"
      },
      {
        "astId": 5358,
        "contract": "contracts/PositionsManager.sol:PositionsManager",
        "label": "minDepositAmount",
        "offset": 0,
        "slot": "109",
        "type": "t_uint256"
      },
      {
        "astId": 5362,
        "contract": "contracts/PositionsManager.sol:PositionsManager",
        "label": "liquidationFailure",
        "offset": 0,
        "slot": "110",
        "type": "t_mapping(t_uint256,t_string_storage)"
      }
    ],
    "types": {
      "t_address": {
        "encoding": "inplace",
        "label": "address",
        "numberOfBytes": "20"
      },
      "t_address_payable": {
        "encoding": "inplace",
        "label": "address payable",
        "numberOfBytes": "20"
      },
      "t_array(t_address_payable)dyn_storage": {
        "base": "t_address_payable",
        "encoding": "dynamic_array",
        "label": "address payable[]",
        "numberOfBytes": "32"
      },
      "t_array(t_struct(LiquidationCondition)7485_storage)dyn_storage": {
        "base": "t_struct(LiquidationCondition)7485_storage",
        "encoding": "dynamic_array",
        "label": "struct LiquidationCondition[]",
        "numberOfBytes": "32"
      },
      "t_array(t_struct(Position)7498_storage)dyn_storage": {
        "base": "t_struct(Position)7498_storage",
        "encoding": "dynamic_array",
        "label": "struct Position[]",
        "numberOfBytes": "32"
      },
      "t_array(t_uint256)49_storage": {
        "base": "t_uint256",
        "encoding": "inplace",
        "label": "uint256[49]",
        "numberOfBytes": "1568"
      },
      "t_array(t_uint256)50_storage": {
        "base": "t_uint256",
        "encoding": "inplace",
        "label": "uint256[50]",
        "numberOfBytes": "1600"
      },
      "t_array(t_uint256)dyn_storage": {
        "base": "t_uint256",
        "encoding": "dynamic_array",
        "label": "uint256[]",
        "numberOfBytes": "32"
      },
      "t_bool": {
        "encoding": "inplace",
        "label": "bool",
        "numberOfBytes": "1"
      },
      "t_mapping(t_address,t_array(t_uint256)dyn_storage)": {
        "encoding": "mapping",
        "key": "t_address",
        "label": "mapping(address => uint256[])",
        "numberOfBytes": "32",
        "value": "t_array(t_uint256)dyn_storage"
      },
      "t_mapping(t_address,t_bool)": {
        "encoding": "mapping",
        "key": "t_address",
        "label": "mapping(address => bool)",
        "numberOfBytes": "32",
        "value": "t_bool"
      },
      "t_mapping(t_uint256,t_bool)": {
        "encoding": "mapping",
        "key": "t_uint256",
        "label": "mapping(uint256 => bool)",
        "numberOfBytes": "32",
        "value": "t_bool"
      },
      "t_mapping(t_uint256,t_string_storage)": {
        "encoding": "mapping",
        "key": "t_uint256",
        "label": "mapping(uint256 => string)",
        "numberOfBytes": "32",
        "value": "t_string_storage"
      },
      "t_string_storage": {
        "encoding": "bytes",
        "label": "string",
        "numberOfBytes": "32"
      },
      "t_struct(LiquidationCondition)7485_storage": {
        "encoding": "inplace",
        "label": "struct LiquidationCondition",
        "members": [
          {
            "astId": 7476,
            "contract": "contracts/PositionsManager.sol:PositionsManager",
            "label": "watchedToken",
            "offset": 0,
            "slot": "0",
            "type": "t_address"
          },
          {
            "astId": 7478,
            "contract": "contracts/PositionsManager.sol:PositionsManager",
            "label": "liquidateTo",
            "offset": 0,
            "slot": "1",
            "type": "t_address"
          },
          {
            "astId": 7480,
            "contract": "contracts/PositionsManager.sol:PositionsManager",
            "label": "lessThan",
            "offset": 20,
            "slot": "1",
            "type": "t_bool"
          },
          {
            "astId": 7482,
            "contract": "contracts/PositionsManager.sol:PositionsManager",
            "label": "liquidationPoint",
            "offset": 0,
            "slot": "2",
            "type": "t_uint256"
          },
          {
            "astId": 7484,
            "contract": "contracts/PositionsManager.sol:PositionsManager",
            "label": "slippage",
            "offset": 0,
            "slot": "3",
            "type": "t_uint256"
          }
        ],
        "numberOfBytes": "128"
      },
      "t_struct(Position)7498_storage": {
        "encoding": "inplace",
        "label": "struct Position",
        "members": [
          {
            "astId": 7487,
            "contract": "contracts/PositionsManager.sol:PositionsManager",
            "label": "user",
            "offset": 0,
            "slot": "0",
            "type": "t_address"
          },
          {
            "astId": 7489,
            "contract": "contracts/PositionsManager.sol:PositionsManager",
            "label": "bank",
            "offset": 0,
            "slot": "1",
            "type": "t_address"
          },
          {
            "astId": 7491,
            "contract": "contracts/PositionsManager.sol:PositionsManager",
            "label": "bankToken",
            "offset": 0,
            "slot": "2",
            "type": "t_uint256"
          },
          {
            "astId": 7493,
            "contract": "contracts/PositionsManager.sol:PositionsManager",
            "label": "amount",
            "offset": 0,
            "slot": "3",
            "type": "t_uint256"
          },
          {
            "astId": 7497,
            "contract": "contracts/PositionsManager.sol:PositionsManager",
            "label": "liquidationPoints",
            "offset": 0,
            "slot": "4",
            "type": "t_array(t_struct(LiquidationCondition)7485_storage)dyn_storage"
          }
        ],
        "numberOfBytes": "160"
      },
      "t_uint256": {
        "encoding": "inplace",
        "label": "uint256",
        "numberOfBytes": "32"
      },
      "t_uint8": {
        "encoding": "inplace",
        "label": "uint8",
        "numberOfBytes": "1"
      }
    }
  }
}