{
  "address": "0x2Bee29DA72A12999AcD54DE9aa0d9cb080197cae",
  "abi": [
    {
      "inputs": [
        {
          "internalType": "contract IUniversalSwap",
          "name": "_universalSwap",
          "type": "address"
        },
        {
          "internalType": "contract ConversionHelper",
          "name": "_conversionHelper",
          "type": "address"
        }
      ],
      "stateMutability": "nonpayable",
      "type": "constructor"
    },
    {
      "inputs": [],
      "name": "conversionHelper",
      "outputs": [
        {
          "internalType": "contract ConversionHelper",
          "name": "",
          "type": "address"
        }
      ],
      "stateMutability": "view",
      "type": "function"
    },
    {
      "inputs": [
        {
          "internalType": "address[]",
          "name": "inputTokens",
          "type": "address[]"
        },
        {
          "internalType": "uint256[]",
          "name": "inputAmounts",
          "type": "uint256[]"
        },
        {
          "internalType": "uint256[]",
          "name": "inputValues",
          "type": "uint256[]"
        },
        {
          "internalType": "address[]",
          "name": "outputTokens",
          "type": "address[]"
        },
        {
          "internalType": "uint256[]",
          "name": "outputValues",
          "type": "uint256[]"
        }
      ],
      "name": "findMultipleSwaps",
      "outputs": [
        {
          "components": [
            {
              "internalType": "uint256",
              "name": "amountIn",
              "type": "uint256"
            },
            {
              "internalType": "uint256",
              "name": "valueIn",
              "type": "uint256"
            },
            {
              "internalType": "uint256",
              "name": "amountOut",
              "type": "uint256"
            },
            {
              "internalType": "uint256",
              "name": "valueOut",
              "type": "uint256"
            },
            {
              "internalType": "int256",
              "name": "slippage",
              "type": "int256"
            },
            {
              "internalType": "address",
              "name": "tokenIn",
              "type": "address"
            },
            {
              "internalType": "address[]",
              "name": "swappers",
              "type": "address[]"
            },
            {
              "internalType": "address",
              "name": "tokenOut",
              "type": "address"
            },
            {
              "internalType": "address[][]",
              "name": "paths",
              "type": "address[][]"
            }
          ],
          "internalType": "struct SwapPoint[]",
          "name": "bestSwaps",
          "type": "tuple[]"
        }
      ],
      "stateMutability": "view",
      "type": "function"
    },
    {
      "inputs": [
        {
          "components": [
            {
              "internalType": "address[]",
              "name": "tokens",
              "type": "address[]"
            },
            {
              "internalType": "uint256[]",
              "name": "amounts",
              "type": "uint256[]"
            },
            {
              "components": [
                {
                  "internalType": "address",
                  "name": "pool",
                  "type": "address"
                },
                {
                  "internalType": "address",
                  "name": "manager",
                  "type": "address"
                },
                {
                  "internalType": "uint256",
                  "name": "tokenId",
                  "type": "uint256"
                },
                {
                  "internalType": "uint256",
                  "name": "liquidity",
                  "type": "uint256"
                },
                {
                  "internalType": "bytes",
                  "name": "data",
                  "type": "bytes"
                }
              ],
              "internalType": "struct Asset[]",
              "name": "nfts",
              "type": "tuple[]"
            }
          ],
          "internalType": "struct Provided",
          "name": "provided",
          "type": "tuple"
        },
        {
          "components": [
            {
              "internalType": "address[]",
              "name": "outputERC20s",
              "type": "address[]"
            },
            {
              "components": [
                {
                  "internalType": "address",
                  "name": "pool",
                  "type": "address"
                },
                {
                  "internalType": "address",
                  "name": "manager",
                  "type": "address"
                },
                {
                  "internalType": "uint256",
                  "name": "tokenId",
                  "type": "uint256"
                },
                {
                  "internalType": "uint256",
                  "name": "liquidity",
                  "type": "uint256"
                },
                {
                  "internalType": "bytes",
                  "name": "data",
                  "type": "bytes"
                }
              ],
              "internalType": "struct Asset[]",
              "name": "outputERC721s",
              "type": "tuple[]"
            },
            {
              "internalType": "uint256[]",
              "name": "ratios",
              "type": "uint256[]"
            },
            {
              "internalType": "uint256[]",
              "name": "minAmountsOut",
              "type": "uint256[]"
            }
          ],
          "internalType": "struct Desired",
          "name": "desired",
          "type": "tuple"
        },
        {
          "components": [
            {
              "internalType": "uint256",
              "name": "amountIn",
              "type": "uint256"
            },
            {
              "internalType": "uint256",
              "name": "valueIn",
              "type": "uint256"
            },
            {
              "internalType": "uint256",
              "name": "amountOut",
              "type": "uint256"
            },
            {
              "internalType": "uint256",
              "name": "valueOut",
              "type": "uint256"
            },
            {
              "internalType": "int256",
              "name": "slippage",
              "type": "int256"
            },
            {
              "internalType": "address",
              "name": "tokenIn",
              "type": "address"
            },
            {
              "internalType": "address[]",
              "name": "swappers",
              "type": "address[]"
            },
            {
              "internalType": "address",
              "name": "tokenOut",
              "type": "address"
            },
            {
              "internalType": "address[][]",
              "name": "paths",
              "type": "address[][]"
            }
          ],
          "internalType": "struct SwapPoint[]",
          "name": "swaps",
          "type": "tuple[]"
        },
        {
          "components": [
            {
              "components": [
                {
                  "internalType": "address",
                  "name": "pool",
                  "type": "address"
                },
                {
                  "internalType": "address",
                  "name": "manager",
                  "type": "address"
                },
                {
                  "internalType": "uint256",
                  "name": "tokenId",
                  "type": "uint256"
                },
                {
                  "internalType": "uint256",
                  "name": "liquidity",
                  "type": "uint256"
                },
                {
                  "internalType": "bytes",
                  "name": "data",
                  "type": "bytes"
                }
              ],
              "internalType": "struct Asset",
              "name": "desiredERC721",
              "type": "tuple"
            },
            {
              "internalType": "address",
              "name": "desiredERC20",
              "type": "address"
            },
            {
              "internalType": "uint256",
              "name": "value",
              "type": "uint256"
            },
            {
              "internalType": "address[]",
              "name": "underlying",
              "type": "address[]"
            },
            {
              "internalType": "uint256[]",
              "name": "underlyingValues",
              "type": "uint256[]"
            }
          ],
          "internalType": "struct Conversion[]",
          "name": "conversions",
          "type": "tuple[]"
        }
      ],
      "name": "getAmountsOut",
      "outputs": [
        {
          "internalType": "uint256[]",
          "name": "amounts",
          "type": "uint256[]"
        },
        {
          "internalType": "uint256[]",
          "name": "expectedUSDValues",
          "type": "uint256[]"
        }
      ],
      "stateMutability": "view",
      "type": "function"
    },
    {
      "inputs": [
        {
          "components": [
            {
              "internalType": "uint256",
              "name": "amountIn",
              "type": "uint256"
            },
            {
              "internalType": "uint256",
              "name": "valueIn",
              "type": "uint256"
            },
            {
              "internalType": "uint256",
              "name": "amountOut",
              "type": "uint256"
            },
            {
              "internalType": "uint256",
              "name": "valueOut",
              "type": "uint256"
            },
            {
              "internalType": "int256",
              "name": "slippage",
              "type": "int256"
            },
            {
              "internalType": "address",
              "name": "tokenIn",
              "type": "address"
            },
            {
              "internalType": "address[]",
              "name": "swappers",
              "type": "address[]"
            },
            {
              "internalType": "address",
              "name": "tokenOut",
              "type": "address"
            },
            {
              "internalType": "address[][]",
              "name": "paths",
              "type": "address[][]"
            }
          ],
          "internalType": "struct SwapPoint[]",
          "name": "swaps",
          "type": "tuple[]"
        },
        {
          "internalType": "address[]",
          "name": "tokens",
          "type": "address[]"
        },
        {
          "internalType": "uint256[]",
          "name": "amounts",
          "type": "uint256[]"
        }
      ],
      "name": "simulateSwaps",
      "outputs": [
        {
          "internalType": "address[]",
          "name": "tokensOut",
          "type": "address[]"
        },
        {
          "internalType": "uint256[]",
          "name": "amountsOut",
          "type": "uint256[]"
        }
      ],
      "stateMutability": "view",
      "type": "function"
    },
    {
      "inputs": [],
      "name": "universapSwap",
      "outputs": [
        {
          "internalType": "contract IUniversalSwap",
          "name": "",
          "type": "address"
        }
      ],
      "stateMutability": "view",
      "type": "function"
    }
  ],
  "transactionHash": "0xbebc827d5ed14b439f49797d70b19aeb2ae7d17f7646fbd625681bf5a17965a8",
  "args": [
    "0x83D32C543A90e89c83a449C7F1486c101b9Dcda2",
    "0x8E6A53c183e2203199Ad4bAAb9db3a6879183032"
  ],
  "numDeployments": 3,
  "solcInputHash": "6706525d7cf8761db6896821476dc820",
  "bytecode": "0x6080346200009157601f6200353438819003918201601f19168301916001600160401b0383118484101762000096578084926040948552833981010312620000915780516001600160a01b039182821691829003620000915760200151918216809203620000915760018060a01b03199081600154161760015560005416176000556040516134879081620000ad8239f35b600080fd5b634e487b7160e01b600052604160045260246000fdfe610580604052600436101561001357600080fd5b60003560e01c80632ae68b0614610cf55780639b0b872b14610ccc578063b1674db214610c3f578063cfb8bc3214610c165763ff4be9c01461005457600080fd5b34610831576080366003190112610831576004356001600160401b03811161083157606060031982360301126108315760405190610091826122c5565b80600401356001600160401b038111610831576100b49060043691840101612399565b825260248101356001600160401b038111610831576100d990600436918401016123ff565b60208301526044810135906001600160401b038211610831576004610101923692010161285f565b60408201526001600160401b03602435116108315760806024353603600319011261083157604051608081018181106001600160401b03821117610c0057604052602435600401356001600160401b0381116108315761016990600436916024350101612399565b81526024803501356001600160401b038111610831576101919060043691602435010161285f565b6020820152604460243501356001600160401b038111610831576101bd906004369160243501016123ff565b60408201526001600160401b036064602435013511610831576101eb366024356064810135016004016123ff565b60608201526044356001600160401b0381116108315761020f9036906004016125bb565b916001600160401b036064351161083157366023606435011215610831576064356004013561023d8161236e565b9261024b604051948561234d565b8184526020840180923660248260051b60643501011161083157602460649793979594953501915b60248260051b60643501018310610afc575050506060916060956000945b865186101561041f5760005b60606102a9888a6129c2565b51015151811015610406576102df6001600160a01b036102d78360606102cf8c8e6129c2565b5101516129c2565b511689613359565b6102f2575b6102ed90612986565b61029d565b9197939591926001600160a01b036103108560606102cf878d6129c2565b51169886516001810181116103f057600161032b9101612ad9565b9760005b885181101561036557610360906001600160a01b0361034e828c6129c2565b511661035a828d6129c2565b52612986565b61032f565b5095999097919894966103799051836129c2565b529361038b8660806102cf86886129c2565b519789516001810181116103f05760016103a59101612ad9565b9760005b8b518110156103d057806103c06103cb928e6129c2565b5161035a828d6129c2565b6103a9565b5093979094986103e76102ed9397989b51836129c2565b529890506102e4565b634e487b7160e01b600052601160045260246000fd5b50919461041590939193612986565b9491929092610291565b91906104348488936020815191015191612c68565b6104805161046051926104478451612ad9565b946000935b85518510156104fc57845b86518110156104e75780866104769211806104be575b61047b57612986565b610457565b61049a61048888886129c2565b5161049383896129c2565b51906129d6565b6104a488886129c2565b5260006104b182886129c2565b52600161035a828b6129c2565b506001600160a01b03806104d2898b6129c2565b5116906104df838b6129c2565b51161461046d565b509190936104f490612986565b93909161044c565b6000959450855b855181101561053c5761051681866129c2565b5161052a575b61052590612986565b610503565b95600181018091116103f0579561051c565b5083868661055261054c83612ad9565b92612ad9565b9360009660005b83518110156105c75761056c81876129c2565b51610580575b61057b90612986565b610559565b976001600160a01b036105938a866129c2565b511661059f82876129c2565b526105aa89876129c2565b516105b582896129c2565b52600181018091116103f05797610572565b5060008054835160405163d008925360e01b8152608060048201529351608485018190526001600160a01b039092169284928a92899260a4600584901b87018101938f92909188015b828210610a79575050505060009593610650869461063e86956106629560031988830301602489015261245d565b8581036003190160448701529061245d565b8381036003190160648501529061277d565b03915afa90811561083e57600091610a56575b506106808151612ad9565b60018054919390916001600160a01b0316906000835b6108cb575b506000835b6106d3575b6106c1856106cf8860405193849360408552604085019061277d565b90838203602085015261277d565b0390f35b6020820151518110156108c6576106f56106ef828451516129d6565b866129c2565b5160606107068360208601516129c2565b5101526040519061071682612317565b84825260005b6020811061088c57506107338160208501516129c2565b5161073d83612995565b5261074782612995565b506040519161075583612332565b6000835260405161076581612332565b6000815260405193610776856122c5565b84526020840152604083015260405163a9d75b2b60e01b8152602081600481885afa90811561083e5760009161084a575b50604051639b1fbbe760e01b815292602091849182916107ca9160048401612b1f565b0381875afa801561083e578592600091610800575b50906107fa9161035a6107f4838751516129d6565b8a6129c2565b906106a0565b919250506020813d602011610836575b8161081d6020938361234d565b8101031261083157518491906107fa6107df565b600080fd5b3d9150610810565b6040513d6000823e3d90fd5b90506020813d602011610884575b816108656020938361234d565b81010312610831576107ca9261087c602092612b0b565b9150926107a7565b3d9150610858565b60209060405161089b816122aa565b600081526000838201526000604082015260006060820152606060808201528282860101520161071c565b6106a5565b815151811015610a5157604051906108e282612317565b848252602036818401376040516108f881612317565b8581526020368183013783516001600160a01b03906109189084906129c2565b511661092384612995565b5261092e82886129c2565b5161093882612995565b526040519061094682612332565b6000825260405193610957856122c5565b84526020840152604083015260405163a9d75b2b60e01b8152602081600481885afa90811561083e57600091610a0f575b50604051639b1fbbe760e01b815292602091849182916109ab9160048401612b1f565b0381875afa801561083e5785926000916109d6575b50906109d09161035a828a6129c2565b90610696565b919250506020813d602011610a07575b816109f36020938361234d565b8101031261083157518491906109d06109c0565b3d91506109e6565b90506020813d602011610a49575b81610a2a6020938361234d565b81010312610831576109ab92610a41602092612b0b565b915092610988565b3d9150610a1d565b61069b565b610a7391503d806000833e610a6b818361234d565b8101906129e3565b82610675565b9193946020610ae9819260019496999a9b60a3199082030186528951906080610ad8610aad845160a0808652850190612a5c565b888060a01b03878601511687850152604085015160408501526060850151848203606086015261245d565b92015190608081840391015261277d565b9701920192018997969594939192610610565b82979397959495356001600160401b0381116108315760a06064358201360360231901126108315760405190610b31826122aa565b6001600160401b036024826064350101351161083157610b5d36602460643584018181013501016127b1565b8252610b6f6044826064350101612385565b6020830152606481813501013560408301526001600160401b036084826064350101351161083157610bae366064358301608481013501602401612399565b60608301526001600160401b0360a48260643501013511610831576024926020928392610be89036906064350160a48101350187016123ff565b60808201528152019301929050969296949394610273565b634e487b7160e01b600052604160045260246000fd5b34610831576000366003190112610831576001546040516001600160a01b039091168152602090f35b34610831576060366003190112610831576001600160401b0360043581811161083157610c709036906004016125bb565b60243582811161083157610c88903690600401612399565b60443592831161083157610ca3610ca99336906004016123ff565b91612c68565b6106c1610480516106cf610460519160405193849360408552604085019061245d565b34610831576000366003190112610831576000546040516001600160a01b039091168152602090f35b346108315760a0366003190112610831576001600160401b0360043581811161083157610d26903690600401612399565b9060243581811161083157610d3f9036906004016123ff565b6103a05260443581811161083157610d5b9036906004016123ff565b6101005260643581811161083157610d77903690600401612399565b60805260843590811161083157610d929036906004016123ff565b61038052610dad610da8825160805151906128df565b612936565b610260526000610160526001546001600160a01b0316610280525b8051610160511015611d15576000610180525b60805151610180511015611d005761016051610ec5906001600160a01b0390610e0490846129c2565b5116610ebd60018060a01b03610e1f610180516080516129c2565b511691610e3261018051610380516129c2565b51610e43610160516103a0516129c2565b5193610e5561016051610100516129c2565b5192610e67604051806102e0526122aa565b6102e0515260206102e051015260406102e0510190815260606102e0510193845260806102e05101918252610e9a6128f2565b5051815160006103c052811115611ce0575082516103c0525b516103c0516128df565b905190612c04565b6101205260405163045725af60e41b8152600081600481610280515afa801561083e57600061030052611cc2575b506040516307dc0d1d60e41b8152602081600481610280515afa90811561083e57600091611c88575b5060018060a01b0360206102e05101511660405190633654ad2760e11b8252602082600481610280515afa91821561083e57600092611c49575b50604051635620c32d60e11b815260048101919091526001600160a01b0391821660248201529160209183916044918391165afa801561083e57600061014052611c15575b506102e05180516001600160a01b039081166101a0526020909101511661020052604051610240819052610fce906122fc565b608036610240513760606102205260606102a05260405163045725af60e41b8152600081600481610280515afa801561083e5760006101e052611bf7575b506000610320525b6101e051805161032051908110156112d8576001600160a01b039161103991906129c2565b51166102c0526040518060c05263152e03fd60e11b9052600060c0516004816102c0515afa80610360521561083e57600060a052610360516112ad575b60005b60a051518110156112975760405190611091826122fc565b6003825260603660208401376101a0516110aa83612995565b5260a0516001600160a01b03906110c29083906129c2565b51166110cd836129a2565b526101a0516110db836129b2565b5260405163b8239ebb60e01b81526103c0516004820152604060248201526020818061110a604482018761245d565b03816102c0515afa90811561083e57600091611263575b506111bb9261117060209260405190611139826122fc565b60038252606036868401376103205161115183612995565b528561115c836129a2565b52611166826129b2565b52610220516133d9565b610220526102005161118182612995565b526102005161118f826129b2565b526040518094819263b8239ebb60e01b83526103c051600484015260406024840152604483019061245d565b03816102c0515afa91821561083e5760009261122d575b5061121f61122892604051906111e7826122fc565b6003825260603660208401376103205161120083612995565b528361120b836129a2565b52611215826129b2565b526102a0516133d9565b6102a052612986565b611079565b91506020823d60201161125b575b816112486020938361234d565b810103126108315790519061121f6111d2565b3d915061123b565b90506020813d60201161128f575b8161127e6020938361234d565b8101031261083157516111bb611121565b3d9150611271565b506112a461032051612986565b61032052611014565b6112d03d80600060c0513e6112c48160c05161234d565b60c05190810190613028565b60a052611076565b505060006103e0526000806101c05260009160005b6102205180518210156113435761131161130b836103e051936129c2565b516129b2565b5111611326575b61132190612986565b6112ed565b915061133861130b83610220516129c2565b516103e05281611318565b505060005b6102a05180518210156113985761136661130b836101c051936129c2565b511161137b575b61137690612986565b611348565b925061138d61130b846102a0516129c2565b516101c0528261136d565b5050919060018060a01b036113c66113bc6113b684610220516129c2565b51612995565b516101e0516129c2565b511661024051526004600060018060a01b036113eb6113bc6113b686610220516129c2565b51166040519283809263152e03fd60e11b82525afa801561083e5761143b91600091611bdc575b50610220516001600160a01b03936114349161142e91906129c2565b516129a2565b51906129c2565b5116602061024051015260018060a01b0361145f6113bc6113b6846102a0516129c2565b511660406102405101526004600060018060a01b036114876113bc6113b6866102a0516129c2565b51166040519283809263152e03fd60e11b82525afa801561083e576114ca91600091611bb9575b506102a0516001600160a01b03936114349161142e91906129c2565b5116606061024051015261030051516003810181116103f05760036114ef9101612936565b60e05261030051516003810181116103f057600361150d9101612ad9565b6103405260005b610300515181101561161b57611616906115fc60405161153381612317565b6001815261154360208201612bca565b60405161154f816122c5565b60028152604036602083013761156482612995565b5261156e81612995565b506102e051516001600160a01b03166115896113b683612995565b526102e051602001516001600160a01b03166115a761142e83612995565b526040516115b481612317565b6001815260203681830137610300516001600160a01b03906115d79086906129c2565b51166115e282612995565b52610120519161014051916102e051916103c05191613118565b61160983610340516129c2565b5261035a8260e0516129c2565b611514565b5061170e6116ef60405161162e81612317565b6001815261163e60208201612bca565b60405161164a816122fc565b60038152606036602083013761165f82612995565b5261166981612995565b506102e051516001600160a01b03166116846113b683612995565b5261024051602001516001600160a01b03166116a261142e83612995565b526102e051602001516001600160a01b03166116c061130b83612995565b526040516116cd81612317565b600181526020368183013761024051516001600160a01b03166115e282612995565b61030092919251519061170582610340516129c2565b5260e0516129c2565b526117e260405161171e81612317565b6001815261172e60208201612bca565b60405161173a816122fc565b60038152606036602083013761174f82612995565b5261175981612995565b506102e051516001600160a01b03166117746113b683612995565b5261024051606001516001600160a01b031661179261142e83612995565b526102e051602001516001600160a01b03166117b061130b83612995565b526040516117bd81612317565b600181526020368183013761024051604001516001600160a01b03166115e282612995565b610300518051906001820182116103f05751906001820182116103f05761181e926118146001809401610340516129c2565b520160e0516129c2565b526102405180516040909101516001600160a01b03908116911614611aa057604051611849816122c5565b6002815260005b60408110611a8f5750806119b2919060405161186b816122c5565b6002815260403660208301378091604051611885816122c5565b60028152604036602083013761189a82612995565b526118a481612995565b506102e051516001600160a01b03166118bf6113b683612995565b5261024051602001516001600160a01b03166118dd61142e83612995565b526040516118ea816122fc565b6003815260603660208301376118ff826129a2565b52611909816129a2565b5061024051602001516001600160a01b03166119276113b6836129a2565b5261024051606001516001600160a01b031661194561142e836129a2565b526102e051602001516001600160a01b0316906119659061130b906129a2565b5261024051516001600160a01b031661197d82612995565b5261024051604001516001600160a01b0316906115e2906129a2565b610120519161014051916102e051916103c05191613118565b61030051805160029182820182116103f057519282840184116103f057611814836119e19501610340516129c2565b526000809160005b610340518051821015611a3057611a018285926129c2565b5111611a16575b611a1190612986565b6119e9565b809350611a28919250610340516129c2565b519082611a08565b505091611a799150611a449060e0516129c2565b51611a6161018051611a5c60805151610160516128df565b6129d6565b90611a6f82610260516129c2565b52610260516129c2565b50611a8661018051612986565b61018052610ddb565b806060602080938501015201611850565b604051611aac81612317565b60018152611abc60208201612bca565b80604051611ac981612317565b600181526020368183013761024051516001600160a01b0316611aeb82612995565b52604051611af8816122aa565b600481526080366020830137611b0d84612995565b52611b1783612995565b506102e051516001600160a01b0316611b326113b685612995565b5261024051602001516001600160a01b0316611b5061142e85612995565b5261024051606001516001600160a01b0316611b6e61130b85612995565b526102e051602001516001600160a01b031692611b8a90612995565b5192835160031015611ba35760806119b2940152611999565b634e487b7160e01b600052603260045260246000fd5b611bd691503d806000833e611bce818361234d565b810190613028565b846114ae565b611bf191503d806000833e611bce818361234d565b85611412565b611c0b903d806000833e611bce818361234d565b6101e0528161100c565b6020813d602011611c41575b81611c2e6020938361234d565b8101031261083157516101405281610f9b565b3d9150611c21565b91506020823d602011611c80575b81611c646020938361234d565b81010312610831576044611c79602093612b0b565b9250610f56565b3d9150611c57565b90506020813d602011611cba575b81611ca36020938361234d565b8101031261083157611cb490612b0b565b82610f1c565b3d9150611c96565b611cd6903d806000833e611bce818361234d565b6103005281610ef3565b611cef611cf7918551906128df565b825190612c04565b6103c052610eb3565b611d0c61016051612986565b61016052610dc8565b611d226102605151612936565b906000905b6102605151821015611de6576001600160801b039160009160005b610260518051821015611d96576080611d5c8388936129c2565b51015112611d73575b611d6e90612986565b611d42565b935091508291611d6e6080611d8b86610260516129c2565b510151949050611d65565b505092506001600160801b036080611dd8611de094611db881610260516129c2565b51611dc3868a6129c2565b52611dce85896129c2565b50610260516129c2565b510152612986565b90611d27565b9050611df28251612936565b90611dfd8151612ad9565b611e0a6103805151612ad9565b60405191611e17836122c5565b825260208201526000604082015260005b845181101561211b576020611e3d82876129c2565b51015190611e626001600160a01b0360a0611e58848a6129c2565b5101511685613315565b611e856001600160a01b0360e0611e79858b6129c2565b51015116608051613315565b9060405193611e93856122c5565b8452602084015260408301526001600160a01b0360a0611eb383896129c2565b510151161580156120fc575b6120f257611ed383516020840151906129c2565b51611ee56020840151610100516129c2565b5111806120c5575b611f0057611efb9150612986565b611e28565b611f2c611f146020840151610100516129c2565b51611f2585516020860151906129c2565b5190612c5b565b91611f55611f416040830151610380516129c2565b51611f2560208701516040850151906129c2565b815190938181106120bd5750925b8084116120b5575b50611fa2611f8a611f8360208401516103a0516129c2565b51856128df565b611f9b6020840151610100516129c2565b5190612c04565b611fac83896129c2565b5152826020611fbb848a6129c2565b5101526060611fef611fda82611fd1868c6129c2565b510151866128df565b6020611fe6868c6129c2565b51015190612c04565b90611ffa848a6129c2565b510152612024612018604061200f858b6129c2565b510151856128df565b6020611fe6858b6129c2565b6040612030848a6129c2565b51015261205861204083896129c2565b51604086015190612051828a6129c2565b52876129c2565b5060408401516001810181116103f057611efb93600161035a92016040870152855161209c60208501516120968461209083866129c2565b516129d6565b926129c2565b52612096604060208801519401519161209083866129c2565b925087611f6b565b905092611f63565b506120d960208401516040840151906129c2565b516120eb6040840151610380516129c2565b5111611eed565b611efb9150612986565b506001600160a01b0360e061211183896129c2565b5101511615611ebf565b505060009160005b8151811015612185576001600160a01b0360a061214083856129c2565b51015116151580612171575b61215f575b61215a90612986565b612123565b92600181018091116103f05792612151565b5061217c81836129c2565b5151151561214c565b509161219090612936565b60009260005b8151811015612219576001600160a01b0360a06121b383856129c2565b51015116151580612205575b6121d2575b6121cd90612986565b612196565b936121dd85836129c2565b516121e882856129c2565b526121f381846129c2565b50600181018091116103f057936121c4565b5061221081836129c2565b515115156121bf565b505060005b81518110156122945761223181836129c2565b515190670de0b6b3a764000091808302928304036103f05761228f9161227e90611f9b6122756001600160a01b0360a061226b878a6129c2565b5101511688613315565b6103a0516129c2565b61228882856129c2565b5152612986565b61221e565b604051602080825281906106cf9082018561249a565b60a081019081106001600160401b03821117610c0057604052565b606081019081106001600160401b03821117610c0057604052565b61012081019081106001600160401b03821117610c0057604052565b608081019081106001600160401b03821117610c0057604052565b604081019081106001600160401b03821117610c0057604052565b602081019081106001600160401b03821117610c0057604052565b90601f801991011681019081106001600160401b03821117610c0057604052565b6001600160401b038111610c005760051b60200190565b35906001600160a01b038216820361083157565b81601f82011215610831578035916123b08361236e565b926123be604051948561234d565b808452602092838086019260051b820101928311610831578301905b8282106123e8575050505090565b8380916123f484612385565b8152019101906123da565b81601f82011215610831578035916124168361236e565b92612424604051948561234d565b808452602092838086019260051b820101928311610831578301905b82821061244e575050505090565b81358152908301908301612440565b90815180825260208080930193019160005b82811061247d575050505090565b83516001600160a01b03168552938101939281019260010161246f565b90808251908181526020809101600590828085841b870101960194600092835b8685106124cc57505050505050505090565b909192939495969786601f19808684030187528a519283518152828401518382015260408085015190820152606080850151908201526080808501519082015260018060a01b039060a08281870151169082015261253a60c08087015190610120809185015283019061245d565b9160e09081870151169082015261010080950151948183039101528351808252838201918480838a1b83010196019387905b83821061258f57505050505050806001929a0195019501939695949291906124ba565b919395806125aa898588600196989a9c03018a528a5161245d565b9801960192018c959492939161256c565b9080601f83011215610831578135916125d38361236e565b926040906125e38251958661234d565b808552602093848087019260051b8501019381851161083157858101925b858410612612575050505050505090565b6001600160401b0384358181116108315783019061012080601f19848803011261083157875192818401848110848211176127685789528a8101358452888101358b850152606091828201358a860152608092838301359086015260a092838301359086015260c092612686848401612385565b9086015260e0928383013585811161083157898e6126a692860101612399565b90860152610100926126b9848401612385565b9086015281013590838211610831570186603f82011215610831578a810135906126e28261236e565b936126ef8b51958661234d565b8285528a8d86019360051b830101918983116108315790918d9694928c839997959901925b8284106127305750505050849550820152815201930192612601565b9193959750919395978435838111610831578f916127548f8e908594870101612399565b8152019401918e9795939198969498612714565b60246000634e487b7160e01b81526041600452fd5b90815180825260208080930193019160005b82811061279d575050505090565b83518552938101939281019260010161278f565b919060a08382031261083157604051926127ca846122aa565b836127d482612385565b815260206127e3818401612385565b81830152604083013560408301526060830135606083015260808301356001600160401b039384821161083157019084601f83011215610831578135938411610c00576040519461283d601f8601601f191683018761234d565b8486528185840101116108315783608094826000940183880137850101520152565b9080601f83011215610831578135906128778261236e565b92612885604051948561234d565b828452602092838086019160051b8301019280841161083157848301915b8483106128b35750505050505090565b82356001600160401b0381116108315786916128d4848480948901016127b1565b8152019201916128a3565b818102929181159184041417156103f057565b604051906128ff826122e0565b606061010083600080825280602083015280604083015280848301528060808301528060a08301528360c083015260e08201520152565b906129408261236e565b61294d604051918261234d565b828152809261295e601f199161236e565b019060005b82811061296f57505050565b60209061297a6128f2565b82828501015201612963565b60001981146103f05760010190565b805115611ba35760200190565b805160011015611ba35760400190565b805160021015611ba35760600190565b8051821015611ba35760209160051b010190565b919082018092116103f057565b6020908181840312610831578051906001600160401b03821161083157019180601f84011215610831578251612a188161236e565b93612a26604051958661234d565b818552838086019260051b820101928311610831578301905b828210612a4d575050505090565b81518152908301908301612a3f565b9190608060018060a01b03938481511683526020948582015116858401526040810151604084015260608101516060840152015160a060808301528051908160a084015260005b828110612ac557505060c09293506000838284010152601f8019910116010190565b81810186015184820160c001528501612aa3565b90612ae38261236e565b612af0604051918261234d565b8281528092612b01601f199161236e565b0190602036910137565b51906001600160a01b038216820361083157565b9092919260408252612b3d81516060604085015260a084019061245d565b6020916040612b5d8483015193603f19948588830301606089015261277d565b9101519184820301608085015281518082528382019184808360051b8301019401926000915b86848410612b9f575050505050509360018060a01b0316910152565b80612bbb6001939495969798601f198682030187528951612a5c565b97019301930191939290612b83565b60005b60208110612bd9575050565b606082820152602001612bcd565b60005b828110612bf657505050565b606082820152602001612bea565b8115612c0e570490565b634e487b7160e01b600052601260045260246000fd5b90612c59612c318361236e565b612c3e604051918261234d565b83815260208194612c51601f199161236e565b019101612be7565b565b919082039182116103f057565b9091612c8d92826104a052610400526104405260006104605260006104805251612ad9565b61046052612c9e6104a05151612ad9565b61048052612caf6104a05151612936565b6104e052612cf36104a05151612cd4612cc78261236e565b604051806105405261234d565b806105405152612ce6601f199161236e565b0160206105405101612be7565b6000610420525b6104a0518051610420519081101561302457612d22612d6091670de0b6b3a7640000936129c2565b5151612d59612d5060018060a01b0360a0612d43610420516104a0516129c2565b5101511661040051613315565b610440516129c2565b51906128df565b0490612d8060c0612d77610420516104a0516129c2565b51015151612c24565b612d9061042051610540516129c2565b52612da161042051610540516129c2565b5060005b60c0612db7610420516104a0516129c2565b51015151811015612f9b5760018060a01b03612ddf8260c06102cf610420516104a0516129c2565b511692612df9826101006102cf610420516104a0516129c2565b5193612e24604051958693636073ec6f60e11b8552600485015260806024850152608484019061245d565b600319808483030160448501526105405151808352602083019260059361056094602084821b840101865260206105405101926000935b858510612f0a575050505050509280612e8783600096838097965103016064840152516104e05161249a565b03915afa92831561083e57600093612eed575b50825190816000198101116103f057612ee281612ebe612ee89460001901876129c2565b5195612ed061042051610540516129c2565b5190612edc83836129c2565b526129c2565b50612986565b612da5565b612f039193503d806000833e610a6b818361234d565b9138612e9a565b601f1982895103018452805161052090808252895190518091528951916020808401918161050095858a1b0101855251016104c09081526000915b838310612f66575050505060206001928192518b5201940194019392612e5b565b9e9f9e60206001918e601f199051885103018152612f87875185515161277d565b8752818451018452019201919f9e9f612f45565b509060018060a01b0360e0612fb6610420516104a0516129c2565b51015116612fca61042051610460516129c2565b52612fdb61042051610480516129c2565b52612fec610420516104a0516129c2565b51612ffd610420516104e0516129c2565b5261300e610420516104e0516129c2565b5061301b61042051612986565b61042052612cfa565b5050565b6020908181840312610831578051906001600160401b03821161083157019180601f8401121561083157825161305d8161236e565b9361306b604051958661234d565b818552838086019260051b820101928311610831578301905b828210613092575050505090565b83809161309e84612b0b565b815201910190613084565b801561311257600190602081108216604e821083161761310a578190600a925b8082116130e1575050816000190481116103f0570290565b9092806000190481116103f057818416613101575b800292811c906130c9565b809202916130f6565b9050600a0a90565b50600190565b9295919093946131266128f2565b50819660005b8886518210156131eb57506001600160a01b0361314982886129c2565b5116613187613158838a6129c2565b5160409b8c5193849163b8239ebb60e01b835260048301528d602483015281806020958695604483019061245d565b03915afa9a8b156131e1575060009a6131ae575b50506131a78991612986565b905061312c565b81813d83116131da575b6131c2818361234d565b810103126131d6575198506131a73861319b565b8980fd5b503d6131b8565b513d6000823e3d90fd5b90506131fd91929497969593966128df565b926020938483019260018060a01b0391600487848751166040519283809263313ce56760e01b82525afa90811561083e576000916132d5575b509061324760ff61324d93166130a9565b90612c04565b908184039260008312858512811690868613901516176103f05764e8d4a5100093808502948505036103f0578415612c0e57600160ff1b84146000198614166103f057808592511695511696604051996132a68b6122e0565b8a52890152896040890152606088015205608086015260a085015260c084015260e08301526101008201529190565b8881813d831161330e575b6132ea818361234d565b8101031261330a57519060ff821682036133075750613247613236565b80fd5b5080fd5b503d6132e0565b9060005b8251811015613353576001600160a01b038061333583866129c2565b51169083161461334d5761334890612986565b613319565b91505090565b50505190565b60005b81518110156133d15760206001600160a01b03808261337b85876129c2565b510151169080861680921492836133aa575b5050506133a25761339d90612986565b61335c565b505050600090565b9091925060606133ba85876129c2565b510151805115611ba357015116141538808061338d565b505050600190565b908151916001928381018091116103f0576133f390612c24565b926000815b613419575b5050516134159161340e82856129c2565b52826129c2565b5090565b825181101561344c578061343061344692856129c2565b5161343b82886129c2565b52612ee281876129c2565b816133f8565b6133fd56fea2646970667358221220fffe339de1b4608082a129ec919f4ab7c305dc2ac61d8af889a8eef8337d7d0c64736f6c63430008110033",
  "devdoc": {
    "kind": "dev",
    "methods": {},
    "version": 1
  },
  "userdoc": {
    "kind": "user",
    "methods": {
      "findMultipleSwaps(address[],uint256[],uint256[],address[],uint256[])": {
        "notice": "-------------Internal logic-------------"
      }
    },
    "version": 1
  },
  "storageLayout": {
    "storage": [
      {
        "astId": 21260,
        "contract": "contracts/UniversalSwap/SwapHelper.sol:SwapHelper",
        "label": "conversionHelper",
        "offset": 0,
        "slot": "0",
        "type": "t_contract(ConversionHelper)19065"
      },
      {
        "astId": 21263,
        "contract": "contracts/UniversalSwap/SwapHelper.sol:SwapHelper",
        "label": "universapSwap",
        "offset": 0,
        "slot": "1",
        "type": "t_contract(IUniversalSwap)27446"
      }
    ],
    "types": {
      "t_contract(ConversionHelper)19065": {
        "encoding": "inplace",
        "label": "contract ConversionHelper",
        "numberOfBytes": "20"
      },
      "t_contract(IUniversalSwap)27446": {
        "encoding": "inplace",
        "label": "contract IUniversalSwap",
        "numberOfBytes": "20"
      }
    }
  }
}