{
  "address": "0xA4A6a6177BcD7B17D8B1e0bCd579431da5debC5A",
  "abi": [
    {
      "inputs": [],
      "name": "R",
      "type": "error"
    },
    {
      "inputs": [],
      "name": "T",
      "type": "error"
    },
    {
      "anonymous": false,
      "inputs": [
        {
          "indexed": true,
          "internalType": "address",
          "name": "previousOwner",
          "type": "address"
        },
        {
          "indexed": true,
          "internalType": "address",
          "name": "newOwner",
          "type": "address"
        }
      ],
      "name": "OwnershipTransferred",
      "type": "event"
    },
    {
      "inputs": [
        {
          "internalType": "address",
          "name": "manager",
          "type": "address"
        },
        {
          "internalType": "uint256",
          "name": "id",
          "type": "uint256"
        },
        {
          "internalType": "address[]",
          "name": "suppliedTokens",
          "type": "address[]"
        },
        {
          "internalType": "uint256[]",
          "name": "suppliedAmounts",
          "type": "uint256[]"
        }
      ],
      "name": "deposit",
      "outputs": [
        {
          "internalType": "uint256",
          "name": "",
          "type": "uint256"
        }
      ],
      "stateMutability": "nonpayable",
      "type": "function"
    },
    {
      "inputs": [
        {
          "internalType": "address",
          "name": "poolAddress",
          "type": "address"
        }
      ],
      "name": "getERC20Base",
      "outputs": [
        {
          "internalType": "address[]",
          "name": "underlyingTokens",
          "type": "address[]"
        }
      ],
      "stateMutability": "view",
      "type": "function"
    },
    {
      "inputs": [
        {
          "internalType": "address",
          "name": "manager",
          "type": "address"
        },
        {
          "internalType": "uint256",
          "name": "id",
          "type": "uint256"
        }
      ],
      "name": "getPoolAddress",
      "outputs": [
        {
          "internalType": "address",
          "name": "",
          "type": "address"
        }
      ],
      "stateMutability": "view",
      "type": "function"
    },
    {
      "inputs": [
        {
          "internalType": "address",
          "name": "manager",
          "type": "address"
        },
        {
          "internalType": "uint256",
          "name": "tokenId",
          "type": "uint256"
        }
      ],
      "name": "getPositionUnderlying",
      "outputs": [
        {
          "internalType": "address[]",
          "name": "tokens",
          "type": "address[]"
        },
        {
          "internalType": "uint256[]",
          "name": "amounts",
          "type": "uint256[]"
        }
      ],
      "stateMutability": "view",
      "type": "function"
    },
    {
      "inputs": [
        {
          "internalType": "address",
          "name": "manager",
          "type": "address"
        },
        {
          "internalType": "uint256",
          "name": "tokenId",
          "type": "uint256"
        }
      ],
      "name": "getRatio",
      "outputs": [
        {
          "internalType": "address[]",
          "name": "tokens",
          "type": "address[]"
        },
        {
          "internalType": "uint256[]",
          "name": "ratios",
          "type": "uint256[]"
        }
      ],
      "stateMutability": "view",
      "type": "function"
    },
    {
      "inputs": [
        {
          "internalType": "address",
          "name": "manager",
          "type": "address"
        },
        {
          "internalType": "uint256",
          "name": "tokenId",
          "type": "uint256"
        }
      ],
      "name": "getRewardsForPosition",
      "outputs": [
        {
          "internalType": "address[]",
          "name": "rewards",
          "type": "address[]"
        },
        {
          "internalType": "uint256[]",
          "name": "amounts",
          "type": "uint256[]"
        }
      ],
      "stateMutability": "view",
      "type": "function"
    },
    {
      "inputs": [
        {
          "internalType": "address",
          "name": "manager",
          "type": "address"
        },
        {
          "internalType": "uint256",
          "name": "id",
          "type": "uint256"
        },
        {
          "internalType": "address",
          "name": "receiver",
          "type": "address"
        }
      ],
      "name": "harvest",
      "outputs": [
        {
          "internalType": "address[]",
          "name": "outTokens",
          "type": "address[]"
        },
        {
          "internalType": "uint256[]",
          "name": "tokenAmounts",
          "type": "uint256[]"
        }
      ],
      "stateMutability": "nonpayable",
      "type": "function"
    },
    {
      "inputs": [
        {
          "internalType": "address",
          "name": "managerAddress",
          "type": "address"
        },
        {
          "internalType": "address",
          "name": "poolAddress",
          "type": "address"
        }
      ],
      "name": "isSupported",
      "outputs": [
        {
          "internalType": "bool",
          "name": "",
          "type": "bool"
        }
      ],
      "stateMutability": "view",
      "type": "function"
    },
    {
      "inputs": [],
      "name": "owner",
      "outputs": [
        {
          "internalType": "address",
          "name": "",
          "type": "address"
        }
      ],
      "stateMutability": "view",
      "type": "function"
    },
    {
      "inputs": [],
      "name": "renounceOwnership",
      "outputs": [],
      "stateMutability": "nonpayable",
      "type": "function"
    },
    {
      "inputs": [
        {
          "internalType": "address",
          "name": "newOwner",
          "type": "address"
        }
      ],
      "name": "transferOwnership",
      "outputs": [],
      "stateMutability": "nonpayable",
      "type": "function"
    },
    {
      "inputs": [
        {
          "internalType": "address",
          "name": "manager",
          "type": "address"
        },
        {
          "internalType": "uint256",
          "name": "id",
          "type": "uint256"
        },
        {
          "internalType": "uint256",
          "name": "amount",
          "type": "uint256"
        },
        {
          "internalType": "address",
          "name": "receiver",
          "type": "address"
        }
      ],
      "name": "withdraw",
      "outputs": [
        {
          "internalType": "address[]",
          "name": "outTokens",
          "type": "address[]"
        },
        {
          "internalType": "uint256[]",
          "name": "tokenAmounts",
          "type": "uint256[]"
        }
      ],
      "stateMutability": "nonpayable",
      "type": "function"
    }
  ],
  "transactionHash": "0x47b237a321f51582f1cc3bcdea7844707fb6816db300c8830f03504f6467ea14",
  "args": [],
  "numDeployments": 3,
  "solcInputHash": "6706525d7cf8761db6896821476dc820",
  "bytecode": "0x6080806040523461005b5760008054336001600160a01b0319821681178355916001600160a01b03909116907f8be0079c531659141344cd1fd0a4f28419497f9722a3daafe3b4186f6b6457e09080a36130d990816100618239f35b600080fdfe608080604052600436101561001357600080fd5b60003560e01c90816316762eed14611ff857508063206e892314611e7157806352610d39146117c3578063715018a61461176a5780637b9876691461151857806388462c8d146114d557806389b0acf014610cca5780638da5cb5b14610ca1578063bd47f63114610b72578063e897125d14610339578063f2fde38b146102755763f54ac246146100a357600080fd5b34610270576060366003190112610270576100bc6122bf565b6044356001600160a01b038181169260243592849003610270578116926040519363133f757160e31b8552836004860152610180938486602481855afa9283156102185760009687968895610224575b505091610156916040938451916101228361235f565b825260208201526001600160801b0380858301526060820152835197888094819363fc6f786560e01b835260048301612804565b03925af1918215610218576000946000936101e1575b506040519361017a8561237b565b600285526040366020870137816101908661279a565b9116905261019d846127bd565b91169052604051926101ae8461237b565b6002845260403660208601376101c38461279a565b526101cd836127bd565b526101dd60405192839283612312565b0390f35b90925061020791945060403d604011610211575b6101ff81836123b3565b8101906127ee565b939093913861016c565b503d6101f5565b6040513d6000823e3d90fd5b610156939750604094929550908161025092903d10610269575b61024881836123b3565b8101906126f4565b505050505050505098925090509694919381935061010c565b503d61023e565b600080fd5b346102705760203660031901126102705761028e6122bf565b6102966123ed565b6001600160a01b039081169081156102e557600054826001600160601b0360a01b821617600055167f8be0079c531659141344cd1fd0a4f28419497f9722a3daafe3b4186f6b6457e0600080a3005b60405162461bcd60e51b815260206004820152602660248201527f4f776e61626c653a206e6577206f776e657220697320746865207a65726f206160448201526564647265737360d01b6064820152608490fd5b34610270576080366003190112610270576103526122bf565b6044359067ffffffffffffffff8211610270573660238301121561027057816004013561037e816123d5565b9261038c60405194856123b3565b8184526024602085019260051b8201019036821161027057602401915b818310610b525750505060643567ffffffffffffffff81116102705736602382011215610270578060040135906103df826123d5565b916103ed60405193846123b3565b8083526024602084019160051b8301019136831161027057602401905b828210610b425750505060005b8351811015610776576001600160a01b0361043282866127cd565b511661043e82846127cd565b51604051636eb1769f60e11b81523060048201526001600160a01b0386166024820152602081604481865afa90811561021857600091610744575b506000806104878484612e3b565b60405163095ea7b360e01b602082019081526001600160a01b038b16602483015260448201929092526104c781606481015b03601f1981018352826123b3565b519082875af16104d5612fe8565b5015610506575b50505060001981146104f057600101610417565b634e487b7160e01b600052601160045260246000fd5b80156104dc57604051636eb1769f60e11b81523060048201526001600160a01b038716602482015290602082604481875afa91821561021857600092610710575b508082106106b95760405163095ea7b360e01b60208201526001600160a01b03881660248201529103604482015261058c9061058681606481016104b9565b83612eb7565b80158015610645575b156105e15760405163095ea7b360e01b60208201526001600160a01b03861660248201526044808201929092529081526105d9916105d46064836123b3565b612eb7565b8480806104dc565b60405162461bcd60e51b815260206004820152603660248201527f5361666545524332303a20617070726f76652066726f6d206e6f6e2d7a65726f60448201527520746f206e6f6e2d7a65726f20616c6c6f77616e636560501b6064820152608490fd5b50604051636eb1769f60e11b81523060048201526001600160a01b0386166024820152602081604481865afa90811561021857600091610687575b5015610595565b90506020813d6020116106b1575b816106a2602093836123b3565b81010312610270575187610680565b3d9150610695565b60405162461bcd60e51b815260206004820152602960248201527f5361666545524332303a2064656372656173656420616c6c6f77616e63652062604482015268656c6f77207a65726f60b81b6064820152608490fd5b9091506020813d60201161073c575b8161072c602093836123b3565b8101031261027057519088610547565b3d915061071f565b90506020813d60201161076e575b8161075f602093836123b3565b81010312610270575187610479565b3d9150610752565b5060405163133f757160e31b815260248035600483015261018091859183908290816001600160a01b0389165afa90811561021857600093600092610b12575b506001600160a01b0390506107ca8361279a565b51166001600160a01b0384161480610aee575b15610ad4576107eb8461279a565b51936107f6816127bd565b51945b604051958660c081011067ffffffffffffffff60c089011117610abe5760c0870160405260243587526020870191825260408701908152606087016000815260808801916000835260a08901934285526040519963219f5d1760e01b8b525160048b01525160248a01525160448901525160648801525160848701525160a486015260608560c481600060018060a01b038b165af190811561021857600095600090600093610a6e575b506040516331a9108f60e11b815260248035600483015290986020918a9182906001600160a01b03165afa94851561021857600095610a32575b602098506001600160a01b036108f28261279a565b51166001600160a01b038816149081610a0c575b50156109dc576109bf610993610980946109328561098e61096c6109388c986109326109cb9f9b61279a565b516127e1565b60405163a9059cbb60e01b602082018190526001600160a01b03909a16602482015260448101919091529081906064820190565b0398610980601f199a8b81018452836123b3565b6001600160a01b0316612eb7565b6127bd565b6040518a8101939093526001600160a01b03909616602483015260448201959095529384906064820190565b039081018452836123b3565b6001600160801b0360405191168152f35b6109bf6109936109809461093285610a0261096c6109388c98610932610a079f9b6127bd565b61279a565b6109cb565b6001600160a01b039150610a1f906127bd565b51166001600160a01b0385161489610906565b94506020883d602011610a66575b81610a4d602093836123b3565b8101031261027057610a60602098612445565b946108dd565b3d9150610a40565b9650509590506060853d8211610ab6575b81610a8c606093836123b3565b8101031261027057602495610aa0866126e0565b60206040818901519801519197919398506108a3565b3d9150610a7f565b634e487b7160e01b600052604160045260246000fd5b610add8461279a565b5193610ae8816127bd565b516107f9565b506001600160a01b03610b00836127bd565b51166001600160a01b038216146107dd565b610b2d93945080919250903d106102695761024881836123b3565b505050505050505093925090509185806107b6565b813581526020918201910161040a565b82356001600160a01b0381168103610270578152602092830192016103a9565b3461027057602080600319360112610270576001600160a01b039081610b966122bf565b604051630dfe168160e01b81529391168284600481845afa93841561021857600094610c64575b5090826004926040519384809263d21220a760e01b82525afa91821561021857600092610c2d575b5060405193610bf38561237b565b600285526040368587013781610c088661279a565b91169052610c15846127bd565b911690526101dd6040519282849384528301906122d5565b9091508281813d8311610c5d575b610c4581836123b3565b8101031261027057610c5690612445565b9084610be5565b503d610c3b565b919093508282813d8311610c9a575b610c7d81836123b3565b810103126102705782610c91600493612445565b94919250610bbd565b503d610c73565b34610270576000366003190112610270576000546040516001600160a01b039091168152602090f35b34610270576040366003190112610270576001600160a01b03610ceb6122bf565b1660405163133f757160e31b81526024356004820152610180908181602481865afa80156102185760009260009460009360009260009461149a575b505060206004916040519283809263c45a015560e01b82525afa90811561021857600091611458575b50604051630b4c774160e11b81526001600160a01b0380871660048301528716602482015262ffffff909416604485015260209084908180606481015b03916001600160a01b03165afa9283156102185760009361141c575b50604051633850c7bd60e01b81529260e0846004816001600160a01b0385165afa938415610218576000946113e5575b506401000276a36001600160a01b0385161015806113bf575b156113ad576001640100000000600160c01b03602086901b166001600160801b03811160071b81811c67ffffffffffffffff811160061b90811c63ffffffff811160051b90811c61ffff811160041b81811c60ff8111600390811b82811c600f811160021b90811c9283118b1b83811c9b909b119790981795909517929092179390931785178717939093179585949293909291906080881061135657505050505050607e1982011c5b808002607f1c81800260ff1c1c808002607f1c81800260ff1c1c808002607f1c81800260ff1c1c808002607f1c81800260ff1c1c808002607f1c81800260ff1c1c808002607f1c81800260ff1c1c90818002607f1c82800260ff1c1c92838002607f1c84800260ff1c1c94858002607f1c86800260ff1c1c96878002607f1c88800260ff1c1c98898002607f1c8a800260ff1c1c9a8b8002607f1c8c800260ff1c1c9c8d808002607f1c90800260ff1c1c800260cd1c6604000000000000169d800260cc1c6608000000000000169c800260cb1c6610000000000000169b800260ca1c6620000000000000169a800260c91c66400000000000001699800260c81c66800000000000001698800260c71c6701000000000000001697800260c61c6702000000000000001696800260c51c6704000000000000001695800260c41c6708000000000000001694800260c31c6710000000000000001693800260c21c6720000000000000001692800260c11c6740000000000000001691800260c01c6780000000000000001690607f190160401b1717171717171717171717171717693627a301d71055774c85026f028f6481ab7f045a5af012a19d003aa919810160801d60020b906fdb2df09e81959a81455e260799a0632f0160801d60020b80821460001461132d57505b60020b60008112908160001461132857600160ff1b81146104f0576000035b6040516334324e9f60e21b81526020816004816001600160a01b0388165afa8015610218576000906112ec575b62ffffff9150169081156112d6576110ed918106906127e1565b90156112c95760020b92627fffff1984146104f057600493600003965b604051966111178861237b565b6002885260403660208a013761112c8861279a565b6001600160a01b039091169052611142876127bd565b9060018060a01b03169052602061118161117b6111756040519a6111658c61237b565b60028c52604036868e01376128e0565b956128e0565b926128e0565b604051630d34328160e11b815295909386919082906001600160a01b03165afa9283156102185760009361128c575b6111ba9450612c51565b917812725dd1d243aba0e75fe645cc4873f9e65afe688c928e1f216111e86001600160a01b038316806128c3565b111561125657611201906001600160a01b0316806128c3565b60c01c670de0b6b3a7640000908181029181830414901517156104f057905b6112298561279a565b52670de0b6b3a7640000918281029281840414901517156104f05761124d916128d6565b6101cd836127bd565b611269906001600160a01b0316806128c3565b670de0b6b3a7640000908181029181830414901517156104f05760c01c90611220565b92506020843d6020116112c1575b816112a7602093836123b3565b81010312610270576112bb6111ba946126e0565b926111b0565b3d915061129a565b9260049360020b9661110a565b634e487b7160e01b600052601260045260246000fd5b506020813d602011611320575b81611306602093836123b3565b810103126102705761131b62ffffff916126d2565b6110d3565b3d91506112f9565b6110a6565b906001600160a01b0386811690611343846128e0565b161161134f5750611087565b9050611087565b600190841c1160ff90941160031b61ffff90911160041b63ffffffff6001600160801b03871160071b87811c67ffffffffffffffff811160061b90811c9290921160051b9117171717171717607f031b9050610e9c565b6040516324c070df60e11b8152600490fd5b5073fffd8963efd1fc6a506488495d951d5263988d266001600160a01b03851610610df2565b61140891945060e03d60e011611415575b61140081836123b3565b81019061285e565b5050505050509286610dd9565b503d6113f6565b9092506020813d602011611450575b81611438602093836123b3565b810103126102705761144990612445565b9185610da9565b3d915061142b565b90506020813d602011611492575b81611473602093836123b3565b8101031261027057610d8d9361148a602092612445565b915093610d50565b3d9150611466565b919450915060049550602094506114bd9250803d106102695761024881836123b3565b50505050509450959450969195909694929391610d27565b34610270576040366003190112610270576114ee6122bf565b602435906001600160a01b03821682036102705760209161150e91612469565b6040519015158152f35b34610270576040366003190112610270576001600160a01b038061153a6122bf565b169060405163133f757160e31b81526024356004820152610180918282602481875afa92831561021857600093600093600092600091600091600094611735575b5050604051809863c45a015560e01b825281600460209b8c935afa80156102185789916000916116fa575b50604051630b4c774160e11b81526001600160a01b03808b1660048301528916602482015262ffffff90961660448701528590818881606481015b0392165afa80156102185785946000916116c0575b5060e090600460405180978193633850c7bd861b8352165afa9182156102185761163b94600093611691575b5061162f611635916128e0565b916128e0565b91612c51565b9290916040519461164b8661237b565b6002865260403688880137816116608761279a565b9116905261166d856127bd565b91169052604080519461167f8661237b565b6002865236908601376101c38461279a565b6116359193506116b261162f9160e03d60e0116114155761140081836123b3565b505050505050939150611622565b809550898092503d83116116f3575b6116d981836123b3565b810103126102705760e06116ed8695612445565b906115f6565b503d6116cf565b82819392503d831161172e575b61171181836123b3565b81010312610270576115e1946117278a92612445565b90956115a6565b503d611707565b94509496505050506117539250803d106102695761024881836123b3565b50505050939795509195509295949290888061157b565b34610270576000366003190112610270576117836123ed565b600080546001600160a01b0319811682556001600160a01b03167f8be0079c531659141344cd1fd0a4f28419497f9722a3daafe3b4186f6b6457e08280a3005b34610270576040366003190112610270576117dc6122bf565b60405163133f757160e31b8152602480356004830152610180908290816001600160a01b0386165afa9182156102185760009160008091600092600095600092600098611e36575b5060405163c45a015560e01b8152906020826004816001600160a01b038b165afa91821561021857600092611df2575b50604051630b4c774160e11b81526001600160a01b0391821660048201529416602485015262ffffff909116604484015260209083908180606481015b03916001600160a01b03165afa91821561021857600092611db6575b50604051633850c7bd60e01b81529060e0826004816001600160a01b0387165afa91821561021857600092611d8e575b5060405160208101906001600160601b03198760601b1682528560e81b60348201528760e81b6037820152601a815261191581612397565b51902060405163514ea4bf60e01b815260048101919091529360a0856024816001600160a01b0388165afa92831561021857600092600096600095611d34575b5060405163f305839960e01b8152906020826004816001600160a01b038b165afa91821561021857600092611d00575b5060405163f30dba9360e01b8152600285900b600482015297610100896024816001600160a01b038c165afa98891561021857600099611cd5575b5060405163f30dba9360e01b815260028c900b600482015293610100856024816001600160a01b038d165afa90811561021857611a4195600092611ca1575b50600290810b9a6001600160801b039188900b8c12611c9957915b8d60020b8c12600014611c9157925b16930303036001600160801b0385160260801c612e3b565b604051634614131960e01b8152909890936020856004816001600160a01b038a165afa94851561021857600095611c5d575b5060405163f30dba9360e01b8152600284900b6004820152986101008a6024816001600160a01b038b165afa9687156102185760249a600098611c32575b5060405163f30dba9360e01b8152600283900b60048201529a610100918c919082906001600160a01b03165afa998a156102185760249a61018099611b2a996001600160801b03978894600094611bf7575b5060020b8212611bef57935b60020b1315611be757925b169503030391160260801c612e3b565b60405163133f757160e31b81528435600482015293909284919082906001600160a01b03165afa801561021857600092600091611bb5575b5060405192611b708461237b565b600284526040366020860137611b858461279a565b6001600160a01b039091169052611b9b836127bd565b6001600160a01b039091169052604051926101ae8461237b565b9050611bd39192506101803d610180116102695761024881836123b3565b505050505050505093925090509184611b62565b870392611b1a565b890393611b0f565b611c1c9194506101003d61010011611c2b575b611c1481836123b3565b810190612e48565b50505050925050509238611b03565b503d611c0a565b610100919850611c4e90823d8411611c2b57611c1481836123b3565b50505050925050509790611ab1565b9094506020813d602011611c89575b81611c79602093836123b3565b810103126102705751938a611a73565b3d9150611c6c565b850392611a29565b850391611a1a565b6001600160801b03919250611cc6906101003d61010011611c2b57611c1481836123b3565b505050505091505091906119ff565b611cf19199506101003d61010011611c2b57611c1481836123b3565b5050505050915050978c6119c0565b9091506020813d602011611d2c575b81611d1c602093836123b3565b810103126102705751908b611985565b3d9150611d0f565b93509350945060a0823d8211611d86575b81611d5260a093836123b3565b8101031261027057611d63826126e0565b94611d7c6080611d75606086016126e0565b94016126e0565b959295938a611955565b3d9150611d45565b611da891925060e03d60e0116114155761140081836123b3565b5050505050905090876118dd565b9091506020813d602011611dea575b81611dd2602093836123b3565b8101031261027057611de390612445565b90866118ad565b3d9150611dc5565b9291506020833d602011611e2e575b81611e0e602093836123b3565b810103126102705761189194611e25602094612445565b92935094611854565b3d9150611e01565b9597505050505050611e5991506101803d610180116102695761024881836123b3565b50509495999750975050939692909395919688611824565b34610270576040366003190112610270576001600160a01b0380611e936122bf565b166040519163133f757160e31b83526024356004840152610180918284602481845afa801561021857600094600094600092611fc6575b505060405194859263c45a015560e01b845283600460209889935afa908115610218578693600092611f87575b50604051630b4c774160e11b81526001600160a01b0391821660048201529516602486015262ffffff90911660448501528390818481606481015b0392165afa91821561021857600092611f50575b5060405191168152f35b9091508281813d8311611f80575b611f6881836123b3565b8101031261027057611f7990612445565b9083611f46565b503d611f5e565b8481959293503d8311611fbf575b611f9f81836123b3565b8101031261027057611f329484611fb68895612445565b92919650611ef7565b503d611f95565b9150919450611fe2929350803d106102695761024881836123b3565b5050505050505094935094915093928580611eca565b34610270576080366003190112610270576120116122bf565b906064356001600160a01b03811690036102705763133f757160e31b8152602480356004830152610180929083908390816001600160a01b0385165afa9182156102185760009360009361228e575b505060405160a0810181811067ffffffffffffffff821117610abe5760405260243581526020936001600160801b0360443516858301526000604083015260006060830152426080830152608060405192630624e65f60e11b8452805160048501526001600160801b038782015116602485015260408101516044850152606081015160648501520151608483015260408260a481600060018060a01b0388165af192831561021857600092600094612261575b50604061216660009282516121288161235f565b6024358152308a8201526001600160801b03848201526001600160801b036060820152835194858094819363fc6f786560e01b835260048301612804565b03926001600160a01b03165af1801561021857612243575b5060405163a9059cbb60e01b8682018190526001600160a01b03606480358216602485015260448085018790528452931695601f19936122099361220392916121d291906121cc90826123b3565b89612eb7565b604051898101939093526001600160a01b0360648035821660248601526044850189905295860184521693826123b3565b82612eb7565b604051936122168561237b565b600285526040368787013761222a8561279a565b52612234846127bd565b52604080519461167f8661237b565b61225b9060403d604011610211576101ff81836123b3565b5061217e565b60009194506121669350612283604091823d8411610211576101ff81836123b3565b959094509150612114565b80919294506122a99350903d106102695761024881836123b3565b5050505050505050939250905091908380612060565b600435906001600160a01b038216820361027057565b90815180825260208080930193019160005b8281106122f5575050505090565b83516001600160a01b0316855293810193928101926001016122e7565b90612325906040835260408301906122d5565b81810360209283015282518082529082019282019160005b82811061234b575050505090565b83518552938101939281019260010161233d565b6080810190811067ffffffffffffffff821117610abe57604052565b6060810190811067ffffffffffffffff821117610abe57604052565b6040810190811067ffffffffffffffff821117610abe57604052565b90601f8019910116810190811067ffffffffffffffff821117610abe57604052565b67ffffffffffffffff8111610abe5760051b60200190565b6000546001600160a01b0316330361240157565b606460405162461bcd60e51b815260206004820152602060248201527f4f776e61626c653a2063616c6c6572206973206e6f7420746865206f776e65726044820152fd5b51906001600160a01b038216820361027057565b519062ffffff8216820361027057565b60408051630dfe168160e01b81526001600160a01b0393841693926020918281600481895afa9081156126c757600091612692575b50835163d21220a760e01b81529083826004818a5afa91821561268757600092612650575b50845163ddca3f4360e01b81529284846004818b5afa93841561260657879392918691600096612611575b50600488518096819363c45a015560e01b8352165afa928315612606579087916000946125be575b508651630b4c774160e11b81526001600160a01b0391821660048201529216602483015262ffffff909316604482015293929182918591829081606481015b0392165afa9182156125b4575060009161257d575b509050161461257857600090565b600190565b82813d83116125ad575b61259181836123b3565b810103126125aa57506125a390612445565b803861256a565b80fd5b503d612587565b513d6000823e3d90fd5b9150928582813d83116125ff575b6125d681836123b3565b810103126125aa575091849391876125f2612555989795612445565b9450919092949596612516565b503d6125cc565b86513d6000823e3d90fd5b8093949550829196923d8311612649575b61262c81836123b3565b810103126125aa57509084612642889493612459565b94386124ee565b503d612622565b90918482813d8311612680575b61266781836123b3565b810103126125aa575061267990612445565b90386124c3565b503d61265d565b85513d6000823e3d90fd5b908382813d83116126c0575b6126a881836123b3565b810103126125aa57506126ba90612445565b3861249e565b503d61269e565b84513d6000823e3d90fd5b51908160020b820361027057565b51906001600160801b038216820361027057565b9190826101809103126102705781516001600160601b0381168103610270579161272060208201612445565b9161272d60408301612445565b9161273a60608201612445565b9161274760808301612459565b9161275460a082016126d2565b9161276160c083016126d2565b9161276e60e082016126e0565b91610100820151916101208101519161279761016061279061014085016126e0565b93016126e0565b90565b8051156127a75760200190565b634e487b7160e01b600052603260045260246000fd5b8051600110156127a75760400190565b80518210156127a75760209160051b010190565b919082039182116104f057565b9190826040910312610270576020825192015190565b919091606060808201938051835260018060a01b036020820151166020840152816001600160801b0391826040820151166040860152015116910152565b519061ffff8216820361027057565b5190811515820361027057565b908160e09103126102705761287281612445565b9161287f602083016126d2565b9161288c60408201612842565b9161289960608301612842565b916128a660808201612842565b9160a082015160ff811681036102705760c0612797919301612851565b818102929181159184041417156104f057565b81156112d6570490565b60020b6000811215612c4b5780600003905b620d89e88211612c39576001821615612c27576001600160881b036ffffcb933bd6fad37aa2d162d1a5940015b169160028116612c0b575b60048116612bef575b60088116612bd3575b60108116612bb7575b60208116612b9b575b60408116612b7f575b608090818116612b64575b6101008116612b49575b6102008116612b2e575b6104008116612b13575b6108008116612af8575b6110008116612add575b6120008116612ac2575b6140008116612aa7575b6180008116612a8c575b620100008116612a71575b620200008116612a57575b620400008116612a3d575b6208000016612a22575b50600012612a13575b63ffffffff8116612a0b576000905b60201c60ff91909116016001600160a01b031690565b6001906129f5565b80156112d657600019046129e6565b6b048a170391f7dc42444e8fa26000929302901c91906129dd565b6d2216e584f5fa1ea926041bedfe98909302811c926129d3565b926e5d6af8dedb81196699c329225ee60402811c926129c8565b926f09aa508b5b7a84e1c677de54f3e99bc902811c926129bd565b926f31be135f97d08fd981231505542fcfa602811c926129b2565b926f70d869a156d2a1b890bb3df62baf32f702811c926129a8565b926fa9f746462d870fdf8a65dc1f90e061e502811c9261299e565b926fd097f3bdfd2022b8845ad8f792aa582502811c92612994565b926fe7159475a2c29b7443b29c7fa6e889d902811c9261298a565b926ff3392b0822b70005940c7a398e4b70f302811c92612980565b926ff987a7253ac413176f2b074cf7815e5402811c92612976565b926ffcbe86c7900a88aedcffc83b479aa3a402811c9261296c565b926ffe5dee046a99a2a811c461f1969c305302811c92612962565b916fff2ea16466c96a3843ec78b326b528610260801c91612957565b916fff973b41fa98c081472e6896dfb254c00260801c9161294e565b916fffcb9843d60f6159c9db58835c9266440260801c91612945565b916fffe5caca7e10e4e61c3624eaa0941cd00260801c9161293c565b916ffff2e50f5f656932ef12357cf3c7fdcc0260801c91612933565b916ffff97272373d413259a46990580e213a0260801c9161292a565b6001600160881b03600160801b61291f565b6040516315e4079d60e11b8152600490fd5b806128f2565b9093926000929091836001600160a01b0380841681891611612cc0575b828116908881168211612c8d5750505050612c8a929394612ce1565b91565b909192949550831611600014612cb4575090612cae83612797949383612ce1565b94612e01565b94612797939250612e01565b969296612c6e565b6001600160a01b0391821690821603919082116104f057565b6127979290916001600160a01b0391612d259183811684861611612d2d575b8380612d0c8784612cc8565b169116916001600160801b0360601b9060601b16612d7e565b9116906128d6565b93612d00565b6000198282099082810292838084109303918383039360009314612d7357600160601b92848411156125aa57500990828211900360a01b910360601c1790565b505090505060601c90565b916000198284099282810292838086109503948086039514612df357848311156102705782910981806000031680920460028082600302188083028203028083028203028083028203028083028203028083028203028092029003029360018380600003040190848311900302920304170290565b505080925015610270570490565b61279792916001600160801b03916001600160a01b0391612e2d919083811684831611612e3557612cc8565b169116612d33565b90612cc8565b919082018092116104f057565b91908261010091031261027057612e5e826126e0565b91602081015180600f0b8103610270579160408201519160608101519160808201518060060b81036102705791612e9760a08201612445565b9160c082015163ffffffff811681036102705760e0612797919301612851565b6040516001600160a01b039190911691612ed082612397565b6020928383527f5361666545524332303a206c6f772d6c6576656c2063616c6c206661696c656484840152803b15612fa35760008281928287612f229796519301915af1612f1c612fe8565b90613028565b805180612f2e57505050565b818391810103126102705781612f449101612851565b15612f4c5750565b6084906040519062461bcd60e51b82526004820152602a60248201527f5361666545524332303a204552433230206f7065726174696f6e20646964206e6044820152691bdd081cdd58d8d9595960b21b6064820152fd5b60405162461bcd60e51b815260048101859052601d60248201527f416464726573733a2063616c6c20746f206e6f6e2d636f6e74726163740000006044820152606490fd5b3d15613023573d9067ffffffffffffffff8211610abe5760405191613017601f8201601f1916602001846123b3565b82523d6000602084013e565b606090565b90919015613034575090565b8151156130445750805190602001fd5b6040519062461bcd60e51b82528160208060048301528251908160248401526000935b82851061308a575050604492506000838284010152601f80199101168101030190fd5b848101820151868601604401529381019385935061306756fea26469706673582212202d321cc187d5b6d9d0c92897f7cfecbc8b0f0f5227f05c8b31f07666cb86ac0a64736f6c63430008110033",
  "devdoc": {
    "kind": "dev",
    "methods": {
      "owner()": {
        "details": "Returns the address of the current owner."
      },
      "renounceOwnership()": {
        "details": "Leaves the contract without owner. It will not be possible to call `onlyOwner` functions anymore. Can only be called by the current owner. NOTE: Renouncing ownership will leave the contract without an owner, thereby removing any functionality that is only available to the owner."
      },
      "transferOwnership(address)": {
        "details": "Transfers ownership of the contract to a new account (`newOwner`). Can only be called by the current owner."
      }
    },
    "version": 1
  },
  "userdoc": {
    "kind": "user",
    "methods": {},
    "version": 1
  },
  "storageLayout": {
    "storage": [
      {
        "astId": 2812,
        "contract": "contracts/Banks/ERC721Wrappers.sol:UniswapV3Wrapper",
        "label": "_owner",
        "offset": 0,
        "slot": "0",
        "type": "t_address"
      }
    ],
    "types": {
      "t_address": {
        "encoding": "inplace",
        "label": "address",
        "numberOfBytes": "20"
      }
    }
  }
}