{
  "address": "0x4a472F4FEe968A64FCB32C252AEa34219A0c7594",
  "abi": [
    {
      "anonymous": false,
      "inputs": [
        {
          "indexed": false,
          "internalType": "address",
          "name": "lpTokenAddress",
          "type": "address"
        },
        {
          "indexed": false,
          "internalType": "uint256",
          "name": "amount",
          "type": "uint256"
        }
      ],
      "name": "Burn",
      "type": "event"
    },
    {
      "inputs": [],
      "name": "MINIMUM_LIQUIDITY",
      "outputs": [
        {
          "internalType": "uint256",
          "name": "",
          "type": "uint256"
        }
      ],
      "stateMutability": "view",
      "type": "function"
    },
    {
      "inputs": [
        {
          "internalType": "address",
          "name": "lpTokenAddress",
          "type": "address"
        },
        {
          "internalType": "uint256",
          "name": "amount",
          "type": "uint256"
        },
        {
          "internalType": "address",
          "name": "self",
          "type": "address"
        }
      ],
      "name": "burn",
      "outputs": [
        {
          "internalType": "address[]",
          "name": "",
          "type": "address[]"
        },
        {
          "internalType": "uint256[]",
          "name": "",
          "type": "uint256[]"
        }
      ],
      "stateMutability": "payable",
      "type": "function"
    },
    {
      "inputs": [
        {
          "internalType": "address",
          "name": "lpTokenAddress",
          "type": "address"
        },
        {
          "internalType": "uint256",
          "name": "amount",
          "type": "uint256"
        }
      ],
      "name": "getUnderlyingAmount",
      "outputs": [
        {
          "internalType": "address[]",
          "name": "underlying",
          "type": "address[]"
        },
        {
          "internalType": "uint256[]",
          "name": "amounts",
          "type": "uint256[]"
        }
      ],
      "stateMutability": "view",
      "type": "function"
    },
    {
      "inputs": [
        {
          "internalType": "address",
          "name": "lpTokenAddress",
          "type": "address"
        }
      ],
      "name": "getUnderlyingTokens",
      "outputs": [
        {
          "internalType": "address[]",
          "name": "",
          "type": "address[]"
        },
        {
          "internalType": "uint256[]",
          "name": "",
          "type": "uint256[]"
        }
      ],
      "stateMutability": "view",
      "type": "function"
    },
    {
      "inputs": [
        {
          "internalType": "address",
          "name": "toMint",
          "type": "address"
        },
        {
          "internalType": "address[]",
          "name": "underlyingTokens",
          "type": "address[]"
        },
        {
          "internalType": "uint256[]",
          "name": "underlyingAmounts",
          "type": "uint256[]"
        },
        {
          "internalType": "address",
          "name": "receiver",
          "type": "address"
        },
        {
          "internalType": "address",
          "name": "self",
          "type": "address"
        }
      ],
      "name": "mint",
      "outputs": [
        {
          "internalType": "uint256",
          "name": "",
          "type": "uint256"
        }
      ],
      "stateMutability": "payable",
      "type": "function"
    },
    {
      "inputs": [
        {
          "internalType": "address",
          "name": "toMint",
          "type": "address"
        },
        {
          "internalType": "address[]",
          "name": "underlyingTokens",
          "type": "address[]"
        },
        {
          "internalType": "uint256[]",
          "name": "underlyingAmounts",
          "type": "uint256[]"
        }
      ],
      "name": "simulateMint",
      "outputs": [
        {
          "internalType": "uint256",
          "name": "minted",
          "type": "uint256"
        }
      ],
      "stateMutability": "view",
      "type": "function"
    },
    {
      "inputs": [
        {
          "internalType": "address",
          "name": "token",
          "type": "address"
        }
      ],
      "name": "testSupported",
      "outputs": [
        {
          "internalType": "bool",
          "name": "",
          "type": "bool"
        }
      ],
      "stateMutability": "view",
      "type": "function"
    }
  ],
  "transactionHash": "0xa1f8ff29dd633b9eea54a737e75e84d97ab5c100c8f60c4e1c77134ba6e5b8d3",
  "args": [],
  "numDeployments": 1,
  "solcInputHash": "187339de8bfd8f6e7c92dccb16cb4f52",
  "bytecode": "0x60808060405234610016576110dd908161001c8239f35b600080fdfe6080604081815260048036101561001557600080fd5b600092833560e01c9081636331f17f146106e657508063656dc2e4146106b2578063b54c04ec14610683578063b8ce670d146103d8578063ba9a7a56146103bb578063d65bd6161461032a5763feff3e8d1461007057600080fd5b346103265760603660031901126103265761008961082f565b67ffffffffffffffff9390602435858111610326576100ab9036908501610931565b94604435908111610326576100c3903690850161099f565b8451630240bc6b60e21b8152916001600160a01b03908116906060848781855afa91821561031c57859486936102e5575b508751916318160ddd60e01b83526020998a848a81865afa9384156102a25789918c918a966102ac575b506101298491610a1c565b5116938b5192838092630dfe168160e01b82525afa9081156102a2578891610275575b50160361025b5761016661015f84610a1c565b5193610a3f565b51935b81610212575050509061017b91610dab565b9181600384111561020357508260019080821c8281018091116101f05791905b8583106101d0575050505b6103e71983019283116101bd575050905b51908152f35b634e487b7160e01b825260119052602490fd5b909194506101e7856101e28184610dbe565b610a7b565b821c919061019b565b634e487b7160e01b855260118452602485fd5b92156101a657600192506101a6565b61023592965061023a6102429594610235846001600160701b0380951692610dab565b610dbe565b961692610dab565b90508082101561025457505b906101b7565b905061024e565b61026e61026784610a3f565b5193610a1c565b5193610169565b61029591508b3d8d1161029b575b61028d81836108f7565b8101906109fd565b3861014c565b503d610283565b8a513d8a823e3d90fd5b9250945081813d83116102de575b6102c481836108f7565b810103126102da57519288908b9061012961011e565b8780fd5b503d6102ba565b90925061030a91945060603d8111610315575b61030281836108f7565b810190610d75565b5093909391386100f4565b503d6102f8565b87513d87823e3d90fd5b8280fd5b5060a03660031901126103265761033f61082f565b9067ffffffffffffffff6024358181116103b7576103609036908401610931565b916044359182116103b7576103779136910161099f565b606435949092906001600160a01b0380871687036103b357608435908116036103b0575091602094916103a993610a9e565b9051908152f35b80fd5b5080fd5b8580fd5b5050346103b357816003193601126103b357602090516103e88152f35b50919060603660031901126103b3576103ef61082f565b6001600160a01b039290602435906044358581160361032657835194818116610417876108c5565b600287526020918636848a01378651630dfe168160e01b815283818b81865afa90811561065c578791610666575b50816104508a610a1c565b91169052865163d21220a760e01b81529083828b81865afa91821561065c57879261063d575b5061048089610a3f565b91169052855197610490896108c5565b600289528636848b0137846104cd57505050505090816104c9926104b386610a1c565b526104bd85610a3f565b525b519283928361084a565b0390f35b865163a9059cbb60e01b81526001600160a01b0385168282019081526020810187905295969495939493859082908190604001038187875af18015610633578892859492602492610606575b508351948593849263226bf2d160e21b845230908401525af19283156105fc578280946105a2575b505050916104c99493917fcc16f5dbb4873280815c1ee09dbd06736cffcc184412cf7a71a0fdb75d397ca59361057689610a1c565b5261058088610a3f565b5283516001600160a01b039190911681526020810191909152604090a16104bf565b91935091508583813d81116105f5575b6105bc81836108f7565b810103126103b05750815191015190806104c97fcc16f5dbb4873280815c1ee09dbd06736cffcc184412cf7a71a0fdb75d397ca5610541565b503d6105b2565b86513d84823e3d90fd5b61062590883d8a1161062c575b61061d81836108f7565b810190610a63565b5038610519565b503d610613565b88513d86823e3d90fd5b610655919250843d861161029b5761028d81836108f7565b9038610476565b88513d89823e3d90fd5b61067d9150843d861161029b5761028d81836108f7565b38610445565b5050346103b35760203660031901126103b3576020906106a96106a461082f565b610dde565b90519015158152f35b5050346103b35760203660031901126103b3576104c9906106d96106d461082f565b610f16565b929091519283928361084a565b90508284346103b057816003193601126103b05761070261082f565b630240bc6b60e21b84526001600160a01b03811694602435919060608682818a5afa96871561082557849685986107ff575b506020908651928380926318160ddd60e01b82525afa9384156107f45780946107ba575b5050916102356107b19261076f6104c99695610f16565b509685519861077d8a6108c5565b60028a52863660208c01376107a0856102356001600160701b0380951686610dab565b6107a98b610a1c565b521690610dab565b6104bd85610a3f565b909193506020823d82116107ec575b816107d6602093836108f7565b810103126103b0575051916102356107b1610758565b3d91506107c9565b8551903d90823e3d90fd5b61081c9198506020975060603d81116103155761030281836108f7565b50979096610734565b85513d86823e3d90fd5b600435906001600160a01b038216820361084557565b600080fd5b6040810190604081528251809252606081019160208094019060005b8181106108a8575050508281830391015281808451928381520193019160005b828110610894575050505090565b835185529381019392810192600101610886565b82516001600160a01b031685529385019391850191600101610866565b6060810190811067ffffffffffffffff8211176108e157604052565b634e487b7160e01b600052604160045260246000fd5b90601f8019910116810190811067ffffffffffffffff8211176108e157604052565b67ffffffffffffffff81116108e15760051b60200190565b81601f820112156108455780359161094883610919565b9261095660405194856108f7565b808452602092838086019260051b820101928311610845578301905b828210610980575050505090565b81356001600160a01b0381168103610845578152908301908301610972565b81601f82011215610845578035916109b683610919565b926109c460405194856108f7565b808452602092838086019260051b820101928311610845578301905b8282106109ee575050505090565b813581529083019083016109e0565b9081602091031261084557516001600160a01b03811681036108455790565b805115610a295760200190565b634e487b7160e01b600052603260045260246000fd5b805160011015610a295760400190565b8051821015610a295760209160051b010190565b90816020910312610845575180151581036108455790565b91908201809211610a8857565b634e487b7160e01b600052601160045260246000fd5b9190939293815115610a2957602093610ac485840151610abd85610a3f565b5190610a7b565b15610d565760005b8251811015610cd5576001600160a01b03610ae78285610a4f565b5116610af38286610a4f565b516040805163a9059cbb60e01b8a82019081526001600160a01b038a166024808401919091526044808401959095529382529293919291601f199190610b3a6064836108f7565b84519367ffffffffffffffff9285870184811187821017610cc05787528d86527f5361666545524332303a206c6f772d6c6576656c2063616c6c206661696c6564868f0152823b15610c7d575160009283929083905af1903d15610c6e573d908111610c595790610bc8939291610bba8d875194601f84011601846108f7565b82523d60008d84013e61102c565b8051908982610be8575b50505050506000198114610a8857600101610acc565b80610bf7938301019101610a63565b15610c0457808089610bd2565b602a6084928992519262461bcd60e51b845260048401528201527f5361666545524332303a204552433230206f7065726174696f6e20646964206e6044820152691bdd081cdd58d8d9595960b21b6064820152fd5b85634e487b7160e01b60005260416004526000fd5b50610bc892915060609061102c565b865162461bcd60e51b8152600481018f9052601d818a01527f416464726573733a2063616c6c20746f206e6f6e2d636f6e74726163740000006044820152606490fd5b88634e487b7160e01b60005260416004526000fd5b506040516335313c2160e11b81526001600160a01b03968716600482015290959094938493508592506024918391600091165af1908115610d4a57600091610d1e575b50905090565b82813d8311610d43575b610d3281836108f7565b810103126103b05750518038610d18565b503d610d28565b6040513d6000823e3d90fd5b945050505050600090565b51906001600160701b038216820361084557565b9081606091031261084557610d8981610d61565b916040610d9860208401610d61565b92015163ffffffff811681036108455790565b81810292918115918404141715610a8857565b8115610dc8570490565b634e487b7160e01b600052601260045260246000fd5b604051630dfe168160e01b81526001600160a01b0391909116906020908181600481865afa9081610ef9575b50610e16575050600090565b60405163d21220a760e01b81528181600481865afa9081610edc575b50610e3e575050600090565b604051630240bc6b60e21b8152606081600481865afa9081610ebe575b50610e67575050600090565b8060049260405193848092637464fc3d60e01b82525afa9182610e95575b5050610e9057600090565b600190565b813d8311610eb7575b610ea881836108f7565b81010312610845573880610e85565b503d610e9e565b610ed59060603d81116103155761030281836108f7565b5050610e5b565b610ef290833d851161029b5761028d81836108f7565b5038610e32565b610f0f90833d851161029b5761028d81836108f7565b5038610e0a565b604080516001600160a01b039283169392909190610f33836108c5565b600283526020948236878601378251630dfe168160e01b81528681600481855afa9081156110215791879160049493600091611004575b5083610f7588610a1c565b91169052845163d21220a760e01b815293849182905afa918215610ff957600092610fda575b50610fa584610a3f565b91169052805193610fb5856108c5565b6002855236908501376001610fc984610a1c565b526001610fd584610a3f565b529190565b610ff2919250863d881161029b5761028d81836108f7565b9038610f9b565b83513d6000823e3d90fd5b61101b9150833d851161029b5761028d81836108f7565b38610f6a565b84513d6000823e3d90fd5b90919015611038575090565b8151156110485750805190602001fd5b6040519062461bcd60e51b82528160208060048301528251908160248401526000935b82851061108e575050604492506000838284010152601f80199101168101030190fd5b848101820151868601604401529381019385935061106b56fea26469706673582212204a37019bb9016e80495c42553c4661ebc44b5a453c5c464796bba7c27f425ab064736f6c63430008110033",
  "devdoc": {
    "kind": "dev",
    "methods": {},
    "version": 1
  },
  "userdoc": {
    "kind": "user",
    "methods": {},
    "version": 1
  },
  "storageLayout": {
    "storage": [],
    "types": null
  }
}