{
  "address": "0xEEF7Cbf1538Fe725b2Dd48C924AA061F283DC70e",
  "abi": [
    {
      "anonymous": false,
      "inputs": [
        {
          "indexed": false,
          "internalType": "uint8",
          "name": "version",
          "type": "uint8"
        }
      ],
      "name": "Initialized",
      "type": "event"
    },
    {
      "anonymous": false,
      "inputs": [
        {
          "indexed": true,
          "internalType": "address",
          "name": "previousOwner",
          "type": "address"
        },
        {
          "indexed": true,
          "internalType": "address",
          "name": "newOwner",
          "type": "address"
        }
      ],
      "name": "OwnershipTransferred",
      "type": "event"
    },
    {
      "anonymous": false,
      "inputs": [
        {
          "indexed": false,
          "internalType": "address",
          "name": "receiver",
          "type": "address"
        },
        {
          "indexed": false,
          "internalType": "uint256",
          "name": "inputUsdValue",
          "type": "uint256"
        },
        {
          "indexed": false,
          "internalType": "address[]",
          "name": "tokens",
          "type": "address[]"
        },
        {
          "indexed": false,
          "internalType": "address[]",
          "name": "managers",
          "type": "address[]"
        },
        {
          "indexed": false,
          "internalType": "uint256[]",
          "name": "amountsAndIds",
          "type": "uint256[]"
        }
      ],
      "name": "Trade",
      "type": "event"
    },
    {
      "inputs": [],
      "name": "conversionHelper",
      "outputs": [
        {
          "internalType": "contract ConversionHelper",
          "name": "",
          "type": "address"
        }
      ],
      "stateMutability": "view",
      "type": "function"
    },
    {
      "inputs": [],
      "name": "coreLogic",
      "outputs": [
        {
          "internalType": "address",
          "name": "",
          "type": "address"
        }
      ],
      "stateMutability": "view",
      "type": "function"
    },
    {
      "inputs": [],
      "name": "currentOwner",
      "outputs": [
        {
          "internalType": "address",
          "name": "",
          "type": "address"
        }
      ],
      "stateMutability": "view",
      "type": "function"
    },
    {
      "inputs": [],
      "name": "devFee",
      "outputs": [
        {
          "internalType": "uint256",
          "name": "",
          "type": "uint256"
        }
      ],
      "stateMutability": "view",
      "type": "function"
    },
    {
      "inputs": [
        {
          "components": [
            {
              "internalType": "address[]",
              "name": "tokens",
              "type": "address[]"
            },
            {
              "internalType": "uint256[]",
              "name": "amounts",
              "type": "uint256[]"
            },
            {
              "components": [
                {
                  "internalType": "address",
                  "name": "pool",
                  "type": "address"
                },
                {
                  "internalType": "address",
                  "name": "manager",
                  "type": "address"
                },
                {
                  "internalType": "uint256",
                  "name": "tokenId",
                  "type": "uint256"
                },
                {
                  "internalType": "uint256",
                  "name": "liquidity",
                  "type": "uint256"
                },
                {
                  "internalType": "bytes",
                  "name": "data",
                  "type": "bytes"
                }
              ],
              "internalType": "struct Asset[]",
              "name": "nfts",
              "type": "tuple[]"
            }
          ],
          "internalType": "struct Provided",
          "name": "assets",
          "type": "tuple"
        },
        {
          "internalType": "address",
          "name": "inTermsOf",
          "type": "address"
        }
      ],
      "name": "estimateValue",
      "outputs": [
        {
          "internalType": "uint256",
          "name": "",
          "type": "uint256"
        }
      ],
      "stateMutability": "view",
      "type": "function"
    },
    {
      "inputs": [
        {
          "internalType": "address",
          "name": "token",
          "type": "address"
        },
        {
          "internalType": "uint256",
          "name": "amount",
          "type": "uint256"
        },
        {
          "internalType": "address",
          "name": "inTermsOf",
          "type": "address"
        }
      ],
      "name": "estimateValueERC20",
      "outputs": [
        {
          "internalType": "uint256",
          "name": "",
          "type": "uint256"
        }
      ],
      "stateMutability": "view",
      "type": "function"
    },
    {
      "inputs": [
        {
          "components": [
            {
              "internalType": "address",
              "name": "pool",
              "type": "address"
            },
            {
              "internalType": "address",
              "name": "manager",
              "type": "address"
            },
            {
              "internalType": "uint256",
              "name": "tokenId",
              "type": "uint256"
            },
            {
              "internalType": "uint256",
              "name": "liquidity",
              "type": "uint256"
            },
            {
              "internalType": "bytes",
              "name": "data",
              "type": "bytes"
            }
          ],
          "internalType": "struct Asset",
          "name": "nft",
          "type": "tuple"
        },
        {
          "internalType": "address",
          "name": "inTermsOf",
          "type": "address"
        }
      ],
      "name": "estimateValueERC721",
      "outputs": [
        {
          "internalType": "uint256",
          "name": "",
          "type": "uint256"
        }
      ],
      "stateMutability": "view",
      "type": "function"
    },
    {
      "inputs": [],
      "name": "ethWithdrawer",
      "outputs": [
        {
          "internalType": "address payable",
          "name": "",
          "type": "address"
        }
      ],
      "stateMutability": "view",
      "type": "function"
    },
    {
      "inputs": [
        {
          "components": [
            {
              "internalType": "address[]",
              "name": "tokens",
              "type": "address[]"
            },
            {
              "internalType": "uint256[]",
              "name": "amounts",
              "type": "uint256[]"
            },
            {
              "components": [
                {
                  "internalType": "address",
                  "name": "pool",
                  "type": "address"
                },
                {
                  "internalType": "address",
                  "name": "manager",
                  "type": "address"
                },
                {
                  "internalType": "uint256",
                  "name": "tokenId",
                  "type": "uint256"
                },
                {
                  "internalType": "uint256",
                  "name": "liquidity",
                  "type": "uint256"
                },
                {
                  "internalType": "bytes",
                  "name": "data",
                  "type": "bytes"
                }
              ],
              "internalType": "struct Asset[]",
              "name": "nfts",
              "type": "tuple[]"
            }
          ],
          "internalType": "struct Provided",
          "name": "provided",
          "type": "tuple"
        },
        {
          "components": [
            {
              "internalType": "address[]",
              "name": "outputERC20s",
              "type": "address[]"
            },
            {
              "components": [
                {
                  "internalType": "address",
                  "name": "pool",
                  "type": "address"
                },
                {
                  "internalType": "address",
                  "name": "manager",
                  "type": "address"
                },
                {
                  "internalType": "uint256",
                  "name": "tokenId",
                  "type": "uint256"
                },
                {
                  "internalType": "uint256",
                  "name": "liquidity",
                  "type": "uint256"
                },
                {
                  "internalType": "bytes",
                  "name": "data",
                  "type": "bytes"
                }
              ],
              "internalType": "struct Asset[]",
              "name": "outputERC721s",
              "type": "tuple[]"
            },
            {
              "internalType": "uint256[]",
              "name": "ratios",
              "type": "uint256[]"
            },
            {
              "internalType": "uint256[]",
              "name": "minAmountsOut",
              "type": "uint256[]"
            }
          ],
          "internalType": "struct Desired",
          "name": "desired",
          "type": "tuple"
        }
      ],
      "name": "getAmountsOut",
      "outputs": [
        {
          "internalType": "uint256[]",
          "name": "amounts",
          "type": "uint256[]"
        },
        {
          "components": [
            {
              "internalType": "uint256",
              "name": "amountIn",
              "type": "uint256"
            },
            {
              "internalType": "uint256",
              "name": "valueIn",
              "type": "uint256"
            },
            {
              "internalType": "uint256",
              "name": "amountOut",
              "type": "uint256"
            },
            {
              "internalType": "uint256",
              "name": "valueOut",
              "type": "uint256"
            },
            {
              "internalType": "int256",
              "name": "slippage",
              "type": "int256"
            },
            {
              "internalType": "address",
              "name": "tokenIn",
              "type": "address"
            },
            {
              "internalType": "address[]",
              "name": "swappers",
              "type": "address[]"
            },
            {
              "internalType": "address",
              "name": "tokenOut",
              "type": "address"
            },
            {
              "internalType": "address[][]",
              "name": "paths",
              "type": "address[][]"
            }
          ],
          "internalType": "struct SwapPoint[]",
          "name": "swaps",
          "type": "tuple[]"
        },
        {
          "components": [
            {
              "components": [
                {
                  "internalType": "address",
                  "name": "pool",
                  "type": "address"
                },
                {
                  "internalType": "address",
                  "name": "manager",
                  "type": "address"
                },
                {
                  "internalType": "uint256",
                  "name": "tokenId",
                  "type": "uint256"
                },
                {
                  "internalType": "uint256",
                  "name": "liquidity",
                  "type": "uint256"
                },
                {
                  "internalType": "bytes",
                  "name": "data",
                  "type": "bytes"
                }
              ],
              "internalType": "struct Asset",
              "name": "desiredERC721",
              "type": "tuple"
            },
            {
              "internalType": "address",
              "name": "desiredERC20",
              "type": "address"
            },
            {
              "internalType": "uint256",
              "name": "value",
              "type": "uint256"
            },
            {
              "internalType": "address[]",
              "name": "underlying",
              "type": "address[]"
            },
            {
              "internalType": "uint256[]",
              "name": "underlyingValues",
              "type": "uint256[]"
            }
          ],
          "internalType": "struct Conversion[]",
          "name": "conversions",
          "type": "tuple[]"
        },
        {
          "internalType": "uint256[]",
          "name": "expectedUSDValues",
          "type": "uint256[]"
        }
      ],
      "stateMutability": "view",
      "type": "function"
    },
    {
      "inputs": [
        {
          "components": [
            {
              "internalType": "address[]",
              "name": "tokens",
              "type": "address[]"
            },
            {
              "internalType": "uint256[]",
              "name": "amounts",
              "type": "uint256[]"
            },
            {
              "components": [
                {
                  "internalType": "address",
                  "name": "pool",
                  "type": "address"
                },
                {
                  "internalType": "address",
                  "name": "manager",
                  "type": "address"
                },
                {
                  "internalType": "uint256",
                  "name": "tokenId",
                  "type": "uint256"
                },
                {
                  "internalType": "uint256",
                  "name": "liquidity",
                  "type": "uint256"
                },
                {
                  "internalType": "bytes",
                  "name": "data",
                  "type": "bytes"
                }
              ],
              "internalType": "struct Asset[]",
              "name": "nfts",
              "type": "tuple[]"
            }
          ],
          "internalType": "struct Provided",
          "name": "provided",
          "type": "tuple"
        },
        {
          "components": [
            {
              "internalType": "address[]",
              "name": "outputERC20s",
              "type": "address[]"
            },
            {
              "components": [
                {
                  "internalType": "address",
                  "name": "pool",
                  "type": "address"
                },
                {
                  "internalType": "address",
                  "name": "manager",
                  "type": "address"
                },
                {
                  "internalType": "uint256",
                  "name": "tokenId",
                  "type": "uint256"
                },
                {
                  "internalType": "uint256",
                  "name": "liquidity",
                  "type": "uint256"
                },
                {
                  "internalType": "bytes",
                  "name": "data",
                  "type": "bytes"
                }
              ],
              "internalType": "struct Asset[]",
              "name": "outputERC721s",
              "type": "tuple[]"
            },
            {
              "internalType": "uint256[]",
              "name": "ratios",
              "type": "uint256[]"
            },
            {
              "internalType": "uint256[]",
              "name": "minAmountsOut",
              "type": "uint256[]"
            }
          ],
          "internalType": "struct Desired",
          "name": "desired",
          "type": "tuple"
        },
        {
          "components": [
            {
              "internalType": "uint256",
              "name": "amountIn",
              "type": "uint256"
            },
            {
              "internalType": "uint256",
              "name": "valueIn",
              "type": "uint256"
            },
            {
              "internalType": "uint256",
              "name": "amountOut",
              "type": "uint256"
            },
            {
              "internalType": "uint256",
              "name": "valueOut",
              "type": "uint256"
            },
            {
              "internalType": "int256",
              "name": "slippage",
              "type": "int256"
            },
            {
              "internalType": "address",
              "name": "tokenIn",
              "type": "address"
            },
            {
              "internalType": "address[]",
              "name": "swappers",
              "type": "address[]"
            },
            {
              "internalType": "address",
              "name": "tokenOut",
              "type": "address"
            },
            {
              "internalType": "address[][]",
              "name": "paths",
              "type": "address[][]"
            }
          ],
          "internalType": "struct SwapPoint[]",
          "name": "swaps",
          "type": "tuple[]"
        },
        {
          "components": [
            {
              "components": [
                {
                  "internalType": "address",
                  "name": "pool",
                  "type": "address"
                },
                {
                  "internalType": "address",
                  "name": "manager",
                  "type": "address"
                },
                {
                  "internalType": "uint256",
                  "name": "tokenId",
                  "type": "uint256"
                },
                {
                  "internalType": "uint256",
                  "name": "liquidity",
                  "type": "uint256"
                },
                {
                  "internalType": "bytes",
                  "name": "data",
                  "type": "bytes"
                }
              ],
              "internalType": "struct Asset",
              "name": "desiredERC721",
              "type": "tuple"
            },
            {
              "internalType": "address",
              "name": "desiredERC20",
              "type": "address"
            },
            {
              "internalType": "uint256",
              "name": "value",
              "type": "uint256"
            },
            {
              "internalType": "address[]",
              "name": "underlying",
              "type": "address[]"
            },
            {
              "internalType": "uint256[]",
              "name": "underlyingValues",
              "type": "uint256[]"
            }
          ],
          "internalType": "struct Conversion[]",
          "name": "conversions",
          "type": "tuple[]"
        }
      ],
      "name": "getAmountsOutWithSwaps",
      "outputs": [
        {
          "internalType": "uint256[]",
          "name": "amounts",
          "type": "uint256[]"
        },
        {
          "internalType": "uint256[]",
          "name": "expectedUSDValues",
          "type": "uint256[]"
        }
      ],
      "stateMutability": "view",
      "type": "function"
    },
    {
      "inputs": [],
      "name": "getNFTPoolInteractors",
      "outputs": [
        {
          "internalType": "address[]",
          "name": "",
          "type": "address[]"
        }
      ],
      "stateMutability": "view",
      "type": "function"
    },
    {
      "inputs": [],
      "name": "getPoolInteractors",
      "outputs": [
        {
          "internalType": "address[]",
          "name": "",
          "type": "address[]"
        }
      ],
      "stateMutability": "view",
      "type": "function"
    },
    {
      "inputs": [
        {
          "internalType": "address",
          "name": "token",
          "type": "address"
        }
      ],
      "name": "getProtocol",
      "outputs": [
        {
          "internalType": "address",
          "name": "",
          "type": "address"
        }
      ],
      "stateMutability": "view",
      "type": "function"
    },
    {
      "inputs": [],
      "name": "getSwappers",
      "outputs": [
        {
          "internalType": "address[]",
          "name": "",
          "type": "address[]"
        }
      ],
      "stateMutability": "view",
      "type": "function"
    },
    {
      "inputs": [
        {
          "internalType": "address[]",
          "name": "tokens",
          "type": "address[]"
        },
        {
          "internalType": "uint256[]",
          "name": "tokenAmounts",
          "type": "uint256[]"
        }
      ],
      "name": "getTokenValues",
      "outputs": [
        {
          "internalType": "uint256[]",
          "name": "values",
          "type": "uint256[]"
        },
        {
          "internalType": "uint256",
          "name": "total",
          "type": "uint256"
        }
      ],
      "stateMutability": "view",
      "type": "function"
    },
    {
      "inputs": [
        {
          "components": [
            {
              "internalType": "address[]",
              "name": "tokens",
              "type": "address[]"
            },
            {
              "internalType": "uint256[]",
              "name": "amounts",
              "type": "uint256[]"
            },
            {
              "components": [
                {
                  "internalType": "address",
                  "name": "pool",
                  "type": "address"
                },
                {
                  "internalType": "address",
                  "name": "manager",
                  "type": "address"
                },
                {
                  "internalType": "uint256",
                  "name": "tokenId",
                  "type": "uint256"
                },
                {
                  "internalType": "uint256",
                  "name": "liquidity",
                  "type": "uint256"
                },
                {
                  "internalType": "bytes",
                  "name": "data",
                  "type": "bytes"
                }
              ],
              "internalType": "struct Asset[]",
              "name": "nfts",
              "type": "tuple[]"
            }
          ],
          "internalType": "struct Provided",
          "name": "provided",
          "type": "tuple"
        }
      ],
      "name": "getUnderlying",
      "outputs": [
        {
          "internalType": "address[]",
          "name": "",
          "type": "address[]"
        },
        {
          "internalType": "uint256[]",
          "name": "",
          "type": "uint256[]"
        }
      ],
      "stateMutability": "view",
      "type": "function"
    },
    {
      "inputs": [
        {
          "internalType": "address[]",
          "name": "_poolInteractors",
          "type": "address[]"
        },
        {
          "internalType": "address[]",
          "name": "_nftPoolInteractors",
          "type": "address[]"
        },
        {
          "internalType": "address",
          "name": "_networkToken",
          "type": "address"
        },
        {
          "internalType": "address",
          "name": "_stableToken",
          "type": "address"
        },
        {
          "internalType": "address[]",
          "name": "_swappers",
          "type": "address[]"
        },
        {
          "internalType": "address",
          "name": "_oracle",
          "type": "address"
        }
      ],
      "name": "initialize",
      "outputs": [],
      "stateMutability": "nonpayable",
      "type": "function"
    },
    {
      "inputs": [
        {
          "internalType": "address",
          "name": "token",
          "type": "address"
        }
      ],
      "name": "isSimpleToken",
      "outputs": [
        {
          "internalType": "bool",
          "name": "",
          "type": "bool"
        }
      ],
      "stateMutability": "view",
      "type": "function"
    },
    {
      "inputs": [
        {
          "internalType": "address",
          "name": "token",
          "type": "address"
        }
      ],
      "name": "isSupported",
      "outputs": [
        {
          "internalType": "bool",
          "name": "",
          "type": "bool"
        }
      ],
      "stateMutability": "view",
      "type": "function"
    },
    {
      "inputs": [],
      "name": "networkToken",
      "outputs": [
        {
          "internalType": "address",
          "name": "",
          "type": "address"
        }
      ],
      "stateMutability": "view",
      "type": "function"
    },
    {
      "inputs": [
        {
          "internalType": "uint256",
          "name": "",
          "type": "uint256"
        }
      ],
      "name": "nftPoolInteractors",
      "outputs": [
        {
          "internalType": "address",
          "name": "",
          "type": "address"
        }
      ],
      "stateMutability": "view",
      "type": "function"
    },
    {
      "inputs": [],
      "name": "oracle",
      "outputs": [
        {
          "internalType": "address",
          "name": "",
          "type": "address"
        }
      ],
      "stateMutability": "view",
      "type": "function"
    },
    {
      "inputs": [
        {
          "internalType": "uint256",
          "name": "",
          "type": "uint256"
        }
      ],
      "name": "poolInteractors",
      "outputs": [
        {
          "internalType": "address",
          "name": "",
          "type": "address"
        }
      ],
      "stateMutability": "view",
      "type": "function"
    },
    {
      "inputs": [
        {
          "components": [
            {
              "internalType": "address[]",
              "name": "tokens",
              "type": "address[]"
            },
            {
              "internalType": "uint256[]",
              "name": "amounts",
              "type": "uint256[]"
            },
            {
              "components": [
                {
                  "internalType": "address",
                  "name": "pool",
                  "type": "address"
                },
                {
                  "internalType": "address",
                  "name": "manager",
                  "type": "address"
                },
                {
                  "internalType": "uint256",
                  "name": "tokenId",
                  "type": "uint256"
                },
                {
                  "internalType": "uint256",
                  "name": "liquidity",
                  "type": "uint256"
                },
                {
                  "internalType": "bytes",
                  "name": "data",
                  "type": "bytes"
                }
              ],
              "internalType": "struct Asset[]",
              "name": "nfts",
              "type": "tuple[]"
            }
          ],
          "internalType": "struct Provided",
          "name": "provided",
          "type": "tuple"
        },
        {
          "components": [
            {
              "internalType": "address[]",
              "name": "outputERC20s",
              "type": "address[]"
            },
            {
              "components": [
                {
                  "internalType": "address",
                  "name": "pool",
                  "type": "address"
                },
                {
                  "internalType": "address",
                  "name": "manager",
                  "type": "address"
                },
                {
                  "internalType": "uint256",
                  "name": "tokenId",
                  "type": "uint256"
                },
                {
                  "internalType": "uint256",
                  "name": "liquidity",
                  "type": "uint256"
                },
                {
                  "internalType": "bytes",
                  "name": "data",
                  "type": "bytes"
                }
              ],
              "internalType": "struct Asset[]",
              "name": "outputERC721s",
              "type": "tuple[]"
            },
            {
              "internalType": "uint256[]",
              "name": "ratios",
              "type": "uint256[]"
            },
            {
              "internalType": "uint256[]",
              "name": "minAmountsOut",
              "type": "uint256[]"
            }
          ],
          "internalType": "struct Desired",
          "name": "desired",
          "type": "tuple"
        }
      ],
      "name": "preSwapCalculateSwaps",
      "outputs": [
        {
          "components": [
            {
              "internalType": "uint256",
              "name": "amountIn",
              "type": "uint256"
            },
            {
              "internalType": "uint256",
              "name": "valueIn",
              "type": "uint256"
            },
            {
              "internalType": "uint256",
              "name": "amountOut",
              "type": "uint256"
            },
            {
              "internalType": "uint256",
              "name": "valueOut",
              "type": "uint256"
            },
            {
              "internalType": "int256",
              "name": "slippage",
              "type": "int256"
            },
            {
              "internalType": "address",
              "name": "tokenIn",
              "type": "address"
            },
            {
              "internalType": "address[]",
              "name": "swappers",
              "type": "address[]"
            },
            {
              "internalType": "address",
              "name": "tokenOut",
              "type": "address"
            },
            {
              "internalType": "address[][]",
              "name": "paths",
              "type": "address[][]"
            }
          ],
          "internalType": "struct SwapPoint[]",
          "name": "swaps",
          "type": "tuple[]"
        },
        {
          "components": [
            {
              "components": [
                {
                  "internalType": "address",
                  "name": "pool",
                  "type": "address"
                },
                {
                  "internalType": "address",
                  "name": "manager",
                  "type": "address"
                },
                {
                  "internalType": "uint256",
                  "name": "tokenId",
                  "type": "uint256"
                },
                {
                  "internalType": "uint256",
                  "name": "liquidity",
                  "type": "uint256"
                },
                {
                  "internalType": "bytes",
                  "name": "data",
                  "type": "bytes"
                }
              ],
              "internalType": "struct Asset",
              "name": "desiredERC721",
              "type": "tuple"
            },
            {
              "internalType": "address",
              "name": "desiredERC20",
              "type": "address"
            },
            {
              "internalType": "uint256",
              "name": "value",
              "type": "uint256"
            },
            {
              "internalType": "address[]",
              "name": "underlying",
              "type": "address[]"
            },
            {
              "internalType": "uint256[]",
              "name": "underlyingValues",
              "type": "uint256[]"
            }
          ],
          "internalType": "struct Conversion[]",
          "name": "conversions",
          "type": "tuple[]"
        }
      ],
      "stateMutability": "view",
      "type": "function"
    },
    {
      "inputs": [
        {
          "components": [
            {
              "internalType": "address[]",
              "name": "tokens",
              "type": "address[]"
            },
            {
              "internalType": "uint256[]",
              "name": "amounts",
              "type": "uint256[]"
            },
            {
              "components": [
                {
                  "internalType": "address",
                  "name": "pool",
                  "type": "address"
                },
                {
                  "internalType": "address",
                  "name": "manager",
                  "type": "address"
                },
                {
                  "internalType": "uint256",
                  "name": "tokenId",
                  "type": "uint256"
                },
                {
                  "internalType": "uint256",
                  "name": "liquidity",
                  "type": "uint256"
                },
                {
                  "internalType": "bytes",
                  "name": "data",
                  "type": "bytes"
                }
              ],
              "internalType": "struct Asset[]",
              "name": "nfts",
              "type": "tuple[]"
            }
          ],
          "internalType": "struct Provided",
          "name": "provided",
          "type": "tuple"
        },
        {
          "components": [
            {
              "internalType": "address[]",
              "name": "outputERC20s",
              "type": "address[]"
            },
            {
              "components": [
                {
                  "internalType": "address",
                  "name": "pool",
                  "type": "address"
                },
                {
                  "internalType": "address",
                  "name": "manager",
                  "type": "address"
                },
                {
                  "internalType": "uint256",
                  "name": "tokenId",
                  "type": "uint256"
                },
                {
                  "internalType": "uint256",
                  "name": "liquidity",
                  "type": "uint256"
                },
                {
                  "internalType": "bytes",
                  "name": "data",
                  "type": "bytes"
                }
              ],
              "internalType": "struct Asset[]",
              "name": "outputERC721s",
              "type": "tuple[]"
            },
            {
              "internalType": "uint256[]",
              "name": "ratios",
              "type": "uint256[]"
            },
            {
              "internalType": "uint256[]",
              "name": "minAmountsOut",
              "type": "uint256[]"
            }
          ],
          "internalType": "struct Desired",
          "name": "desired",
          "type": "tuple"
        }
      ],
      "name": "preSwapCalculateUnderlying",
      "outputs": [
        {
          "internalType": "address[]",
          "name": "",
          "type": "address[]"
        },
        {
          "internalType": "uint256[]",
          "name": "",
          "type": "uint256[]"
        },
        {
          "internalType": "uint256[]",
          "name": "",
          "type": "uint256[]"
        },
        {
          "components": [
            {
              "components": [
                {
                  "internalType": "address",
                  "name": "pool",
                  "type": "address"
                },
                {
                  "internalType": "address",
                  "name": "manager",
                  "type": "address"
                },
                {
                  "internalType": "uint256",
                  "name": "tokenId",
                  "type": "uint256"
                },
                {
                  "internalType": "uint256",
                  "name": "liquidity",
                  "type": "uint256"
                },
                {
                  "internalType": "bytes",
                  "name": "data",
                  "type": "bytes"
                }
              ],
              "internalType": "struct Asset",
              "name": "desiredERC721",
              "type": "tuple"
            },
            {
              "internalType": "address",
              "name": "desiredERC20",
              "type": "address"
            },
            {
              "internalType": "uint256",
              "name": "value",
              "type": "uint256"
            },
            {
              "internalType": "address[]",
              "name": "underlying",
              "type": "address[]"
            },
            {
              "internalType": "uint256[]",
              "name": "underlyingValues",
              "type": "uint256[]"
            }
          ],
          "internalType": "struct Conversion[]",
          "name": "",
          "type": "tuple[]"
        },
        {
          "internalType": "address[]",
          "name": "",
          "type": "address[]"
        },
        {
          "internalType": "uint256[]",
          "name": "",
          "type": "uint256[]"
        }
      ],
      "stateMutability": "view",
      "type": "function"
    },
    {
      "inputs": [],
      "name": "providedHelper",
      "outputs": [
        {
          "internalType": "contract ProvidedHelper",
          "name": "",
          "type": "address"
        }
      ],
      "stateMutability": "view",
      "type": "function"
    },
    {
      "inputs": [],
      "name": "renounceOwnership",
      "outputs": [],
      "stateMutability": "nonpayable",
      "type": "function"
    },
    {
      "inputs": [
        {
          "internalType": "uint256",
          "name": "_fee",
          "type": "uint256"
        }
      ],
      "name": "setDevFee",
      "outputs": [],
      "stateMutability": "nonpayable",
      "type": "function"
    },
    {
      "inputs": [
        {
          "internalType": "address",
          "name": "_coreLogic",
          "type": "address"
        },
        {
          "internalType": "address",
          "name": "_providedHelper",
          "type": "address"
        },
        {
          "internalType": "address",
          "name": "_conversionHelper",
          "type": "address"
        },
        {
          "internalType": "address",
          "name": "_swapHelper",
          "type": "address"
        }
      ],
      "name": "setHelpers",
      "outputs": [],
      "stateMutability": "nonpayable",
      "type": "function"
    },
    {
      "inputs": [
        {
          "internalType": "address[]",
          "name": "_nftPoolInteractors",
          "type": "address[]"
        }
      ],
      "name": "setNFTPoolInteractors",
      "outputs": [],
      "stateMutability": "nonpayable",
      "type": "function"
    },
    {
      "inputs": [
        {
          "internalType": "address",
          "name": "_oracle",
          "type": "address"
        }
      ],
      "name": "setOracle",
      "outputs": [],
      "stateMutability": "nonpayable",
      "type": "function"
    },
    {
      "inputs": [
        {
          "internalType": "address[]",
          "name": "_poolInteractors",
          "type": "address[]"
        }
      ],
      "name": "setPoolInteractors",
      "outputs": [],
      "stateMutability": "nonpayable",
      "type": "function"
    },
    {
      "inputs": [
        {
          "internalType": "address[]",
          "name": "_swappers",
          "type": "address[]"
        }
      ],
      "name": "setSwappers",
      "outputs": [],
      "stateMutability": "nonpayable",
      "type": "function"
    },
    {
      "inputs": [
        {
          "internalType": "address",
          "name": "_treasury",
          "type": "address"
        }
      ],
      "name": "setTreasury",
      "outputs": [],
      "stateMutability": "nonpayable",
      "type": "function"
    },
    {
      "inputs": [],
      "name": "stableToken",
      "outputs": [
        {
          "internalType": "address",
          "name": "",
          "type": "address"
        }
      ],
      "stateMutability": "view",
      "type": "function"
    },
    {
      "inputs": [
        {
          "components": [
            {
              "internalType": "address[]",
              "name": "tokens",
              "type": "address[]"
            },
            {
              "internalType": "uint256[]",
              "name": "amounts",
              "type": "uint256[]"
            },
            {
              "components": [
                {
                  "internalType": "address",
                  "name": "pool",
                  "type": "address"
                },
                {
                  "internalType": "address",
                  "name": "manager",
                  "type": "address"
                },
                {
                  "internalType": "uint256",
                  "name": "tokenId",
                  "type": "uint256"
                },
                {
                  "internalType": "uint256",
                  "name": "liquidity",
                  "type": "uint256"
                },
                {
                  "internalType": "bytes",
                  "name": "data",
                  "type": "bytes"
                }
              ],
              "internalType": "struct Asset[]",
              "name": "nfts",
              "type": "tuple[]"
            }
          ],
          "internalType": "struct Provided",
          "name": "provided",
          "type": "tuple"
        },
        {
          "components": [
            {
              "internalType": "uint256",
              "name": "amountIn",
              "type": "uint256"
            },
            {
              "internalType": "uint256",
              "name": "valueIn",
              "type": "uint256"
            },
            {
              "internalType": "uint256",
              "name": "amountOut",
              "type": "uint256"
            },
            {
              "internalType": "uint256",
              "name": "valueOut",
              "type": "uint256"
            },
            {
              "internalType": "int256",
              "name": "slippage",
              "type": "int256"
            },
            {
              "internalType": "address",
              "name": "tokenIn",
              "type": "address"
            },
            {
              "internalType": "address[]",
              "name": "swappers",
              "type": "address[]"
            },
            {
              "internalType": "address",
              "name": "tokenOut",
              "type": "address"
            },
            {
              "internalType": "address[][]",
              "name": "paths",
              "type": "address[][]"
            }
          ],
          "internalType": "struct SwapPoint[]",
          "name": "swaps",
          "type": "tuple[]"
        },
        {
          "components": [
            {
              "components": [
                {
                  "internalType": "address",
                  "name": "pool",
                  "type": "address"
                },
                {
                  "internalType": "address",
                  "name": "manager",
                  "type": "address"
                },
                {
                  "internalType": "uint256",
                  "name": "tokenId",
                  "type": "uint256"
                },
                {
                  "internalType": "uint256",
                  "name": "liquidity",
                  "type": "uint256"
                },
                {
                  "internalType": "bytes",
                  "name": "data",
                  "type": "bytes"
                }
              ],
              "internalType": "struct Asset",
              "name": "desiredERC721",
              "type": "tuple"
            },
            {
              "internalType": "address",
              "name": "desiredERC20",
              "type": "address"
            },
            {
              "internalType": "uint256",
              "name": "value",
              "type": "uint256"
            },
            {
              "internalType": "address[]",
              "name": "underlying",
              "type": "address[]"
            },
            {
              "internalType": "uint256[]",
              "name": "underlyingValues",
              "type": "uint256[]"
            }
          ],
          "internalType": "struct Conversion[]",
          "name": "conversions",
          "type": "tuple[]"
        },
        {
          "components": [
            {
              "internalType": "address[]",
              "name": "outputERC20s",
              "type": "address[]"
            },
            {
              "components": [
                {
                  "internalType": "address",
                  "name": "pool",
                  "type": "address"
                },
                {
                  "internalType": "address",
                  "name": "manager",
                  "type": "address"
                },
                {
                  "internalType": "uint256",
                  "name": "tokenId",
                  "type": "uint256"
                },
                {
                  "internalType": "uint256",
                  "name": "liquidity",
                  "type": "uint256"
                },
                {
                  "internalType": "bytes",
                  "name": "data",
                  "type": "bytes"
                }
              ],
              "internalType": "struct Asset[]",
              "name": "outputERC721s",
              "type": "tuple[]"
            },
            {
              "internalType": "uint256[]",
              "name": "ratios",
              "type": "uint256[]"
            },
            {
              "internalType": "uint256[]",
              "name": "minAmountsOut",
              "type": "uint256[]"
            }
          ],
          "internalType": "struct Desired",
          "name": "desired",
          "type": "tuple"
        },
        {
          "internalType": "address",
          "name": "receiver",
          "type": "address"
        }
      ],
      "name": "swap",
      "outputs": [
        {
          "internalType": "uint256[]",
          "name": "",
          "type": "uint256[]"
        }
      ],
      "stateMutability": "payable",
      "type": "function"
    },
    {
      "inputs": [
        {
          "components": [
            {
              "internalType": "address[]",
              "name": "tokens",
              "type": "address[]"
            },
            {
              "internalType": "uint256[]",
              "name": "amounts",
              "type": "uint256[]"
            },
            {
              "components": [
                {
                  "internalType": "address",
                  "name": "pool",
                  "type": "address"
                },
                {
                  "internalType": "address",
                  "name": "manager",
                  "type": "address"
                },
                {
                  "internalType": "uint256",
                  "name": "tokenId",
                  "type": "uint256"
                },
                {
                  "internalType": "uint256",
                  "name": "liquidity",
                  "type": "uint256"
                },
                {
                  "internalType": "bytes",
                  "name": "data",
                  "type": "bytes"
                }
              ],
              "internalType": "struct Asset[]",
              "name": "nfts",
              "type": "tuple[]"
            }
          ],
          "internalType": "struct Provided",
          "name": "provided",
          "type": "tuple"
        },
        {
          "components": [
            {
              "internalType": "uint256",
              "name": "amountIn",
              "type": "uint256"
            },
            {
              "internalType": "uint256",
              "name": "valueIn",
              "type": "uint256"
            },
            {
              "internalType": "uint256",
              "name": "amountOut",
              "type": "uint256"
            },
            {
              "internalType": "uint256",
              "name": "valueOut",
              "type": "uint256"
            },
            {
              "internalType": "int256",
              "name": "slippage",
              "type": "int256"
            },
            {
              "internalType": "address",
              "name": "tokenIn",
              "type": "address"
            },
            {
              "internalType": "address[]",
              "name": "swappers",
              "type": "address[]"
            },
            {
              "internalType": "address",
              "name": "tokenOut",
              "type": "address"
            },
            {
              "internalType": "address[][]",
              "name": "paths",
              "type": "address[][]"
            }
          ],
          "internalType": "struct SwapPoint[]",
          "name": "swaps",
          "type": "tuple[]"
        },
        {
          "components": [
            {
              "components": [
                {
                  "internalType": "address",
                  "name": "pool",
                  "type": "address"
                },
                {
                  "internalType": "address",
                  "name": "manager",
                  "type": "address"
                },
                {
                  "internalType": "uint256",
                  "name": "tokenId",
                  "type": "uint256"
                },
                {
                  "internalType": "uint256",
                  "name": "liquidity",
                  "type": "uint256"
                },
                {
                  "internalType": "bytes",
                  "name": "data",
                  "type": "bytes"
                }
              ],
              "internalType": "struct Asset",
              "name": "desiredERC721",
              "type": "tuple"
            },
            {
              "internalType": "address",
              "name": "desiredERC20",
              "type": "address"
            },
            {
              "internalType": "uint256",
              "name": "value",
              "type": "uint256"
            },
            {
              "internalType": "address[]",
              "name": "underlying",
              "type": "address[]"
            },
            {
              "internalType": "uint256[]",
              "name": "underlyingValues",
              "type": "uint256[]"
            }
          ],
          "internalType": "struct Conversion[]",
          "name": "conversions",
          "type": "tuple[]"
        },
        {
          "components": [
            {
              "internalType": "address[]",
              "name": "outputERC20s",
              "type": "address[]"
            },
            {
              "components": [
                {
                  "internalType": "address",
                  "name": "pool",
                  "type": "address"
                },
                {
                  "internalType": "address",
                  "name": "manager",
                  "type": "address"
                },
                {
                  "internalType": "uint256",
                  "name": "tokenId",
                  "type": "uint256"
                },
                {
                  "internalType": "uint256",
                  "name": "liquidity",
                  "type": "uint256"
                },
                {
                  "internalType": "bytes",
                  "name": "data",
                  "type": "bytes"
                }
              ],
              "internalType": "struct Asset[]",
              "name": "outputERC721s",
              "type": "tuple[]"
            },
            {
              "internalType": "uint256[]",
              "name": "ratios",
              "type": "uint256[]"
            },
            {
              "internalType": "uint256[]",
              "name": "minAmountsOut",
              "type": "uint256[]"
            }
          ],
          "internalType": "struct Desired",
          "name": "desired",
          "type": "tuple"
        },
        {
          "internalType": "address",
          "name": "receiver",
          "type": "address"
        }
      ],
      "name": "swapAfterTransfer",
      "outputs": [
        {
          "internalType": "uint256[]",
          "name": "",
          "type": "uint256[]"
        }
      ],
      "stateMutability": "payable",
      "type": "function"
    },
    {
      "inputs": [],
      "name": "swapHelper",
      "outputs": [
        {
          "internalType": "contract SwapHelper",
          "name": "",
          "type": "address"
        }
      ],
      "stateMutability": "view",
      "type": "function"
    },
    {
      "inputs": [
        {
          "internalType": "uint256",
          "name": "",
          "type": "uint256"
        }
      ],
      "name": "swappers",
      "outputs": [
        {
          "internalType": "address",
          "name": "",
          "type": "address"
        }
      ],
      "stateMutability": "view",
      "type": "function"
    },
    {
      "inputs": [
        {
          "internalType": "address",
          "name": "newOwner",
          "type": "address"
        }
      ],
      "name": "transferOwnership",
      "outputs": [],
      "stateMutability": "nonpayable",
      "type": "function"
    },
    {
      "inputs": [],
      "name": "treasury",
      "outputs": [
        {
          "internalType": "address",
          "name": "",
          "type": "address"
        }
      ],
      "stateMutability": "view",
      "type": "function"
    },
    {
      "stateMutability": "payable",
      "type": "receive"
    }
  ],
  "transactionHash": "0x055510a29207b7f5d8a77c27b4aa5a5b325b779a5a88b62fd3273f6d657e0495",
  "args": [],
  "numDeployments": 8,
  "solcInputHash": "ddb28ac097d983a53f2b709d35d2ebb5",
  "bytecode": "0x6080806040523461001657614219908161001c8239f35b600080fdfe608060409080825260049081361015610023575b505050361561002157600080fd5b005b600090813560e01c908163090f2f631461187c575080630b3be65b1461178e5780630fc6a11c1461176557806311ef73c5146116f1578063171d38f8146116c857806318f7b610146116825780631c75b6b2146116605780631d75097d146115eb57806321027dc5146115b45780632e21e23d146115355780633ccced4a146114c157806341b2b5371461145057806345725af0146113cd5780634f129c53146113a75780634f92a1a5146113665780635c9512db146112f557806361d027b3146112cc57806367f2ac131461123f5780636827e764146112205780636b757755146110ac5780636ca95a4e146110835780636d6f00a414610fe6578063715018a614610f895780637adbf97314610f495780637dc0d1d014610f205780638871912514610e9c5780639817ad1c14610e565780639b0b872b14610e2d5780639b1fbbe714610de15780639d9c503b14610d2a578063a37c7a4914610b01578063a9d75b2b14610ad8578063b387ef9214610aaf578063c58d1bd214610750578063cc62c85214610580578063d4fd0a6914610557578063e7c87f1914610528578063f0f44260146104e8578063f2fde38b14610451578063f485d942146104245763fa3f6699036100135734610421576101fd36611e45565b9091805b835180518210156102505761023591906001600160a01b039081906102279084906127eb565b51161561023a575b5061252c565b610201565b606554166102498287516127eb565b523861022f565b5050606b548551630c1eb7ed60e21b815260208187015292949186916001600160a01b0390829086908316818061028a602482018c612bca565b03915afa94851561041757829083966103f0575b5060208798970195865287526102b2612da8565b87840152606f5496825b81515181101561030f5780620186a06102e38b6102dd61030a958c516127eb565b51612410565b04610304826102fe8b51936102f883866127eb565b51612dcb565b926127eb565b5261252c565b6102bc565b50828761031c81846137d0565b9381989195606d541691610344868a519b8c96879586956303fd2fa760e61b87528601612e58565b03915afa9182156103e65761037d958480946103aa575b5050936103989161038b6103a69596835198899860808a5260808a0190611c2d565b9088820360208a0152611e8b565b9186830390870152612038565b908382036060850152611c2d565b0390f35b6103a6955061038b9692945061039893916103d6913d8091833e6103ce81836119c1565b810190612dd8565b969096949296955081935061035b565b84513d85823e3d90fd5b905061040f9195503d8084833e61040781836119c1565b810190612b32565b94908861029e565b83513d84823e3d90fd5b80fd5b50823461044d578160031936011261044d57606b5490516001600160a01b039091168152602090f35b5080fd5b509190346104e45760203660031901126104e45761046d6119fd565b91610476613f0d565b6001600160a01b03831615610492578361048f84613f65565b80f35b906020608492519162461bcd60e51b8352820152602660248201527f4f776e61626c653a206e6577206f776e657220697320746865207a65726f206160448201526564647265737360d01b6064820152fd5b8280fd5b5034610421576020366003190112610421576105026119fd565b61050a613f0d565b60018060a01b03166001600160601b0360a01b607054161760705580f35b50823461044d57602036600319011261044d5760209061054e6105496119fd565b612553565b90519015158152f35b50823461044d578160031936011261044d5760715490516001600160a01b039091168152602090f35b508261058b36612386565b6066546001600160a01b0397929692959493906105aa90891686612c09565b936105b58651613d4d565b86518051820361072c575b505088606e5416908651966020978882018051948a8985019384518b5198899363a93148f360e01b9085015260248401926105fa93613aad565b0395601f1996878101825261060f90826119c1565b610617613ba4565b9061062192613bed565b8a80825183010191019061063491612b32565b9091528252610641612da8565b90528a606e5416948a8751958694636631642960e11b8c870152602486019461066995613ae4565b03908101825261067990826119c1565b610681613ba4565b9061068b92613bed565b8380825183010191019061069e91613b34565b90838601928351516106af906127ac565b955b86518110156106de578089876106cb6106d99489516127eb565b51015116610304828a6127eb565b6106b1565b5084917f01e8e5ad40d89ca15c2adc1d256db99291b58e6533c627ed84336b7c219eb131876103a69361071a878c519386519485943386613b59565b0390a151928284938452830190611c2d565b8161073691613cd5565b875261074760208801918251613e46565b905289806105c0565b509190346104e45760c03660031901126104e4576001600160401b03908035828111610aab576107839036908301611b69565b9160248035828111610aa75761079c9036908501611b69565b916107a5611a13565b916107ae611a29565b91608435818111610aa3576107c69036908801611b69565b956001600160a01b039360a4358581169190829003610a9f578b549860ff8a60081c16159889809a610a92575b8015610a7b575b15610a22578d60019b8b8d60ff198316178355610a10575b50508b518681116109dc578e610827826124db565b6068815260209d8e01908d908f5b8482106109ee5750505050508051908682116109dc578b8f918e809161085a8661248a565b019260698152905b8482106109ba5750505050508051908582116109a857908d8b8d8a959461088885612439565b0191606781525b8381106109835750505050816001600160601b0360a01b98168860655416176065551686606654161760665585606a541617606a556064606f55338560705416176070558851926101d5918285019385851090851117610972575050908291613faf8339039088f08015610968571690607154161760715561092060ff865460081c1661091b81613ead565b613ead565b61092933613f65565b610931578380f35b7f7f26b83ff96e1f2b6a682f133852f6798a09c465da95921460cefb38474024989261ff0019855416855551908152a13880808380f35b86513d89823e3d90fd5b634e487b7160e01b8c52604190528afd5b82519095166000805160206141a48339815191528601558994918e01918d910161088f565b634e487b7160e01b8e5260418552868efd5b8b845116930192816000805160206141848339815191520155018c908e610862565b634e487b7160e01b8f5260418652878ffd5b8c845116930192816000805160206141c48339815191520155018d908f610835565b61ffff19166101011790558d38610812565b8c5162461bcd60e51b8152602081870152602e818901527f496e697469616c697a61626c653a20636f6e747261637420697320616c72656160448201526d191e481a5b9a5d1a585b1a5e995960921b6064820152608490fd5b50303b1580156107fa5750600160ff8c16146107fa565b50600160ff8c16106107f3565b8b80fd5b8980fd5b8680fd5b8480fd5b50823461044d578160031936011261044d5760335490516001600160a01b039091168152602090f35b50823461044d578160031936011261044d5760665490516001600160a01b039091168152602090f35b509190346104e45760803660031901126104e4576001600160401b03918135838111610aab57610b349036908401611d2d565b91602435848111610d2657610b4c9036908301611dad565b9460443585811161044d57610b6490369084016120dc565b9460643590811161044d57610b7c9036908401612282565b92815b85518051821015610bc657610bb291906001600160a01b03908190610ba59084906127eb565b511615610bb7575061252c565b610b7f565b606554166102498289516127eb565b5050919490929560018060a01b039687606b5416958585518098630c1eb7ed60e21b825260208b8301528180610bff6024820187612bca565b03915afa968715610d1c5786908798610cfd575b506020829a999a019788528152610c28612da8565b81860152606f5498865b825151811015610c6d5780620186a0610c538d6102dd610c68958e516127eb565b04610304826102fe8d51936102f883866127eb565b610c32565b509086939291610c968a606d5416938851978896879586956303fd2fa760e61b87528601612e58565b03915afa908115610cf157838092610cd0575b50506103a690610cc28351948486958652850190611c2d565b908382036020850152611c2d565b6103a69450610ce992503d8091833e6103ce81836119c1565b909284610ca9565b505051903d90823e3d90fd5b9050610d149197503d8088833e61040781836119c1565b969038610c13565b85513d88823e3d90fd5b8580fd5b509190346104e45760203660031901126104e457828135916001600160401b03831161044d57610d60610d949336908301611d2d565b606b548551630c1eb7ed60e21b8152602093810193909352919384926001600160a01b031691839182916024830190612bca565b03915afa908115610cf157838092610dc0575b50506103a690610cc28351948486958652850190611b15565b6103a69450610dd992503d8091833e61040781836119c1565b909238610da7565b508290346104215781600319360112610421578235906001600160401b0382116104215750610e18602093610e2692369101611d2d565b610e206119e2565b90612c09565b9051908152f35b50823461044d578160031936011261044d57606c5490516001600160a01b039091168152602090f35b509190346104e45760203660031901126104e457356068548110156104e45760686020935260018060a01b03906000805160206141c48339815191520154169051908152f35b50903461044d57610eac36611c61565b91610eb5613f0d565b6001600160401b038311610f0d5750610ecd826124db565b825b828110610eda578380f35b8135906001600160a01b0382168203610aab576020600192930192816000805160206141c4833981519152015501610ecf565b634e487b7160e01b845260419052602483fd5b50823461044d578160031936011261044d57606a5490516001600160a01b039091168152602090f35b503461042157602036600319011261042157610f636119fd565b610f6b613f0d565b60018060a01b03166001600160601b0360a01b606a541617606a5580f35b5034610421578060031936011261042157610fa2613f0d565b603380546001600160a01b0319811690915581906001600160a01b03167f8be0079c531659141344cd1fd0a4f28419497f9722a3daafe3b4186f6b6457e08280a380f35b83823461042157606036600319011261042157506110026119fd565b90610e2661100e611a13565b82516110198161198b565b600181526020948536818401378451906110328261198b565b60018252863681840137611045836127de565b6001600160a01b03909116905260243561105e826127de565b52611067612da8565b9085519261107484611923565b83528683015284820152612c09565b50823461044d578160031936011261044d5760655490516001600160a01b039091168152602090f35b50826110b736612386565b6066546001600160a01b0397929692959493906110d690891686612c09565b936110e18651613d4d565b8651805182036111fc575b505088606e5416908651966020978882018051948a8985019384518b5198899363bcf3700160e01b90850152602484019261112693613aad565b0395601f1996878101825261113b90826119c1565b611143613ba4565b9061114d92613bed565b8a80825183010191019061116091612b32565b909152825261116d612da8565b90528a606e5416948a8751958694636631642960e11b8c870152602486019461119595613ae4565b0390810182526111a590826119c1565b6111ad613ba4565b906111b792613bed565b838082518301019101906111ca91613b34565b90838601928351516111db906127ac565b955b86518110156106de578089876106cb6111f79489516127eb565b6111dd565b8161120691613cd5565b875261121760208801918251613e46565b905289806110ec565b50823461044d578160031936011261044d57602090606f549051908152f35b838234610421575060c06103a66112a26112be6112956112b061126a61126436611e45565b90612ea0565b98936112878d9493969d989298519d8d8f9e8f9081520190611b15565b8c810360208e015290611c2d565b918a8303908b0152611c2d565b908782036060890152612038565b908582036080870152611b15565b9083820360a0850152611c2d565b50823461044d578160031936011261044d5760705490516001600160a01b039091168152602090f35b50903461044d5761130536611c61565b9161130e613f0d565b6001600160401b038311610f0d57506113268261248a565b825b828110611333578380f35b8135906001600160a01b0382168203610aab57602060019293019281600080516020614184833981519152015501611328565b50823461044d576103a69061138361137d36611e45565b906137d0565b6113998394929451948486958652850190611e8b565b908382036020850152612038565b50823461044d57602036600319011261044d5760209061054e6113c86119fd565b612d7a565b50823461044d578160031936011261044d5780519081809360675490818552602080950191606782526000805160206141a4833981519152915b868282106114305785906103a688611421848903856119c1565b51928284938452830190611b15565b83546001600160a01b031685528895509093019260019283019201611407565b50903461044d5761146036611c61565b91611469613f0d565b6001600160401b038311610f0d575061148182612439565b825b82811061148e578380f35b8135906001600160a01b0382168203610aab576020600192930192816000805160206141a4833981519152015501611483565b50823461044d578160031936011261044d578051908180936069549081855260208095019160698252600080516020614184833981519152915b868282106115155785906103a688611421848903856119c1565b83546001600160a01b0316855288955090930192600192830192016114fb565b50346104215760803660031901126104215761154f6119fd565b6115576119e2565b61155f611a13565b90611568611a29565b90611571613f0d565b60018060a01b0392838092816001600160601b0360a01b971687606e541617606e551685606b541617606b551683606c541617606c551690606d541617606d5580f35b50823461044d57602036600319011261044d576020906115da6115d56119fd565b612650565b90516001600160a01b039091168152f35b50903461044d578260031936011261044d576001600160401b03813581811161165c5761161b9036908401611b69565b92602435918211610421575061163e929161163891369101611bcf565b906128b4565b825183815292839261165291840190611c2d565b9060208301520390f35b8380fd5b50903461044d57602036600319011261044d5761167b613f0d565b35606f5580f35b509190346104e45760203660031901126104e457356069548110156104e45760696020935260018060a01b03906000805160206141848339815191520154169051908152f35b50823461044d578160031936011261044d57606e5490516001600160a01b039091168152602090f35b50823461044d578160031936011261044d5780519081809360685490818552602080950191606882526000805160206141c4833981519152915b868282106117455785906103a688611421848903856119c1565b83546001600160a01b03168552889550909301926001928301920161172b565b50823461044d578160031936011261044d57606d5490516001600160a01b039091168152602090f35b50823461044d578060031936011261044d576001600160401b0390833582811161165c576117bf9036908601611a6e565b906117c86119e2565b938151916117d58361198b565b60018352815b6020808210156118355782519060a08201828110898211176118225784528482528181018590528382018590526060808301869052608083015285830101526020016117db565b634e487b7160e01b865260418b52602486fd5b602083610e268a87898b611848826127de565b52611852816127de565b5084519161185f836119a6565b80835285519061186e826119a6565b815285519261107484611923565b905082346104e45760203660031901126104e457356067548110156104e45760679092526000805160206141a4833981519152909101546001600160a01b03168152602090f35b6068548110156118e85760686000526000805160206141c48339815191520190600090565b634e487b7160e01b600052603260045260246000fd5b6069548110156118e85760696000526000805160206141848339815191520190600090565b606081019081106001600160401b0382111761193e57604052565b634e487b7160e01b600052604160045260246000fd5b60a081019081106001600160401b0382111761193e57604052565b61012081019081106001600160401b0382111761193e57604052565b604081019081106001600160401b0382111761193e57604052565b602081019081106001600160401b0382111761193e57604052565b90601f801991011681019081106001600160401b0382111761193e57604052565b602435906001600160a01b03821682036119f857565b600080fd5b600435906001600160a01b03821682036119f857565b604435906001600160a01b03821682036119f857565b606435906001600160a01b03821682036119f857565b35906001600160a01b03821682036119f857565b6001600160401b03811161193e57601f01601f191660200190565b919060a0838203126119f85760405192611a8784611954565b83611a9182611a3f565b8152602091611aa1838201611a3f565b8383015260408101356040830152606081013560608301526080810135906001600160401b0382116119f8570183601f820112156119f857803592611ae584611a53565b94611af360405196876119c1565b8486528185840101116119f85783608094826000940183880137850101520152565b90815180825260208080930193019160005b828110611b35575050505090565b83516001600160a01b031685529381019392810192600101611b27565b6001600160401b03811161193e5760051b60200190565b81601f820112156119f857803591611b8083611b52565b92611b8e60405194856119c1565b808452602092838086019260051b8201019283116119f8578301905b828210611bb8575050505090565b838091611bc484611a3f565b815201910190611baa565b81601f820112156119f857803591611be683611b52565b92611bf460405194856119c1565b808452602092838086019260051b8201019283116119f8578301905b828210611c1e575050505090565b81358152908301908301611c10565b90815180825260208080930193019160005b828110611c4d575050505090565b835185529381019392810192600101611c3f565b9060206003198301126119f8576004356001600160401b03928382116119f857806023830112156119f85781600401359384116119f85760248460051b830101116119f8576024019190565b9080601f830112156119f857813590611cc582611b52565b92611cd360405194856119c1565b828452602092838086019160051b830101928084116119f857848301915b848310611d015750505050505090565b82356001600160401b0381116119f8578691611d2284848094890101611a6e565b815201920191611cf1565b9190916060818403126119f857604051906001600160401b0390606083018281118482101761193e57604052829481358381116119f85781611d70918401611b69565b845260208201358381116119f85781611d8a918401611bcf565b602085015260408201359283116119f857604092611da89201611cad565b910152565b9190916080818403126119f857604051906001600160401b0390608083018281118482101761193e57604052829481358381116119f85781611df0918401611b69565b845260208201358381116119f85781611e0a918401611cad565b602085015260408201358381116119f85781611e27918401611bcf565b604085015260608201359283116119f857606092611da89201611bcf565b9060406003198301126119f8576001600160401b036004358181116119f85783611e7191600401611d2d565b926024359182116119f857611e8891600401611dad565b90565b90808251908181526020809101600590828085841b870101960194600092835b868510611ebd57505050505050505090565b909192939495969786601f19808684030187528a519283518152828401518382015260408085015190820152606080850151908201526080808501519082015260018060a01b039060a082818701511690820152611f2b60c080870151906101208091850152830190611b15565b9160e09081870151169082015261010080950151948183039101528351808252838201918480838a1b83010196019387905b838210611f8057505050505050806001929a019501950193969594929190611eab565b91939580611f9b898588600196989a9c03018a528a51611b15565b9801960192018c9594929391611f5d565b60005b838110611fbf5750506000910152565b8181015183820152602001611faf565b90602091611fe881518092818552858086019101611fac565b601f01601f1916010190565b9060a06080611e8893600180841b03808251168552602082015116602085015260408101516040850152606081015160608501520151918160808201520190611fcf565b90815180825260208092019182818360051b82019501936000915b8483106120635750505050505090565b90919293949584806120cc83856001950387528a516120b961208d825160a0808652850190611ff4565b878060a01b03868401511686850152604080840151908501526060808401519085830390860152611b15565b9160808092015191818403910152611c2d565b9801930193019194939290612053565b9080601f830112156119f8578135916120f483611b52565b92604090612104825195866119c1565b808552602093848087019260051b850101938185116119f857858101925b858410612133575050505050505090565b6001600160401b0384358181116119f85783019061012080601f1984880301126119f8578751926121638461196f565b8a8101358452888101358b850152606091828201358a860152608092838301359086015260a092838301359086015260c0926121a0848401611a3f565b9086015260e092838301358581116119f857898e6121c092860101611b69565b90860152610100926121d3848401611a3f565b90860152810135908382116119f8570186603f820112156119f8578a810135906121fc82611b52565b936122098b5195866119c1565b8285528a8d86019360051b830101918983116119f85790918d9694928c839997959901925b82841061224a5750505050849550820152815201930192612122565b91939597509193959784358381116119f8578f9161226e8f8e908594870101611b69565b8152019401918e979593919896949861222e565b9080601f830112156119f857813561229981611b52565b926040916122a9835195866119c1565b808552602093848087019260051b840101938185116119f857858401925b8584106122d8575050505050505090565b6001600160401b0384358181116119f85786019160a080601f1985880301126119f85784519061230782611954565b8a8501358481116119f857878c61232092880101611a6e565b825261232d868601611a3f565b8b8301526060908186013587840152608091828701358681116119f857898e612358928a0101611b69565b908401528501359384116119f857612377878c80979681970101611bcf565b908201528152019301926122c7565b60a06003198201126119f8576001600160401b03906004358281116119f857816123b291600401611d2d565b926024358381116119f857826123ca916004016120dc565b926044358181116119f857836123e291600401612282565b926064359182116119f8576123f991600401611dad565b906084356001600160a01b03811681036119f85790565b8181029291811591840414171561242357565b634e487b7160e01b600052601160045260246000fd5b600160401b811161193e576067549080606755818110612457575050565b600090606782526000805160206141a483398151915292830192015b82811061247f57505050565b818155600101612473565b600160401b811161193e5760695490806069558181106124a8575050565b6000906069825260008051602061418483398151915292830192015b8281106124d057505050565b8181556001016124c4565b600160401b811161193e5760685490806068558181106124f9575050565b600090606882526000805160206141c483398151915292830192015b82811061252157505050565b818155600101612515565b60001981146124235760010190565b908160209103126119f8575180151581036119f85790565b6065546001600160a01b039180831691831682148015612648575b6126405761257c8391612650565b166126395760009160678054935b84811061259b575050505050600090565b8160005282816000805160206141a483398151915201541660409081518091637bea262360e11b825287600483015281602460209384935afa92831561262f5750600092612602575b50506125f8576125f39061252c565b61258a565b5050505050600190565b6126219250803d10612628575b61261981836119c1565b81019061253b565b38806125e4565b503d61260f565b513d6000823e3d90fd5b5050600090565b505050600190565b50811561256e565b6065546001600160a01b0391821691908116821480156127a4575b6126395760685460005b8181106127215750506069549160005b8381106126955750505050600090565b61269e816118fe565b905460409085825191632d53013b60e21b83528660048401528260248160209485946003998a1b1c165afa92831561262f5750600092612704575b50506126ee57506126e99061252c565b612685565b9293506126fb91506118fe565b9054911b1c1690565b61271a9250803d106126285761261981836119c1565b38806126d9565b61272a816118c3565b905460409085825191632d53013b60e21b83528860048401528260248160209485946003998a1b1c165afa92831561262f5750600092612787575b505061277a57506127759061252c565b612675565b9293506126fb91506118c3565b61279d9250803d106126285761261981836119c1565b3880612765565b50811561266b565b906127b682611b52565b6127c360405191826119c1565b82815280926127d4601f1991611b52565b0190602036910137565b8051156118e85760200190565b80518210156118e85760209160051b010190565b908160209103126119f8575160ff811681036119f85790565b801561288157600190602081108216604e8210831617612879578190600a925b80821161285057505081600019048111612423570290565b90928060001904811161242357818416612870575b800292811c90612838565b80920291612865565b9050600a0a90565b50600190565b8115612891570490565b634e487b7160e01b600052601260045260246000fd5b9190820180921161242357565b9190600080936128c481516127ac565b91859360018060a01b0380606a54168160655416935b8551881015612a4e57826128ee89886127eb565b5160408051635620c32d60e11b81526001600160a01b03939092168316600480840191909152928816602483015291906020908d9082816044818a5afa908115612a44578d83928b8b938f9998979692612a08575b509161295f61296592612958838997966127eb565b5190612410565b986127eb565b511685519485809263313ce56760e01b82525afa9384156129fe575060ff6129cb96946129a9946129c597946129a394926129d1575b505016612818565b90612887565b6129b38b8b6127eb565b526129be8a8a6127eb565b51906128a7565b9761252c565b966128da565b6129f09250803d106129f7575b6129e881836119c1565b8101906127ff565b388061299b565b503d6129de565b51903d90823e3d90fd5b9850505050508185813d8311612a3d575b612a2381836119c1565b810103126104215793518a949088908e908b61295f612943565b503d612a19565b85513d84823e3d90fd5b97965050505050509250565b51906001600160a01b03821682036119f857565b81601f820112156119f857805191612a8583611b52565b92612a9360405194856119c1565b808452602092838086019260051b8201019283116119f8578301905b828210612abd575050505090565b838091612ac984612a5a565b815201910190612aaf565b81601f820112156119f857805191612aeb83611b52565b92612af960405194856119c1565b808452602092838086019260051b8201019283116119f8578301905b828210612b23575050505090565b81518152908301908301612b15565b9190916040818403126119f8578051926001600160401b03938481116119f85781612b5e918401612a6e565b9360208301519081116119f857611e889201612ad4565b90815180825260208092019182818360051b82019501936000915b848310612ba05750505050505090565b9091929394958480612bba83856001950387528a51611ff4565b9801930193019194939290612b90565b611e88916040612bf8612be68451606085526060850190611b15565b60208501518482036020860152611c2d565b920151906040818403910152612b75565b90612c48929160018060a01b039182606b541690604092835190630c1eb7ed60e21b825281602094856004830152818060009b8c956024830190612bca565b03915afa908115612d4d5792612c6d819392612cbe958a908b92612d5d575b506128b4565b92905086606a541690876065541697811615600014612d57575086905b8651635620c32d60e11b81526001600160a01b03808a16600483015290921660248301529094859190829081906044820190565b03915afa928315612d4d578793612d1c575b50612cde8291600494612410565b9484519384809263313ce56760e01b82525afa928315612d1357509160ff916129a393611e889697926129d157505016612818565b513d87823e3d90fd5b92508183813d8311612d46575b612d3381836119c1565b81010312610aa757915191612cde612cd0565b503d612d29565b84513d89823e3d90fd5b90612c8a565b9050612d7391503d808c833e61040781836119c1565b9038612c67565b612d8381612553565b612881576001600160a01b0390612d9990612650565b16612da357600090565b600190565b604051602081018181106001600160401b0382111761193e576040526000815290565b9190820391821161242357565b9190916040818403126119f8578051926001600160401b03938481116119f85781612b5e918401612ad4565b611e88916060612e47612e35612e238551608086526080860190611b15565b60208601518582036020870152612b75565b60408501518482036040860152611c2d565b920151906060818403910152611c2d565b92612e84611e889593612e76612e9294608088526080880190612bca565b908682036020880152612e04565b908482036040860152611e8b565b916060818403910152612038565b612f106000612eb583516020850151906128b4565b612efd60018060a09694961b03606c541691875190612f1f604060208b01519a0151996040519a8b978896879663390d345960e11b8852608060048901526084880190611b15565b6003199384888303016024890152612b75565b91858303016044860152611c2d565b90606483015203915afa9283156137c457600093613587575b5060609360009285925b85518510156130b25760005b6060612f5a87896127eb565b5101515181101561309d57612f906001600160a01b03612f88836060612f808b8d6127eb565b5101516127eb565b511688613dce565b612fa3575b612f9e9061252c565b612f4e565b92969194919291906001600160a01b03612fc3846060612f80868c6127eb565b5116978551600181018111612423576001612fde91016127ac565b9660005b87518110156130125761300d906001600160a01b03613001828b6127eb565b5116610304828c6127eb565b612fe2565b5096919498909793956130269051836127eb565b5292613038856080612f8085876127eb565b5196885160018101811161242357600161305291016127ac565b9660005b8a5181101561307d578061306d613078928d6127eb565b51610304828c6127eb565b613056565b509397613094612f9e9394989296979a51836127eb565b52979050612f95565b509190936130aa9061252c565b939091612f42565b91909350949193946130c485516127ac565b956000945b865186101561317c57855b87518110156131635780876130f3921180613134575b6130f85761252c565b6130d4565b61311061310589896127eb565b516129be838a6127eb565b61311a89896127eb565b52600061312782896127eb565b526001610304828c6127eb565b506001600160a01b03613147898b6127eb565b51166001600160a01b0361315b838c6127eb565b5116146130ea565b5091946131729093919361252c565b94919290926130c9565b93945094955060009560005b81518110156131c15761319b81876127eb565b516131af575b6131aa9061252c565b613188565b966001810180911161242357966131a1565b509093929591946131da6131d4846127ac565b936127ac565b9460009760005b845181101561324f576131f481886127eb565b51613208575b6132039061252c565b6131e1565b986001600160a01b0361321b8b876127eb565b511661322782886127eb565b526132328a886127eb565b5161323d828a6127eb565b526001810180911161242357986131fa565b5092509296509392506000945b84518610156133d45790956000939293925b606061327a88886127eb565b510151518410156133b8576132a86001600160a01b036132a0866060612f808c8c6127eb565b511687613dce565b156133a9576001600160a01b036132c5856060612f808b8b6127eb565b511694600098885b8851811015613333576132ee8860606132e6848d6127eb565b510151613d8a565b60606132fa838c6127eb565b510151518103613314575b5061330f9061252c565b6132cd565b819b6129be61332c926080612f8061330f968f6127eb565b9a90613305565b50929891955093919291811561339657613353816080612f808b8b6127eb565b51670de0b6b3a76400009281848102048414821517156124235761338b9361337b9202612887565b610304826080612f808c8c6127eb565b92939690919661326e565b61338b9150670de0b6b3a764000061337b565b939261338b909792919761252c565b956133c9919293509693949661252c565b94929095939161325c565b9091929394506000955b85518710156135745760005b60606133f689896127eb565b5101515181101561355b5761341c6001600160a01b03612f88836060612f808d8d6127eb565b613552576001600160a01b03613438826060612f808c8c6127eb565b51169060009160005b8a8111156134b1575050811561349e57613461816080612f808c8c6127eb565b51670de0b6b3a764000092818481020484148215171561242357613499936134899202612887565b610304826080612f808d8d6127eb565b6133ea565b6134999150670de0b6b3a7640000613489565b89826001600160a01b0360206134c785856127eb565b510151161461352f578260606132e6846134e0946127eb565b8a60606134ed84836127eb565b510151518203613508575b50506135039061252c565b613441565b94613520613527926080612f8086613503979a6127eb565b5190612dcb565b93908a6134f8565b819460406135436135039461354c946127eb565b510151906128a7565b9361252c565b6134999061252c565b50919390929561356a9061252c565b95929093916133de565b8251602090930151929650919490939092565b9092503d806000833e61359a81836119c1565b60208282810103126119f85781516001600160401b0381116119f857818301601f8285010112156119f85780830151906135d382611b52565b936135e160405195866119c1565b828552602085019084810160208560051b8584010101116119f857602083820101915b60208560051b85840101018310613622575050505050509138612f38565b8251906001600160401b0382116119f857601f199160a08487018201898601038401126119f8576040519261365684611954565b6020828887010101516001600160401b0381116119f85760a09083898801010191828b88010301126119f8576040519061368f82611954565b61369b60208201612a5a565b82526136a960408201612a5a565b6020830152606081015160408301526080810151606083015260a08101516001600160401b0381116119f8578a8701603f8284010112156119f857602081830101516136f481611a53565b9261370260405194856119c1565b8184528c89016040838584010101116119f85760406137279360208601920101611fac565b6080820152835261373e6040828887010101612a5a565b6020840152838601810160608101516040850152608001516001600160401b0381116119f85761377a9060208a870191848a8901010101612a6e565b606084015260a081878601010151916001600160401b0383116119f8576020936137b28594938580958d8a01928c8b01010101612ad4565b60808201528152019301929050613604565b6040513d6000823e3d90fd5b91906138226137e26138559285612ea0565b948985602083979a959c01525261384560018060a01b03606d541693613835604051988997631573458360e11b895260a060048a015260a4890190611b15565b6003199a8b8983030160248a0152611c2d565b9089878303016044880152611c2d565b9087858303016064860152611b15565b94828603016084830152818061386e6000978896611c2d565b03915afa918215613aa1578092613886575b50509190565b9091503d8082843e61389881846119c1565b602083828101031261044d5782516001600160401b0381116104e457818401601f8286010112156104e45780840151916138d183611b52565b946138df60405196876119c1565b838652602086019282820160208660051b838501010111610d2657602081830101935b60208660051b8385010101851061392157505050505050503880613880565b84516001600160401b038111613a9d57828401016101209081601f1982888801030112613a9957604051916139558361196f565b60208201518352604082015160208401526060808301516040850152608090818401519085015260a08301519084015260c0613992818401612a5a565b60a085015260e090818401516001600160401b038111613a95576139be9060208b8b0191870101612a6e565b908501526139cf6101008401612a5a565b908401528101516001600160401b038111610aa357868601603f828401011215610aa35760208183010151613a0381611b52565b92613a1160405194856119c1565b818452602084019289890160408460051b838501010111613a9557604081830101935b60408460051b83850101018510613a5e575050505050610100820152815260209485019401613902565b84516001600160401b038111613a9157602091613a86839260408f8f01918789010101612a6e565b815201940193613a34565b8e80fd5b8c80fd5b8880fd5b8780fd5b604051903d90823e3d90fd5b91613ad690613ac8611e889593606086526060860190611b15565b908482036020860152611c2d565b916040818403910152612b75565b9390608093613b08613b249461037d613b16949a999a60a08a5260a08a0190612bca565b908682036040880152612038565b908482036060860152612e04565b6001600160a01b03909416910152565b906020828203126119f85781516001600160401b0381116119f857611e889201612ad4565b9390611e889593613b9693613b889260018060a01b03168752602087015260a0604087015260a0860190611b15565b908482036060860152611b15565b916080818403910152611c2d565b60405190613bb182611923565b60278252660819985a5b195960ca1b6040837f416464726573733a206c6f772d6c6576656c2064656c65676174652063616c6c60208201520152565b9190823b15613c3d57600081611e889460208394519201905af43d15613c35573d90613c1882611a53565b91613c2660405193846119c1565b82523d6000602084013e613c91565b606090613c91565b60405162461bcd60e51b815260206004820152602660248201527f416464726573733a2064656c65676174652063616c6c20746f206e6f6e2d636f6044820152651b9d1c9858dd60d21b6064820152608490fd5b90919015613c9d575090565b815115613cad5750805190602001fd5b60405162461bcd60e51b815260206004820152908190613cd1906024830190611fcf565b0390fd5b8051919291600019810190811161242357613cef906127ac565b90600093845b8251811015613d4557818103613d14575b613d0f9061252c565b613cf5565b946001600160a01b03613d2787856127eb565b5116613d3382866127eb565b52600181018091116124235794613d06565b509193505050565b60005b8151811015613d85576001600160a01b03613d6b82846127eb565b511615613d8057613d7b9061252c565b613d50565b905090565b505190565b9060005b8251811015613dc8576001600160a01b0380613daa83866127eb565b511690831614613dc257613dbd9061252c565b613d8e565b91505090565b50505190565b60005b81518110156126405760206001600160a01b038082613df085876127eb565b51015116908086168092149283613e1f575b505050613e1757613e129061252c565b613dd1565b505050600090565b909192506060613e2f85876127eb565b5101518051156118e8570151161415388080613e02565b8051919291600019810190811161242357613e60906127ac565b90600093845b8251811015613d4557818103613e85575b613e809061252c565b613e66565b94613e9086846127eb565b51613e9b82866127eb565b52600181018091116124235794613e77565b15613eb457565b60405162461bcd60e51b815260206004820152602b60248201527f496e697469616c697a61626c653a20636f6e7472616374206973206e6f74206960448201526a6e697469616c697a696e6760a81b6064820152608490fd5b6033546001600160a01b03163303613f2157565b606460405162461bcd60e51b815260206004820152602060248201527f4f776e61626c653a2063616c6c6572206973206e6f7420746865206f776e65726044820152fd5b603380546001600160a01b039283166001600160a01b0319821681179092559091167f8be0079c531659141344cd1fd0a4f28419497f9722a3daafe3b4186f6b6457e0600080a356fe60808060405234610016576101b9908161001c8239f35b600080fdfe608060409080825260049081361015610023575b505050361561002157600080fd5b005b600092833560e01c63f3fef3a31461003b5750610013565b3461017f578060031936011261017f5782356001600160a01b0381169081900361017b5760249285843592803b15610177578583838193632e1a7d4d60e01b8352878b8401525af1801561016d57610140575b508480808093335af13d1561013b5767ffffffffffffffff3d81811161012957835191601f8201601f19908116603f011683019081118382101761011557845281528560203d92013e5b156100e1578380f35b606492916020600f92519362461bcd60e51b85528401528201526e151c985b9cd9995c8811985a5b1959608a1b6044820152fd5b85604188634e487b7160e01b600052526000fd5b634e487b7160e01b8752604186528487fd5b6100d8565b67ffffffffffffffff819692961161015b578252933861008e565b634e487b7160e01b8252604185528382fd5b83513d88823e3d90fd5b5080fd5b8480fd5b8380fdfea264697066735822122007ad7f4ef50cefee1a234e92c37514b9d1569d24cedb729a9ec02bcf9ce497f064736f6c634300081100337fb4302e8e91f9110a6554c2c0a24601252c2a42c2220ca988efcfe3999143089787eeb91fe3101235e4a76063c7023ecb40f923f97916639c598592fa30d6aea2153420d844928b4421650203c77babc8b33d7f2e7b450e2966db0c22097753a2646970667358221220790fec3475851f9888924250824e3baefc383f77a80e62524c65648c3920c05b64736f6c63430008110033",
  "devdoc": {
    "kind": "dev",
    "methods": {
      "currentOwner()": {
        "details": "Returns the address of the current owner."
      },
      "estimateValue((address[],uint256[],(address,address,uint256,uint256,bytes)[]),address)": {
        "params": {
          "assets": "ERC20 or ERC721 assets for whom the value needs to be estimated",
          "inTermsOf": "Token whose value equivalent value to the provided tokens needs to be returned"
        },
        "returns": {
          "_0": "The amount of inTermsOf that is equal in value to the provided tokens"
        }
      },
      "getAmountsOut((address[],uint256[],(address,address,uint256,uint256,bytes)[]),(address[],(address,address,uint256,uint256,bytes)[],uint256[],uint256[]))": {
        "returns": {
          "amounts": "Amounts of the desired assets that can be expected to be received during the actual swap",
          "conversions": "List of conversions from simple ERC20 tokens to complex assets such as LP tokens, Uniswap v3 positions, etc",
          "expectedUSDValues": "Expected usd values for the assets that can be expected from the swap",
          "swaps": "Swaps that need to be performed with the provided assets"
        }
      },
      "isSupported(address)": {
        "params": {
          "token": "Address of token to be swapped or swapped for"
        },
        "returns": {
          "_0": "Wether the provided token is supported or not"
        }
      },
      "preSwapCalculateSwaps((address[],uint256[],(address,address,uint256,uint256,bytes)[]),(address[],(address,address,uint256,uint256,bytes)[],uint256[],uint256[]))": {
        "returns": {
          "conversions": "List of conversions from simple ERC20 tokens to complex assets such as LP tokens, Uniswap v3 positions, etc",
          "swaps": "Swaps that need to be performed with the provided assets"
        }
      },
      "preSwapCalculateUnderlying((address[],uint256[],(address,address,uint256,uint256,bytes)[]),(address[],(address,address,uint256,uint256,bytes)[],uint256[],uint256[]))": {
        "params": {
          "desired": "Assets to convert provided assets into",
          "provided": "List of provided ERC20/ERC721 assets provided to convert into the desired assets"
        },
        "returns": {
          "_0": "Tokens that can be obtained by breaking down complex assets in provided",
          "_1": "Amounts of tokens that will be obtained from breaking down provided assetts",
          "_2": "Worth of the amounts of tokens, in terms of usd or network token (not relevant which for purpose of swapping)",
          "_3": "Data structures representing the conversions that need to take place from simple assets to complex assets to obtain the desired assets",
          "_4": "The simplest tokens needed in order to perform the previously mentioned conversions",
          "_5": "The values in terms of usd or network token that need to be allocated to each of the underlying tokens in order to perform the conversions"
        }
      },
      "renounceOwnership()": {
        "details": "Leaves the contract without owner. It will not be possible to call `onlyOwner` functions anymore. Can only be called by the current owner. NOTE: Renouncing ownership will leave the contract without an owner, thereby removing any functionality that is only available to the owner."
      },
      "setHelpers(address,address,address,address)": {
        "details": "_coreLogic contains all the logic to receive burn, mint and swap assets_providedHelper contains logic for dealing with Provided structs_conversionHelper contains logic for dealing with Conversion structs_swapHelper contains pre swap logic for estimating return values from swaps and calculating optimal routes"
      },
      "swap((address[],uint256[],(address,address,uint256,uint256,bytes)[]),(uint256,uint256,uint256,uint256,int256,address,address[],address,address[][])[],((address,address,uint256,uint256,bytes),address,uint256,address[],uint256[])[],(address[],(address,address,uint256,uint256,bytes)[],uint256[],uint256[]),address)": {
        "details": "Before calling, make sure UniversalSwap contract has approvals to transfer provided assetsswaps ans conversions can be provided as empty list, in which case the contract will calculate them, but this will result in high gas usage",
        "params": {
          "conversions": "List of conversions from simple ERC20 tokens to complex assets such as LP tokens, Uniswap v3 positions, etc",
          "desired": "Assets to convert provided assets into",
          "provided": "List of provided ERC20/ERC721 assets provided to convert into the desired assets",
          "receiver": "Address that will receive output desired assets",
          "swaps": "Swaps that need to be performed with the provided assets"
        },
        "returns": {
          "_0": "Amount of outputTokens obtained and Token IDs for output NFTs"
        }
      },
      "swapAfterTransfer((address[],uint256[],(address,address,uint256,uint256,bytes)[]),(uint256,uint256,uint256,uint256,int256,address,address[],address,address[][])[],((address,address,uint256,uint256,bytes),address,uint256,address[],uint256[])[],(address[],(address,address,uint256,uint256,bytes)[],uint256[],uint256[]),address)": {
        "details": "Before calling, make sure all assets in provided have been transferred to universal swap contract",
        "params": {
          "conversions": "List of conversions from simple ERC20 tokens to complex assets such as LP tokens, Uniswap v3 positions, etc. Can be provided as empty list.",
          "desired": "Assets to convert provided assets into",
          "provided": "List of provided ERC20/ERC721 assets provided to convert into the desired assets",
          "receiver": "Address that will receive output desired assets",
          "swaps": "Swaps that need to be performed with the provided assets. Can be provided as empty list, in which case it will be calculated by the contract"
        },
        "returns": {
          "_0": "Amount of outputTokens obtained and Token IDs for output NFTs"
        }
      },
      "transferOwnership(address)": {
        "details": "Transfers ownership of the contract to a new account (`newOwner`). Can only be called by the current owner."
      }
    },
    "version": 1
  },
  "userdoc": {
    "kind": "user",
    "methods": {
      "estimateValue((address[],uint256[],(address,address,uint256,uint256,bytes)[]),address)": {
        "notice": "Estimates the combined values of the provided tokens in terms of another token"
      },
      "estimateValueERC20(address,uint256,address)": {
        "notice": "Estimates the value of a single ERC20 token in terms of another ERC20 token"
      },
      "estimateValueERC721((address,address,uint256,uint256,bytes),address)": {
        "notice": "Estimates the value of an ECR721 token in terms of an ERC20 token"
      },
      "getAmountsOut((address[],uint256[],(address,address,uint256,uint256,bytes)[]),(address[],(address,address,uint256,uint256,bytes)[],uint256[],uint256[]))": {
        "notice": "-------------Pre-swap calculations-------------"
      },
      "getAmountsOutWithSwaps((address[],uint256[],(address,address,uint256,uint256,bytes)[]),(address[],(address,address,uint256,uint256,bytes)[],uint256[],uint256[]),(uint256,uint256,uint256,uint256,int256,address,address[],address,address[][])[],((address,address,uint256,uint256,bytes),address,uint256,address[],uint256[])[])": {
        "notice": "The pre swap computations can be performed off-chain much faster, hence this function was created as a faster alternative to getAmountsOutCalculates the expected amounts and usd values from a swap given the pre swap calculations"
      },
      "getProtocol(address)": {
        "notice": "Get the pool interactor for a token"
      },
      "getSwappers()": {
        "notice": "-------------Public view functions-------------"
      },
      "getTokenValues(address[],uint256[])": {
        "notice": "get values of provided tokens and amounts in terms of network token"
      },
      "getUnderlying((address[],uint256[],(address,address,uint256,uint256,bytes)[]))": {
        "notice": "Find the underlying tokens and amounts for some complex tokens"
      },
      "isSimpleToken(address)": {
        "notice": "Checks if a provided token is composed of other underlying tokens or not"
      },
      "isSupported(address)": {
        "notice": "Checks if a provided token is swappable using UniversalSwap"
      },
      "networkToken()": {
        "notice": "Getters"
      },
      "preSwapCalculateSwaps((address[],uint256[],(address,address,uint256,uint256,bytes)[]),(address[],(address,address,uint256,uint256,bytes)[],uint256[],uint256[]))": {
        "notice": "Calculates the swaps and conversions that need to be performed prior to calling swap/swapAfterTransferIt is recommended to use this function and provide the return values to swap/swapAfterTransfer as that greatly reduces gas consumption"
      },
      "preSwapCalculateUnderlying((address[],uint256[],(address,address,uint256,uint256,bytes)[]),(address[],(address,address,uint256,uint256,bytes)[],uint256[],uint256[]))": {
        "notice": "Calculate the underlying tokens, amount and values for provided assets in a swap, as well as the conversions needed to obtain desired assets along with the conversion underlying and the value that needs to be allocated to each underlying"
      },
      "setDevFee(uint256)": {
        "notice": "Set dev fee for transactions"
      },
      "setHelpers(address,address,address,address)": {
        "notice": "Set helpers for different tasks"
      },
      "setNFTPoolInteractors(address[])": {
        "notice": "Set interactors for uniswap v3 like protocols"
      },
      "setOracle(address)": {
        "notice": "Set oracle"
      },
      "setPoolInteractors(address[])": {
        "notice": "Set interactors for protocols"
      },
      "setSwappers(address[])": {
        "notice": "-------------Permissioned functions-------------"
      },
      "setTreasury(address)": {
        "notice": "Set treasury to receive fee from transactions"
      },
      "swap((address[],uint256[],(address,address,uint256,uint256,bytes)[]),(uint256,uint256,uint256,uint256,int256,address,address[],address,address[][])[],((address,address,uint256,uint256,bytes),address,uint256,address[],uint256[])[],(address[],(address,address,uint256,uint256,bytes)[],uint256[],uint256[]),address)": {
        "notice": "Swap provided assets into desired assets"
      },
      "swapAfterTransfer((address[],uint256[],(address,address,uint256,uint256,bytes)[]),(uint256,uint256,uint256,uint256,int256,address,address[],address,address[][])[],((address,address,uint256,uint256,bytes),address,uint256,address[],uint256[])[],(address[],(address,address,uint256,uint256,bytes)[],uint256[],uint256[]),address)": {
        "notice": "-------------Core logic-------------"
      }
    },
    "version": 1
  },
  "storageLayout": {
    "storage": [
      {
        "astId": 6,
        "contract": "contracts/UniversalSwap/UniversalSwap.sol:UniversalSwap",
        "label": "_initialized",
        "offset": 0,
        "slot": "0",
        "type": "t_uint8"
      },
      {
        "astId": 9,
        "contract": "contracts/UniversalSwap/UniversalSwap.sol:UniversalSwap",
        "label": "_initializing",
        "offset": 1,
        "slot": "0",
        "type": "t_bool"
      },
      {
        "astId": 609,
        "contract": "contracts/UniversalSwap/UniversalSwap.sol:UniversalSwap",
        "label": "__gap",
        "offset": 0,
        "slot": "1",
        "type": "t_array(t_uint256)50_storage"
      },
      {
        "astId": 12353,
        "contract": "contracts/UniversalSwap/UniversalSwap.sol:UniversalSwap",
        "label": "_owner",
        "offset": 0,
        "slot": "51",
        "type": "t_address"
      },
      {
        "astId": 12473,
        "contract": "contracts/UniversalSwap/UniversalSwap.sol:UniversalSwap",
        "label": "__gap",
        "offset": 0,
        "slot": "52",
        "type": "t_array(t_uint256)49_storage"
      },
      {
        "astId": 6947,
        "contract": "contracts/UniversalSwap/UniversalSwap.sol:UniversalSwap",
        "label": "networkToken",
        "offset": 0,
        "slot": "101",
        "type": "t_address"
      },
      {
        "astId": 6949,
        "contract": "contracts/UniversalSwap/UniversalSwap.sol:UniversalSwap",
        "label": "stableToken",
        "offset": 0,
        "slot": "102",
        "type": "t_address"
      },
      {
        "astId": 6952,
        "contract": "contracts/UniversalSwap/UniversalSwap.sol:UniversalSwap",
        "label": "swappers",
        "offset": 0,
        "slot": "103",
        "type": "t_array(t_address)dyn_storage"
      },
      {
        "astId": 6955,
        "contract": "contracts/UniversalSwap/UniversalSwap.sol:UniversalSwap",
        "label": "poolInteractors",
        "offset": 0,
        "slot": "104",
        "type": "t_array(t_address)dyn_storage"
      },
      {
        "astId": 6958,
        "contract": "contracts/UniversalSwap/UniversalSwap.sol:UniversalSwap",
        "label": "nftPoolInteractors",
        "offset": 0,
        "slot": "105",
        "type": "t_array(t_address)dyn_storage"
      },
      {
        "astId": 6960,
        "contract": "contracts/UniversalSwap/UniversalSwap.sol:UniversalSwap",
        "label": "oracle",
        "offset": 0,
        "slot": "106",
        "type": "t_address"
      },
      {
        "astId": 6963,
        "contract": "contracts/UniversalSwap/UniversalSwap.sol:UniversalSwap",
        "label": "providedHelper",
        "offset": 0,
        "slot": "107",
        "type": "t_contract(ProvidedHelper)5130"
      },
      {
        "astId": 6966,
        "contract": "contracts/UniversalSwap/UniversalSwap.sol:UniversalSwap",
        "label": "conversionHelper",
        "offset": 0,
        "slot": "108",
        "type": "t_contract(ConversionHelper)2988"
      },
      {
        "astId": 6969,
        "contract": "contracts/UniversalSwap/UniversalSwap.sol:UniversalSwap",
        "label": "swapHelper",
        "offset": 0,
        "slot": "109",
        "type": "t_contract(SwapHelper)6888"
      },
      {
        "astId": 6971,
        "contract": "contracts/UniversalSwap/UniversalSwap.sol:UniversalSwap",
        "label": "coreLogic",
        "offset": 0,
        "slot": "110",
        "type": "t_address"
      },
      {
        "astId": 6973,
        "contract": "contracts/UniversalSwap/UniversalSwap.sol:UniversalSwap",
        "label": "devFee",
        "offset": 0,
        "slot": "111",
        "type": "t_uint256"
      },
      {
        "astId": 6975,
        "contract": "contracts/UniversalSwap/UniversalSwap.sol:UniversalSwap",
        "label": "treasury",
        "offset": 0,
        "slot": "112",
        "type": "t_address"
      },
      {
        "astId": 6977,
        "contract": "contracts/UniversalSwap/UniversalSwap.sol:UniversalSwap",
        "label": "ethWithdrawer",
        "offset": 0,
        "slot": "113",
        "type": "t_address_payable"
      }
    ],
    "types": {
      "t_address": {
        "encoding": "inplace",
        "label": "address",
        "numberOfBytes": "20"
      },
      "t_address_payable": {
        "encoding": "inplace",
        "label": "address payable",
        "numberOfBytes": "20"
      },
      "t_array(t_address)dyn_storage": {
        "base": "t_address",
        "encoding": "dynamic_array",
        "label": "address[]",
        "numberOfBytes": "32"
      },
      "t_array(t_uint256)49_storage": {
        "base": "t_uint256",
        "encoding": "inplace",
        "label": "uint256[49]",
        "numberOfBytes": "1568"
      },
      "t_array(t_uint256)50_storage": {
        "base": "t_uint256",
        "encoding": "inplace",
        "label": "uint256[50]",
        "numberOfBytes": "1600"
      },
      "t_bool": {
        "encoding": "inplace",
        "label": "bool",
        "numberOfBytes": "1"
      },
      "t_contract(ConversionHelper)2988": {
        "encoding": "inplace",
        "label": "contract ConversionHelper",
        "numberOfBytes": "20"
      },
      "t_contract(ProvidedHelper)5130": {
        "encoding": "inplace",
        "label": "contract ProvidedHelper",
        "numberOfBytes": "20"
      },
      "t_contract(SwapHelper)6888": {
        "encoding": "inplace",
        "label": "contract SwapHelper",
        "numberOfBytes": "20"
      },
      "t_uint256": {
        "encoding": "inplace",
        "label": "uint256",
        "numberOfBytes": "32"
      },
      "t_uint8": {
        "encoding": "inplace",
        "label": "uint8",
        "numberOfBytes": "1"
      }
    }
  }
}