{
  "address": "0xa7f249dd6c8deAA3008eBef74bAE6CfA65861028",
  "abi": [
    {
      "anonymous": false,
      "inputs": [
        {
          "indexed": true,
          "internalType": "address",
          "name": "account",
          "type": "address"
        },
        {
          "indexed": true,
          "internalType": "address",
          "name": "operator",
          "type": "address"
        },
        {
          "indexed": false,
          "internalType": "bool",
          "name": "approved",
          "type": "bool"
        }
      ],
      "name": "ApprovalForAll",
      "type": "event"
    },
    {
      "anonymous": false,
      "inputs": [
        {
          "indexed": false,
          "internalType": "uint256",
          "name": "tokenId",
          "type": "uint256"
        },
        {
          "indexed": false,
          "internalType": "address",
          "name": "userAddress",
          "type": "address"
        },
        {
          "indexed": false,
          "internalType": "uint256",
          "name": "amount",
          "type": "uint256"
        },
        {
          "indexed": false,
          "internalType": "address",
          "name": "receiver",
          "type": "address"
        }
      ],
      "name": "Burn",
      "type": "event"
    },
    {
      "anonymous": false,
      "inputs": [
        {
          "indexed": false,
          "internalType": "uint256",
          "name": "tokenId",
          "type": "uint256"
        },
        {
          "indexed": false,
          "internalType": "address",
          "name": "userAddress",
          "type": "address"
        },
        {
          "indexed": false,
          "internalType": "address",
          "name": "receiver",
          "type": "address"
        }
      ],
      "name": "Harvest",
      "type": "event"
    },
    {
      "anonymous": false,
      "inputs": [
        {
          "indexed": false,
          "internalType": "uint8",
          "name": "version",
          "type": "uint8"
        }
      ],
      "name": "Initialized",
      "type": "event"
    },
    {
      "anonymous": false,
      "inputs": [
        {
          "indexed": false,
          "internalType": "uint256",
          "name": "tokenId",
          "type": "uint256"
        },
        {
          "indexed": false,
          "internalType": "address",
          "name": "userAddress",
          "type": "address"
        },
        {
          "indexed": false,
          "internalType": "uint256",
          "name": "amount",
          "type": "uint256"
        }
      ],
      "name": "Mint",
      "type": "event"
    },
    {
      "anonymous": false,
      "inputs": [
        {
          "indexed": true,
          "internalType": "address",
          "name": "previousOwner",
          "type": "address"
        },
        {
          "indexed": true,
          "internalType": "address",
          "name": "newOwner",
          "type": "address"
        }
      ],
      "name": "OwnershipTransferred",
      "type": "event"
    },
    {
      "anonymous": false,
      "inputs": [
        {
          "indexed": true,
          "internalType": "address",
          "name": "operator",
          "type": "address"
        },
        {
          "indexed": true,
          "internalType": "address",
          "name": "from",
          "type": "address"
        },
        {
          "indexed": true,
          "internalType": "address",
          "name": "to",
          "type": "address"
        },
        {
          "indexed": false,
          "internalType": "uint256[]",
          "name": "ids",
          "type": "uint256[]"
        },
        {
          "indexed": false,
          "internalType": "uint256[]",
          "name": "values",
          "type": "uint256[]"
        }
      ],
      "name": "TransferBatch",
      "type": "event"
    },
    {
      "anonymous": false,
      "inputs": [
        {
          "indexed": true,
          "internalType": "address",
          "name": "operator",
          "type": "address"
        },
        {
          "indexed": true,
          "internalType": "address",
          "name": "from",
          "type": "address"
        },
        {
          "indexed": true,
          "internalType": "address",
          "name": "to",
          "type": "address"
        },
        {
          "indexed": false,
          "internalType": "uint256",
          "name": "id",
          "type": "uint256"
        },
        {
          "indexed": false,
          "internalType": "uint256",
          "name": "value",
          "type": "uint256"
        }
      ],
      "name": "TransferSingle",
      "type": "event"
    },
    {
      "anonymous": false,
      "inputs": [
        {
          "indexed": false,
          "internalType": "string",
          "name": "value",
          "type": "string"
        },
        {
          "indexed": true,
          "internalType": "uint256",
          "name": "id",
          "type": "uint256"
        }
      ],
      "name": "URI",
      "type": "event"
    },
    {
      "inputs": [
        {
          "internalType": "address",
          "name": "_positionsManager",
          "type": "address"
        }
      ],
      "name": "__BankBase_init",
      "outputs": [],
      "stateMutability": "nonpayable",
      "type": "function"
    },
    {
      "inputs": [
        {
          "internalType": "address",
          "name": "account",
          "type": "address"
        },
        {
          "internalType": "uint256",
          "name": "id",
          "type": "uint256"
        }
      ],
      "name": "balanceOf",
      "outputs": [
        {
          "internalType": "uint256",
          "name": "",
          "type": "uint256"
        }
      ],
      "stateMutability": "view",
      "type": "function"
    },
    {
      "inputs": [
        {
          "internalType": "address[]",
          "name": "accounts",
          "type": "address[]"
        },
        {
          "internalType": "uint256[]",
          "name": "ids",
          "type": "uint256[]"
        }
      ],
      "name": "balanceOfBatch",
      "outputs": [
        {
          "internalType": "uint256[]",
          "name": "",
          "type": "uint256[]"
        }
      ],
      "stateMutability": "view",
      "type": "function"
    },
    {
      "inputs": [
        {
          "internalType": "uint256",
          "name": "tokenId",
          "type": "uint256"
        },
        {
          "internalType": "address",
          "name": "userAddress",
          "type": "address"
        },
        {
          "internalType": "uint256",
          "name": "amount",
          "type": "uint256"
        },
        {
          "internalType": "address",
          "name": "receiver",
          "type": "address"
        }
      ],
      "name": "burn",
      "outputs": [
        {
          "internalType": "address[]",
          "name": "outTokens",
          "type": "address[]"
        },
        {
          "internalType": "uint256[]",
          "name": "tokenAmounts",
          "type": "uint256[]"
        }
      ],
      "stateMutability": "nonpayable",
      "type": "function"
    },
    {
      "inputs": [],
      "name": "currentOwner",
      "outputs": [
        {
          "internalType": "address",
          "name": "",
          "type": "address"
        }
      ],
      "stateMutability": "view",
      "type": "function"
    },
    {
      "inputs": [
        {
          "internalType": "uint256",
          "name": "id",
          "type": "uint256"
        }
      ],
      "name": "decodeId",
      "outputs": [
        {
          "internalType": "address",
          "name": "",
          "type": "address"
        },
        {
          "internalType": "address",
          "name": "",
          "type": "address"
        },
        {
          "internalType": "uint256",
          "name": "",
          "type": "uint256"
        }
      ],
      "stateMutability": "pure",
      "type": "function"
    },
    {
      "inputs": [
        {
          "internalType": "address",
          "name": "tokenAddress",
          "type": "address"
        }
      ],
      "name": "encodeId",
      "outputs": [
        {
          "internalType": "uint256",
          "name": "",
          "type": "uint256"
        }
      ],
      "stateMutability": "pure",
      "type": "function"
    },
    {
      "inputs": [
        {
          "internalType": "address",
          "name": "lpToken",
          "type": "address"
        }
      ],
      "name": "getIdFromLpToken",
      "outputs": [
        {
          "internalType": "bool",
          "name": "",
          "type": "bool"
        },
        {
          "internalType": "uint256",
          "name": "",
          "type": "uint256"
        }
      ],
      "stateMutability": "view",
      "type": "function"
    },
    {
      "inputs": [
        {
          "internalType": "uint256",
          "name": "id",
          "type": "uint256"
        }
      ],
      "name": "getLPToken",
      "outputs": [
        {
          "internalType": "address",
          "name": "tokenAddress",
          "type": "address"
        }
      ],
      "stateMutability": "pure",
      "type": "function"
    },
    {
      "inputs": [
        {
          "internalType": "uint256",
          "name": "tokenId",
          "type": "uint256"
        },
        {
          "internalType": "address",
          "name": "user",
          "type": "address"
        }
      ],
      "name": "getPendingRewardsForUser",
      "outputs": [
        {
          "internalType": "address[]",
          "name": "rewards",
          "type": "address[]"
        },
        {
          "internalType": "uint256[]",
          "name": "amounts",
          "type": "uint256[]"
        }
      ],
      "stateMutability": "view",
      "type": "function"
    },
    {
      "inputs": [
        {
          "internalType": "uint256",
          "name": "tokenId",
          "type": "uint256"
        },
        {
          "internalType": "address",
          "name": "userAddress",
          "type": "address"
        }
      ],
      "name": "getPositionTokens",
      "outputs": [
        {
          "internalType": "address[]",
          "name": "outTokens",
          "type": "address[]"
        },
        {
          "internalType": "uint256[]",
          "name": "tokenAmounts",
          "type": "uint256[]"
        }
      ],
      "stateMutability": "view",
      "type": "function"
    },
    {
      "inputs": [
        {
          "internalType": "uint256",
          "name": "tokenId",
          "type": "uint256"
        }
      ],
      "name": "getRewards",
      "outputs": [
        {
          "internalType": "address[]",
          "name": "rewardsArray",
          "type": "address[]"
        }
      ],
      "stateMutability": "view",
      "type": "function"
    },
    {
      "inputs": [
        {
          "internalType": "uint256",
          "name": "tokenId",
          "type": "uint256"
        }
      ],
      "name": "getUnderlyingForFirstDeposit",
      "outputs": [
        {
          "internalType": "address[]",
          "name": "underlying",
          "type": "address[]"
        },
        {
          "internalType": "uint256[]",
          "name": "ratios",
          "type": "uint256[]"
        }
      ],
      "stateMutability": "view",
      "type": "function"
    },
    {
      "inputs": [
        {
          "internalType": "uint256",
          "name": "tokenId",
          "type": "uint256"
        }
      ],
      "name": "getUnderlyingForRecurringDeposit",
      "outputs": [
        {
          "internalType": "address[]",
          "name": "",
          "type": "address[]"
        },
        {
          "internalType": "uint256[]",
          "name": "ratios",
          "type": "uint256[]"
        }
      ],
      "stateMutability": "view",
      "type": "function"
    },
    {
      "inputs": [
        {
          "internalType": "uint256",
          "name": "tokenId",
          "type": "uint256"
        },
        {
          "internalType": "address",
          "name": "userAddress",
          "type": "address"
        },
        {
          "internalType": "address",
          "name": "receiver",
          "type": "address"
        }
      ],
      "name": "harvest",
      "outputs": [
        {
          "internalType": "address[]",
          "name": "rewardAddresses",
          "type": "address[]"
        },
        {
          "internalType": "uint256[]",
          "name": "rewardAmounts",
          "type": "uint256[]"
        }
      ],
      "stateMutability": "nonpayable",
      "type": "function"
    },
    {
      "inputs": [
        {
          "internalType": "address",
          "name": "_positionsManager",
          "type": "address"
        }
      ],
      "name": "initialize",
      "outputs": [],
      "stateMutability": "nonpayable",
      "type": "function"
    },
    {
      "inputs": [
        {
          "internalType": "address",
          "name": "account",
          "type": "address"
        },
        {
          "internalType": "address",
          "name": "operator",
          "type": "address"
        }
      ],
      "name": "isApprovedForAll",
      "outputs": [
        {
          "internalType": "bool",
          "name": "",
          "type": "bool"
        }
      ],
      "stateMutability": "view",
      "type": "function"
    },
    {
      "inputs": [],
      "name": "isUnderlyingERC721",
      "outputs": [
        {
          "internalType": "bool",
          "name": "",
          "type": "bool"
        }
      ],
      "stateMutability": "pure",
      "type": "function"
    },
    {
      "inputs": [
        {
          "internalType": "uint256",
          "name": "tokenId",
          "type": "uint256"
        },
        {
          "internalType": "address",
          "name": "userAddress",
          "type": "address"
        },
        {
          "internalType": "address[]",
          "name": "suppliedTokens",
          "type": "address[]"
        },
        {
          "internalType": "uint256[]",
          "name": "suppliedAmounts",
          "type": "uint256[]"
        }
      ],
      "name": "mint",
      "outputs": [
        {
          "internalType": "uint256",
          "name": "",
          "type": "uint256"
        }
      ],
      "stateMutability": "nonpayable",
      "type": "function"
    },
    {
      "inputs": [
        {
          "internalType": "uint256",
          "name": "tokenId",
          "type": "uint256"
        },
        {
          "internalType": "address",
          "name": "userAddress",
          "type": "address"
        },
        {
          "internalType": "address[]",
          "name": "suppliedTokens",
          "type": "address[]"
        },
        {
          "internalType": "uint256[]",
          "name": "suppliedAmounts",
          "type": "uint256[]"
        }
      ],
      "name": "mintRecurring",
      "outputs": [
        {
          "internalType": "uint256",
          "name": "",
          "type": "uint256"
        }
      ],
      "stateMutability": "nonpayable",
      "type": "function"
    },
    {
      "inputs": [],
      "name": "name",
      "outputs": [
        {
          "internalType": "string",
          "name": "",
          "type": "string"
        }
      ],
      "stateMutability": "pure",
      "type": "function"
    },
    {
      "inputs": [],
      "name": "renounceOwnership",
      "outputs": [],
      "stateMutability": "nonpayable",
      "type": "function"
    },
    {
      "inputs": [
        {
          "internalType": "address",
          "name": "from",
          "type": "address"
        },
        {
          "internalType": "address",
          "name": "to",
          "type": "address"
        },
        {
          "internalType": "uint256[]",
          "name": "ids",
          "type": "uint256[]"
        },
        {
          "internalType": "uint256[]",
          "name": "amounts",
          "type": "uint256[]"
        },
        {
          "internalType": "bytes",
          "name": "data",
          "type": "bytes"
        }
      ],
      "name": "safeBatchTransferFrom",
      "outputs": [],
      "stateMutability": "nonpayable",
      "type": "function"
    },
    {
      "inputs": [
        {
          "internalType": "address",
          "name": "from",
          "type": "address"
        },
        {
          "internalType": "address",
          "name": "to",
          "type": "address"
        },
        {
          "internalType": "uint256",
          "name": "id",
          "type": "uint256"
        },
        {
          "internalType": "uint256",
          "name": "amount",
          "type": "uint256"
        },
        {
          "internalType": "bytes",
          "name": "data",
          "type": "bytes"
        }
      ],
      "name": "safeTransferFrom",
      "outputs": [],
      "stateMutability": "nonpayable",
      "type": "function"
    },
    {
      "inputs": [
        {
          "internalType": "address",
          "name": "operator",
          "type": "address"
        },
        {
          "internalType": "bool",
          "name": "approved",
          "type": "bool"
        }
      ],
      "name": "setApprovalForAll",
      "outputs": [],
      "stateMutability": "nonpayable",
      "type": "function"
    },
    {
      "inputs": [
        {
          "internalType": "bytes4",
          "name": "interfaceId",
          "type": "bytes4"
        }
      ],
      "name": "supportsInterface",
      "outputs": [
        {
          "internalType": "bool",
          "name": "",
          "type": "bool"
        }
      ],
      "stateMutability": "view",
      "type": "function"
    },
    {
      "inputs": [
        {
          "internalType": "address",
          "name": "newOwner",
          "type": "address"
        }
      ],
      "name": "transferOwnership",
      "outputs": [],
      "stateMutability": "nonpayable",
      "type": "function"
    },
    {
      "inputs": [
        {
          "internalType": "uint256",
          "name": "",
          "type": "uint256"
        }
      ],
      "name": "uri",
      "outputs": [
        {
          "internalType": "string",
          "name": "",
          "type": "string"
        }
      ],
      "stateMutability": "view",
      "type": "function"
    },
    {
      "stateMutability": "payable",
      "type": "receive"
    }
  ],
  "transactionHash": "0x258e987e391b5f299611a1af78b2451fa5bb42513bb2a2dbb1159c46cb695c31",
  "args": [],
  "numDeployments": 1,
  "solcInputHash": "b8c9243677f29b900bc1aafa9ba15151",
  "bytecode": "0x6080806040523461001657612636908161001c8239f35b600080fdfe60406080815260049081361015610020575b5050361561001e57600080fd5b005b600091823560e01c8062fdd58e1461167057806301c777ea1461114457806301ffc9a71461160357806306fdde03146115b95780630e89341c146114cf57806313e370e8146114a15780632eae26a31461147a5780632eb2c2d61461116a57806331feab2914611144578063374598ad146110c55780633aad1984146104b45780634e1273f414610f8e578063715018a614610f315780638084c91d14610eff57806387a4459b14610e9c5780639c73e48314610e81578063a22cb46514610da4578063b387ef9214610d7b578063bf7be210146108da578063bfb28ea3146108b3578063c0b0ebad1461087b578063c0d8012c1461081d578063c4d66de81461051d578063dc20c6fa146104e9578063e634e1d7146104b4578063e985e9c514610462578063f242432a146101f45763f2fde38b146101605750610011565b346101f05760203660031901126101f057610179611699565b9161018261255f565b6001600160a01b0383161561019e578361019b846125b7565b80f35b906020608492519162461bcd60e51b8352820152602660248201527f4f776e61626c653a206e6577206f776e657220697320746865207a65726f206160448201526564647265737360d01b6064820152fd5b8280fd5b5090346101f05760a03660031901126101f05761020f611699565b836102186116b4565b91604435906064356084356001600160401b03811161045e5761023e90369089016118db565b926001600160a01b0392831692338414801561043f575b61025e90611b45565b86169061026c821515611ba8565b61027581611db8565b5061027f83611db8565b5080865260209660658852888720858852885283898820546102a382821015611c02565b83895260658a528a8920878a528a5203898820558187526065885288872083885288528887206102d4858254611c61565b905582858a51848152868b8201527fc3d58168c5ae7397731d063d5bbf3d657854427343f4c083240f7aacaa2d0f628c3392a43b610310578580f35b889587946103518a519788968795869463f23a6e6160e01b9c8d8752339087015260248601526044850152606484015260a0608484015260a483019061189b565b03925af1869181610410575b506103df57505060019061036f611cd7565b6308c379a0146103ac575b5061038f5750505b3880808381808080808580f35b5162461bcd60e51b8152915081906103a8908201611d63565b0390fd5b6103b4611cf5565b806103bf575061037a565b6103a88591855193849362461bcd60e51b8552840152602483019061189b565b6001600160e01b0319160390506103f7575050610382565b5162461bcd60e51b8152915081906103a8908201611c8e565b610431919250843d8611610438575b6104298183611716565b810190611c6e565b903861035d565b503d61041f565b508386526066602090815288872033885290528786205460ff16610255565b8480fd5b5050346104b057806003193601126104b05760ff81602093610482611699565b61048a6116b4565b6001600160a01b0391821683526066875283832091168252855220549151911615158152f35b5080fd5b5091346104e65760203660031901126104e657506104d56104e29235611e3d565b92909151928392836119d4565b0390f35b80fd5b5090346101f05760203660031901126101f057805191356001600160a01b0316825260208201839052810191909152606090f35b50346101f0576020908160031936011261081957610539611699565b84549160ff8360081c16159182809361080c575b80156107f5575b1561079b576105b090600194848660ff198316178a5561078a575b5060ff885460081c169061058282611ddd565b60018060a01b03166bffffffffffffffffffffffff60a01b60c954161760c9556105ab81611ddd565b611ddd565b6105b9336125b7565b84516105c4816116ca565b6009815268455243323042616e6b60b81b858201526105ed60ff885460081c166105ab81611ddd565b8051916001600160401b0383116107775750819061060c606754611a2a565b601f8111610708575b508590601f831160011461068957889261067e575b5050600019600383901b1c191690831b176067555b610647578380f35b7f7f26b83ff96e1f2b6a682f133852f6798a09c465da95921460cefb38474024989261ff0019855416855551908152a13880808380f35b01519050388061062a565b606789528593507f9787eeb91fe3101235e4a76063c7023ecb40f923f97916639c598592fa30d6ae9190601f1984168a5b898282106106f257505084116106d9575b505050811b0160675561063f565b015160001960f88460031b161c191690553880806106cb565b83850151865589979095019493840193016106ba565b909150606788527f9787eeb91fe3101235e4a76063c7023ecb40f923f97916639c598592fa30d6ae601f840160051c81019187851061076d575b84939291601f88920160051c01915b82811061075f575050610615565b8a8155859450879101610751565b9091508190610742565b634e487b7160e01b885260419052602487fd5b61ffff19166101011788553861056f565b855162461bcd60e51b8152808301869052602e60248201527f496e697469616c697a61626c653a20636f6e747261637420697320616c72656160448201526d191e481a5b9a5d1a585b1a5e995960921b6064820152608490fd5b50303b1580156105545750600160ff851614610554565b50600160ff85161061054d565b8380fd5b8284346104e657602091826003193601126104b057828151928392828401908385526060518092528401926080925b82811061085b57505050500390f35b83516001600160a01b03168552869550938101939281019260010161084c565b83346104e65760203660031901126104e6576108aa610898611699565b60ff835460081c169061058282611ddd565b61019b336125b7565b8284346104e657816003193601126104e657506108ce6116b4565b5051806104e281611956565b50346101f05760803660031901126101f0578035916108f76116b4565b6001600160a01b036064803582811696604480359592899003610d77578460c9541633148015610d6a575b61092b90611e8f565b84821693828b5260209560fb8752888c20941693848c528652878b206109528882546124e2565b9055841515998b888c600014610d245750508851908782019063a9059cbb60e01b82526024830152888483015283825260808201918083106001600160401b03841117610d1157828b526109a5836116ca565b8883527f5361666545524332303a206c6f772d6c6576656c2063616c6c206661696c656460a0820152873b15610cd0578d6109f1939281925190828b5af16109eb6124ef565b9061251f565b86815180610c56575b5050505b8315610c0a57610a0d83611db8565b50610a1787611db8565b508a8851610a24816116fb565b52828b5260658652878b20848c528652878b205491878310610bbe57505090858a93928285526065875288852084865287520387842055865190815285858201527fc3d58168c5ae7397731d063d5bbf3d657854427343f4c083240f7aacaa2d0f62873392a4868451610a96816116fb565b52835194610aa3866116ca565b60018652823681880137845196610ab9886116ca565b600188528336818a013782610acd88611b0e565b5284610ad889611b0e565b5215610b8c5781885260fc8352610af284868a20546124e2565b8551916370a0823160e01b835230908301528382602481865afa918215610b82578992610b4d575b50610b41938693610b356104e2999a9b9460fc9411156124b2565b835252209182546124e2565b905551928392836119d4565b9091508381813d8311610b7b575b610b658183611716565b81010312610b77575190610b41610b1a565b8880fd5b503d610b5b565b86513d8b823e3d90fd5b508660fc610b41938387946104e2999a9b52828252610bb9610bb188878720546124e2565b4710156124b2565b610b35565b63616e636560e01b6084927f455243313135353a206275726e20616d6f756e7420657863656564732062616c8c938a8d519562461bcd60e51b8752860152602480860152840152820152fd5b6265737360e81b89917f455243313135353a206275726e2066726f6d20746865207a65726f2061646472608494898c519562461bcd60e51b875286015260236024860152840152820152fd5b829081010312610ccc57860151801590811503610ccc57610c79573886816109fa565b691bdd081cdd58d8d9595960b21b89917f5361666545524332303a204552433230206f7065726174696f6e20646964206e608494898c519562461bcd60e51b8752860152602a6024860152840152820152fd5b8b80fd5b8a5162461bcd60e51b8152808d018a9052601d60248201527f416464726573733a2063616c6c20746f206e6f6e2d636f6e7472616374000000818701528490fd5b634e487b7160e01b8e5260418c5260248efd5b8180939181925af1610d346124ef565b506109fe57875162461bcd60e51b8152808a01879052600f60248201526e151c985b9cd9995c8811985a5b1959608a1b81840152fd5b5060975485163314610922565b8980fd5b5050346104b057816003193601126104b05760975490516001600160a01b039091168152602090f35b5090346101f057806003193601126101f057610dbe611699565b906024359182151580930361045e576001600160a01b031692338414610e2d5750338452606660205280842083855260205280842060ff1981541660ff8416179055519081527f17307eab39ab6107e8899845ad3d59bd9653f200f220920489ca2b5937696c3160203392a380f35b6020608492519162461bcd60e51b8352820152602960248201527f455243313135353a2073657474696e6720617070726f76616c20737461747573604482015268103337b91039b2b63360b91b6064820152fd5b5050346104b057816003193601126104b05751908152602090f35b8284346104e65760603660031901126104e657610eb76116b4565b506001600160a01b0390604435828116036104e6575080610ee69160c954163314908115610ef1575b50611e8f565b51806104e281611956565b905060975416331483610ee0565b8284346104e65760203660031901126104e65750610f23610f1e611699565b611ebf565b825191151582526020820152f35b83346104e657806003193601126104e657610f4a61255f565b609780546001600160a01b0319811690915581906001600160a01b03167f8be0079c531659141344cd1fd0a4f28419497f9722a3daafe3b4186f6b6457e08280a380f35b5091346104e657816003193601126104e6576001600160401b0383358181116101f057610fbe903690860161174e565b906024359081116101f057610fd690369086016117bc565b9381518551036110705750805191610fed83611737565b92610ffa85519485611716565b808452611009601f1991611737565b013660208501375b815181101561105b57611056906110466001600160a01b036110338386611b31565b511661103f8389611b31565b5190611a64565b6110508286611b31565b52611ae9565b611011565b8351602080825281906104e290820186611922565b608490602085519162461bcd60e51b8352820152602960248201527f455243313135353a206163636f756e747320616e6420696473206c656e677468604482015268040dad2e6dac2e8c6d60bb1b6064820152fd5b5082346104e657826003193601126104e6575035906104e26110ee836110e96116b4565b611a64565b918051926110fb846116ca565b6001845260203681860137815194611112866116ca565b60018652602036818801376001600160a01b031661112f85611b0e565b5261113985611b0e565b5251928392836119d4565b5050346104b05760209061116361115a3661181a565b92919091612116565b9051908152f35b50346101f0576003199160a03684011261081957611186611699565b9261118f6116b4565b936001600160401b0393604435858111611476576111b090369083016117bc565b90606435868111610b77576111c890369083016117bc565b95608435908111610b77576111e090369083016118db565b936001600160a01b03938416933385148015611457575b61120090611b45565b835188510361140357881694611217861515611ba8565b895b8a855182101561129f5790896112938a61129a948a6112438661123c818e611b31565b5196611b31565b5194808352606590866020938385528686208187528552868620549061126b83831015611c02565b8387528486528787209087528552038585205583528152828220908d83525220918254611c61565b9055611ae9565b611219565b50509094939596929197848789518a81527f4a39dc06d4c0dbc64b70af90fd698a233a518aa5d07e595d983b8c0526c8f7fb6112dd8c830188611922565b918083036020820152806112f233948b611922565b0390a43b6112fe578880f35b8651948593849363bc197c8160e01b98898652338c87015260248601526044850160a0905260a4850161133091611922565b8285820301606486015261134391611922565b908382030160848401526113569161189b565b0381885a94602095f18591816113e3575b506113cd5750506001611378611cd7565b6308c379a014611396575b61038f5750505b38808080808080808880f35b61139e611cf5565b806113a95750611383565b90506103a891602094505193849362461bcd60e51b8552840152602483019061189b565b6001600160e01b031916036103f757505061138a565b6113fc91925060203d8111610438576104298183611716565b9038611367565b865162461bcd60e51b8152602081850152602860248201527f455243313135353a2069647320616e6420616d6f756e7473206c656e677468206044820152670dad2e6dac2e8c6d60c31b6064820152608490fd5b50848a5260666020908152878b20338c529052868a205460ff166111f7565b8780fd5b5090346101f05760203660031901126101f0575190356001600160a01b0316815260209150f35b5050346104b05760203660031901126104b0576020906001600160a01b036114c7611699565b169051908152f35b5050346104b057602090816003193601126101f0578051838194906067546114f681611a2a565b91828552600191878382169182600014611592575050600114611536575b5050506104e29291611527910385611716565b5192828493845283019061189b565b9190869350606783527f9787eeb91fe3101235e4a76063c7023ecb40f923f97916639c598592fa30d6ae5b82841061157a57505050820101816115276104e2611514565b8054848a018601528895508794909301928101611561565b60ff19168782015293151560051b8601909301935084925061152791506104e29050611514565b5050346104b057816003193601126104b05780516104e2916115da826116ca565b600a82526945524332302042616e6b60b01b60208301525191829160208352602083019061189b565b50346101f05760203660031901126101f057359063ffffffff60e01b82168092036101f05760209250636cdb3d1360e11b821491821561165f575b821561164e575b50519015158152f35b6301ffc9a760e01b14915038611645565b6303a24d0760e21b8114925061163e565b5050346104b057806003193601126104b057602090611163611690611699565b60243590611a64565b600435906001600160a01b03821682036116af57565b600080fd5b602435906001600160a01b03821682036116af57565b604081019081106001600160401b038211176116e557604052565b634e487b7160e01b600052604160045260246000fd5b602081019081106001600160401b038211176116e557604052565b90601f801991011681019081106001600160401b038211176116e557604052565b6001600160401b0381116116e55760051b60200190565b81601f820112156116af5780359161176583611737565b926117736040519485611716565b808452602092838086019260051b8201019283116116af578301905b82821061179d575050505090565b81356001600160a01b03811681036116af57815290830190830161178f565b81601f820112156116af578035916117d383611737565b926117e16040519485611716565b808452602092838086019260051b8201019283116116af578301905b82821061180b575050505090565b813581529083019083016117fd565b9060806003198301126116af57600435916024356001600160a01b03811681036116af57916001600160401b036044358181116116af578361185e9160040161174e565b926064359182116116af57611875916004016117bc565b90565b60005b83811061188b5750506000910152565b818101518382015260200161187b565b906020916118b481518092818552858086019101611878565b601f01601f1916010190565b6001600160401b0381116116e557601f01601f191660200190565b81601f820112156116af578035906118f2826118c0565b926119006040519485611716565b828452602083830101116116af57816000926020809301838601378301015290565b90815180825260208080930193019160005b828110611942575050505090565b835185529381019392810192600101611934565b604081019060408152606051809252606081019160809060005b8181106119b5575050508082036020918201526060518083529181019160809160005b8281106119a1575050505090565b835185529381019392810192600101611993565b82516001600160a01b0316855260209485019490920191600101611970565b9092916040820191604081528451809352606081019260208096019060005b818110611a0d575050506118759394818403910152611922565b82516001600160a01b0316865294870194918701916001016119f3565b90600182811c92168015611a5a575b6020831014611a4457565b634e487b7160e01b600052602260045260246000fd5b91607f1691611a39565b6001600160a01b0316908115611a9157600052606560205260406000209060005260205260406000205490565b60405162461bcd60e51b815260206004820152602a60248201527f455243313135353a2061646472657373207a65726f206973206e6f742061207660448201526930b634b21037bbb732b960b11b6064820152608490fd5b6000198114611af85760010190565b634e487b7160e01b600052601160045260246000fd5b805115611b1b5760200190565b634e487b7160e01b600052603260045260246000fd5b8051821015611b1b5760209160051b010190565b15611b4c57565b60405162461bcd60e51b815260206004820152602e60248201527f455243313135353a2063616c6c6572206973206e6f7420746f6b656e206f776e60448201526d195c881bdc88185c1c1c9bdd995960921b6064820152608490fd5b15611baf57565b60405162461bcd60e51b815260206004820152602560248201527f455243313135353a207472616e7366657220746f20746865207a65726f206164604482015264647265737360d81b6064820152608490fd5b15611c0957565b60405162461bcd60e51b815260206004820152602a60248201527f455243313135353a20696e73756666696369656e742062616c616e636520666f60448201526939103a3930b739b332b960b11b6064820152608490fd5b91908201809211611af857565b908160209103126116af57516001600160e01b0319811681036116af5790565b60809060208152602860208201527f455243313135353a204552433131353552656365697665722072656a656374656040820152676420746f6b656e7360c01b60608201520190565b60009060033d11611ce457565b905060046000803e60005160e01c90565b600060443d1061187557604051600319913d83016004833e81516001600160401b03918282113d602484011117611d5257818401948551938411611d5a573d85010160208487010111611d52575061187592910160200190611716565b949350505050565b50949350505050565b60809060208152603460208201527f455243313135353a207472616e7366657220746f206e6f6e2d455243313135356040820152732932b1b2b4bb32b91034b6b83632b6b2b73a32b960611b60608201520190565b60405190611dc5826116ca565b6001825260203681840137611dd982611b0e565b5290565b15611de457565b60405162461bcd60e51b815260206004820152602b60248201527f496e697469616c697a61626c653a20636f6e7472616374206973206e6f74206960448201526a6e697469616c697a696e6760a81b6064820152608490fd5b90604051611e4a816116ca565b6001815260203681830137916001600160a01b0316611e6883611b0e565b5260405190611e76826116ca565b60018252602036818401376001611e8c83611b0e565b52565b15611e9657565b60405162461bcd60e51b81526020600482015260016024820152603160f81b6044820152606490fd5b6001600160a01b0390811691908215908115612099575b50612093576040516306fdde0360e01b8152600092908381600481855afa9081612015575b50611f0557508190565b6040516318160ddd60e01b8152602090818082600481875afa9182611fec575b5050611f315750508190565b6040516370a0823160e01b815260048101859052818082602481875afa9182611fc3575b5050611f615750508190565b60405163313ce56760e01b81528181600481865afa9182611f8f575b5050611f8857508190565b6001925090565b81813d8311611fbc575b611fa38183611716565b8101031261045e575160ff811603610819573880611f7d565b503d611f99565b813d8311611fe5575b611fd68183611716565b8101031261045e578138611f55565b503d611fcc565b813d831161200e575b611fff8183611716565b8101031261045e578138611f25565b503d611ff5565b3d8086833e6120248183611716565b81019060208183031261208f578051906001600160401b03821161208b570181601f8201121561208f5780519061205a826118c0565b926120686040519485611716565b8284526020838301011161208b5760208061208594019101611878565b38611efb565b8680fd5b8580fd5b60019190565b9050600460208260c9541660405192838092633654ad2760e11b82525afa90811561210a576000916120d0575b5016821438611ed6565b6020813d8211612102575b816120e860209383611716565b810103126104b057519082821682036104e65750386120c6565b3d91506120db565b6040513d6000823e3d90fd5b60c9546001600160a01b039594939291908616331480156124a5575b61213b90611e8f565b60009581875260209160fb83526040938489209061215888611b0e565b5184821692838c528652612170878c20918254611c61565b905561217b88611b0e565b51918651918683018381106001600160401b038211176124915788528b8352811561244357908692916121ad86611db8565b506121b785611db8565b50858d52606584528c828a822091528452888d206121d6868254611c61565b9055818d8a5188815287878201527fc3d58168c5ae7397731d063d5bbf3d657854427343f4c083240f7aacaa2d0f628c3392a43b61233a575b50505050508061221e85611b0e565b511615612304578061222f85611b0e565b5116875260fc825260246122508489205461224988611b0e565b5190611c61565b838361225b88611b0e565b51168651938480926370a0823160e01b82523060048301525afa9182156122fa5789926122c9575b50926122c597989261229d60fc936122be979611156124b2565b6122b06122a989611b0e565b5197611b0e565b511683525220918254611c61565b9055611b0e565b5190565b9091508381813d83116122f3575b6122e18183611716565b81010312610b775751906122c5612283565b503d6122d7565b85513d8b823e3d90fd5b9560fc6122be9392886122c5989961231b88611b0e565b51168452828252612335610bb1868620546122498b611b0e565b61229d565b61237a938c895180968195829463f23a6e6160e01b9a8b85523360048601528560248601526044850152606484015260a0608484015260a483019061189b565b03925af1899181612424575b506123fd5750506001612397611cd7565b6308c379a0146123c9575b6123b1575b388083818061220f565b825162461bcd60e51b8152806103a860048201611d63565b6123d1611cf5565b806123dc57506123a2565b836103a8865192839262461bcd60e51b84526004840152602483019061189b565b6001600160e01b031916146123a757825162461bcd60e51b8152806103a860048201611c8e565b61243c919250853d8711610438576104298183611716565b9038612386565b875162461bcd60e51b815260048101889052602160248201527f455243313135353a206d696e7420746f20746865207a65726f206164647265736044820152607360f81b6064820152608490fd5b634e487b7160e01b8d52604160045260248dfd5b5060975486163314612132565b156124b957565b60405162461bcd60e51b81526020600482015260016024820152600760fb1b6044820152606490fd5b91908203918211611af857565b3d1561251a573d90612500826118c0565b9161250e6040519384611716565b82523d6000602084013e565b606090565b9091901561252b575090565b81511561253b5750805190602001fd5b60405162461bcd60e51b8152602060048201529081906103a890602483019061189b565b6097546001600160a01b0316330361257357565b606460405162461bcd60e51b815260206004820152602060248201527f4f776e61626c653a2063616c6c6572206973206e6f7420746865206f776e65726044820152fd5b609780546001600160a01b039283166001600160a01b0319821681179092559091167f8be0079c531659141344cd1fd0a4f28419497f9722a3daafe3b4186f6b6457e0600080a356fea2646970667358221220389ab4e25ae2beb50946cef0f1f44c78fadd1541a90f628a4d8a5d8a68221fdd64736f6c63430008110033",
  "devdoc": {
    "kind": "dev",
    "methods": {
      "balanceOf(address,uint256)": {
        "details": "See {IERC1155-balanceOf}. Requirements: - `account` cannot be the zero address."
      },
      "balanceOfBatch(address[],uint256[])": {
        "details": "See {IERC1155-balanceOfBatch}. Requirements: - `accounts` and `ids` must have the same length."
      },
      "currentOwner()": {
        "details": "Returns the address of the current owner."
      },
      "isApprovedForAll(address,address)": {
        "details": "See {IERC1155-isApprovedForAll}."
      },
      "renounceOwnership()": {
        "details": "Leaves the contract without owner. It will not be possible to call `onlyOwner` functions anymore. Can only be called by the current owner. NOTE: Renouncing ownership will leave the contract without an owner, thereby removing any functionality that is only available to the owner."
      },
      "safeBatchTransferFrom(address,address,uint256[],uint256[],bytes)": {
        "details": "See {IERC1155-safeBatchTransferFrom}."
      },
      "safeTransferFrom(address,address,uint256,uint256,bytes)": {
        "details": "See {IERC1155-safeTransferFrom}."
      },
      "setApprovalForAll(address,bool)": {
        "details": "See {IERC1155-setApprovalForAll}."
      },
      "supportsInterface(bytes4)": {
        "details": "See {IERC165-supportsInterface}."
      },
      "transferOwnership(address)": {
        "details": "Transfers ownership of the contract to a new account (`newOwner`). Can only be called by the current owner."
      },
      "uri(uint256)": {
        "details": "See {IERC1155MetadataURI-uri}. This implementation returns the same URI for *all* token types. It relies on the token type ID substitution mechanism https://eips.ethereum.org/EIPS/eip-1155#metadata[defined in the EIP]. Clients calling this function must replace the `\\{id\\}` substring with the actual token type ID."
      }
    },
    "version": 1
  },
  "userdoc": {
    "kind": "user",
    "methods": {},
    "version": 1
  },
  "storageLayout": {
    "storage": [
      {
        "astId": 6,
        "contract": "contracts/Banks/ERC20Bank.sol:ERC20Bank",
        "label": "_initialized",
        "offset": 0,
        "slot": "0",
        "type": "t_uint8"
      },
      {
        "astId": 9,
        "contract": "contracts/Banks/ERC20Bank.sol:ERC20Bank",
        "label": "_initializing",
        "offset": 1,
        "slot": "0",
        "type": "t_bool"
      },
      {
        "astId": 2747,
        "contract": "contracts/Banks/ERC20Bank.sol:ERC20Bank",
        "label": "__gap",
        "offset": 0,
        "slot": "1",
        "type": "t_array(t_uint256)50_storage"
      },
      {
        "astId": 2791,
        "contract": "contracts/Banks/ERC20Bank.sol:ERC20Bank",
        "label": "__gap",
        "offset": 0,
        "slot": "51",
        "type": "t_array(t_uint256)50_storage"
      },
      {
        "astId": 197,
        "contract": "contracts/Banks/ERC20Bank.sol:ERC20Bank",
        "label": "_balances",
        "offset": 0,
        "slot": "101",
        "type": "t_mapping(t_uint256,t_mapping(t_address,t_uint256))"
      },
      {
        "astId": 203,
        "contract": "contracts/Banks/ERC20Bank.sol:ERC20Bank",
        "label": "_operatorApprovals",
        "offset": 0,
        "slot": "102",
        "type": "t_mapping(t_address,t_mapping(t_address,t_bool))"
      },
      {
        "astId": 205,
        "contract": "contracts/Banks/ERC20Bank.sol:ERC20Bank",
        "label": "_uri",
        "offset": 0,
        "slot": "103",
        "type": "t_string_storage"
      },
      {
        "astId": 1412,
        "contract": "contracts/Banks/ERC20Bank.sol:ERC20Bank",
        "label": "__gap",
        "offset": 0,
        "slot": "104",
        "type": "t_array(t_uint256)47_storage"
      },
      {
        "astId": 11948,
        "contract": "contracts/Banks/ERC20Bank.sol:ERC20Bank",
        "label": "_owner",
        "offset": 0,
        "slot": "151",
        "type": "t_address"
      },
      {
        "astId": 12068,
        "contract": "contracts/Banks/ERC20Bank.sol:ERC20Bank",
        "label": "__gap",
        "offset": 0,
        "slot": "152",
        "type": "t_array(t_uint256)49_storage"
      },
      {
        "astId": 4283,
        "contract": "contracts/Banks/ERC20Bank.sol:ERC20Bank",
        "label": "positionsManager",
        "offset": 0,
        "slot": "201",
        "type": "t_address"
      },
      {
        "astId": 4287,
        "contract": "contracts/Banks/ERC20Bank.sol:ERC20Bank",
        "label": "__gap",
        "offset": 0,
        "slot": "202",
        "type": "t_array(t_uint256)49_storage"
      },
      {
        "astId": 4563,
        "contract": "contracts/Banks/ERC20Bank.sol:ERC20Bank",
        "label": "poolInfo",
        "offset": 0,
        "slot": "251",
        "type": "t_mapping(t_uint256,t_struct(PoolInfo)4558_storage)"
      },
      {
        "astId": 4567,
        "contract": "contracts/Banks/ERC20Bank.sol:ERC20Bank",
        "label": "balances",
        "offset": 0,
        "slot": "252",
        "type": "t_mapping(t_address,t_uint256)"
      }
    ],
    "types": {
      "t_address": {
        "encoding": "inplace",
        "label": "address",
        "numberOfBytes": "20"
      },
      "t_array(t_uint256)47_storage": {
        "base": "t_uint256",
        "encoding": "inplace",
        "label": "uint256[47]",
        "numberOfBytes": "1504"
      },
      "t_array(t_uint256)49_storage": {
        "base": "t_uint256",
        "encoding": "inplace",
        "label": "uint256[49]",
        "numberOfBytes": "1568"
      },
      "t_array(t_uint256)50_storage": {
        "base": "t_uint256",
        "encoding": "inplace",
        "label": "uint256[50]",
        "numberOfBytes": "1600"
      },
      "t_bool": {
        "encoding": "inplace",
        "label": "bool",
        "numberOfBytes": "1"
      },
      "t_mapping(t_address,t_bool)": {
        "encoding": "mapping",
        "key": "t_address",
        "label": "mapping(address => bool)",
        "numberOfBytes": "32",
        "value": "t_bool"
      },
      "t_mapping(t_address,t_mapping(t_address,t_bool))": {
        "encoding": "mapping",
        "key": "t_address",
        "label": "mapping(address => mapping(address => bool))",
        "numberOfBytes": "32",
        "value": "t_mapping(t_address,t_bool)"
      },
      "t_mapping(t_address,t_uint256)": {
        "encoding": "mapping",
        "key": "t_address",
        "label": "mapping(address => uint256)",
        "numberOfBytes": "32",
        "value": "t_uint256"
      },
      "t_mapping(t_uint256,t_mapping(t_address,t_uint256))": {
        "encoding": "mapping",
        "key": "t_uint256",
        "label": "mapping(uint256 => mapping(address => uint256))",
        "numberOfBytes": "32",
        "value": "t_mapping(t_address,t_uint256)"
      },
      "t_mapping(t_uint256,t_struct(PoolInfo)4558_storage)": {
        "encoding": "mapping",
        "key": "t_uint256",
        "label": "mapping(uint256 => struct ERC20Bank.PoolInfo)",
        "numberOfBytes": "32",
        "value": "t_struct(PoolInfo)4558_storage"
      },
      "t_string_storage": {
        "encoding": "bytes",
        "label": "string",
        "numberOfBytes": "32"
      },
      "t_struct(PoolInfo)4558_storage": {
        "encoding": "inplace",
        "label": "struct ERC20Bank.PoolInfo",
        "members": [
          {
            "astId": 4557,
            "contract": "contracts/Banks/ERC20Bank.sol:ERC20Bank",
            "label": "userShares",
            "offset": 0,
            "slot": "0",
            "type": "t_mapping(t_address,t_uint256)"
          }
        ],
        "numberOfBytes": "32"
      },
      "t_uint256": {
        "encoding": "inplace",
        "label": "uint256",
        "numberOfBytes": "32"
      },
      "t_uint8": {
        "encoding": "inplace",
        "label": "uint8",
        "numberOfBytes": "1"
      }
    }
  }
}