{
  "address": "0x0BB2960133803Cb2240d9eE22dB5c743C9e4a1Fe",
  "abi": [
    {
      "anonymous": false,
      "inputs": [
        {
          "indexed": false,
          "internalType": "uint256",
          "name": "tokenId",
          "type": "uint256"
        },
        {
          "indexed": false,
          "internalType": "address",
          "name": "userAddress",
          "type": "address"
        },
        {
          "indexed": false,
          "internalType": "uint256",
          "name": "amount",
          "type": "uint256"
        },
        {
          "indexed": false,
          "internalType": "address",
          "name": "receiver",
          "type": "address"
        }
      ],
      "name": "Burn",
      "type": "event"
    },
    {
      "anonymous": false,
      "inputs": [
        {
          "indexed": false,
          "internalType": "uint256",
          "name": "tokenId",
          "type": "uint256"
        },
        {
          "indexed": false,
          "internalType": "address",
          "name": "userAddress",
          "type": "address"
        },
        {
          "indexed": false,
          "internalType": "address",
          "name": "receiver",
          "type": "address"
        }
      ],
      "name": "Harvest",
      "type": "event"
    },
    {
      "anonymous": false,
      "inputs": [
        {
          "indexed": false,
          "internalType": "uint8",
          "name": "version",
          "type": "uint8"
        }
      ],
      "name": "Initialized",
      "type": "event"
    },
    {
      "anonymous": false,
      "inputs": [
        {
          "indexed": false,
          "internalType": "uint256",
          "name": "tokenId",
          "type": "uint256"
        },
        {
          "indexed": false,
          "internalType": "address",
          "name": "userAddress",
          "type": "address"
        },
        {
          "indexed": false,
          "internalType": "uint256",
          "name": "amount",
          "type": "uint256"
        }
      ],
      "name": "Mint",
      "type": "event"
    },
    {
      "anonymous": false,
      "inputs": [
        {
          "indexed": true,
          "internalType": "address",
          "name": "previousOwner",
          "type": "address"
        },
        {
          "indexed": true,
          "internalType": "address",
          "name": "newOwner",
          "type": "address"
        }
      ],
      "name": "OwnershipTransferred",
      "type": "event"
    },
    {
      "inputs": [
        {
          "internalType": "address",
          "name": "_positionsManager",
          "type": "address"
        }
      ],
      "name": "__BankBase_init",
      "outputs": [],
      "stateMutability": "nonpayable",
      "type": "function"
    },
    {
      "inputs": [
        {
          "internalType": "address",
          "name": "nftManager",
          "type": "address"
        }
      ],
      "name": "addManager",
      "outputs": [],
      "stateMutability": "nonpayable",
      "type": "function"
    },
    {
      "inputs": [
        {
          "internalType": "uint256",
          "name": "tokenId",
          "type": "uint256"
        },
        {
          "internalType": "address",
          "name": "userAddress",
          "type": "address"
        },
        {
          "internalType": "uint256",
          "name": "amount",
          "type": "uint256"
        },
        {
          "internalType": "address",
          "name": "receiver",
          "type": "address"
        }
      ],
      "name": "burn",
      "outputs": [
        {
          "internalType": "address[]",
          "name": "outTokens",
          "type": "address[]"
        },
        {
          "internalType": "uint256[]",
          "name": "tokenAmounts",
          "type": "uint256[]"
        }
      ],
      "stateMutability": "nonpayable",
      "type": "function"
    },
    {
      "inputs": [],
      "name": "currentOwner",
      "outputs": [
        {
          "internalType": "address",
          "name": "",
          "type": "address"
        }
      ],
      "stateMutability": "view",
      "type": "function"
    },
    {
      "inputs": [
        {
          "internalType": "uint256",
          "name": "id",
          "type": "uint256"
        }
      ],
      "name": "decodeId",
      "outputs": [
        {
          "internalType": "address",
          "name": "poolAddress",
          "type": "address"
        },
        {
          "internalType": "address",
          "name": "nftManager",
          "type": "address"
        },
        {
          "internalType": "uint256",
          "name": "pos_id",
          "type": "uint256"
        }
      ],
      "stateMutability": "view",
      "type": "function"
    },
    {
      "inputs": [
        {
          "internalType": "uint256",
          "name": "id",
          "type": "uint256"
        },
        {
          "internalType": "address",
          "name": "nftManager",
          "type": "address"
        }
      ],
      "name": "encodeId",
      "outputs": [
        {
          "internalType": "uint256",
          "name": "",
          "type": "uint256"
        }
      ],
      "stateMutability": "view",
      "type": "function"
    },
    {
      "inputs": [
        {
          "internalType": "address",
          "name": "manager",
          "type": "address"
        }
      ],
      "name": "getIdFromLpToken",
      "outputs": [
        {
          "internalType": "bool",
          "name": "",
          "type": "bool"
        },
        {
          "internalType": "uint256",
          "name": "",
          "type": "uint256"
        }
      ],
      "stateMutability": "view",
      "type": "function"
    },
    {
      "inputs": [
        {
          "internalType": "uint256",
          "name": "id",
          "type": "uint256"
        }
      ],
      "name": "getLPToken",
      "outputs": [
        {
          "internalType": "address",
          "name": "managerAddress",
          "type": "address"
        }
      ],
      "stateMutability": "view",
      "type": "function"
    },
    {
      "inputs": [
        {
          "internalType": "uint256",
          "name": "tokenId",
          "type": "uint256"
        },
        {
          "internalType": "address",
          "name": "user",
          "type": "address"
        }
      ],
      "name": "getPendingRewardsForUser",
      "outputs": [
        {
          "internalType": "address[]",
          "name": "rewards",
          "type": "address[]"
        },
        {
          "internalType": "uint256[]",
          "name": "amounts",
          "type": "uint256[]"
        }
      ],
      "stateMutability": "view",
      "type": "function"
    },
    {
      "inputs": [
        {
          "internalType": "uint256",
          "name": "tokenId",
          "type": "uint256"
        },
        {
          "internalType": "address",
          "name": "userAddress",
          "type": "address"
        }
      ],
      "name": "getPositionTokens",
      "outputs": [
        {
          "internalType": "address[]",
          "name": "outTokens",
          "type": "address[]"
        },
        {
          "internalType": "uint256[]",
          "name": "tokenAmounts",
          "type": "uint256[]"
        }
      ],
      "stateMutability": "view",
      "type": "function"
    },
    {
      "inputs": [
        {
          "internalType": "uint256",
          "name": "tokenId",
          "type": "uint256"
        }
      ],
      "name": "getRewards",
      "outputs": [
        {
          "internalType": "address[]",
          "name": "rewardsArray",
          "type": "address[]"
        }
      ],
      "stateMutability": "view",
      "type": "function"
    },
    {
      "inputs": [
        {
          "internalType": "uint256",
          "name": "tokenId",
          "type": "uint256"
        }
      ],
      "name": "getUnderlyingForFirstDeposit",
      "outputs": [
        {
          "internalType": "address[]",
          "name": "underlying",
          "type": "address[]"
        },
        {
          "internalType": "uint256[]",
          "name": "ratios",
          "type": "uint256[]"
        }
      ],
      "stateMutability": "view",
      "type": "function"
    },
    {
      "inputs": [
        {
          "internalType": "uint256",
          "name": "tokenId",
          "type": "uint256"
        }
      ],
      "name": "getUnderlyingForRecurringDeposit",
      "outputs": [
        {
          "internalType": "address[]",
          "name": "",
          "type": "address[]"
        },
        {
          "internalType": "uint256[]",
          "name": "ratios",
          "type": "uint256[]"
        }
      ],
      "stateMutability": "view",
      "type": "function"
    },
    {
      "inputs": [
        {
          "internalType": "uint256",
          "name": "tokenId",
          "type": "uint256"
        },
        {
          "internalType": "address",
          "name": "userAddress",
          "type": "address"
        },
        {
          "internalType": "address",
          "name": "receiver",
          "type": "address"
        }
      ],
      "name": "harvest",
      "outputs": [
        {
          "internalType": "address[]",
          "name": "rewardAddresses",
          "type": "address[]"
        },
        {
          "internalType": "uint256[]",
          "name": "rewardAmounts",
          "type": "uint256[]"
        }
      ],
      "stateMutability": "nonpayable",
      "type": "function"
    },
    {
      "inputs": [
        {
          "internalType": "address",
          "name": "_positionsManager",
          "type": "address"
        }
      ],
      "name": "initialize",
      "outputs": [],
      "stateMutability": "nonpayable",
      "type": "function"
    },
    {
      "inputs": [],
      "name": "isUnderlyingERC721",
      "outputs": [
        {
          "internalType": "bool",
          "name": "",
          "type": "bool"
        }
      ],
      "stateMutability": "pure",
      "type": "function"
    },
    {
      "inputs": [
        {
          "internalType": "uint256",
          "name": "tokenId",
          "type": "uint256"
        },
        {
          "internalType": "address",
          "name": "userAddress",
          "type": "address"
        },
        {
          "internalType": "address[]",
          "name": "suppliedTokens",
          "type": "address[]"
        },
        {
          "internalType": "uint256[]",
          "name": "suppliedAmounts",
          "type": "uint256[]"
        }
      ],
      "name": "mint",
      "outputs": [
        {
          "internalType": "uint256",
          "name": "",
          "type": "uint256"
        }
      ],
      "stateMutability": "nonpayable",
      "type": "function"
    },
    {
      "inputs": [
        {
          "internalType": "uint256",
          "name": "tokenId",
          "type": "uint256"
        },
        {
          "internalType": "address",
          "name": "userAddress",
          "type": "address"
        },
        {
          "internalType": "address[]",
          "name": "suppliedTokens",
          "type": "address[]"
        },
        {
          "internalType": "uint256[]",
          "name": "suppliedAmounts",
          "type": "uint256[]"
        }
      ],
      "name": "mintRecurring",
      "outputs": [
        {
          "internalType": "uint256",
          "name": "",
          "type": "uint256"
        }
      ],
      "stateMutability": "nonpayable",
      "type": "function"
    },
    {
      "inputs": [],
      "name": "name",
      "outputs": [
        {
          "internalType": "string",
          "name": "",
          "type": "string"
        }
      ],
      "stateMutability": "pure",
      "type": "function"
    },
    {
      "inputs": [],
      "name": "renounceOwnership",
      "outputs": [],
      "stateMutability": "nonpayable",
      "type": "function"
    },
    {
      "inputs": [
        {
          "internalType": "address",
          "name": "nftManager",
          "type": "address"
        },
        {
          "internalType": "address",
          "name": "wrapper",
          "type": "address"
        }
      ],
      "name": "setWrapper",
      "outputs": [],
      "stateMutability": "nonpayable",
      "type": "function"
    },
    {
      "inputs": [
        {
          "internalType": "address",
          "name": "newOwner",
          "type": "address"
        }
      ],
      "name": "transferOwnership",
      "outputs": [],
      "stateMutability": "nonpayable",
      "type": "function"
    },
    {
      "stateMutability": "payable",
      "type": "receive"
    }
  ],
  "transactionHash": "0xeb2134241e0d6928d89565acf96d6ce724c4d77d588fb1daff040e73060bb796",
  "args": [],
  "numDeployments": 1,
  "solcInputHash": "c422c86347b5a95ce61dbb669eaa4036",
  "bytecode": "0x6080806040523461001657611730908161001c8239f35b600080fdfe60406080815260049081361015610020575b5050361561001e57600080fd5b005b600091823560e01c806301c777ea14610c1557806306fdde0314610bd25780630d2c10d914610ba35780632d06177a14610b225780632eae26a314610aef57806331feab29146109e1578063374598ad146109705780633aad19841461094f578063715018a6146108f25780638084c91d146108c057806387a4459b1461074b5780639c73e4831461072f578063b387ef9214610706578063bdef5391146106ae578063bf7be21014610517578063bfb28ea314610449578063c0b0ebad14610411578063c0d8012c146103dc578063c4d66de814610276578063dc20c6fa14610238578063e634e1d7146101b35763f2fde38b1461011f5750610011565b346101af5760203660031901126101af57610138610d38565b91610141611659565b6001600160a01b0383161561015d578361015a846116b1565b80f35b906020608492519162461bcd60e51b8352820152602660248201527f4f776e61626c653a206e6577206f776e657220697320746865207a65726f206160448201526564647265737360d01b6064820152fd5b8280fd5b50823461023557602036600319011261023557506101d1903561112a565b50825191506101df82610d4e565b60018252602036818401376101f382611280565b6001600160a01b0390911690528151916102319061021084610d4e565b6001845260203681860137600161022685611280565b525192839283610f83565b0390f35b80fd5b50913461023557602036600319011261023557506102586060923561112a565b83516001600160a01b03938416815291909216602082015291820152f35b50346101af5760203660031901126101af57610290610d38565b835460ff8160081c1615928380946103cf575b80156103b8575b1561035e575060ff198116600117855561030691908361034d575b5060ff855460081c16906102d882610fab565b60018060a01b03166bffffffffffffffffffffffff60a01b606554161760655561030181610fab565b610fab565b61030f336116b1565b610317575080f35b60207f7f26b83ff96e1f2b6a682f133852f6798a09c465da95921460cefb38474024989161ff001984541684555160018152a180f35b61ffff1916610101178555386102c5565b608490602086519162461bcd60e51b8352820152602e60248201527f496e697469616c697a61626c653a20636f6e747261637420697320616c72656160448201526d191e481a5b9a5d1a585b1a5e995960921b6064820152fd5b50303b1580156102aa5750600160ff8316146102aa565b50600160ff8316106102a3565b50913461023557602036600319011261023557506103fd61023192356115b8565b509051918291602083526020830190610f12565b83346102355760203660031901126102355761044061042e610d38565b60ff835460081c16906102d882610fab565b61015a336116b1565b50919034610513578060031936011261051357816104ba93610469610d1d565b50610474813561112a565b6001600160a01b03918216808652609860209081528787205488516352610d3960e01b815296870192835290820192909252939788949190921692508391829160400190565b03915afa928315610508578280946104dd575b5050610231905192839283610f83565b6104ff92945061023193503d8091833e6104f78183610d80565b8101906114c7565b929091386104cd565b5051903d90823e3d90fd5b5080fd5b5090346101af5760803660031901126101af57813590610535610d1d565b506001600160a01b039160643583811691908290036106aa57839182606554163314801561069d575b61056790611250565b6105708261112a565b949150169485885260986020528488205416908451906316762eed60e01b6020830152866024830152846044830152604435606483015260848201526084815260c0810181811067ffffffffffffffff82111761068a5785526105ee916105df916105d961135c565b916113b6565b602080825183010191016114c7565b959094845193849263133f757160e31b84528301528160246101809586935afa928315610680578493889361023196936001600160801b03938693610645575b505084526099602052169120555192839283610f83565b610665929350803d10610679575b61065d8183610d80565b8101906112af565b50505050965050505050505090898061062e565b503d610653565b84513d89823e3d90fd5b634e487b7160e01b895260418852602489fd5b506033548316331461055e565b8580fd5b5050346105135780600319360112610513576106c8610d38565b6106d0610d1d565b916106d9611659565b6001600160a01b0391821684526098602052832080546001600160a01b0319169290911691909117905580f35b50503461051357816003193601126105135760335490516001600160a01b039091168152602090f35b5050346105135781600319360112610513576020905160018152f35b50346101af5760603660031901126101af578035610767610d1d565b506001600160a01b03916044358381169291908390036106aa5783928360655416331480156108b3575b61079a90611250565b6107a38361112a565b95915016948588526098602052868820541690865190637aa5612360e11b602083015286602483015285604483015260648201526064815260a0810181811067ffffffffffffffff8211176108a057875261080191906105d961135c565b93855193849263133f757160e31b84528301528160246101809586935afa9283156108965761085e9493879387936001600160801b03936102319a9361086b575b50508452609960205216912055602080825183010191016114c7565b9290915192839283610f83565b610882929350803d106106795761065d8183610d80565b505050509650505050505050903880610842565b85513d88823e3d90fd5b634e487b7160e01b895260418452602489fd5b5060335484163314610791565b82843461023557602036600319011261023557506108e46108df610d38565b6111e8565b825191151582526020820152f35b833461023557806003193601126102355761090b611659565b603380546001600160a01b0319811690915581906001600160a01b03167f8be0079c531659141344cd1fd0a4f28419497f9722a3daafe3b4186f6b6457e08280a380f35b509134610235576020366003190112610235575061085e61023192356115b8565b50919034610513578060031936011261051357816104ba93610990610d1d565b5061099b813561112a565b6001600160a01b0391821680865260986020908152878720548851637b98766960e01b815296870192835290820192909252939788949190921692508391829160400190565b5091903461051357610a286109f536610dba565b92939150610a2060018060a01b0391826065541633148015610ae2575b610a1b90611250565b611280565b511691611280565b51835191829163133f757160e31b8352878301528160246101809485935afa918215610ad857906001600160801b0392918692610aaf575b505016928251916020830183811067ffffffffffffffff821117610a9c5760209650908492918352858452815260998652209051905551908152f35b634e487b7160e01b835260418752602483fd5b610ac59250803d106106795761065d8183610d80565b5050505096505050505050503880610a60565b84513d87823e3d90fd5b5060335483163314610a12565b5091346102355760203660031901126102355750610b0f6020923561112a565b5091516001600160a01b03909216825250f35b83823461051357602036600319011261051357610b3d610d38565b90610b46611659565b6097549068010000000000000000821015610b905750806001610b6c920160975561100b565b819291549060031b9160018060a01b039283811b93849216901b1691191617905580f35b634e487b7160e01b845260419052602483fd5b50913461023557816003193601126102355750610bcb602092610bc4610d1d565b903561107d565b9051908152f35b505034610513578160031936011261051357805161023191610bf382610d4e565b600b82526a4552433732312042616e6b60a81b60208301525191829182610ec9565b5090346101af57610ccd91610c2936610dba565b6065549197939692506001600160a01b0391821633148015610d10575b610c4f90611250565b610cc582610cb7610c5f8a61112a565b9691501693848852610ca560209c8d94609886528c8b205416978c5197889663e897125d60e01b90880152602487015260448601526080606486015260a4850190610f12565b83810360231901608485015290610f4f565b03601f198101835282610d80565b6105d961135c565b8581805181010312610513578501519381526099855282812090815492858401809411610cfd5750505551908152f35b634e487b7160e01b825260119052602490fd5b5060335482163314610c46565b602435906001600160a01b0382168203610d3357565b600080fd5b600435906001600160a01b0382168203610d3357565b6040810190811067ffffffffffffffff821117610d6a57604052565b634e487b7160e01b600052604160045260246000fd5b90601f8019910116810190811067ffffffffffffffff821117610d6a57604052565b67ffffffffffffffff8111610d6a5760051b60200190565b906080600319830112610d3357600435916001600160a01b03916024358381168103610d33579260443567ffffffffffffffff91828211610d335784602383011215610d3357816004013591610e0f83610da2565b91610e1d6040519384610d80565b83835260209360248585019160051b84010192888411610d3357602401905b838210610eb1575050505093606435928311610d335780602384011215610d33578260040135610e6b81610da2565b93610e796040519586610d80565b81855260248486019260051b820101928311610d3357602401905b828210610ea2575050505090565b81358152908301908301610e94565b81358381168103610d33578152908501908501610e3c565b6020808252825181830181905290939260005b828110610efe57505060409293506000838284010152601f8019910116010190565b818101860151848201604001528501610edc565b90815180825260208080930193019160005b828110610f32575050505090565b83516001600160a01b031685529381019392810192600101610f24565b90815180825260208080930193019160005b828110610f6f575050505090565b835185529381019392810192600101610f61565b9091610f9a610fa893604084526040840190610f12565b916020818403910152610f4f565b90565b15610fb257565b60405162461bcd60e51b815260206004820152602b60248201527f496e697469616c697a61626c653a20636f6e7472616374206973206e6f74206960448201526a6e697469616c697a696e6760a81b6064820152608490fd5b6097548110156110425760976000527f354a83ed9988f79f6038d4c7a7dadbad8af32f4ad6df893e0e5807a1b1944ff90190600090565b634e487b7160e01b600052603260045260246000fd5b60001981146110675760010190565b634e487b7160e01b600052601160045260246000fd5b6097549160005b8381106110d05760405162461bcd60e51b815260206004820152601960248201527f4e4654206d616e61676572206e6f7420737570706f72746564000000000000006044820152606490fd5b6110d98161100b565b905460039190911b1c6001600160a01b0390811690831614611103576110fe90611058565b611084565b92505060018060f01b03169060f01b1790565b51906001600160a01b0382168203610d3357565b6111368160f01c61100b565b90546001600160a01b0360039290921b1c8116600081815260986020908152604080832054905163206e892360e01b8152600481018590526001600160f01b0396909616602487018190529395939492939283916044918391165afa9182156111dc5780926111a457505092565b9091506020823d82116111d4575b816111bf60209383610d80565b8101031261023557506111d190611116565b92565b3d91506111b2565b604051903d90823e3d90fd5b6097549060005b82811061120157505050600090600090565b61120a8161100b565b90546001600160a01b039160039190821b1c82168483161461123657505061123190611058565b6111ef565b925092506112439061100b565b9054911b1c169060019190565b1561125757565b60405162461bcd60e51b81526020600482015260016024820152603160f81b6044820152606490fd5b8051156110425760200190565b51908160020b8203610d3357565b51906001600160801b0382168203610d3357565b919082610180910312610d335781516bffffffffffffffffffffffff81168103610d3357916112e060208201611116565b916112ed60408301611116565b916112fa60608201611116565b91608082015162ffffff81168103610d33579161131960a0820161128d565b9161132660c0830161128d565b9161133360e0820161129b565b916101008201519161012081015191610fa8610160611355610140850161129b565b930161129b565b604051906060820182811067ffffffffffffffff821117610d6a5760405260278252660819985a5b195960ca1b6040837f416464726573733a206c6f772d6c6576656c2064656c65676174652063616c6c60208201520152565b92919092803b156114375760008481959260208394519201905af4923d15611429573d9367ffffffffffffffff851161141557610fa89394604051906114066020601f19601f8401160183610d80565b8152809260203d92013e61148b565b634e487b7160e01b82526041600452602482fd5b50610fa8919260609061148b565b60405162461bcd60e51b815260206004820152602660248201527f416464726573733a2064656c65676174652063616c6c20746f206e6f6e2d636f6044820152651b9d1c9858dd60d21b6064820152608490fd5b90919015611497575090565b8151156114a75750805190602001fd5b60405162461bcd60e51b81529081906114c39060048301610ec9565b0390fd5b9190604083820312610d3357825167ffffffffffffffff90818111610d335784019082601f83011215610d335781519161150083610da2565b9061150e6040519283610d80565b838252602093848084019160051b83010191868311610d335785809101915b8383106115a057505050509482810151918211610d3357019180601f84011215610d3357825161155c81610da2565b9361156a6040519586610d80565b818552838086019260051b820101928311610d33578301905b828210611591575050505090565b81518152908301908301611583565b81906115ab84611116565b815201910190859061152d565b906115c56116129261112a565b6001600160a01b0391821660008181526098602052604080822054905163089b0acf60e41b8152600481019390935260248301939093529095909350839286921690829081906044820190565b03915afa92831561164c5781809461162b575b50509190565b9091506116439293503d8091833e6104f78183610d80565b91903880611625565b50604051903d90823e3d90fd5b6033546001600160a01b0316330361166d57565b606460405162461bcd60e51b815260206004820152602060248201527f4f776e61626c653a2063616c6c6572206973206e6f7420746865206f776e65726044820152fd5b603380546001600160a01b039283166001600160a01b0319821681179092559091167f8be0079c531659141344cd1fd0a4f28419497f9722a3daafe3b4186f6b6457e0600080a356fea26469706673582212208cc590d310666d7ac5ccdf3653036ea1dad85672d9f1b7be59dd6a7a3d20427a64736f6c63430008110033",
  "devdoc": {
    "kind": "dev",
    "methods": {
      "currentOwner()": {
        "details": "Returns the address of the current owner."
      },
      "renounceOwnership()": {
        "details": "Leaves the contract without owner. It will not be possible to call `onlyOwner` functions anymore. Can only be called by the current owner. NOTE: Renouncing ownership will leave the contract without an owner, thereby removing any functionality that is only available to the owner."
      },
      "transferOwnership(address)": {
        "details": "Transfers ownership of the contract to a new account (`newOwner`). Can only be called by the current owner."
      }
    },
    "version": 1
  },
  "userdoc": {
    "kind": "user",
    "methods": {},
    "version": 1
  },
  "storageLayout": {
    "storage": [
      {
        "astId": 6,
        "contract": "contracts/Banks/ERC721Bank.sol:ERC721Bank",
        "label": "_initialized",
        "offset": 0,
        "slot": "0",
        "type": "t_uint8"
      },
      {
        "astId": 9,
        "contract": "contracts/Banks/ERC721Bank.sol:ERC721Bank",
        "label": "_initializing",
        "offset": 1,
        "slot": "0",
        "type": "t_bool"
      },
      {
        "astId": 1916,
        "contract": "contracts/Banks/ERC721Bank.sol:ERC721Bank",
        "label": "__gap",
        "offset": 0,
        "slot": "1",
        "type": "t_array(t_uint256)50_storage"
      },
      {
        "astId": 8264,
        "contract": "contracts/Banks/ERC721Bank.sol:ERC721Bank",
        "label": "_owner",
        "offset": 0,
        "slot": "51",
        "type": "t_address"
      },
      {
        "astId": 8384,
        "contract": "contracts/Banks/ERC721Bank.sol:ERC721Bank",
        "label": "__gap",
        "offset": 0,
        "slot": "52",
        "type": "t_array(t_uint256)49_storage"
      },
      {
        "astId": 4711,
        "contract": "contracts/Banks/ERC721Bank.sol:ERC721Bank",
        "label": "positionsManager",
        "offset": 0,
        "slot": "101",
        "type": "t_address"
      },
      {
        "astId": 4715,
        "contract": "contracts/Banks/ERC721Bank.sol:ERC721Bank",
        "label": "__gap",
        "offset": 0,
        "slot": "102",
        "type": "t_array(t_uint256)49_storage"
      },
      {
        "astId": 4983,
        "contract": "contracts/Banks/ERC721Bank.sol:ERC721Bank",
        "label": "nftManagers",
        "offset": 0,
        "slot": "151",
        "type": "t_array(t_address)dyn_storage"
      },
      {
        "astId": 4987,
        "contract": "contracts/Banks/ERC721Bank.sol:ERC721Bank",
        "label": "erc721Wrappers",
        "offset": 0,
        "slot": "152",
        "type": "t_mapping(t_address,t_address)"
      },
      {
        "astId": 4992,
        "contract": "contracts/Banks/ERC721Bank.sol:ERC721Bank",
        "label": "poolInfo",
        "offset": 0,
        "slot": "153",
        "type": "t_mapping(t_uint256,t_struct(PoolInfo)4980_storage)"
      }
    ],
    "types": {
      "t_address": {
        "encoding": "inplace",
        "label": "address",
        "numberOfBytes": "20"
      },
      "t_array(t_address)dyn_storage": {
        "base": "t_address",
        "encoding": "dynamic_array",
        "label": "address[]",
        "numberOfBytes": "32"
      },
      "t_array(t_uint256)49_storage": {
        "base": "t_uint256",
        "encoding": "inplace",
        "label": "uint256[49]",
        "numberOfBytes": "1568"
      },
      "t_array(t_uint256)50_storage": {
        "base": "t_uint256",
        "encoding": "inplace",
        "label": "uint256[50]",
        "numberOfBytes": "1600"
      },
      "t_bool": {
        "encoding": "inplace",
        "label": "bool",
        "numberOfBytes": "1"
      },
      "t_mapping(t_address,t_address)": {
        "encoding": "mapping",
        "key": "t_address",
        "label": "mapping(address => address)",
        "numberOfBytes": "32",
        "value": "t_address"
      },
      "t_mapping(t_uint256,t_struct(PoolInfo)4980_storage)": {
        "encoding": "mapping",
        "key": "t_uint256",
        "label": "mapping(uint256 => struct ERC721Bank.PoolInfo)",
        "numberOfBytes": "32",
        "value": "t_struct(PoolInfo)4980_storage"
      },
      "t_struct(PoolInfo)4980_storage": {
        "encoding": "inplace",
        "label": "struct ERC721Bank.PoolInfo",
        "members": [
          {
            "astId": 4979,
            "contract": "contracts/Banks/ERC721Bank.sol:ERC721Bank",
            "label": "liquidity",
            "offset": 0,
            "slot": "0",
            "type": "t_uint256"
          }
        ],
        "numberOfBytes": "32"
      },
      "t_uint256": {
        "encoding": "inplace",
        "label": "uint256",
        "numberOfBytes": "32"
      },
      "t_uint8": {
        "encoding": "inplace",
        "label": "uint8",
        "numberOfBytes": "1"
      }
    }
  }
}