{
  "address": "0xd7636d4f696087067eE4ec6990E164bb28db7c26",
  "abi": [
    {
      "anonymous": false,
      "inputs": [
        {
          "indexed": true,
          "internalType": "address",
          "name": "account",
          "type": "address"
        },
        {
          "indexed": true,
          "internalType": "address",
          "name": "operator",
          "type": "address"
        },
        {
          "indexed": false,
          "internalType": "bool",
          "name": "approved",
          "type": "bool"
        }
      ],
      "name": "ApprovalForAll",
      "type": "event"
    },
    {
      "anonymous": false,
      "inputs": [
        {
          "indexed": false,
          "internalType": "uint256",
          "name": "tokenId",
          "type": "uint256"
        },
        {
          "indexed": false,
          "internalType": "address",
          "name": "userAddress",
          "type": "address"
        },
        {
          "indexed": false,
          "internalType": "uint256",
          "name": "amount",
          "type": "uint256"
        },
        {
          "indexed": false,
          "internalType": "address",
          "name": "receiver",
          "type": "address"
        }
      ],
      "name": "Burn",
      "type": "event"
    },
    {
      "anonymous": false,
      "inputs": [
        {
          "indexed": false,
          "internalType": "uint256",
          "name": "tokenId",
          "type": "uint256"
        },
        {
          "indexed": false,
          "internalType": "address",
          "name": "userAddress",
          "type": "address"
        },
        {
          "indexed": false,
          "internalType": "address",
          "name": "receiver",
          "type": "address"
        }
      ],
      "name": "Harvest",
      "type": "event"
    },
    {
      "anonymous": false,
      "inputs": [
        {
          "indexed": false,
          "internalType": "uint8",
          "name": "version",
          "type": "uint8"
        }
      ],
      "name": "Initialized",
      "type": "event"
    },
    {
      "anonymous": false,
      "inputs": [
        {
          "indexed": false,
          "internalType": "uint256",
          "name": "tokenId",
          "type": "uint256"
        },
        {
          "indexed": false,
          "internalType": "address",
          "name": "userAddress",
          "type": "address"
        },
        {
          "indexed": false,
          "internalType": "uint256",
          "name": "amount",
          "type": "uint256"
        }
      ],
      "name": "Mint",
      "type": "event"
    },
    {
      "anonymous": false,
      "inputs": [
        {
          "indexed": true,
          "internalType": "address",
          "name": "previousOwner",
          "type": "address"
        },
        {
          "indexed": true,
          "internalType": "address",
          "name": "newOwner",
          "type": "address"
        }
      ],
      "name": "OwnershipTransferred",
      "type": "event"
    },
    {
      "anonymous": false,
      "inputs": [
        {
          "indexed": false,
          "internalType": "address",
          "name": "masterChef",
          "type": "address"
        },
        {
          "indexed": false,
          "internalType": "address",
          "name": "wrapper",
          "type": "address"
        }
      ],
      "name": "SetMasterChefWrapper",
      "type": "event"
    },
    {
      "anonymous": false,
      "inputs": [
        {
          "indexed": true,
          "internalType": "address",
          "name": "operator",
          "type": "address"
        },
        {
          "indexed": true,
          "internalType": "address",
          "name": "from",
          "type": "address"
        },
        {
          "indexed": true,
          "internalType": "address",
          "name": "to",
          "type": "address"
        },
        {
          "indexed": false,
          "internalType": "uint256[]",
          "name": "ids",
          "type": "uint256[]"
        },
        {
          "indexed": false,
          "internalType": "uint256[]",
          "name": "values",
          "type": "uint256[]"
        }
      ],
      "name": "TransferBatch",
      "type": "event"
    },
    {
      "anonymous": false,
      "inputs": [
        {
          "indexed": true,
          "internalType": "address",
          "name": "operator",
          "type": "address"
        },
        {
          "indexed": true,
          "internalType": "address",
          "name": "from",
          "type": "address"
        },
        {
          "indexed": true,
          "internalType": "address",
          "name": "to",
          "type": "address"
        },
        {
          "indexed": false,
          "internalType": "uint256",
          "name": "id",
          "type": "uint256"
        },
        {
          "indexed": false,
          "internalType": "uint256",
          "name": "value",
          "type": "uint256"
        }
      ],
      "name": "TransferSingle",
      "type": "event"
    },
    {
      "anonymous": false,
      "inputs": [
        {
          "indexed": false,
          "internalType": "string",
          "name": "value",
          "type": "string"
        },
        {
          "indexed": true,
          "internalType": "uint256",
          "name": "id",
          "type": "uint256"
        }
      ],
      "name": "URI",
      "type": "event"
    },
    {
      "inputs": [
        {
          "internalType": "address",
          "name": "_positionsManager",
          "type": "address"
        }
      ],
      "name": "__BankBase_init",
      "outputs": [],
      "stateMutability": "nonpayable",
      "type": "function"
    },
    {
      "inputs": [
        {
          "internalType": "address",
          "name": "account",
          "type": "address"
        },
        {
          "internalType": "uint256",
          "name": "id",
          "type": "uint256"
        }
      ],
      "name": "balanceOf",
      "outputs": [
        {
          "internalType": "uint256",
          "name": "",
          "type": "uint256"
        }
      ],
      "stateMutability": "view",
      "type": "function"
    },
    {
      "inputs": [
        {
          "internalType": "address[]",
          "name": "accounts",
          "type": "address[]"
        },
        {
          "internalType": "uint256[]",
          "name": "ids",
          "type": "uint256[]"
        }
      ],
      "name": "balanceOfBatch",
      "outputs": [
        {
          "internalType": "uint256[]",
          "name": "",
          "type": "uint256[]"
        }
      ],
      "stateMutability": "view",
      "type": "function"
    },
    {
      "inputs": [
        {
          "internalType": "address",
          "name": "",
          "type": "address"
        }
      ],
      "name": "balances",
      "outputs": [
        {
          "internalType": "uint256",
          "name": "",
          "type": "uint256"
        }
      ],
      "stateMutability": "view",
      "type": "function"
    },
    {
      "inputs": [
        {
          "internalType": "uint256",
          "name": "tokenId",
          "type": "uint256"
        },
        {
          "internalType": "address",
          "name": "userAddress",
          "type": "address"
        },
        {
          "internalType": "uint256",
          "name": "amount",
          "type": "uint256"
        },
        {
          "internalType": "address",
          "name": "receiver",
          "type": "address"
        }
      ],
      "name": "burn",
      "outputs": [
        {
          "internalType": "address[]",
          "name": "outTokens",
          "type": "address[]"
        },
        {
          "internalType": "uint256[]",
          "name": "tokenAmounts",
          "type": "uint256[]"
        }
      ],
      "stateMutability": "nonpayable",
      "type": "function"
    },
    {
      "inputs": [],
      "name": "currentOwner",
      "outputs": [
        {
          "internalType": "address",
          "name": "",
          "type": "address"
        }
      ],
      "stateMutability": "view",
      "type": "function"
    },
    {
      "inputs": [
        {
          "internalType": "uint256",
          "name": "id",
          "type": "uint256"
        }
      ],
      "name": "decodeId",
      "outputs": [
        {
          "internalType": "address",
          "name": "lpToken",
          "type": "address"
        },
        {
          "internalType": "address",
          "name": "masterChef",
          "type": "address"
        },
        {
          "internalType": "uint256",
          "name": "pid",
          "type": "uint256"
        }
      ],
      "stateMutability": "view",
      "type": "function"
    },
    {
      "inputs": [
        {
          "internalType": "address",
          "name": "masterChef",
          "type": "address"
        },
        {
          "internalType": "uint256",
          "name": "pid",
          "type": "uint256"
        }
      ],
      "name": "encodeId",
      "outputs": [
        {
          "internalType": "uint256",
          "name": "",
          "type": "uint256"
        }
      ],
      "stateMutability": "pure",
      "type": "function"
    },
    {
      "inputs": [
        {
          "internalType": "address",
          "name": "lpToken",
          "type": "address"
        }
      ],
      "name": "getIdFromLpToken",
      "outputs": [
        {
          "internalType": "bool",
          "name": "",
          "type": "bool"
        },
        {
          "internalType": "uint256",
          "name": "",
          "type": "uint256"
        }
      ],
      "stateMutability": "view",
      "type": "function"
    },
    {
      "inputs": [
        {
          "internalType": "uint256",
          "name": "id",
          "type": "uint256"
        }
      ],
      "name": "getLPToken",
      "outputs": [
        {
          "internalType": "address",
          "name": "tokenAddress",
          "type": "address"
        }
      ],
      "stateMutability": "view",
      "type": "function"
    },
    {
      "inputs": [
        {
          "internalType": "uint256",
          "name": "tokenId",
          "type": "uint256"
        },
        {
          "internalType": "address",
          "name": "user",
          "type": "address"
        }
      ],
      "name": "getPendingRewardsForUser",
      "outputs": [
        {
          "internalType": "address[]",
          "name": "rewards",
          "type": "address[]"
        },
        {
          "internalType": "uint256[]",
          "name": "amounts",
          "type": "uint256[]"
        }
      ],
      "stateMutability": "view",
      "type": "function"
    },
    {
      "inputs": [
        {
          "internalType": "uint256",
          "name": "tokenId",
          "type": "uint256"
        },
        {
          "internalType": "address",
          "name": "userAddress",
          "type": "address"
        }
      ],
      "name": "getPositionTokens",
      "outputs": [
        {
          "internalType": "address[]",
          "name": "outTokens",
          "type": "address[]"
        },
        {
          "internalType": "uint256[]",
          "name": "tokenAmounts",
          "type": "uint256[]"
        }
      ],
      "stateMutability": "view",
      "type": "function"
    },
    {
      "inputs": [
        {
          "internalType": "uint256",
          "name": "tokenId",
          "type": "uint256"
        }
      ],
      "name": "getRewards",
      "outputs": [
        {
          "internalType": "address[]",
          "name": "",
          "type": "address[]"
        }
      ],
      "stateMutability": "view",
      "type": "function"
    },
    {
      "inputs": [
        {
          "internalType": "uint256",
          "name": "tokenId",
          "type": "uint256"
        }
      ],
      "name": "getUnderlyingForFirstDeposit",
      "outputs": [
        {
          "internalType": "address[]",
          "name": "underlying",
          "type": "address[]"
        },
        {
          "internalType": "uint256[]",
          "name": "ratios",
          "type": "uint256[]"
        }
      ],
      "stateMutability": "view",
      "type": "function"
    },
    {
      "inputs": [
        {
          "internalType": "uint256",
          "name": "tokenId",
          "type": "uint256"
        }
      ],
      "name": "getUnderlyingForRecurringDeposit",
      "outputs": [
        {
          "internalType": "address[]",
          "name": "",
          "type": "address[]"
        },
        {
          "internalType": "uint256[]",
          "name": "ratios",
          "type": "uint256[]"
        }
      ],
      "stateMutability": "view",
      "type": "function"
    },
    {
      "inputs": [
        {
          "internalType": "uint256",
          "name": "tokenId",
          "type": "uint256"
        },
        {
          "internalType": "address",
          "name": "userAddress",
          "type": "address"
        },
        {
          "internalType": "address",
          "name": "receiver",
          "type": "address"
        }
      ],
      "name": "harvest",
      "outputs": [
        {
          "internalType": "address[]",
          "name": "rewardAddresses",
          "type": "address[]"
        },
        {
          "internalType": "uint256[]",
          "name": "rewardAmounts",
          "type": "uint256[]"
        }
      ],
      "stateMutability": "nonpayable",
      "type": "function"
    },
    {
      "inputs": [
        {
          "internalType": "address",
          "name": "_positionsManager",
          "type": "address"
        }
      ],
      "name": "initialize",
      "outputs": [],
      "stateMutability": "nonpayable",
      "type": "function"
    },
    {
      "inputs": [
        {
          "internalType": "address",
          "name": "account",
          "type": "address"
        },
        {
          "internalType": "address",
          "name": "operator",
          "type": "address"
        }
      ],
      "name": "isApprovedForAll",
      "outputs": [
        {
          "internalType": "bool",
          "name": "",
          "type": "bool"
        }
      ],
      "stateMutability": "view",
      "type": "function"
    },
    {
      "inputs": [],
      "name": "isUnderlyingERC721",
      "outputs": [
        {
          "internalType": "bool",
          "name": "",
          "type": "bool"
        }
      ],
      "stateMutability": "pure",
      "type": "function"
    },
    {
      "inputs": [
        {
          "internalType": "address",
          "name": "",
          "type": "address"
        }
      ],
      "name": "masterChefWrappers",
      "outputs": [
        {
          "internalType": "address",
          "name": "",
          "type": "address"
        }
      ],
      "stateMutability": "view",
      "type": "function"
    },
    {
      "inputs": [
        {
          "internalType": "uint256",
          "name": "tokenId",
          "type": "uint256"
        },
        {
          "internalType": "address",
          "name": "userAddress",
          "type": "address"
        },
        {
          "internalType": "address[]",
          "name": "suppliedTokens",
          "type": "address[]"
        },
        {
          "internalType": "uint256[]",
          "name": "suppliedAmounts",
          "type": "uint256[]"
        }
      ],
      "name": "mint",
      "outputs": [
        {
          "internalType": "uint256",
          "name": "",
          "type": "uint256"
        }
      ],
      "stateMutability": "nonpayable",
      "type": "function"
    },
    {
      "inputs": [
        {
          "internalType": "uint256",
          "name": "tokenId",
          "type": "uint256"
        },
        {
          "internalType": "address",
          "name": "userAddress",
          "type": "address"
        },
        {
          "internalType": "address[]",
          "name": "suppliedTokens",
          "type": "address[]"
        },
        {
          "internalType": "uint256[]",
          "name": "suppliedAmounts",
          "type": "uint256[]"
        }
      ],
      "name": "mintRecurring",
      "outputs": [
        {
          "internalType": "uint256",
          "name": "",
          "type": "uint256"
        }
      ],
      "stateMutability": "nonpayable",
      "type": "function"
    },
    {
      "inputs": [],
      "name": "name",
      "outputs": [
        {
          "internalType": "string",
          "name": "",
          "type": "string"
        }
      ],
      "stateMutability": "pure",
      "type": "function"
    },
    {
      "inputs": [
        {
          "internalType": "uint256",
          "name": "",
          "type": "uint256"
        }
      ],
      "name": "poolInfo",
      "outputs": [
        {
          "internalType": "address",
          "name": "lpToken",
          "type": "address"
        },
        {
          "internalType": "uint256",
          "name": "lpSupply",
          "type": "uint256"
        }
      ],
      "stateMutability": "view",
      "type": "function"
    },
    {
      "inputs": [],
      "name": "renounceOwnership",
      "outputs": [],
      "stateMutability": "nonpayable",
      "type": "function"
    },
    {
      "inputs": [
        {
          "internalType": "address",
          "name": "from",
          "type": "address"
        },
        {
          "internalType": "address",
          "name": "to",
          "type": "address"
        },
        {
          "internalType": "uint256[]",
          "name": "ids",
          "type": "uint256[]"
        },
        {
          "internalType": "uint256[]",
          "name": "amounts",
          "type": "uint256[]"
        },
        {
          "internalType": "bytes",
          "name": "data",
          "type": "bytes"
        }
      ],
      "name": "safeBatchTransferFrom",
      "outputs": [],
      "stateMutability": "nonpayable",
      "type": "function"
    },
    {
      "inputs": [
        {
          "internalType": "address",
          "name": "from",
          "type": "address"
        },
        {
          "internalType": "address",
          "name": "to",
          "type": "address"
        },
        {
          "internalType": "uint256",
          "name": "id",
          "type": "uint256"
        },
        {
          "internalType": "uint256",
          "name": "amount",
          "type": "uint256"
        },
        {
          "internalType": "bytes",
          "name": "data",
          "type": "bytes"
        }
      ],
      "name": "safeTransferFrom",
      "outputs": [],
      "stateMutability": "nonpayable",
      "type": "function"
    },
    {
      "inputs": [
        {
          "internalType": "address",
          "name": "operator",
          "type": "address"
        },
        {
          "internalType": "bool",
          "name": "approved",
          "type": "bool"
        }
      ],
      "name": "setApprovalForAll",
      "outputs": [],
      "stateMutability": "nonpayable",
      "type": "function"
    },
    {
      "inputs": [
        {
          "internalType": "address",
          "name": "masterChef",
          "type": "address"
        },
        {
          "internalType": "address",
          "name": "wrapper",
          "type": "address"
        }
      ],
      "name": "setMasterChefWrapper",
      "outputs": [],
      "stateMutability": "nonpayable",
      "type": "function"
    },
    {
      "inputs": [
        {
          "internalType": "uint256",
          "name": "",
          "type": "uint256"
        }
      ],
      "name": "supportedMasterChefs",
      "outputs": [
        {
          "internalType": "address",
          "name": "",
          "type": "address"
        }
      ],
      "stateMutability": "view",
      "type": "function"
    },
    {
      "inputs": [
        {
          "internalType": "bytes4",
          "name": "interfaceId",
          "type": "bytes4"
        }
      ],
      "name": "supportsInterface",
      "outputs": [
        {
          "internalType": "bool",
          "name": "",
          "type": "bool"
        }
      ],
      "stateMutability": "view",
      "type": "function"
    },
    {
      "inputs": [
        {
          "internalType": "address",
          "name": "newOwner",
          "type": "address"
        }
      ],
      "name": "transferOwnership",
      "outputs": [],
      "stateMutability": "nonpayable",
      "type": "function"
    },
    {
      "inputs": [
        {
          "internalType": "uint256",
          "name": "",
          "type": "uint256"
        }
      ],
      "name": "uri",
      "outputs": [
        {
          "internalType": "string",
          "name": "",
          "type": "string"
        }
      ],
      "stateMutability": "view",
      "type": "function"
    },
    {
      "stateMutability": "payable",
      "type": "receive"
    }
  ],
  "transactionHash": "0x3ce5e6248776bdb61221522005a5fdb93e9d65482f710dad5999f8c329c0a439",
  "args": [],
  "numDeployments": 1,
  "solcInputHash": "07398ac950348a5c76dc7d585321c9e8",
  "bytecode": "0x6080806040523461001657613e03908161001c8239f35b600080fdfe6080604052600436101561001b575b361561001957600080fd5b005b60003560e01c8062fdd58e146121d957806301c777ea14611c3857806301ffc9a71461216b57806306fdde031461211b5780630e89341c146120395780631526fe2714611ff357806327e235e314611fb95780632eae26a314611f875780632eb2c2d614611c5c57806331feab2914611c38578063374598ad14611bb85780633aad19841461052e57806347fae3df14611b7d5780634e1273f414611a6a578063715018a614611a0d578063778634e8146119db5780638084c91d146119aa57806387a4459b146114fe57806389e5b9b7146114cc5780639c73e483146114b0578063a22cb465146113cc578063b387ef92146113a3578063bf7be21014610c31578063bfb28ea3146109ec578063bff8215d14610991578063c0b0ebad14610959578063c0d8012c146108ab578063c4d66de81461059c578063dc20c6fa1461055e578063e634e1d71461052e578063e985e9c5146104d8578063f242432a1461021c5763f2fde38b0361000e5734610217576020366003190112610217576101a3612200565b6101ab613d2c565b6001600160a01b038116156101c35761001990613d84565b60405162461bcd60e51b815260206004820152602660248201527f4f776e61626c653a206e6577206f776e657220697320746865207a65726f206160448201526564647265737360d01b6064820152608490fd5b600080fd5b346102175760a036600319011261021757610235612200565b61023d612216565b906064356044356084356001600160401b0381116102175761026390369060040161241f565b6001600160a01b039384169333851480156104af575b61028290612680565b851661028f8115156126e3565b6102988361289e565b506102a28461289e565b5082600052602095606587526040600020866000528752846040600020546102cc8282101561273d565b856000526065895260406000208860005289520360406000205583600052606587526040600020826000528752604060002061030986825461279c565b90558186604051868152878a8201527fc3d58168c5ae7397731d063d5bbf3d657854427343f4c083240f7aacaa2d0f6260403392a43b61034557005b61038993600087946040519687958694859363f23a6e6160e01b9b8c865233600487015260248601526044850152606484015260a0608484015260a48301906123c4565b03925af160009181610480575b506104555750506001906103a8612812565b6308c379a014610420575b506103ba57005b60405162461bcd60e51b815260206004820152603460248201527f455243313135353a207472616e7366657220746f206e6f6e2d455243313135356044820152732932b1b2b4bb32b91034b6b83632b6b2b73a32b960611b6064820152608490fd5b0390fd5b610428612830565b908161043457506103b3565b61041c60405192839262461bcd60e51b8452600484015260248301906123c4565b6001600160e01b031916149050610019575b60405162461bcd60e51b81528061041c600482016127c9565b6104a1919250843d86116104a8575b6104998183612262565b8101906127a9565b9084610396565b503d61048f565b5084600052606660205260406000203360005260205261028260ff604060002054169050610279565b34610217576040366003190112610217576104f1612200565b6104f9612216565b9060018060a01b03809116600052606660205260406000209116600052602052602060ff604060002054166040519015158152f35b346102175760203660031901126102175761054a600435612923565b9061055a604051928392836124d7565b0390f35b3461021757602036600319011261021757606061057c600435612a7c565b604080516001600160a01b03948516815293909216602084015290820152f35b3461021757602080600319360112610217576105b6612200565b906000549060ff8260081c16159283809461089e575b8015610887575b1561082b5761063a90600193858560ff19831617600055610819575b5064e8d4a5100060fb5560ff60005460081c169061060c826128c3565b60018060a01b03166bffffffffffffffffffffffff60a01b60c954161760c955610635816128c3565b6128c3565b61064333613d84565b604051926106508461222c565b600e84526d4d61737465724368656642616e6b60901b8285015261067f60ff60005460081c16610635816128c3565b83516001600160401b0381116108035761069a606754612549565b601f811161079c575b508294601f821160011461071b57948192939495600092610710575b5050600019600383901b1c191690841b176067555b6106da57005b7f7f26b83ff96e1f2b6a682f133852f6798a09c465da95921460cefb38474024989161ff001960005416600055604051908152a1005b0151905085806106bf565b601f1982169560676000527f9787eeb91fe3101235e4a76063c7023ecb40f923f97916639c598592fa30d6ae9160005b8881106107875750838798979596971061076e575b505050811b016067556106d4565b015160001960f88460031b161c19169055858080610760565b8183015184559287019291860191860161074b565b60676000527f9787eeb91fe3101235e4a76063c7023ecb40f923f97916639c598592fa30d6ae601f830160051c8101918584106107f9575b601f0160051c019085905b8281106107ed5750506106a3565b600081550185906107df565b90915081906107d4565b634e487b7160e01b600052604160045260246000fd5b61ffff191661010117600055856105ef565b60405162461bcd60e51b815260048101839052602e60248201527f496e697469616c697a61626c653a20636f6e747261637420697320616c72656160448201526d191e481a5b9a5d1a585b1a5e995960921b6064820152608490fd5b50303b1580156105d35750600160ff8416146105d3565b50600160ff8416106105cc565b346102175760203660031901126102175760006108c9600435612a7c565b6001600160a01b03918216845260fd6020526040808520549051633036004b60e21b815260048101929092529093925083916024918391165afa801561094d5761055a9160009161092a575b50604051918291602083526020830190612466565b61094791503d806000833e61093f8183612262565b810190612c7b565b82610915565b6040513d6000823e3d90fd5b3461021757602036600319011261021757610988610975612200565b60ff60005460081c169061060c826128c3565b61001933613d84565b346102175760203660031901126102175760043560fe548110156102175760fe6000527f54075df80ec1ae6ac9100e1fd0ebf3246c17f5c933137af392011f4c5f61513a01546040516001600160a01b039091168152602090f35b3461021757604036600319011261021757600435610a08612216565b8160005260209060fc825260406000206001610a278183015495612a7c565b95915060018060a01b0380911660005260fd825260008160408220541696602460405180998193631f3f0f8360e31b835260048301525afa93841561094d57600096600095610b82575b50610a7c8751612608565b9780610a92575b6040518061055a8b8b836124d7565b8495600093600284019060fb54958160046003880197019b16985b610abb575b50505050610a83565b8b8d8151831015610b7b578c838a8d8b8e848d858e8e8e8d81879f88610ae09161266c565b51169b610aec9161266c565b5116600052855260406000205493610b039161266c565b5190610b0e91612ca0565b90610b1891612cb3565b610b219161279c565b926000525260406000205490610b3691612ca0565b90610b4091612cb3565b918d6000528c526040600020906000528b52604060002054610b6191612cd3565b91610b6b9161266c565b52610b759061263a565b89610aad565b5050610ab2565b965093503d806000883e610b968188612262565b8601956040818803126102175780516001600160401b03908181116102175788610bc1918401612c15565b918481015191821161021757019680601f89011215610217578751610be581612283565b98610bf36040519a8b612262565b818a5285808b019260051b8201019283116102175785809101915b838310610c215750505050959388610a71565b8251815291810191869101610c0e565b3461021757608036600319011261021757610c4a612216565b6064356001600160a01b03811690036102175760c9546001600160a01b03163314801590808261138f575b610c7e90612cec565b9061137b575b610c8d90612cec565b610c98600435612a7c565b92919060043560005260fc6020526040600020600181015491826110ed575b5050505060249150610cca600435612a7c565b9291939060043560005260fc60205260406000209460018060a01b03821660005260fd602052600060018060a01b0360408220541660405194858092633036004b60e21b82528960048301525afa92831561094d576000936110d0575b5060005b8351811015610db057610dab906001600160a01b03610d4a828761266c565b51168060005260028901602052610d74610d6b604060002054604435612ca0565b60fb5490612cb3565b9060018060a01b03881660005260048a01602052604060002090600052602052610da46040600020918254612cd3565b905561263a565b610d2b565b50610eaf8491610e628760018a818060a01b038716600052600381016020526040600020610de160443582546137c2565b905501610df160443582546137c2565b90556001600160a01b03958616600081815260fd6020908152604091829020549151635ae2fb3960e11b91810191909152602481019290925260448083019390935291356064808301919091528152601f19969190911690610e54608482612262565b610e5c6137cf565b91613858565b5060405163a9059cbb60e01b60208201526001600160a01b03606480358216602484015260448035908401529216949091610ea99190839081015b03908101835282612262565b836138f0565b6001600160a01b0381161561107f57610ec960043561289e565b50610ed560443561289e565b506000604051610ee481612247565b526004356000526065602052604060002060018060a01b038216600052602052604060002054604435811061102e5760043560008181526065602090815260408083206001600160a01b0387168085529083528184206044359687900390558151948552918401949094527f4b4ec05c7eec399d79cfb183d0c3f518b7c0932ad7e7c70f02c7fd086c0af25694608094909333917fc3d58168c5ae7397731d063d5bbf3d657854427343f4c083240f7aacaa2d0f6291a46000604051610fa981612247565b526040805160043581526001600160a01b039283166020820152604435918101919091526064359091166060820152a1604051610fe58161222c565b600181526020368183013760405191610ffd8361222c565b60018352602036818501376110118261265f565b5260443561101e8361265f565b5261055a604051928392836124d7565b60405162461bcd60e51b8152602060048201526024808201527f455243313135353a206275726e20616d6f756e7420657863656564732062616c604482015263616e636560e01b6064820152608490fd5b60405162461bcd60e51b815260206004820152602360248201527f455243313135353a206275726e2066726f6d20746865207a65726f206164647260448201526265737360e81b6064820152608490fd5b6110e69193503d806000833e61093f8183612262565b9186610d27565b6001600160a01b03808216600090815260fd6020526040808220549051633036004b60e21b8152600481018a9052969794939287916024918391165afa94851561094d5760009561135e575b506111448551612608565b9660005b86518110156111df5760249060206001600160a01b03611168838b61266c565b5116604051938480926370a0823160e01b82523060048301525afa801561094d576000906111ab575b6111a692506111a0828c61266c565b5261263a565b611148565b506020823d6020116111d7575b816111c560209383612262565b81010312610217576111a69151611191565b3d91506111b8565b506111f982611252949699959860018060a01b0316613a1b565b6001600160a01b03918216600081815260fd602090815260409182902054915163018ee9b760e01b9181019190915260248101929092526044820192909252911690610e5481606481015b03601f198101835282612262565b5060005b835181101561134d5760249060206001600160a01b03611276838861266c565b5116604051938480926370a0823160e01b82523060048301525afa91821561094d57600092611317575b506112b9611312926112b2838661266c565b51906137c2565b6112c3828561266c565b526112e4876112df6112d5848761266c565b5160fb5490612ca0565b612cb3565b6001600160a01b036112f6838861266c565b511660005260028501602052610da4604060002091825461279c565b611256565b91506020823d602011611345575b8161133260209383612262565b81010312610217579051906112b96112a0565b3d9150611325565b505050506024915082808080610cb7565b6113749195503d806000833e61093f8183612262565b9387611139565b506097546001600160a01b03163314610c84565b506097546001600160a01b03163314610c75565b34610217576000366003190112610217576097546040516001600160a01b039091168152602090f35b34610217576040366003190112610217576113e5612200565b60243590811515809203610217576001600160a01b03169033821461145957336000526066602052604060002082600052602052604060002060ff1981541660ff83161790556040519081527f17307eab39ab6107e8899845ad3d59bd9653f200f220920489ca2b5937696c3160203392a3005b60405162461bcd60e51b815260206004820152602960248201527f455243313135353a2073657474696e6720617070726f76616c20737461747573604482015268103337b91039b2b63360b91b6064820152608490fd5b3461021757600036600319011261021757602060405160008152f35b346102175760403660031901126102175760206114e7612200565b6040519060018060a01b031660243560a01b178152f35b3461021757606036600319011261021757611517612216565b6044356001600160a01b03811690036102175760c9546001600160a01b031633148015908082611996575b61154b90612cec565b90611982575b61155a90612cec565b611565600435612a7c565b919060043560005260fc6020526040600020600181015491826117b1575b505050505060043560005260fc60205260406000206115a3600435612a7c565b6001600160a01b03918216600090815260fd6020526040808220549051633036004b60e21b81526004810193909352919593509185916024918391165afa92831561094d57600093611794575b506115fb8351612608565b6116058451612608565b9360005b8151811015611737576116e5906001600160a01b03611628828561266c565b511660018060a01b03861660005260038701602052611660610d6b6040600020548360005260028a0160205260406000205490612ca0565b9060018060a01b0387166000526004880160205260406000208160005260205261168f60406000205483612cd3565b9160018060a01b03881660005260048901602052604060002082600052602052604060002055816116ea575b506001600160a01b036116ce838661266c565b51166116da838761266c565b526111a0828961266c565b611609565b60405163a9059cbb60e01b6020820152604480356001600160a01b0316602483015281018390526117319161172c82606481015b03601f198101845283612262565b6138f0565b886116bb565b6040805160043581526001600160a01b0380871660208301526044351691810191909152869084907f5f53004cb3da29143bb3d22cec2e917984223b7b4f36be05cde537c3d6b6dfcb90606090a161055a604051928392836124d7565b6117aa9193503d806000833e61093f8183612262565b91836115f0565b6001600160a01b03808216600090815260fd6020526040808220549051633036004b60e21b815260048101899052979896979694939287916024918391165afa94851561094d57600095611965575b5061180b8551612608565b9660005b86518110156118a05760249060206001600160a01b0361182f838b61266c565b5116604051938480926370a0823160e01b82523060048301525afa801561094d5760009061186c575b61186792506111a0828c61266c565b61180f565b506020823d602011611898575b8161188660209383612262565b81010312610217576118679151611858565b3d9150611879565b506111f9826118ba949699959860018060a01b0316613a1b565b5060005b83518110156119555760249060206001600160a01b036118de838861266c565b5116604051938480926370a0823160e01b82523060048301525afa91821561094d5760009261191f575b506112b961191a926112b2838661266c565b6118be565b91506020823d60201161194d575b8161193a60209383612262565b81010312610217579051906112b9611908565b3d915061192d565b5050505090508180808080611583565b61197b9195503d806000833e61093f8183612262565b9387611800565b506097546001600160a01b03163314611551565b506097546001600160a01b03163314611542565b346102175760203660031901126102175760406119cd6119c8612200565b612b1e565b825191151582526020820152f35b34610217576040366003190112610217576100196119f7612200565b6119ff612216565b90611a08613d2c565b612983565b3461021757600036600319011261021757611a26613d2c565b609780546001600160a01b031981169091556000906001600160a01b03167f8be0079c531659141344cd1fd0a4f28419497f9722a3daafe3b4186f6b6457e08280a3005b34610217576040366003190112610217576001600160401b0360043581811161021757611a9b90369060040161229a565b9060243590811161021757611ab4903690600401612308565b908051825103611b2657611ac88151612608565b9160005b8251811015611b1057611b0b90611b016001600160a01b03611aee838761266c565b5116611afa838661266c565b5190612583565b6111a0828761266c565b611acc565b6040516020808252819061055a908201876124a3565b60405162461bcd60e51b815260206004820152602960248201527f455243313135353a206163636f756e747320616e6420696473206c656e677468604482015268040dad2e6dac2e8c6d60bb1b6064820152608490fd5b346102175760203660031901126102175760206001600160a01b0380611ba1612200565b1660005260fd825260406000205416604051908152f35b3461021757604036600319011261021757600435611be9611bd7612216565b91611be181612a7c565b505092612583565b60405190611bf68261222c565b600182526020368184013760405192611c0e8461222c565b6001845260203681860137611c228361265f565b6001600160a01b03909116905261101e8361265f565b34610217576020611c54611c4b36612366565b92919091612d1c565b604051908152f35b346102175760031960a03682011261021757611c76612200565b90611c7f612216565b906001600160401b039060443582811161021757611ca1903690600401612308565b60643583811161021757611cb9903690600401612308565b9260843590811161021757611cd290369060040161241f565b6001600160a01b03958616959092903387148015611f5e575b611cf490612680565b8251855103611f0857851692611d0b8415156126e3565b60005b8351811015611d9c5780611d25611d97928661266c565b51611d30828961266c565b519080600052606560209181835260406000208d6000528352838d60406000205490611d5e8383101561273d565b8360005284865260406000209060005285520360406000205560005281526040600020908860005252610da4604060002091825461279c565b611d0e565b509094939291938287604051604081527f4a39dc06d4c0dbc64b70af90fd698a233a518aa5d07e595d983b8c0526c8f7fb611dda604083018a6124a3565b91808303602082015280611def33948b6124a3565b0390a43b611df957005b6000602094611e5a611e4b97611e3b94604051998a988997889663bc197c8160e01b9e8f89523360048a0152602489015260a0604489015260a48801906124a3565b90848783030160648801526124a3565b918483030160848501526123c4565b03925af160009181611ee8575b50611ec05750506001611e78612812565b6308c379a014611e89575b6103ba57005b611e91612830565b80611e9c5750611e83565b60405162461bcd60e51b81526020600482015290819061041c9060248301906123c4565b6001600160e01b031916146100195760405162461bcd60e51b81528061041c600482016127c9565b611f0191925060203d81116104a8576104998183612262565b9083611e67565b60405162461bcd60e51b815260206004820152602860248201527f455243313135353a2069647320616e6420616d6f756e7473206c656e677468206044820152670dad2e6dac2e8c6d60c31b6064820152608490fd5b50866000526066602052604060002033600052602052611cf460ff604060002054169050611ceb565b34610217576020366003190112610217576020611fa5600435612a7c565b50506040516001600160a01b039091168152f35b34610217576020366003190112610217576001600160a01b03611fda612200565b1660005260ff6020526020604060002054604051908152f35b3461021757602036600319011261021757600435600090815260fc6020908152604091829020805460019091015483516001600160a01b03909216825291810191909152f35b346102175760208060031936011261021757604051906000826067549161205f83612549565b928383526001908582821691826000146120fb57505060011461209e575b5061208a92500383612262565b61055a6040519282849384528301906123c4565b84915060676000527f9787eeb91fe3101235e4a76063c7023ecb40f923f97916639c598592fa30d6ae906000915b8583106120e357505061208a93508201018561207d565b805483890185015287945086939092019181016120cc565b60ff19168582015261208a95151560051b850101925087915061207d9050565b346102175760003660031901126102175761055a60405161213b8161222c565b600f81526e4d6173746572636865662042616e6b60881b60208201526040519182916020835260208301906123c4565b346102175760203660031901126102175760043563ffffffff60e01b811680910361021757602090636cdb3d1360e11b81149081156121c8575b81156121b7575b506040519015158152f35b6301ffc9a760e01b149050826121ac565b6303a24d0760e21b811491506121a5565b34610217576040366003190112610217576020611c546121f7612200565b60243590612583565b600435906001600160a01b038216820361021757565b602435906001600160a01b038216820361021757565b604081019081106001600160401b0382111761080357604052565b602081019081106001600160401b0382111761080357604052565b90601f801991011681019081106001600160401b0382111761080357604052565b6001600160401b0381116108035760051b60200190565b81601f82011215610217578035916122b183612283565b926122bf6040519485612262565b808452602092838086019260051b820101928311610217578301905b8282106122e9575050505090565b81356001600160a01b03811681036102175781529083019083016122db565b81601f820112156102175780359161231f83612283565b9261232d6040519485612262565b808452602092838086019260051b820101928311610217578301905b828210612357575050505090565b81358152908301908301612349565b90608060031983011261021757600435916024356001600160a01b038116810361021757916001600160401b0360443581811161021757836123aa9160040161229a565b92606435918211610217576123c191600401612308565b90565b919082519283825260005b8481106123f0575050826000602080949584010152601f8019910116010190565b6020818301810151848301820152016123cf565b6001600160401b03811161080357601f01601f191660200190565b81601f820112156102175780359061243682612404565b926124446040519485612262565b8284526020838301011161021757816000926020809301838601378301015290565b90815180825260208080930193019160005b828110612486575050505090565b83516001600160a01b031685529381019392810192600101612478565b90815180825260208080930193019160005b8281106124c3575050505090565b8351855293810193928101926001016124b5565b90916124ee6123c193604084526040840190612466565b9160208184039101526124a3565b60fe548110156125335760fe6000527f54075df80ec1ae6ac9100e1fd0ebf3246c17f5c933137af392011f4c5f61513a0190600090565b634e487b7160e01b600052603260045260246000fd5b90600182811c92168015612579575b602083101461256357565b634e487b7160e01b600052602260045260246000fd5b91607f1691612558565b6001600160a01b03169081156125b057600052606560205260406000209060005260205260406000205490565b60405162461bcd60e51b815260206004820152602a60248201527f455243313135353a2061646472657373207a65726f206973206e6f742061207660448201526930b634b21037bbb732b960b11b6064820152608490fd5b9061261282612283565b61261f6040519182612262565b8281528092612630601f1991612283565b0190602036910137565b60001981146126495760010190565b634e487b7160e01b600052601160045260246000fd5b8051156125335760200190565b80518210156125335760209160051b010190565b1561268757565b60405162461bcd60e51b815260206004820152602e60248201527f455243313135353a2063616c6c6572206973206e6f7420746f6b656e206f776e60448201526d195c881bdc88185c1c1c9bdd995960921b6064820152608490fd5b156126ea57565b60405162461bcd60e51b815260206004820152602560248201527f455243313135353a207472616e7366657220746f20746865207a65726f206164604482015264647265737360d81b6064820152608490fd5b1561274457565b60405162461bcd60e51b815260206004820152602a60248201527f455243313135353a20696e73756666696369656e742062616c616e636520666f60448201526939103a3930b739b332b960b11b6064820152608490fd5b9190820180921161264957565b9081602091031261021757516001600160e01b0319811681036102175790565b60809060208152602860208201527f455243313135353a204552433131353552656365697665722072656a656374656040820152676420746f6b656e7360c01b60608201520190565b60009060033d1161281f57565b905060046000803e60005160e01c90565b600060443d106123c157604051600319913d83016004833e81516001600160401b03918282113d60248401111761288d57818401948551938411612895573d8501016020848701011161288d57506123c192910160200190612262565b949350505050565b50949350505050565b604051906128ab8261222c565b60018252602036818401376128bf8261265f565b5290565b156128ca57565b60405162461bcd60e51b815260206004820152602b60248201527f496e697469616c697a61626c653a20636f6e7472616374206973206e6f74206960448201526a6e697469616c697a696e6760a81b6064820152608490fd5b906040516129308161222c565b60018152602036818301376129506129488294612a7c565b50509161265f565b6001600160a01b0390911690526040519061296a8261222c565b600182526020368184013760016129808361265f565b52565b6001600160a01b03808216600081815260fd6020526040812080546001600160a01b03191684871617905560fe5494939291905b858110612a3a57506801000000000000000085101561080357612a018560017fe66daf9199a95c427f079c8703bf597401711dd49a4907a88c299650910c8a01970160fe556124fc565b815460039190911b93841b80199091169290931b92909216179055604080516001600160a01b03928316815292909116602083015290a1565b8183612a45836124fc565b90549060031b1c1614612a6057612a5b9061263a565b6129b7565b505050505050565b51906001600160a01b038216820361021757565b8060a01c60018060a01b03809216916024602060009285845260fd8252604084205416604051928380926328e12c4760e11b82528760048301525afa918215612b05578092612aca57505092565b9091506020823d8211612afd575b81612ae560209383612262565b81010312612afa5750612af790612a68565b92565b80fd5b3d9150612ad8565b604051903d90823e3d90fd5b5190811515820361021757565b60fe549060005b828110612b3757505050600090600090565b612b40816124fc565b9060018060a01b03809154600393841b1c1660005260209160fd8352604060248184816000205416815192838092638084c91d60e01b8252888c1660048301525afa948515612c0a576000928396612bcc575b505050612bab57505050612ba69061263a565b612b25565b92909350612bba9194506124fc565b9054911b1c169060a01b179060019190565b909291809650813d8311612c03575b612be58183612262565b81010312612afa5750612bf784612b11565b93015192388080612b93565b503d612bdb565b82513d6000823e3d90fd5b81601f8201121561021757805191612c2c83612283565b92612c3a6040519485612262565b808452602092838086019260051b820101928311610217578301905b828210612c64575050505090565b838091612c7084612a68565b815201910190612c56565b906020828203126102175781516001600160401b038111610217576123c19201612c15565b8181029291811591840414171561264957565b8115612cbd570490565b634e487b7160e01b600052601260045260246000fd5b8181039291600013801582851316918412161761264957565b15612cf357565b60405162461bcd60e51b81526020600482015260016024820152603160f81b6044820152606490fd5b9291909360018060a01b0360c95416331480811591826137ae575b612d4090612cec565b9061379a575b612d4f90612cec565b612d5884612a7c565b91908660005260fc60205260406000206001810154908161356d575b5050505050612d8284612a7c565b9093909291906001600160a01b0390612d9a9061265f565b51166001600160a01b0382160361354457612db48561265f565b51604051636eb1769f60e11b81523060048201526001600160a01b0386166024820152602081806044810103816001600160a01b0387165afa90811561094d57600091613512575b50600080611244612e41612e10868661279c565b60405163095ea7b360e01b60208201526001600160a01b038c16602482015260448101919091529182906064820190565b805190602001826001600160a01b0388165af1612e5c613828565b50156132aa575b505050612ec9612e728561265f565b516001600160a01b03948516600081815260fd6020908152604091829020549151630efe6a8b60e01b918101919091526024810183905260448101879052606481019390935290951690610e548160848101611244565b508460005260fc602052604060002092612ee28561265f565b5160018060a01b03881660005260038501602052612f06604060002091825461279c565b9055612f118561265f565b51612f216001860191825461279c565b9055600090815260fd6020526040808220549051633036004b60e21b81526004810194909452839060249082906001600160a01b03165afa91821561094d5760009261328d575b5060005b8251811015612fff576001600160a01b03612f87828561266c565b511690612fb1610d6b612f998861265f565b51846000526002880160205260406000205490612ca0565b9160018060a01b0389166000526004860160205260406000209060005260205260406000209182546000828201928312911290801582169115161761264957612ffa925561263a565b612f6c565b50949391505061300e8261265f565b51604051602081018181106001600160401b0382111761080357604052600081526001600160a01b0385161561323e576130478361289e565b506130518261289e565b50826000526065602052604060002060018060a01b038616600052602052604060002061307f83825461279c565b905560408051848152602081018490526001600160a01b0387169160009133917fc3d58168c5ae7397731d063d5bbf3d657854427343f4c083240f7aacaa2d0f6291a4843b613122575b505060607f4e3883c75cc9c752bb1db2e406a822e4a75067ae77ad9a0a4d179f2709b9e1f69161311e946130fc8561265f565b51604080519384526001600160a01b03909216602084015290820152a161265f565b5190565b6020613164916040518093819263f23a6e6160e01b9687845233600485015260006024850152886044850152606484015260a0608484015260a48301906123c4565b038160006001600160a01b038a165af16000918161321d575b506131e1575050600161318e612812565b6308c379a0146131ce575b6103ba5760607f4e3883c75cc9c752bb1db2e406a822e4a75067ae77ad9a0a4d179f2709b9e1f69161311e945b9450916130c9565b6131d6612830565b80611e9c5750613199565b6001600160e01b031916036104675760607f4e3883c75cc9c752bb1db2e406a822e4a75067ae77ad9a0a4d179f2709b9e1f69161311e946131c6565b61323791925060203d6020116104a8576104998183612262565b903861317d565b60405162461bcd60e51b815260206004820152602160248201527f455243313135353a206d696e7420746f20746865207a65726f206164647265736044820152607360f81b6064820152608490fd5b6132a39192503d806000833e61093f8183612262565b9038612f68565b8015612e6357604051636eb1769f60e11b81523060048201526001600160a01b038716602482015290602082806044810103816001600160a01b0388165afa91821561094d576000926134de575b508082106134875760405163095ea7b360e01b60208201526001600160a01b038816602482015291036044820152613346906133378160648101611244565b6001600160a01b0384166138f0565b80158015613406575b156133a25760405163095ea7b360e01b60208201526001600160a01b0386166024820152604481019190915261339a9161338c826064810161171e565b6001600160a01b03166138f0565b388080612e63565b60405162461bcd60e51b815260206004820152603660248201527f5361666545524332303a20617070726f76652066726f6d206e6f6e2d7a65726f60448201527520746f206e6f6e2d7a65726f20616c6c6f77616e636560501b6064820152608490fd5b50604051636eb1769f60e11b81523060048201526001600160a01b0386166024820152602081806044810103816001600160a01b0387165afa90811561094d57600091613455575b501561334f565b90506020813d60201161347f575b8161347060209383612262565b8101031261021757513861344e565b3d9150613463565b60405162461bcd60e51b815260206004820152602960248201527f5361666545524332303a2064656372656173656420616c6c6f77616e63652062604482015268656c6f77207a65726f60b81b6064820152608490fd5b9091506020813d60201161350a575b816134fa60209383612262565b81010312610217575190386132f8565b3d91506134ed565b90506020813d60201161353c575b8161352d60209383612262565b81010312610217575138612dfc565b3d9150613520565b60405162461bcd60e51b81526020600482015260016024820152601b60f91b6044820152606490fd5b6001600160a01b03808416600090815260fd6020526040808220549051633036004b60e21b815260048101899052979c969b979a9499939795928b916024918391165afa98891561094d5760009961377d575b506135cb8951612608565b9a60005b8a518110156136665760249060206001600160a01b036135ef838f61266c565b5116604051938480926370a0823160e01b82523060048301525afa801561094d578e9260009161362d575b506111a0826136289461266c565b6135cf565b9250506020823d60201161365e575b8161364960209383612262565b810103126102175790518d91906111a061361a565b3d915061363c565b506111f98261368494959697989a9d999c60018060a01b0316613a1b565b5060005b87518110156137695760249060206001600160a01b036136a8838c61266c565b5116604051938480926370a0823160e01b82523060048301525afa91821561094d57600092613733575b506136e461372e926112b2838a61266c565b6136ee828961266c565b526137008b6112df6112d5848b61266c565b6001600160a01b03613712838c61266c565b511660005260028901602052610da4604060002091825461279c565b613688565b91506020823d602011613761575b8161374e60209383612262565b81010312610217579051906136e46136d2565b3d9150613741565b509450945094915094503880808080612d74565b6137939199503d806000833e61093f8183612262565b97386135c0565b506097546001600160a01b03163314612d46565b506097546001600160a01b03163314612d37565b9190820391821161264957565b60405190606082018281106001600160401b038211176108035760405260278252660819985a5b195960ca1b6040837f416464726573733a206c6f772d6c6576656c2064656c65676174652063616c6c60208201520152565b3d15613853573d9061383982612404565b916138476040519384612262565b82523d6000602084013e565b606090565b9190823b15613880576000816123c19460208394519201905af461387a613828565b906138d4565b60405162461bcd60e51b815260206004820152602660248201527f416464726573733a2064656c65676174652063616c6c20746f206e6f6e2d636f6044820152651b9d1c9858dd60d21b6064820152608490fd5b909190156138e0575090565b815115611e9c5750805190602001fd5b6040516001600160a01b0391909116916139098261222c565b6020928383527f5361666545524332303a206c6f772d6c6576656c2063616c6c206661696c656484840152803b156139d657600082819282876139559796519301915af161387a613828565b80518061396157505050565b8183918101031261021757816139779101612b11565b1561397f5750565b6084906040519062461bcd60e51b82526004820152602a60248201527f5361666545524332303a204552433230206f7065726174696f6e20646964206e6044820152691bdd081cdd58d8d9595960b21b6064820152fd5b60405162461bcd60e51b815260048101859052601d60248201527f416464726573733a2063616c6c20746f206e6f6e2d636f6e74726163740000006044820152606490fd5b60408051636eb1769f60e11b8082523060048301526001600160a01b038581166024840152929460209493929091848416908683604481855afa928315613d2157600093613cf2575b50600a83019283811161264957885163095ea7b360e01b8982018181526001600160a01b038816602484015260448084019790975295825294601f19916000918291613ab1606482612262565b519082885af1613abf613828565b5015613ad2575b50505050505050505050565b8115613ac65789518381523060048201526001600160a01b03871660248201528981604481885afa908115613ce757600091613cba575b50828110613c64578a51808b018790526001600160a01b03881660248201529290036044830152889291613b4b91613b45908260648101610e9d565b886138f0565b88519081523060048201526001600160a01b038516602482015291829060449082905afa908115613c5957600091613c2c575b50613bc957855194850152166024830152600a604483015260448252608082018281106001600160401b0382111761080357613bba93526138f0565b38808080808080808080613ac6565b855162461bcd60e51b815260048101869052603660248201527f5361666545524332303a20617070726f76652066726f6d206e6f6e2d7a65726f60448201527520746f206e6f6e2d7a65726f20616c6c6f77616e636560501b6064820152608490fd5b908682813d8311613c52575b613c428183612262565b81010312612afa57505138613b7e565b503d613c38565b87513d6000823e3d90fd5b8a5162461bcd60e51b8152600481018b9052602960248201527f5361666545524332303a2064656372656173656420616c6c6f77616e63652062604482015268656c6f77207a65726f60b81b6064820152608490fd5b908a82813d8311613ce0575b613cd08183612262565b81010312612afa57505138613b09565b503d613cc6565b8b513d6000823e3d90fd5b90928782813d8311613d1a575b613d098183612262565b81010312612afa5750519138613a64565b503d613cff565b88513d6000823e3d90fd5b6097546001600160a01b03163303613d4057565b606460405162461bcd60e51b815260206004820152602060248201527f4f776e61626c653a2063616c6c6572206973206e6f7420746865206f776e65726044820152fd5b609780546001600160a01b039283166001600160a01b0319821681179092559091167f8be0079c531659141344cd1fd0a4f28419497f9722a3daafe3b4186f6b6457e0600080a356fea264697066735822122071e81a7cda6e108131b877ab3ec57a71d5e82744edfde79c6bc51886bd816a7164736f6c63430008110033",
  "devdoc": {
    "kind": "dev",
    "methods": {
      "balanceOf(address,uint256)": {
        "details": "See {IERC1155-balanceOf}. Requirements: - `account` cannot be the zero address."
      },
      "balanceOfBatch(address[],uint256[])": {
        "details": "See {IERC1155-balanceOfBatch}. Requirements: - `accounts` and `ids` must have the same length."
      },
      "currentOwner()": {
        "details": "Returns the address of the current owner."
      },
      "isApprovedForAll(address,address)": {
        "details": "See {IERC1155-isApprovedForAll}."
      },
      "renounceOwnership()": {
        "details": "Leaves the contract without owner. It will not be possible to call `onlyOwner` functions anymore. Can only be called by the current owner. NOTE: Renouncing ownership will leave the contract without an owner, thereby removing any functionality that is only available to the owner."
      },
      "safeBatchTransferFrom(address,address,uint256[],uint256[],bytes)": {
        "details": "See {IERC1155-safeBatchTransferFrom}."
      },
      "safeTransferFrom(address,address,uint256,uint256,bytes)": {
        "details": "See {IERC1155-safeTransferFrom}."
      },
      "setApprovalForAll(address,bool)": {
        "details": "See {IERC1155-setApprovalForAll}."
      },
      "supportsInterface(bytes4)": {
        "details": "See {IERC165-supportsInterface}."
      },
      "transferOwnership(address)": {
        "details": "Transfers ownership of the contract to a new account (`newOwner`). Can only be called by the current owner."
      },
      "uri(uint256)": {
        "details": "See {IERC1155MetadataURI-uri}. This implementation returns the same URI for *all* token types. It relies on the token type ID substitution mechanism https://eips.ethereum.org/EIPS/eip-1155#metadata[defined in the EIP]. Clients calling this function must replace the `\\{id\\}` substring with the actual token type ID."
      }
    },
    "version": 1
  },
  "userdoc": {
    "kind": "user",
    "methods": {},
    "version": 1
  },
  "storageLayout": {
    "storage": [
      {
        "astId": 6,
        "contract": "contracts/Banks/MasterChefBank.sol:MasterChefBank",
        "label": "_initialized",
        "offset": 0,
        "slot": "0",
        "type": "t_uint8"
      },
      {
        "astId": 9,
        "contract": "contracts/Banks/MasterChefBank.sol:MasterChefBank",
        "label": "_initializing",
        "offset": 1,
        "slot": "0",
        "type": "t_bool"
      },
      {
        "astId": 1916,
        "contract": "contracts/Banks/MasterChefBank.sol:MasterChefBank",
        "label": "__gap",
        "offset": 0,
        "slot": "1",
        "type": "t_array(t_uint256)50_storage"
      },
      {
        "astId": 1960,
        "contract": "contracts/Banks/MasterChefBank.sol:MasterChefBank",
        "label": "__gap",
        "offset": 0,
        "slot": "51",
        "type": "t_array(t_uint256)50_storage"
      },
      {
        "astId": 197,
        "contract": "contracts/Banks/MasterChefBank.sol:MasterChefBank",
        "label": "_balances",
        "offset": 0,
        "slot": "101",
        "type": "t_mapping(t_uint256,t_mapping(t_address,t_uint256))"
      },
      {
        "astId": 203,
        "contract": "contracts/Banks/MasterChefBank.sol:MasterChefBank",
        "label": "_operatorApprovals",
        "offset": 0,
        "slot": "102",
        "type": "t_mapping(t_address,t_mapping(t_address,t_bool))"
      },
      {
        "astId": 205,
        "contract": "contracts/Banks/MasterChefBank.sol:MasterChefBank",
        "label": "_uri",
        "offset": 0,
        "slot": "103",
        "type": "t_string_storage"
      },
      {
        "astId": 1412,
        "contract": "contracts/Banks/MasterChefBank.sol:MasterChefBank",
        "label": "__gap",
        "offset": 0,
        "slot": "104",
        "type": "t_array(t_uint256)47_storage"
      },
      {
        "astId": 7371,
        "contract": "contracts/Banks/MasterChefBank.sol:MasterChefBank",
        "label": "_owner",
        "offset": 0,
        "slot": "151",
        "type": "t_address"
      },
      {
        "astId": 7491,
        "contract": "contracts/Banks/MasterChefBank.sol:MasterChefBank",
        "label": "__gap",
        "offset": 0,
        "slot": "152",
        "type": "t_array(t_uint256)49_storage"
      },
      {
        "astId": 3452,
        "contract": "contracts/Banks/MasterChefBank.sol:MasterChefBank",
        "label": "positionsManager",
        "offset": 0,
        "slot": "201",
        "type": "t_address"
      },
      {
        "astId": 3456,
        "contract": "contracts/Banks/MasterChefBank.sol:MasterChefBank",
        "label": "__gap",
        "offset": 0,
        "slot": "202",
        "type": "t_array(t_uint256)49_storage"
      },
      {
        "astId": 3753,
        "contract": "contracts/Banks/MasterChefBank.sol:MasterChefBank",
        "label": "PRECISION",
        "offset": 0,
        "slot": "251",
        "type": "t_uint256"
      },
      {
        "astId": 3758,
        "contract": "contracts/Banks/MasterChefBank.sol:MasterChefBank",
        "label": "poolInfo",
        "offset": 0,
        "slot": "252",
        "type": "t_mapping(t_uint256,t_struct(PoolInfo)3751_storage)"
      },
      {
        "astId": 3762,
        "contract": "contracts/Banks/MasterChefBank.sol:MasterChefBank",
        "label": "masterChefWrappers",
        "offset": 0,
        "slot": "253",
        "type": "t_mapping(t_address,t_address)"
      },
      {
        "astId": 3765,
        "contract": "contracts/Banks/MasterChefBank.sol:MasterChefBank",
        "label": "supportedMasterChefs",
        "offset": 0,
        "slot": "254",
        "type": "t_array(t_address)dyn_storage"
      },
      {
        "astId": 3769,
        "contract": "contracts/Banks/MasterChefBank.sol:MasterChefBank",
        "label": "balances",
        "offset": 0,
        "slot": "255",
        "type": "t_mapping(t_address,t_uint256)"
      }
    ],
    "types": {
      "t_address": {
        "encoding": "inplace",
        "label": "address",
        "numberOfBytes": "20"
      },
      "t_array(t_address)dyn_storage": {
        "base": "t_address",
        "encoding": "dynamic_array",
        "label": "address[]",
        "numberOfBytes": "32"
      },
      "t_array(t_uint256)47_storage": {
        "base": "t_uint256",
        "encoding": "inplace",
        "label": "uint256[47]",
        "numberOfBytes": "1504"
      },
      "t_array(t_uint256)49_storage": {
        "base": "t_uint256",
        "encoding": "inplace",
        "label": "uint256[49]",
        "numberOfBytes": "1568"
      },
      "t_array(t_uint256)50_storage": {
        "base": "t_uint256",
        "encoding": "inplace",
        "label": "uint256[50]",
        "numberOfBytes": "1600"
      },
      "t_bool": {
        "encoding": "inplace",
        "label": "bool",
        "numberOfBytes": "1"
      },
      "t_int256": {
        "encoding": "inplace",
        "label": "int256",
        "numberOfBytes": "32"
      },
      "t_mapping(t_address,t_address)": {
        "encoding": "mapping",
        "key": "t_address",
        "label": "mapping(address => address)",
        "numberOfBytes": "32",
        "value": "t_address"
      },
      "t_mapping(t_address,t_bool)": {
        "encoding": "mapping",
        "key": "t_address",
        "label": "mapping(address => bool)",
        "numberOfBytes": "32",
        "value": "t_bool"
      },
      "t_mapping(t_address,t_int256)": {
        "encoding": "mapping",
        "key": "t_address",
        "label": "mapping(address => int256)",
        "numberOfBytes": "32",
        "value": "t_int256"
      },
      "t_mapping(t_address,t_mapping(t_address,t_bool))": {
        "encoding": "mapping",
        "key": "t_address",
        "label": "mapping(address => mapping(address => bool))",
        "numberOfBytes": "32",
        "value": "t_mapping(t_address,t_bool)"
      },
      "t_mapping(t_address,t_mapping(t_address,t_int256))": {
        "encoding": "mapping",
        "key": "t_address",
        "label": "mapping(address => mapping(address => int256))",
        "numberOfBytes": "32",
        "value": "t_mapping(t_address,t_int256)"
      },
      "t_mapping(t_address,t_uint256)": {
        "encoding": "mapping",
        "key": "t_address",
        "label": "mapping(address => uint256)",
        "numberOfBytes": "32",
        "value": "t_uint256"
      },
      "t_mapping(t_uint256,t_mapping(t_address,t_uint256))": {
        "encoding": "mapping",
        "key": "t_uint256",
        "label": "mapping(uint256 => mapping(address => uint256))",
        "numberOfBytes": "32",
        "value": "t_mapping(t_address,t_uint256)"
      },
      "t_mapping(t_uint256,t_struct(PoolInfo)3751_storage)": {
        "encoding": "mapping",
        "key": "t_uint256",
        "label": "mapping(uint256 => struct MasterChefBank.PoolInfo)",
        "numberOfBytes": "32",
        "value": "t_struct(PoolInfo)3751_storage"
      },
      "t_string_storage": {
        "encoding": "bytes",
        "label": "string",
        "numberOfBytes": "32"
      },
      "t_struct(PoolInfo)3751_storage": {
        "encoding": "inplace",
        "label": "struct MasterChefBank.PoolInfo",
        "members": [
          {
            "astId": 3734,
            "contract": "contracts/Banks/MasterChefBank.sol:MasterChefBank",
            "label": "lpToken",
            "offset": 0,
            "slot": "0",
            "type": "t_address"
          },
          {
            "astId": 3736,
            "contract": "contracts/Banks/MasterChefBank.sol:MasterChefBank",
            "label": "lpSupply",
            "offset": 0,
            "slot": "1",
            "type": "t_uint256"
          },
          {
            "astId": 3740,
            "contract": "contracts/Banks/MasterChefBank.sol:MasterChefBank",
            "label": "rewardAllocationsPerShare",
            "offset": 0,
            "slot": "2",
            "type": "t_mapping(t_address,t_uint256)"
          },
          {
            "astId": 3744,
            "contract": "contracts/Banks/MasterChefBank.sol:MasterChefBank",
            "label": "userShares",
            "offset": 0,
            "slot": "3",
            "type": "t_mapping(t_address,t_uint256)"
          },
          {
            "astId": 3750,
            "contract": "contracts/Banks/MasterChefBank.sol:MasterChefBank",
            "label": "rewardDebt",
            "offset": 0,
            "slot": "4",
            "type": "t_mapping(t_address,t_mapping(t_address,t_int256))"
          }
        ],
        "numberOfBytes": "160"
      },
      "t_uint256": {
        "encoding": "inplace",
        "label": "uint256",
        "numberOfBytes": "32"
      },
      "t_uint8": {
        "encoding": "inplace",
        "label": "uint8",
        "numberOfBytes": "1"
      }
    }
  }
}