{
  "address": "0xAb6D08e413D7DeF950BF5daeaA9A8159749b77F4",
  "abi": [
    {
      "inputs": [
        {
          "internalType": "address",
          "name": "_masterChef",
          "type": "address"
        },
        {
          "internalType": "address",
          "name": "_baseReward",
          "type": "address"
        },
        {
          "internalType": "string",
          "name": "_pendingRewardGetter",
          "type": "string"
        }
      ],
      "stateMutability": "nonpayable",
      "type": "constructor"
    },
    {
      "anonymous": false,
      "inputs": [
        {
          "indexed": false,
          "internalType": "address",
          "name": "masterChef",
          "type": "address"
        },
        {
          "indexed": false,
          "internalType": "address",
          "name": "lpToken",
          "type": "address"
        },
        {
          "indexed": false,
          "internalType": "uint256",
          "name": "poolId",
          "type": "uint256"
        }
      ],
      "name": "LPTokenAdded",
      "type": "event"
    },
    {
      "anonymous": false,
      "inputs": [
        {
          "indexed": true,
          "internalType": "address",
          "name": "previousOwner",
          "type": "address"
        },
        {
          "indexed": true,
          "internalType": "address",
          "name": "newOwner",
          "type": "address"
        }
      ],
      "name": "OwnershipTransferred",
      "type": "event"
    },
    {
      "inputs": [],
      "name": "baseReward",
      "outputs": [
        {
          "internalType": "address",
          "name": "",
          "type": "address"
        }
      ],
      "stateMutability": "view",
      "type": "function"
    },
    {
      "inputs": [
        {
          "internalType": "address",
          "name": "masterChef",
          "type": "address"
        },
        {
          "internalType": "uint256",
          "name": "pid",
          "type": "uint256"
        },
        {
          "internalType": "uint256",
          "name": "amount",
          "type": "uint256"
        }
      ],
      "name": "deposit",
      "outputs": [],
      "stateMutability": "nonpayable",
      "type": "function"
    },
    {
      "inputs": [
        {
          "internalType": "address",
          "name": "lpToken",
          "type": "address"
        }
      ],
      "name": "getIdFromLpToken",
      "outputs": [
        {
          "internalType": "bool",
          "name": "",
          "type": "bool"
        },
        {
          "internalType": "uint256",
          "name": "",
          "type": "uint256"
        }
      ],
      "stateMutability": "view",
      "type": "function"
    },
    {
      "inputs": [
        {
          "internalType": "uint256",
          "name": "pid",
          "type": "uint256"
        }
      ],
      "name": "getLpToken",
      "outputs": [
        {
          "internalType": "address",
          "name": "",
          "type": "address"
        }
      ],
      "stateMutability": "view",
      "type": "function"
    },
    {
      "inputs": [
        {
          "internalType": "uint256",
          "name": "pid",
          "type": "uint256"
        }
      ],
      "name": "getPendingRewards",
      "outputs": [
        {
          "internalType": "address[]",
          "name": "rewards",
          "type": "address[]"
        },
        {
          "internalType": "uint256[]",
          "name": "amounts",
          "type": "uint256[]"
        }
      ],
      "stateMutability": "view",
      "type": "function"
    },
    {
      "inputs": [
        {
          "internalType": "uint256",
          "name": "pid",
          "type": "uint256"
        }
      ],
      "name": "getRewards",
      "outputs": [
        {
          "internalType": "address[]",
          "name": "",
          "type": "address[]"
        }
      ],
      "stateMutability": "view",
      "type": "function"
    },
    {
      "inputs": [
        {
          "internalType": "address",
          "name": "masterChef",
          "type": "address"
        },
        {
          "internalType": "uint256",
          "name": "pid",
          "type": "uint256"
        }
      ],
      "name": "harvest",
      "outputs": [],
      "stateMutability": "nonpayable",
      "type": "function"
    },
    {
      "inputs": [],
      "name": "initialize",
      "outputs": [],
      "stateMutability": "nonpayable",
      "type": "function"
    },
    {
      "inputs": [],
      "name": "masterChef",
      "outputs": [
        {
          "internalType": "address",
          "name": "",
          "type": "address"
        }
      ],
      "stateMutability": "view",
      "type": "function"
    },
    {
      "inputs": [],
      "name": "owner",
      "outputs": [
        {
          "internalType": "address",
          "name": "",
          "type": "address"
        }
      ],
      "stateMutability": "view",
      "type": "function"
    },
    {
      "inputs": [],
      "name": "pendingRewardGetter",
      "outputs": [
        {
          "internalType": "string",
          "name": "",
          "type": "string"
        }
      ],
      "stateMutability": "view",
      "type": "function"
    },
    {
      "inputs": [],
      "name": "renounceOwnership",
      "outputs": [],
      "stateMutability": "nonpayable",
      "type": "function"
    },
    {
      "inputs": [
        {
          "internalType": "uint256",
          "name": "pid",
          "type": "uint256"
        }
      ],
      "name": "setSupported",
      "outputs": [],
      "stateMutability": "nonpayable",
      "type": "function"
    },
    {
      "inputs": [
        {
          "internalType": "address",
          "name": "",
          "type": "address"
        }
      ],
      "name": "supportedLpIndices",
      "outputs": [
        {
          "internalType": "uint256",
          "name": "",
          "type": "uint256"
        }
      ],
      "stateMutability": "view",
      "type": "function"
    },
    {
      "inputs": [
        {
          "internalType": "address",
          "name": "",
          "type": "address"
        }
      ],
      "name": "supportedLps",
      "outputs": [
        {
          "internalType": "bool",
          "name": "",
          "type": "bool"
        }
      ],
      "stateMutability": "view",
      "type": "function"
    },
    {
      "inputs": [
        {
          "internalType": "address",
          "name": "newOwner",
          "type": "address"
        }
      ],
      "name": "transferOwnership",
      "outputs": [],
      "stateMutability": "nonpayable",
      "type": "function"
    },
    {
      "inputs": [
        {
          "internalType": "address",
          "name": "masterChef",
          "type": "address"
        },
        {
          "internalType": "uint256",
          "name": "pid",
          "type": "uint256"
        },
        {
          "internalType": "uint256",
          "name": "amount",
          "type": "uint256"
        }
      ],
      "name": "withdraw",
      "outputs": [],
      "stateMutability": "nonpayable",
      "type": "function"
    }
  ],
  "transactionHash": "0x22e449b9794ac5e1076c385e19532de2c528ac23646a369e1bc8110490c2921d",
  "args": [
    "0xa5f8C5Dbd5F286960b9d90548680aE5ebFf07652",
    "0x0E09FaBB73Bd3Ade0a17ECC321fD13a19e81cE82",
    "pendingCake(uint256,address)"
  ],
  "numDeployments": 1,
  "solcInputHash": "07398ac950348a5c76dc7d585321c9e8",
  "bytecode": "0x6080604081815234620003c757620011818038038091620000218286620003e2565b84398201606083820312620003c7576200003b8362000406565b9260206200004b81830162000406565b8483015190926001600160401b039190828211620003c7570195601f858189011215620003c7578751838111620003cc57875198601f1997620000958385018a1688018c620003e2565b828b52868383010111620003c757859060005b838110620003b25750506000918a01018190528054336001600160a01b0319808316821784556001600160a01b03969390928716907f8be0079c531659141344cd1fd0a4f28419497f9722a3daafe3b4186f6b6457e09080a384600394168185541617845584600497169087541617865588519081116200039d576005918254976001988981811c9116801562000392575b888210146200037d5782811162000334575b5086918311600114620002ce575081908798999a600092620002c2575b505060001982851b1c191690881b1790555b828282541688519687809263040f1f6d60e11b82525afa948515620002b75760009562000282575b5060005b858110620001be578751610d6590816200041c8239f35b602484848454168a51928380926378ed5d1f60e01b8252868b8301525afa80156200027757849160009162000235575b501660005260028452808860002055868452876000208760ff19825416179055600019811462000220578601620001a7565b601185634e487b7160e01b6000525260246000fd5b91508582813d83116200026f575b6200024f8183620003e2565b810103126200026c575062000265849162000406565b38620001ee565b80fd5b503d62000243565b89513d6000823e3d90fd5b90948382813d8311620002af575b6200029c8183620003e2565b810103126200026c5750519338620001a3565b503d62000290565b87513d6000823e3d90fd5b01519050388062000169565b82169983600052866000209a60005b8181106200031e575091899a9b91848a9b95941062000305575b505050811b0190556200017b565b015160001983871b60f8161c19169055388080620002f7565b838301518d559b8a019b928801928801620002dd565b846000528760002083808601871c8201928a871062000373575b01861c01908a905b828110620003665750506200014c565b60008155018a9062000356565b925081926200034e565b602289634e487b7160e01b6000525260246000fd5b90607f16906200013a565b604186634e487b7160e01b6000525260246000fd5b818101830151818d01840152879201620000a8565b600080fd5b634e487b7160e01b600052604160045260246000fd5b601f909101601f19168101906001600160401b03821190821017620003cc57604052565b51906001600160a01b0382168203620003c75756fe6080604081815260048036101561001557600080fd5b600092833560e01c908163018ee9b71461097e57508381630efe6a8b1461092b575080632222a24c1461090b57806333475030146108d357806351c2588e146108a2578063575a86b21461087957806366500f801461083b578063715018a6146107e157806376ad03bc146107ba5780638084c91d146107885780638129fc1c146106d45780638da5cb5b146106a857838163b5c5f6721461063457508063c0d8012c146105df578063c1e9b9fb146104d8578063f2fde38b1461040c5763f9f87c18146100e257600080fd5b3461040857602090816003193601126104045760018060a01b03918260035416948451600096600554600198818a1c8a83169283156103fa575b87821084146103e7578186528786019386939291899082156103ca575050600114610364575b506101679291610153910385610af8565b835190206001600160e01b03191692610ab2565b86519084820192835260249086358284015233604484015260448352608083019367ffffffffffffffff93808610858711176103505760e081018681108682111761033c578b52602586527f416464726573733a206c6f772d6c6576656c207374617469632063616c6c206660a082015264185a5b195960da1b60c0820152823b156102ef575186928392905afa903d156102e0573d9283116102cd57509061022e929188519161022187601f19601f8401160184610af8565b82523d858784013e610c68565b82818051810103126102c85792828793879501519585519261024f84610adc565b858452823681860137541661026383610bbb565b528061029786519361027485610adc565b8685528285019883368b3761028886610bbb565b52875197808952880190610a75565b928684038288015251928381520195925b8281106102b55785870386f35b83518752958101959281019284016102a8565b600080fd5b634e487b7160e01b600090815260418852fd5b5061022e929150606090610c68565b608489858a8e519262461bcd60e51b8452830152808201527f416464726573733a207374617469632063616c6c20746f206e6f6e2d636f6e746044820152631c9858dd60e21b6064820152fd5b8460418b634e487b7160e01b600052526000fd5b8360418a634e487b7160e01b600052526000fd5b92915050600560005283867f036b6384b5eca791c62761152d0c79bb0604c104a5fb6f4eb0703f3154bb3db0938c6000955b8287106103b0575093949293505090820101610167610142565b8054898801850152929095019487935089928e9101610396565b60ff1916865291151560051b840190910191506101679050610142565b634e487b7160e01b835260228952602483fd5b90607f169061011c565b8380fd5b8280fd5b503461040857602036600319011261040857610426610a35565b9061042f610b63565b6001600160a01b03918216928315610486575050600054826bffffffffffffffffffffffff60a01b821617600055167f8be0079c531659141344cd1fd0a4f28419497f9722a3daafe3b4186f6b6457e0600080a380f35b906020608492519162461bcd60e51b8352820152602660248201527f4f776e61626c653a206e6577206f776e657220697320746865207a65726f206160448201526564647265737360d01b6064820152fd5b5091346105dc57806003193601126105dc5750805190600092600554600181811c9181811680156105d2575b60209485851082146105bf575083875290811561059f5750600114610544575b50505061053682610540940383610af8565b5191829182610b1a565b0390f35b600560009081529295507f036b6384b5eca791c62761152d0c79bb0604c104a5fb6f4eb0703f3154bb3db05b82841061058c5750505082610540946105369282010194610524565b8054868501880152928601928101610570565b60ff1916868501525050151560051b830101925061053682610540610524565b634e487b7160e01b895260229052602488fd5b92607f1692610504565b80fd5b50903461040857602036600319011261040857610540925080519161060383610adc565b6001835260203681850137546001600160a01b031661062183610bbb565b5251918291602083526020830190610a75565b929050346106a45761064536610a4b565b93916001600160a01b0316803b156106a05785928360449286519788958694630441a3e760e41b865285015260248401525af190811561069757506106875750f35b61069090610ab2565b6105dc5780f35b513d84823e3d90fd5b8580fd5b5050fd5b5050346106d057816003193601126106d057905490516001600160a01b039091168152602090f35b5080fd5b508290346106d057816003193601126106d057600354835163040f1f6d60e11b8152906020908290849082906001600160a01b03165afa93841561069757508293610755575b50815b838110610728578280f35b61073181610bde565b60001981146107425760010161071d565b634e487b7160e01b835260118252602483fd5b9092506020813d8211610780575b8161077060209383610af8565b810103126102c85751918361071a565b3d9150610763565b8284346105dc5760203660031901126105dc57506107ac6107a7610a35565b610c15565b825191151582526020820152f35b50346104085782600319360112610408575490516001600160a01b03909116815260209150f35b83346105dc57806003193601126105dc576107fa610b63565b600080546001600160a01b0319811682556001600160a01b03167f8be0079c531659141344cd1fd0a4f28419497f9722a3daafe3b4186f6b6457e08280a380f35b5050346106d05760203660031901126106d05760209160ff9082906001600160a01b03610866610a35565b1681526001855220541690519015158152f35b5050346106d057816003193601126106d05760035490516001600160a01b039091168152602090f35b5091346105dc5760203660031901126105dc57506108c260209235610ca4565b90516001600160a01b039091168152f35b5050346106d05760203660031901126106d05760209181906001600160a01b036108fb610a35565b1681526002845220549051908152f35b8382346106d05760203660031901126106d0576109289035610bde565b80f35b929050346106a45761093c36610a4b565b93916001600160a01b0316803b156106a05785928360449286519788958694631c57762b60e31b865285015260248401525af190811561069757506106875750f35b84838534610408578060031936011261040857610999610a35565b6001600160a01b031691602435833b15610a1357630441a3e760e41b8652818601819052600a6024870152848660448183885af18015610a2b57610a17575b849550833b15610a1357604485928385519687948593631c57762b60e31b8552840152600a60248401525af190811561069757506106875750f35b8480fd5b939094610a2390610ab2565b9284906109d8565b83513d87823e3d90fd5b600435906001600160a01b03821682036102c857565b60609060031901126102c8576004356001600160a01b03811681036102c857906024359060443590565b90815180825260208080930193019160005b828110610a95575050505090565b83516001600160a01b031685529381019392810192600101610a87565b67ffffffffffffffff8111610ac657604052565b634e487b7160e01b600052604160045260246000fd5b6040810190811067ffffffffffffffff821117610ac657604052565b90601f8019910116810190811067ffffffffffffffff821117610ac657604052565b6020808252825181830181905290939260005b828110610b4f57505060409293506000838284010152601f8019910116010190565b818101860151848201604001528501610b2d565b6000546001600160a01b03163303610b7757565b606460405162461bcd60e51b815260206004820152602060248201527f4f776e61626c653a2063616c6c6572206973206e6f7420746865206f776e65726044820152fd5b805115610bc85760200190565b634e487b7160e01b600052603260045260246000fd5b6001600160a01b03610bef82610ca4565b16600052600260205260406000205560016020526040600020600160ff19825416179055565b6001600160a01b0390811660008181526001602052604090205460ff1615918215610c5a575b505015610c4a57600090600090565b6002602052604060002054600191565b600454161490503880610c3b565b90919015610c74575090565b815115610c845750805190602001fd5b60405162461bcd60e51b8152908190610ca09060048301610b1a565b0390fd5b6003546040516378ed5d1f60e01b815260048101929092526001600160a01b0391906020908290602490829086165afa908115610d2357600091610ce9575b50905090565b6020813d8211610d1b575b81610d0160209383610af8565b810103126106d0575191821682036105dc57508038610ce3565b3d9150610cf4565b6040513d6000823e3d90fdfea2646970667358221220311c9f3451268dc04c04025acd6d439ceb38dbc8e4cae7cf3245b88d9f8c1cf564736f6c63430008110033",
  "devdoc": {
    "kind": "dev",
    "methods": {
      "owner()": {
        "details": "Returns the address of the current owner."
      },
      "renounceOwnership()": {
        "details": "Leaves the contract without owner. It will not be possible to call `onlyOwner` functions anymore. Can only be called by the current owner. NOTE: Renouncing ownership will leave the contract without an owner, thereby removing any functionality that is only available to the owner."
      },
      "transferOwnership(address)": {
        "details": "Transfers ownership of the contract to a new account (`newOwner`). Can only be called by the current owner."
      }
    },
    "version": 1
  },
  "userdoc": {
    "kind": "user",
    "methods": {},
    "version": 1
  },
  "storageLayout": {
    "storage": [
      {
        "astId": 1981,
        "contract": "contracts/Banks/MasterChefWrappers.sol:PancakeSwapMasterChefV2Wrapper",
        "label": "_owner",
        "offset": 0,
        "slot": "0",
        "type": "t_address"
      },
      {
        "astId": 4994,
        "contract": "contracts/Banks/MasterChefWrappers.sol:PancakeSwapMasterChefV2Wrapper",
        "label": "supportedLps",
        "offset": 0,
        "slot": "1",
        "type": "t_mapping(t_address,t_bool)"
      },
      {
        "astId": 4998,
        "contract": "contracts/Banks/MasterChefWrappers.sol:PancakeSwapMasterChefV2Wrapper",
        "label": "supportedLpIndices",
        "offset": 0,
        "slot": "2",
        "type": "t_mapping(t_address,t_uint256)"
      },
      {
        "astId": 5000,
        "contract": "contracts/Banks/MasterChefWrappers.sol:PancakeSwapMasterChefV2Wrapper",
        "label": "masterChef",
        "offset": 0,
        "slot": "3",
        "type": "t_address"
      },
      {
        "astId": 5002,
        "contract": "contracts/Banks/MasterChefWrappers.sol:PancakeSwapMasterChefV2Wrapper",
        "label": "baseReward",
        "offset": 0,
        "slot": "4",
        "type": "t_address"
      },
      {
        "astId": 5004,
        "contract": "contracts/Banks/MasterChefWrappers.sol:PancakeSwapMasterChefV2Wrapper",
        "label": "pendingRewardGetter",
        "offset": 0,
        "slot": "5",
        "type": "t_string_storage"
      }
    ],
    "types": {
      "t_address": {
        "encoding": "inplace",
        "label": "address",
        "numberOfBytes": "20"
      },
      "t_bool": {
        "encoding": "inplace",
        "label": "bool",
        "numberOfBytes": "1"
      },
      "t_mapping(t_address,t_bool)": {
        "encoding": "mapping",
        "key": "t_address",
        "label": "mapping(address => bool)",
        "numberOfBytes": "32",
        "value": "t_bool"
      },
      "t_mapping(t_address,t_uint256)": {
        "encoding": "mapping",
        "key": "t_address",
        "label": "mapping(address => uint256)",
        "numberOfBytes": "32",
        "value": "t_uint256"
      },
      "t_string_storage": {
        "encoding": "bytes",
        "label": "string",
        "numberOfBytes": "32"
      },
      "t_uint256": {
        "encoding": "inplace",
        "label": "uint256",
        "numberOfBytes": "32"
      }
    }
  }
}